{
  "_format": "hh3-artifact-1",
  "contractName": "Swap2p",
  "sourceName": "contracts/Swap2p.sol",
  "abi": [
    {
      "inputs": [
        {
          "internalType": "address",
          "name": "author_",
          "type": "address"
        }
      ],
      "stateMutability": "nonpayable",
      "type": "constructor"
    },
    {
      "inputs": [],
      "name": "AmountOutOfBounds",
      "type": "error"
    },
    {
      "inputs": [],
      "name": "AuthorZero",
      "type": "error"
    },
    {
      "inputs": [],
      "name": "DealNotFound",
      "type": "error"
    },
    {
      "inputs": [],
      "name": "FeeOnTransferTokenNotSupported",
      "type": "error"
    },
    {
      "inputs": [],
      "name": "InsufficientDeposit",
      "type": "error"
    },
    {
      "inputs": [],
      "name": "MakerOffline",
      "type": "error"
    },
    {
      "inputs": [],
      "name": "NicknameTaken",
      "type": "error"
    },
    {
      "inputs": [],
      "name": "NotFiatPayer",
      "type": "error"
    },
    {
      "inputs": [],
      "name": "OfferNotFound",
      "type": "error"
    },
    {
      "inputs": [],
      "name": "ReentrancyGuardReentrantCall",
      "type": "error"
    },
    {
      "inputs": [
        {
          "internalType": "address",
          "name": "token",
          "type": "address"
        }
      ],
      "name": "SafeERC20FailedOperation",
      "type": "error"
    },
    {
      "inputs": [],
      "name": "WorsePrice",
      "type": "error"
    },
    {
      "inputs": [],
      "name": "WrongCaller",
      "type": "error"
    },
    {
      "inputs": [],
      "name": "WrongSide",
      "type": "error"
    },
    {
      "inputs": [],
      "name": "WrongState",
      "type": "error"
    },
    {
      "anonymous": false,
      "inputs": [
        {
          "indexed": true,
          "internalType": "bytes32",
          "name": "id",
          "type": "bytes32"
        },
        {
          "indexed": false,
          "internalType": "uint32",
          "name": "index",
          "type": "uint32"
        }
      ],
      "name": "Chat",
      "type": "event"
    },
    {
      "anonymous": false,
      "inputs": [
        {
          "indexed": true,
          "internalType": "bytes32",
          "name": "id",
          "type": "bytes32"
        }
      ],
      "name": "DealAccepted",
      "type": "event"
    },
    {
      "anonymous": false,
      "inputs": [
        {
          "indexed": true,
          "internalType": "bytes32",
          "name": "id",
          "type": "bytes32"
        }
      ],
      "name": "DealCanceled",
      "type": "event"
    },
    {
      "anonymous": false,
      "inputs": [
        {
          "indexed": true,
          "internalType": "bytes32",
          "name": "id",
          "type": "bytes32"
        }
      ],
      "name": "DealDeleted",
      "type": "event"
    },
    {
      "anonymous": false,
      "inputs": [
        {
          "indexed": true,
          "internalType": "bytes32",
          "name": "id",
          "type": "bytes32"
        }
      ],
      "name": "DealPaid",
      "type": "event"
    },
    {
      "anonymous": false,
      "inputs": [
        {
          "indexed": true,
          "internalType": "bytes32",
          "name": "id",
          "type": "bytes32"
        }
      ],
      "name": "DealReleased",
      "type": "event"
    },
    {
      "anonymous": false,
      "inputs": [
        {
          "indexed": true,
          "internalType": "bytes32",
          "name": "id",
          "type": "bytes32"
        }
      ],
      "name": "DealRequested",
      "type": "event"
    },
    {
      "anonymous": false,
      "inputs": [
        {
          "indexed": true,
          "internalType": "address",
          "name": "maker",
          "type": "address"
        },
        {
          "indexed": false,
          "internalType": "bool",
          "name": "online",
          "type": "bool"
        }
      ],
      "name": "MakerOnline",
      "type": "event"
    },
    {
      "anonymous": false,
      "inputs": [
        {
          "indexed": true,
          "internalType": "bytes32",
          "name": "id",
          "type": "bytes32"
        }
      ],
      "name": "OfferDeleted",
      "type": "event"
    },
    {
      "anonymous": false,
      "inputs": [
        {
          "indexed": true,
          "internalType": "bytes32",
          "name": "id",
          "type": "bytes32"
        }
      ],
      "name": "OfferUpsert",
      "type": "event"
    },
    {
      "inputs": [
        {
          "internalType": "address",
          "name": "",
          "type": "address"
        }
      ],
      "name": "affiliates",
      "outputs": [
        {
          "internalType": "address",
          "name": "",
          "type": "address"
        }
      ],
      "stateMutability": "view",
      "type": "function"
    },
    {
      "inputs": [
        {
          "internalType": "bytes32",
          "name": "id",
          "type": "bytes32"
        },
        {
          "internalType": "bytes",
          "name": "reason",
          "type": "bytes"
        }
      ],
      "name": "cancelDeal",
      "outputs": [],
      "stateMutability": "nonpayable",
      "type": "function"
    },
    {
      "inputs": [
        {
          "internalType": "bytes32",
          "name": "id",
          "type": "bytes32"
        },
        {
          "internalType": "bytes",
          "name": "reason",
          "type": "bytes"
        }
      ],
      "name": "cancelRequest",
      "outputs": [],
      "stateMutability": "nonpayable",
      "type": "function"
    },
    {
      "inputs": [
        {
          "internalType": "bytes32[]",
          "name": "ids",
          "type": "bytes32[]"
        },
        {
          "internalType": "uint256",
          "name": "minAgeHours",
          "type": "uint256"
        }
      ],
      "name": "cleanupDeals",
      "outputs": [],
      "stateMutability": "nonpayable",
      "type": "function"
    },
    {
      "inputs": [
        {
          "internalType": "bytes32",
          "name": "",
          "type": "bytes32"
        }
      ],
      "name": "deals",
      "outputs": [
        {
          "internalType": "uint128",
          "name": "amount",
          "type": "uint128"
        },
        {
          "internalType": "uint96",
          "name": "price",
          "type": "uint96"
        },
        {
          "internalType": "Swap2p.FiatCode",
          "name": "fiat",
          "type": "uint24"
        },
        {
          "internalType": "enum Swap2p.DealState",
          "name": "state",
          "type": "uint8"
        },
        {
          "internalType": "enum Swap2p.Side",
          "name": "side",
          "type": "uint8"
        },
        {
          "internalType": "uint40",
          "name": "tsRequest",
          "type": "uint40"
        },
        {
          "internalType": "uint40",
          "name": "tsLast",
          "type": "uint40"
        },
        {
          "internalType": "address",
          "name": "maker",
          "type": "address"
        },
        {
          "internalType": "address",
          "name": "taker",
          "type": "address"
        },
        {
          "internalType": "address",
          "name": "token",
          "type": "address"
        },
        {
          "internalType": "string",
          "name": "paymentMethod",
          "type": "string"
        }
      ],
      "stateMutability": "view",
      "type": "function"
    },
    {
      "inputs": [
        {
          "internalType": "bytes32",
          "name": "id",
          "type": "bytes32"
        }
      ],
      "name": "getDeal",
      "outputs": [
        {
          "components": [
            {
              "internalType": "bytes32",
              "name": "id",
              "type": "bytes32"
            },
            {
              "components": [
                {
                  "internalType": "uint128",
                  "name": "amount",
                  "type": "uint128"
                },
                {
                  "internalType": "uint96",
                  "name": "price",
                  "type": "uint96"
                },
                {
                  "internalType": "Swap2p.FiatCode",
                  "name": "fiat",
                  "type": "uint24"
                },
                {
                  "internalType": "enum Swap2p.DealState",
                  "name": "state",
                  "type": "uint8"
                },
                {
                  "internalType": "enum Swap2p.Side",
                  "name": "side",
                  "type": "uint8"
                },
                {
                  "internalType": "uint40",
                  "name": "tsRequest",
                  "type": "uint40"
                },
                {
                  "internalType": "uint40",
                  "name": "tsLast",
                  "type": "uint40"
                },
                {
                  "internalType": "address",
                  "name": "maker",
                  "type": "address"
                },
                {
                  "internalType": "address",
                  "name": "taker",
                  "type": "address"
                },
                {
                  "internalType": "address",
                  "name": "token",
                  "type": "address"
                },
                {
                  "internalType": "string",
                  "name": "paymentMethod",
                  "type": "string"
                },
                {
                  "components": [
                    {
                      "internalType": "uint40",
                      "name": "ts",
                      "type": "uint40"
                    },
                    {
                      "internalType": "enum Swap2p.DealState",
                      "name": "state",
                      "type": "uint8"
                    },
                    {
                      "internalType": "bool",
                      "name": "toMaker",
                      "type": "bool"
                    },
                    {
                      "internalType": "bytes",
                      "name": "text",
                      "type": "bytes"
                    }
                  ],
                  "internalType": "struct Swap2p.ChatMessage[]",
                  "name": "chat",
                  "type": "tuple[]"
                }
              ],
              "internalType": "struct Swap2p.Deal",
              "name": "deal",
              "type": "tuple"
            }
          ],
          "internalType": "struct Swap2p.DealInfo",
          "name": "info",
          "type": "tuple"
        }
      ],
      "stateMutability": "view",
      "type": "function"
    },
    {
      "inputs": [
        {
          "internalType": "bytes32",
          "name": "id",
          "type": "bytes32"
        }
      ],
      "name": "getDealChat",
      "outputs": [
        {
          "components": [
            {
              "internalType": "uint40",
              "name": "ts",
              "type": "uint40"
            },
            {
              "internalType": "enum Swap2p.DealState",
              "name": "state",
              "type": "uint8"
            },
            {
              "internalType": "bool",
              "name": "toMaker",
              "type": "bool"
            },
            {
              "internalType": "bytes",
              "name": "text",
              "type": "bytes"
            }
          ],
          "internalType": "struct Swap2p.ChatMessage[]",
          "name": "out",
          "type": "tuple[]"
        }
      ],
      "stateMutability": "view",
      "type": "function"
    },
    {
      "inputs": [
        {
          "internalType": "address",
          "name": "maker",
          "type": "address"
        }
      ],
      "name": "getMakerOfferCount",
      "outputs": [
        {
          "internalType": "uint256",
          "name": "",
          "type": "uint256"
        }
      ],
      "stateMutability": "view",
      "type": "function"
    },
    {
      "inputs": [
        {
          "internalType": "address",
          "name": "maker",
          "type": "address"
        },
        {
          "internalType": "uint256",
          "name": "off",
          "type": "uint256"
        },
        {
          "internalType": "uint256",
          "name": "lim",
          "type": "uint256"
        }
      ],
      "name": "getMakerOfferIds",
      "outputs": [
        {
          "internalType": "bytes32[]",
          "name": "out",
          "type": "bytes32[]"
        }
      ],
      "stateMutability": "view",
      "type": "function"
    },
    {
      "inputs": [
        {
          "internalType": "address",
          "name": "maker",
          "type": "address"
        },
        {
          "internalType": "uint256",
          "name": "off",
          "type": "uint256"
        },
        {
          "internalType": "uint256",
          "name": "lim",
          "type": "uint256"
        }
      ],
      "name": "getMakerOffers",
      "outputs": [
        {
          "components": [
            {
              "internalType": "bytes32",
              "name": "id",
              "type": "bytes32"
            },
            {
              "internalType": "address",
              "name": "maker",
              "type": "address"
            },
            {
              "components": [
                {
                  "internalType": "uint128",
                  "name": "minAmt",
                  "type": "uint128"
                },
                {
                  "internalType": "uint128",
                  "name": "maxAmt",
                  "type": "uint128"
                },
                {
                  "internalType": "uint96",
                  "name": "priceFiatPerToken",
                  "type": "uint96"
                },
                {
                  "internalType": "uint40",
                  "name": "ts",
                  "type": "uint40"
                },
                {
                  "internalType": "Swap2p.FiatCode",
                  "name": "fiat",
                  "type": "uint24"
                },
                {
                  "internalType": "enum Swap2p.Side",
                  "name": "side",
                  "type": "uint8"
                },
                {
                  "internalType": "address",
                  "name": "token",
                  "type": "address"
                },
                {
                  "internalType": "address",
                  "name": "maker",
                  "type": "address"
                },
                {
                  "internalType": "string",
                  "name": "paymentMethods",
                  "type": "string"
                },
                {
                  "internalType": "string",
                  "name": "requirements",
                  "type": "string"
                }
              ],
              "internalType": "struct Swap2p.Offer",
              "name": "offer",
              "type": "tuple"
            }
          ],
          "internalType": "struct Swap2p.OfferInfo[]",
          "name": "out",
          "type": "tuple[]"
        }
      ],
      "stateMutability": "view",
      "type": "function"
    },
    {
      "inputs": [
        {
          "internalType": "address[]",
          "name": "accounts",
          "type": "address[]"
        }
      ],
      "name": "getMakerProfiles",
      "outputs": [
        {
          "components": [
            {
              "internalType": "uint40",
              "name": "lastActivity",
              "type": "uint40"
            },
            {
              "internalType": "int32",
              "name": "dealsCancelled",
              "type": "int32"
            },
            {
              "internalType": "int32",
              "name": "dealsCompleted",
              "type": "int32"
            },
            {
              "internalType": "bool",
              "name": "online",
              "type": "bool"
            },
            {
              "internalType": "string",
              "name": "nickname",
              "type": "string"
            },
            {
              "internalType": "string",
              "name": "chatPublicKey",
              "type": "string"
            }
          ],
          "internalType": "struct Swap2p.MakerProfile[]",
          "name": "profiles",
          "type": "tuple[]"
        }
      ],
      "stateMutability": "view",
      "type": "function"
    },
    {
      "inputs": [
        {
          "internalType": "address",
          "name": "token",
          "type": "address"
        },
        {
          "internalType": "enum Swap2p.Side",
          "name": "s",
          "type": "uint8"
        },
        {
          "internalType": "Swap2p.FiatCode",
          "name": "f",
          "type": "uint24"
        },
        {
          "internalType": "uint256",
          "name": "off",
          "type": "uint256"
        },
        {
          "internalType": "uint256",
          "name": "lim",
          "type": "uint256"
        }
      ],
      "name": "getMarketOfferIds",
      "outputs": [
        {
          "internalType": "bytes32[]",
          "name": "out",
          "type": "bytes32[]"
        }
      ],
      "stateMutability": "view",
      "type": "function"
    },
    {
      "inputs": [
        {
          "internalType": "address",
          "name": "token",
          "type": "address"
        },
        {
          "internalType": "enum Swap2p.Side",
          "name": "s",
          "type": "uint8"
        },
        {
          "internalType": "Swap2p.FiatCode",
          "name": "f",
          "type": "uint24"
        },
        {
          "internalType": "uint256",
          "name": "off",
          "type": "uint256"
        },
        {
          "internalType": "uint256",
          "name": "lim",
          "type": "uint256"
        }
      ],
      "name": "getMarketOffers",
      "outputs": [
        {
          "components": [
            {
              "internalType": "bytes32",
              "name": "id",
              "type": "bytes32"
            },
            {
              "internalType": "address",
              "name": "maker",
              "type": "address"
            },
            {
              "components": [
                {
                  "internalType": "uint128",
                  "name": "minAmt",
                  "type": "uint128"
                },
                {
                  "internalType": "uint128",
                  "name": "maxAmt",
                  "type": "uint128"
                },
                {
                  "internalType": "uint96",
                  "name": "priceFiatPerToken",
                  "type": "uint96"
                },
                {
                  "internalType": "uint40",
                  "name": "ts",
                  "type": "uint40"
                },
                {
                  "internalType": "Swap2p.FiatCode",
                  "name": "fiat",
                  "type": "uint24"
                },
                {
                  "internalType": "enum Swap2p.Side",
                  "name": "side",
                  "type": "uint8"
                },
                {
                  "internalType": "address",
                  "name": "token",
                  "type": "address"
                },
                {
                  "internalType": "address",
                  "name": "maker",
                  "type": "address"
                },
                {
                  "internalType": "string",
                  "name": "paymentMethods",
                  "type": "string"
                },
                {
                  "internalType": "string",
                  "name": "requirements",
                  "type": "string"
                }
              ],
              "internalType": "struct Swap2p.Offer",
              "name": "offer",
              "type": "tuple"
            }
          ],
          "internalType": "struct Swap2p.OfferInfo[]",
          "name": "out",
          "type": "tuple[]"
        }
      ],
      "stateMutability": "view",
      "type": "function"
    },
    {
      "inputs": [
        {
          "internalType": "bytes32",
          "name": "id",
          "type": "bytes32"
        }
      ],
      "name": "getOfferById",
      "outputs": [
        {
          "components": [
            {
              "internalType": "bytes32",
              "name": "id",
              "type": "bytes32"
            },
            {
              "internalType": "address",
              "name": "maker",
              "type": "address"
            },
            {
              "components": [
                {
                  "internalType": "uint128",
                  "name": "minAmt",
                  "type": "uint128"
                },
                {
                  "internalType": "uint128",
                  "name": "maxAmt",
                  "type": "uint128"
                },
                {
                  "internalType": "uint96",
                  "name": "priceFiatPerToken",
                  "type": "uint96"
                },
                {
                  "internalType": "uint40",
                  "name": "ts",
                  "type": "uint40"
                },
                {
                  "internalType": "Swap2p.FiatCode",
                  "name": "fiat",
                  "type": "uint24"
                },
                {
                  "internalType": "enum Swap2p.Side",
                  "name": "side",
                  "type": "uint8"
                },
                {
                  "internalType": "address",
                  "name": "token",
                  "type": "address"
                },
                {
                  "internalType": "address",
                  "name": "maker",
                  "type": "address"
                },
                {
                  "internalType": "string",
                  "name": "paymentMethods",
                  "type": "string"
                },
                {
                  "internalType": "string",
                  "name": "requirements",
                  "type": "string"
                }
              ],
              "internalType": "struct Swap2p.Offer",
              "name": "offer",
              "type": "tuple"
            }
          ],
          "internalType": "struct Swap2p.OfferInfo",
          "name": "info",
          "type": "tuple"
        }
      ],
      "stateMutability": "view",
      "type": "function"
    },
    {
      "inputs": [
        {
          "internalType": "address",
          "name": "token",
          "type": "address"
        },
        {
          "internalType": "enum Swap2p.Side",
          "name": "s",
          "type": "uint8"
        },
        {
          "internalType": "Swap2p.FiatCode",
          "name": "f",
          "type": "uint24"
        }
      ],
      "name": "getOfferCount",
      "outputs": [
        {
          "internalType": "uint256",
          "name": "",
          "type": "uint256"
        }
      ],
      "stateMutability": "view",
      "type": "function"
    },
    {
      "inputs": [
        {
          "internalType": "address",
          "name": "token",
          "type": "address"
        },
        {
          "internalType": "address",
          "name": "maker",
          "type": "address"
        },
        {
          "internalType": "enum Swap2p.Side",
          "name": "s",
          "type": "uint8"
        },
        {
          "internalType": "Swap2p.FiatCode",
          "name": "f",
          "type": "uint24"
        }
      ],
      "name": "getOfferId",
      "outputs": [
        {
          "internalType": "bytes32",
          "name": "",
          "type": "bytes32"
        }
      ],
      "stateMutability": "view",
      "type": "function"
    },
    {
      "inputs": [
        {
          "internalType": "address",
          "name": "token",
          "type": "address"
        },
        {
          "internalType": "enum Swap2p.Side",
          "name": "s",
          "type": "uint8"
        },
        {
          "internalType": "Swap2p.FiatCode",
          "name": "f",
          "type": "uint24"
        },
        {
          "internalType": "uint256",
          "name": "off",
          "type": "uint256"
        },
        {
          "internalType": "uint256",
          "name": "lim",
          "type": "uint256"
        }
      ],
      "name": "getOfferKeys",
      "outputs": [
        {
          "internalType": "address[]",
          "name": "out",
          "type": "address[]"
        }
      ],
      "stateMutability": "view",
      "type": "function"
    },
    {
      "inputs": [
        {
          "internalType": "address",
          "name": "u",
          "type": "address"
        }
      ],
      "name": "getOpenDealCount",
      "outputs": [
        {
          "internalType": "uint256",
          "name": "",
          "type": "uint256"
        }
      ],
      "stateMutability": "view",
      "type": "function"
    },
    {
      "inputs": [
        {
          "internalType": "address",
          "name": "u",
          "type": "address"
        },
        {
          "internalType": "uint256",
          "name": "off",
          "type": "uint256"
        },
        {
          "internalType": "uint256",
          "name": "lim",
          "type": "uint256"
        }
      ],
      "name": "getOpenDeals",
      "outputs": [
        {
          "internalType": "bytes32[]",
          "name": "out",
          "type": "bytes32[]"
        }
      ],
      "stateMutability": "view",
      "type": "function"
    },
    {
      "inputs": [
        {
          "internalType": "address",
          "name": "u",
          "type": "address"
        },
        {
          "internalType": "uint256",
          "name": "off",
          "type": "uint256"
        },
        {
          "internalType": "uint256",
          "name": "lim",
          "type": "uint256"
        }
      ],
      "name": "getOpenDealsDetailed",
      "outputs": [
        {
          "components": [
            {
              "internalType": "bytes32",
              "name": "id",
              "type": "bytes32"
            },
            {
              "components": [
                {
                  "internalType": "uint128",
                  "name": "amount",
                  "type": "uint128"
                },
                {
                  "internalType": "uint96",
                  "name": "price",
                  "type": "uint96"
                },
                {
                  "internalType": "Swap2p.FiatCode",
                  "name": "fiat",
                  "type": "uint24"
                },
                {
                  "internalType": "enum Swap2p.DealState",
                  "name": "state",
                  "type": "uint8"
                },
                {
                  "internalType": "enum Swap2p.Side",
                  "name": "side",
                  "type": "uint8"
                },
                {
                  "internalType": "uint40",
                  "name": "tsRequest",
                  "type": "uint40"
                },
                {
                  "internalType": "uint40",
                  "name": "tsLast",
                  "type": "uint40"
                },
                {
                  "internalType": "address",
                  "name": "maker",
                  "type": "address"
                },
                {
                  "internalType": "address",
                  "name": "taker",
                  "type": "address"
                },
                {
                  "internalType": "address",
                  "name": "token",
                  "type": "address"
                },
                {
                  "internalType": "string",
                  "name": "paymentMethod",
                  "type": "string"
                },
                {
                  "components": [
                    {
                      "internalType": "uint40",
                      "name": "ts",
                      "type": "uint40"
                    },
                    {
                      "internalType": "enum Swap2p.DealState",
                      "name": "state",
                      "type": "uint8"
                    },
                    {
                      "internalType": "bool",
                      "name": "toMaker",
                      "type": "bool"
                    },
                    {
                      "internalType": "bytes",
                      "name": "text",
                      "type": "bytes"
                    }
                  ],
                  "internalType": "struct Swap2p.ChatMessage[]",
                  "name": "chat",
                  "type": "tuple[]"
                }
              ],
              "internalType": "struct Swap2p.Deal",
              "name": "deal",
              "type": "tuple"
            }
          ],
          "internalType": "struct Swap2p.DealInfo[]",
          "name": "out",
          "type": "tuple[]"
        }
      ],
      "stateMutability": "view",
      "type": "function"
    },
    {
      "inputs": [
        {
          "internalType": "address",
          "name": "u",
          "type": "address"
        }
      ],
      "name": "getRecentDealCount",
      "outputs": [
        {
          "internalType": "uint256",
          "name": "",
          "type": "uint256"
        }
      ],
      "stateMutability": "view",
      "type": "function"
    },
    {
      "inputs": [
        {
          "internalType": "address",
          "name": "u",
          "type": "address"
        },
        {
          "internalType": "uint256",
          "name": "off",
          "type": "uint256"
        },
        {
          "internalType": "uint256",
          "name": "lim",
          "type": "uint256"
        }
      ],
      "name": "getRecentDeals",
      "outputs": [
        {
          "internalType": "bytes32[]",
          "name": "out",
          "type": "bytes32[]"
        }
      ],
      "stateMutability": "view",
      "type": "function"
    },
    {
      "inputs": [
        {
          "internalType": "address",
          "name": "u",
          "type": "address"
        },
        {
          "internalType": "uint256",
          "name": "off",
          "type": "uint256"
        },
        {
          "internalType": "uint256",
          "name": "lim",
          "type": "uint256"
        }
      ],
      "name": "getRecentDealsDetailed",
      "outputs": [
        {
          "components": [
            {
              "internalType": "bytes32",
              "name": "id",
              "type": "bytes32"
            },
            {
              "components": [
                {
                  "internalType": "uint128",
                  "name": "amount",
                  "type": "uint128"
                },
                {
                  "internalType": "uint96",
                  "name": "price",
                  "type": "uint96"
                },
                {
                  "internalType": "Swap2p.FiatCode",
                  "name": "fiat",
                  "type": "uint24"
                },
                {
                  "internalType": "enum Swap2p.DealState",
                  "name": "state",
                  "type": "uint8"
                },
                {
                  "internalType": "enum Swap2p.Side",
                  "name": "side",
                  "type": "uint8"
                },
                {
                  "internalType": "uint40",
                  "name": "tsRequest",
                  "type": "uint40"
                },
                {
                  "internalType": "uint40",
                  "name": "tsLast",
                  "type": "uint40"
                },
                {
                  "internalType": "address",
                  "name": "maker",
                  "type": "address"
                },
                {
                  "internalType": "address",
                  "name": "taker",
                  "type": "address"
                },
                {
                  "internalType": "address",
                  "name": "token",
                  "type": "address"
                },
                {
                  "internalType": "string",
                  "name": "paymentMethod",
                  "type": "string"
                },
                {
                  "components": [
                    {
                      "internalType": "uint40",
                      "name": "ts",
                      "type": "uint40"
                    },
                    {
                      "internalType": "enum Swap2p.DealState",
                      "name": "state",
                      "type": "uint8"
                    },
                    {
                      "internalType": "bool",
                      "name": "toMaker",
                      "type": "bool"
                    },
                    {
                      "internalType": "bytes",
                      "name": "text",
                      "type": "bytes"
                    }
                  ],
                  "internalType": "struct Swap2p.ChatMessage[]",
                  "name": "chat",
                  "type": "tuple[]"
                }
              ],
              "internalType": "struct Swap2p.Deal",
              "name": "deal",
              "type": "tuple"
            }
          ],
          "internalType": "struct Swap2p.DealInfo[]",
          "name": "out",
          "type": "tuple[]"
        }
      ],
      "stateMutability": "view",
      "type": "function"
    },
    {
      "inputs": [
        {
          "internalType": "address",
          "name": "token",
          "type": "address"
        },
        {
          "internalType": "enum Swap2p.Side",
          "name": "s",
          "type": "uint8"
        },
        {
          "internalType": "Swap2p.FiatCode",
          "name": "f",
          "type": "uint24"
        }
      ],
      "name": "listOffers",
      "outputs": [
        {
          "components": [
            {
              "internalType": "bytes32",
              "name": "id",
              "type": "bytes32"
            },
            {
              "internalType": "address",
              "name": "maker",
              "type": "address"
            },
            {
              "components": [
                {
                  "internalType": "uint128",
                  "name": "minAmt",
                  "type": "uint128"
                },
                {
                  "internalType": "uint128",
                  "name": "maxAmt",
                  "type": "uint128"
                },
                {
                  "internalType": "uint96",
                  "name": "priceFiatPerToken",
                  "type": "uint96"
                },
                {
                  "internalType": "uint40",
                  "name": "ts",
                  "type": "uint40"
                },
                {
                  "internalType": "Swap2p.FiatCode",
                  "name": "fiat",
                  "type": "uint24"
                },
                {
                  "internalType": "enum Swap2p.Side",
                  "name": "side",
                  "type": "uint8"
                },
                {
                  "internalType": "address",
                  "name": "token",
                  "type": "address"
                },
                {
                  "internalType": "address",
                  "name": "maker",
                  "type": "address"
                },
                {
                  "internalType": "string",
                  "name": "paymentMethods",
                  "type": "string"
                },
                {
                  "internalType": "string",
                  "name": "requirements",
                  "type": "string"
                }
              ],
              "internalType": "struct Swap2p.Offer",
              "name": "offer",
              "type": "tuple"
            }
          ],
          "internalType": "struct Swap2p.OfferInfo[]",
          "name": "out",
          "type": "tuple[]"
        }
      ],
      "stateMutability": "view",
      "type": "function"
    },
    {
      "inputs": [
        {
          "internalType": "address",
          "name": "",
          "type": "address"
        }
      ],
      "name": "makerInfo",
      "outputs": [
        {
          "internalType": "uint40",
          "name": "lastActivity",
          "type": "uint40"
        },
        {
          "internalType": "int32",
          "name": "dealsCancelled",
          "type": "int32"
        },
        {
          "internalType": "int32",
          "name": "dealsCompleted",
          "type": "int32"
        },
        {
          "internalType": "bool",
          "name": "online",
          "type": "bool"
        },
        {
          "internalType": "string",
          "name": "nickname",
          "type": "string"
        },
        {
          "internalType": "string",
          "name": "chatPublicKey",
          "type": "string"
        }
      ],
      "stateMutability": "view",
      "type": "function"
    },
    {
      "inputs": [
        {
          "internalType": "bytes32",
          "name": "id",
          "type": "bytes32"
        },
        {
          "internalType": "bytes",
          "name": "msg_",
          "type": "bytes"
        }
      ],
      "name": "maker_acceptRequest",
      "outputs": [],
      "stateMutability": "nonpayable",
      "type": "function"
    },
    {
      "inputs": [
        {
          "internalType": "address",
          "name": "token",
          "type": "address"
        },
        {
          "internalType": "enum Swap2p.Side",
          "name": "s",
          "type": "uint8"
        },
        {
          "internalType": "Swap2p.FiatCode",
          "name": "f",
          "type": "uint24"
        }
      ],
      "name": "maker_deleteOffer",
      "outputs": [],
      "stateMutability": "nonpayable",
      "type": "function"
    },
    {
      "inputs": [
        {
          "internalType": "address",
          "name": "token",
          "type": "address"
        },
        {
          "internalType": "enum Swap2p.Side",
          "name": "s",
          "type": "uint8"
        },
        {
          "internalType": "Swap2p.FiatCode",
          "name": "f",
          "type": "uint24"
        },
        {
          "internalType": "uint96",
          "name": "price",
          "type": "uint96"
        },
        {
          "internalType": "uint128",
          "name": "minAmt",
          "type": "uint128"
        },
        {
          "internalType": "uint128",
          "name": "maxAmt",
          "type": "uint128"
        },
        {
          "internalType": "string",
          "name": "paymentMethods",
          "type": "string"
        },
        {
          "internalType": "string",
          "name": "requirements",
          "type": "string"
        },
        {
          "internalType": "address",
          "name": "partner",
          "type": "address"
        }
      ],
      "name": "maker_makeOffer",
      "outputs": [],
      "stateMutability": "nonpayable",
      "type": "function"
    },
    {
      "inputs": [
        {
          "internalType": "bytes32",
          "name": "id",
          "type": "bytes32"
        },
        {
          "internalType": "bytes",
          "name": "msg_",
          "type": "bytes"
        }
      ],
      "name": "markFiatPaid",
      "outputs": [],
      "stateMutability": "nonpayable",
      "type": "function"
    },
    {
      "inputs": [
        {
          "internalType": "address",
          "name": "taker",
          "type": "address"
        }
      ],
      "name": "previewNextDealId",
      "outputs": [
        {
          "internalType": "bytes32",
          "name": "id",
          "type": "bytes32"
        },
        {
          "internalType": "uint64",
          "name": "nonce",
          "type": "uint64"
        }
      ],
      "stateMutability": "view",
      "type": "function"
    },
    {
      "inputs": [
        {
          "internalType": "address",
          "name": "maker",
          "type": "address"
        }
      ],
      "name": "previewNextOfferId",
      "outputs": [
        {
          "internalType": "bytes32",
          "name": "id",
          "type": "bytes32"
        },
        {
          "internalType": "uint64",
          "name": "nonce",
          "type": "uint64"
        }
      ],
      "stateMutability": "view",
      "type": "function"
    },
    {
      "inputs": [
        {
          "internalType": "bytes32",
          "name": "id",
          "type": "bytes32"
        },
        {
          "internalType": "bytes",
          "name": "msg_",
          "type": "bytes"
        }
      ],
      "name": "release",
      "outputs": [],
      "stateMutability": "nonpayable",
      "type": "function"
    },
    {
      "inputs": [
        {
          "internalType": "bytes32",
          "name": "id",
          "type": "bytes32"
        },
        {
          "internalType": "bytes",
          "name": "t",
          "type": "bytes"
        }
      ],
      "name": "sendMessage",
      "outputs": [],
      "stateMutability": "nonpayable",
      "type": "function"
    },
    {
      "inputs": [
        {
          "internalType": "string",
          "name": "key",
          "type": "string"
        }
      ],
      "name": "setChatPublicKey",
      "outputs": [],
      "stateMutability": "nonpayable",
      "type": "function"
    },
    {
      "inputs": [
        {
          "internalType": "string",
          "name": "nick",
          "type": "string"
        }
      ],
      "name": "setNickname",
      "outputs": [],
      "stateMutability": "nonpayable",
      "type": "function"
    },
    {
      "inputs": [
        {
          "internalType": "bool",
          "name": "on",
          "type": "bool"
        }
      ],
      "name": "setOnline",
      "outputs": [],
      "stateMutability": "nonpayable",
      "type": "function"
    },
    {
      "inputs": [
        {
          "internalType": "address",
          "name": "token",
          "type": "address"
        },
        {
          "internalType": "enum Swap2p.Side",
          "name": "s",
          "type": "uint8"
        },
        {
          "internalType": "address",
          "name": "maker",
          "type": "address"
        },
        {
          "internalType": "uint128",
          "name": "amount",
          "type": "uint128"
        },
        {
          "internalType": "Swap2p.FiatCode",
          "name": "f",
          "type": "uint24"
        },
        {
          "internalType": "uint96",
          "name": "expectedPrice",
          "type": "uint96"
        },
        {
          "internalType": "string",
          "name": "paymentMethod",
          "type": "string"
        },
        {
          "internalType": "bytes",
          "name": "paymentDetails",
          "type": "bytes"
        },
        {
          "internalType": "address",
          "name": "partner",
          "type": "address"
        }
      ],
      "name": "taker_requestOffer",
      "outputs": [],
      "stateMutability": "nonpayable",
      "type": "function"
    }
  ],
  "bytecode": "0x60a0604052348015600f57600080fd5b50604051615cd6380380615cd6833981016040819052602c916067565b60016000556001600160a01b03811660575760405163f79316e160e01b815260040160405180910390fd5b6001600160a01b03166080526095565b600060208284031215607857600080fd5b81516001600160a01b0381168114608e57600080fd5b9392505050565b608051615c266100b060003960006136680152615c266000f3fe608060405234801561001057600080fd5b50600436106101b75760003560e01c806301d563f9146101bc578063167abbdc146101e55780631bc8a466146102055780631c5d9faa1461021a57806320ded8531461022d57806323c640e71461024d57806323d317a9146102605780632b9c45cb146102735780632f0cd5aa146102aa5780632fbe2ce9146102bd5780633d4d81de146102dd5780633d8dfcce146102f05780633ed152f5146103155780633f9951aa146103285780634314a8e21461034857806347437d1c1461035b5780634be974b51461036e5780634bfac20c1461038e5780634f51e294146103a157806351a6fad5146103d75780635ca3f31b146103f757806364c1cfa11461040a5780636d2a0fd01461041d57806371a735c71461044d578063722fe606146104605780637b05fd1d1461048957806381cd872a146104a95780638f658829146104d35780639af8868c146104e6578063b0fa39031461050f578063bd407c1e14610522578063bee93dd014610535578063cb34d04014610548578063ce4b8daf1461055b578063d1dd1c271461056e578063d486b7c414610581578063f05b89fe14610594575b600080fd5b6101cf6101ca366004614c0e565b6105a7565b6040516101dc9190614e7f565b60405180910390f35b6101f86101f3366004614f06565b6105dc565b6040516101dc9190614f5b565b610218610213366004614fe6565b6106f7565b005b610218610228366004615031565b610a91565b61024061023b366004615072565b610c83565b6040516101dc919061508b565b61021861025b366004614fe6565b610de6565b6101f861026e366004614c0e565b610e19565b61029c610281366004615121565b6001600160a01b03166000908152600b602052604090205490565b6040519081526020016101dc565b6102186102b8366004615180565b610f17565b6102d06102cb366004614f06565b6110d0565b6040516101dc91906151cb565b6101f86102eb366004614c0e565b611217565b6103036102fe366004615121565b611325565b6040516101dc9695949392919061520c565b610218610323366004615031565b611482565b61033b610336366004615265565b6114b4565b6040516101dc919061529a565b6101f8610356366004614c0e565b6117d0565b610218610369366004614fe6565b6118c3565b61038161037c366004615072565b611bcf565b6040516101dc9190615445565b61021861039c366004614fe6565b611e24565b6103ca6103af366004615121565b6006602052600090815260409020546001600160a01b031681565b6040516101dc9190615458565b6103ea6103e5366004615072565b61206b565b6040516101dc919061546c565b61029c61040536600461547f565b6123a9565b610218610418366004614fe6565b6123d3565b61043061042b366004615121565b612548565b604080519283526001600160401b039091166020830152016101dc565b61043061045b366004615121565b6125a9565b61029c61046e366004615121565b6001600160a01b03166000908152600d602052604090205490565b61049c610497366004614f06565b6125d8565b6040516101dc91906154c2565b6104bc6104b7366004615072565b61261f565b6040516101dc9b9a9998979695949392919061551b565b61049c6104e136600461547f565b612741565b61029c6104f4366004615121565b6001600160a01b03166000908152600f602052604090205490565b61021861051d3660046155c8565b612792565b6101cf610530366004614c0e565b612807565b610218610543366004615618565b612832565b61021861055636600461547f565b61285b565b61049c610569366004614c0e565b612a19565b61021861057c366004615701565b612a4c565b61029c61058f366004615772565b612b18565b6102186105a2366004614fe6565b612b98565b606081156105d5576001600160a01b0384166000908152600f602052604090206105d2908484612d23565b90505b9392505050565b60606000600960006105ef8989896131df565b8152602081019190915260400160002080549091508085101580610611575083155b1561061d5750506106ee565b600061062985876157dc565b90508581108061063857508181115b156106405750805b600061064c87836157f5565b9050806001600160401b0381111561066657610666615808565b60405190808252806020026020018201604052801561068f578160200160208202803683370190505b50945060005b818110156106e857846106a8828a6157dc565b815481106106b8576106b861581e565b90600052602060002001548682815181106106d5576106d561581e565b6020908102919091010152600101610695565b50505050505b95945050505050565b6106ff613215565b336000908152600760209081526040808320805464ffffffffff19164264ffffffffff161790558583526002909152902060038154600160f81b900460ff16600581111561074f5761074f614c4e565b1461076d57604051636f20b45d60e11b815260040160405180910390fd5b600060018083015460ff169081111561078857610788614c4e565b1480156107a2575060028101546001600160a01b03163314155b806107e2575060018181015460ff16818111156107c1576107c1614c4e565b1480156107e257506001810154600160581b90046001600160a01b03163314155b156108005760405163068690bf60e11b815260040160405180910390fd5b61080d848484600461323f565b80546001600160f81b0316600160fa1b17815560018101805464ffffffffff60301b1916600160301b4264ffffffffff1602179081905561085e90600160581b90046001600160a01b031685613498565b6002810154610876906001600160a01b031685613498565b6001810154600282015461089e916001600160a01b03600160581b909104811691168661352c565b600181810154600160581b90046001600160a01b0316600090815260076020526040902080546009906108dc908490600160481b900460030b615834565b825463ffffffff9182166101009390930a92830291909202199091161790555060028101546001600160a01b03166000908152600760205260409020805460019190600990610936908490600160481b900460030b615834565b92506101000a81548163ffffffff021916908360030b63ffffffff160217905550600080600181111561096b5761096b614c4e565b60018084015460ff169081111561098457610984614c4e565b1461099c5760028201546001600160a01b03166109b2565b6001820154600160581b90046001600160a01b03165b60038301546002840154600185015485549394506109f6936001600160a01b039384169392831692600160581b9092049091169085906001600160801b0316613540565b600382015460028301548354610a22926001600160a01b039081169216906001600160801b0316613699565b600382015460018301548354610a55926001600160a01b0390811692600160581b900416906001600160801b0316613699565b60405185907f7fd4245b0f72acadc4c87701af2ae8b00ba2adeef4b3e209897df6cef0426bee90600090a25050610a8c6001600055565b505050565b336000908152600760209081526040808320805464ffffffffff19164264ffffffffff161781558151601f86018490048402810184019092528482529291859085908190840183828082843760009201829052506001870180549596509094909350610aff9250905061585b565b80601f0160208091040260200160405190810160405280929190818152602001828054610b2b9061585b565b8015610b785780601f10610b4d57610100808354040283529160200191610b78565b820191906000526020600020905b815481529060010190602001808311610b5b57829003601f168201915b505050505090508151600003610bd357805115610bcc5780516020808301919091206000818152600883526040808220805460ff19169055805193840190528252906001850190610bc990826158f1565b50505b5050505050565b81516020830120815115610bf75780828051906020012003610bf757505050505050565b60008181526008602052604090205460ff1615610c2757604051637ec9752560e01b815260040160405180910390fd5b6000818152600860205260409020805460ff191660019081179091558401610c508688836159a9565b50815115610c7a5781516020808401919091206000908152600890915260409020805460ff191690555b505050505b5050565b606060026000838152602001908152602001600020600501805480602002602001604051908101604052809291908181526020016000905b82821015610ddb576000848152602090819020604080516080810190915260028502909101805464ffffffffff811683529192909190830190600160281b900460ff166005811115610d0f57610d0f614c4e565b6005811115610d2057610d20614c4e565b81528154600160301b900460ff1615156020820152600182018054604090920191610d4a9061585b565b80601f0160208091040260200160405190810160405280929190818152602001828054610d769061585b565b8015610dc35780601f10610d9857610100808354040283529160200191610dc3565b820191906000526020600020905b815481529060010190602001808311610da657829003601f168201915b50505050508152505081526020019060010190610cbb565b505050509050919050565b336000908152600760205260408120805464ffffffffff19164264ffffffffff16179055610a8c9084908490849061323f565b6001600160a01b0383166000908152600f60205260409020805460609190808510610e455750506105d5565b6000610e5185876157dc565b905085811080610e6057508181115b15610e685750805b610e7286826157f5565b6001600160401b03811115610e8957610e89615808565b604051908082528060200260200182016040528015610eb2578160200160208202803683370190505b509350855b81811015610f0c57838181548110610ed157610ed161581e565b9060005260206000200154858883610ee991906157f5565b81518110610ef957610ef961581e565b6020908102919091010152600101610eb7565b505050509392505050565b6030811015610f3957604051636f20b45d60e11b815260040160405180910390fd5b6000610f4782610e10615a62565b90508260005b81811015610c7a576000868683818110610f6957610f6961581e565b60209081029290920135600081815260029093526040909220805492935091600160f81b900460ff1690506004816005811115610fa857610fa8614c4e565b14158015610fc857506005816005811115610fc557610fc5614c4e565b14155b15610fd5575050506110c8565b60018201548690610ff490600160301b900464ffffffffff16426157f5565b1015611002575050506110c8565b600180830154600280850154600087815260208390526040812081815594850180546001600160f81b031916905591840180546001600160a01b031990811690915560038501805490911690556001600160a01b03600160581b909304831693921691906110736004830182614a64565b611081600583016000614aa1565b505061108d82866136cc565b61109781866136cc565b60405185907f5dfd3d3075c6a14eb1287a8fa566b2a067908e976de63c0f9f4a5246f82a485290600090a250505050505b600101610f4d565b60606000600960006110e38989896131df565b8152602081019190915260400160002080549091508085101580611105575083155b156111115750506106ee565b600061111d85876157dc565b90508581108061112c57508181115b156111345750805b600061114087836157f5565b9050806001600160401b0381111561115a5761115a615808565b604051908082528060200260200182016040528015611183578160200160208202803683370190505b50945060005b818110156106e8576000600181876111a1858d6157dc565b815481106111b1576111b161581e565b9060005260206000200154815260200190815260200160002090508060030160009054906101000a90046001600160a01b03168783815181106111f6576111f661581e565b6001600160a01b039092166020928302919091019091015250600101611189565b6001600160a01b0383166000908152600b602052604090208054606091908085101580611242575083155b1561124e5750506105d5565b600061125a85876157dc565b90508581108061126957508181115b156112715750805b600061127d87836157f5565b9050806001600160401b0381111561129757611297615808565b6040519080825280602002602001820160405280156112c0578160200160208202803683370190505b50945060005b8181101561131957846112d9828a6157dc565b815481106112e9576112e961581e565b90600052602060002001548682815181106113065761130661581e565b60209081029190910101526001016112c6565b50505050509392505050565b6007602052600090815260409020805460018201805464ffffffffff831693600160281b8404600390810b94600160481b810490910b93600160681b90910460ff16926113719061585b565b80601f016020809104026020016040519081016040528092919081815260200182805461139d9061585b565b80156113ea5780601f106113bf576101008083540402835291602001916113ea565b820191906000526020600020905b8154815290600101906020018083116113cd57829003601f168201915b5050505050908060020180546113ff9061585b565b80601f016020809104026020016040519081016040528092919081815260200182805461142b9061585b565b80156114785780601f1061144d57610100808354040283529160200191611478565b820191906000526020600020905b81548152906001019060200180831161145b57829003601f168201915b5050505050905086565b336000908152600760205260409020805464ffffffffff19164264ffffffffff16178155600201610a8c8284836159a9565b606081806001600160401b038111156114cf576114cf615808565b60405190808252806020026020018201604052801561153157816020015b6040805160c081018252600080825260208083018290529282018190526060808301919091526080820181905260a082015282526000199092019101816114ed5790505b50915060005b818110156117c8576000600760008787858181106115575761155761581e565b905060200201602081019061156c9190615121565b6001600160a01b03168152602081019190915260400160002080548551919250600160681b900460ff16908590849081106115a9576115a961581e565b60209081029190910101519015156060909101528054845164ffffffffff909116908590849081106115dd576115dd61581e565b602090810291909101015164ffffffffff90911690526001810180546116029061585b565b80601f016020809104026020016040519081016040528092919081815260200182805461162e9061585b565b801561167b5780601f106116505761010080835404028352916020019161167b565b820191906000526020600020905b81548152906001019060200180831161165e57829003601f168201915b50505050508483815181106116925761169261581e565b60209081029190910101516080015280548451600160281b90910460030b908590849081106116c3576116c361581e565b602090810291909101810151600392830b91015281548551600160481b90910490910b908590849081106116f9576116f961581e565b60200260200101516040019060030b908160030b815250508060020180546117209061585b565b80601f016020809104026020016040519081016040528092919081815260200182805461174c9061585b565b80156117995780601f1061176e57610100808354040283529160200191611799565b820191906000526020600020905b81548152906001019060200180831161177c57829003601f168201915b50505050508483815181106117b0576117b061581e565b602090810291909101015160a0015250600101611537565b505092915050565b6001600160a01b0383166000908152600d602052604090208054606091908085106117fc5750506105d5565b600061180885876157dc565b90508581108061181757508181115b1561181f5750805b61182986826157f5565b6001600160401b0381111561184057611840615808565b604051908082528060200260200182016040528015611869578160200160208202803683370190505b509350855b81811015610f0c578381815481106118885761188861581e565b90600052602060002001548588836118a091906157f5565b815181106118b0576118b061581e565b602090810291909101015260010161186e565b6118cb613215565b336000908152600760209081526040808320805464ffffffffff19164264ffffffffff16179055858352600291829052909120908154600160f81b900460ff16600581111561191c5761191c614c4e565b1461193a57604051636f20b45d60e11b815260040160405180910390fd5b6001810154600160581b90046001600160a01b031633036119945760005b60018083015460ff169081111561197157611971614c4e565b1461198f5760405163153c8df760e31b815260040160405180910390fd5b6119c8565b60028101546001600160a01b031633036119af576001611958565b60405163068690bf60e11b815260040160405180910390fd5b6119d5848484600561323f565b80546001600160f81b0316600560f81b17815560018101805464ffffffffff60301b1916600160301b4264ffffffffff16021790819055611a2690600160581b90046001600160a01b031685613498565b6002810154611a3e906001600160a01b031685613498565b600060018083015460ff1690811115611a5957611a59614c4e565b03611ace5760038101546002808301548354611a96936001600160a01b0390811693921691611a91916001600160801b031690615a79565b613699565b600381015460018201548254611ac9926001600160a01b0390811692600160581b900416906001600160801b0316613699565b611b33565b600381015460028201548254611afa926001600160a01b039081169216906001600160801b0316613699565b600381015460018201548254611b33926001600160a01b0390811692600160581b90041690611a91906001600160801b03166002615a79565b60018101546002820154611b5b916001600160a01b03600160581b909104811691168661352c565b336000908152600760205260409020805460019190600590611b88908490600160281b900460030b615834565b92506101000a81548163ffffffff021916908360030b63ffffffff16021790555083600080516020615bd183398151915260405160405180910390a250610a8c6001600055565b611bd7614ac2565b60008281526001602081905260408220908101549091600160601b90910464ffffffffff169003611c1b57604051636df5846d60e01b815260040160405180910390fd5b82825260038101546001600160a01b0316602080840191909152604080516101408101825283546001600160801b038082168352600160801b90910416928101929092526001808401546001600160601b03811692840192909252600160601b820464ffffffffff166060840152600160881b820462ffffff166080840152839160a0840191600160a01b90910460ff1690811115611cbc57611cbc614c4e565b6001811115611ccd57611ccd614c4e565b815260028201546001600160a01b0390811660208301526003830154166040820152600482018054606090920191611d049061585b565b80601f0160208091040260200160405190810160405280929190818152602001828054611d309061585b565b8015611d7d5780601f10611d5257610100808354040283529160200191611d7d565b820191906000526020600020905b815481529060010190602001808311611d6057829003601f168201915b50505050508152602001600582018054611d969061585b565b80601f0160208091040260200160405190810160405280929190818152602001828054611dc29061585b565b8015611e0f5780601f10611de457610100808354040283529160200191611e0f565b820191906000526020600020905b815481529060010190602001808311611df257829003601f168201915b50505091909252505050604083015250919050565b611e2c613215565b336000818152600760209081526040808320805464ffffffffff421664ffffffffff199091161790558683526002909152902060018101549091600160581b9091046001600160a01b031614801590611e92575060028101546001600160a01b03163314155b15611eb05760405163068690bf60e11b815260040160405180910390fd5b60018154600160f81b900460ff166005811115611ecf57611ecf614c4e565b14611eed57604051636f20b45d60e11b815260040160405180910390fd5b611efa848484600561323f565b80546001600160f81b0316600560f81b17815560018101805464ffffffffff60301b1916600160301b4264ffffffffff16021790819055611f4b90600160581b90046001600160a01b031685613498565b6002810154611f63906001600160a01b031685613498565b60008060018084015460ff1690811115611f7f57611f7f614c4e565b14611f945781546001600160801b0316611faa565b8154611faa906001600160801b03166002615a79565b60038301546002840154919250611fce916001600160a01b03918216911683613699565b60018201546002830154611ff6916001600160a01b03600160581b909104811691168761352c565b336000908152600760205260409020805460019190600590612023908490600160281b900460030b615834565b92506101000a81548163ffffffff021916908360030b63ffffffff16021790555084600080516020615bd183398151915260405160405180910390a25050610a8c6001600055565b612073614b33565b6000828152600260205260408120908154600160f81b900460ff16600581111561209f5761209f614c4e565b036120bd5760405163223da47360e21b815260040160405180910390fd5b828252604080516101808101825282546001600160801b0381168252600160801b81046001600160601b03166020830152600160e01b810462ffffff16928201929092529082906060830190600160f81b900460ff16600581111561212457612124614c4e565b600581111561213557612135614c4e565b815260018281015460209092019160ff169081111561215657612156614c4e565b600181111561216757612167614c4e565b8152600182015464ffffffffff610100820481166020840152600160301b82041660408301526001600160a01b03600160581b9091048116606083015260028301548116608083015260038301541660a082015260048201805460c0909201916121d09061585b565b80601f01602080910402602001604051908101604052809291908181526020018280546121fc9061585b565b80156122495780601f1061221e57610100808354040283529160200191612249565b820191906000526020600020905b81548152906001019060200180831161222c57829003601f168201915b5050505050815260200160058201805480602002602001604051908101604052809291908181526020016000905b82821015612397576000848152602090819020604080516080810190915260028502909101805464ffffffffff811683529192909190830190600160281b900460ff1660058111156122cb576122cb614c4e565b60058111156122dc576122dc614c4e565b81528154600160301b900460ff16151560208201526001820180546040909201916123069061585b565b80601f01602080910402602001604051908101604052809291908181526020018280546123329061585b565b801561237f5780601f106123545761010080835404028352916020019161237f565b820191906000526020600020905b81548152906001019060200180831161236257829003601f168201915b50505050508152505081526020019060010190612277565b50505091525050602083015250919050565b6000600960006123ba8686866131df565b8152602081019190915260400160002054949350505050565b336000908152600760209081526040808320805464ffffffffff19164264ffffffffff16179055858352600291829052909120908154600160f81b900460ff16600581111561242457612424614c4e565b1461244257604051636f20b45d60e11b815260040160405180910390fd5b600060018083015460ff169081111561245d5761245d614c4e565b14801561247e57506001810154600160581b90046001600160a01b03163314155b806124b7575060018181015460ff168181111561249d5761249d614c4e565b1480156124b7575060028101546001600160a01b03163314155b156124d5576040516330698c3d60e01b815260040160405180910390fd5b80546001600160f81b0316600360f81b17815560018101805464ffffffffff60301b1916600160301b4264ffffffffff160217905560405184907fb30095b0d687bb11974087f374f985f2ff4f7b4f9900e31d32f699d416e2213b90600090a2612542848484600361323f565b50505050565b6001600160a01b0381166000908152600560205260408120548190612577906001600160401b03166001615aa2565b9050828160405160200161258c929190615ac1565b604051602081830303815290604052805190602001209150915091565b6001600160a01b0381166000908152600360205260408120548190612577906001600160401b03166001615aa2565b60606000600960006125eb8989896131df565b815260200190815260200160002090508260000361260957506106ee565b6126148185856137f8565b979650505050505050565b6002602081905260009182526040909120805460018201549282015460038301546004840180546001600160801b038516966001600160601b03600160801b8704169662ffffff600160e01b8804169660ff600160f81b9091048116969083169564ffffffffff6101008504811696600160301b8604909116956001600160a01b03600160581b9096048616959384169492909316926126be9061585b565b80601f01602080910402602001604051908101604052809291908181526020018280546126ea9061585b565b80156127375780601f1061270c57610100808354040283529160200191612737565b820191906000526020600020905b81548152906001019060200180831161271a57829003601f168201915b505050505090508b565b60606000600960006127548787876131df565b815260200190815260200160002090506000818054905090508060000361277c5750506105d5565b612788826000836137f8565b9695505050505050565b33600081815260076020526040908190208054841515600160681b0264ffffffffff60ff60681b011990911664ffffffffff421617179055517fbf7433268f9e84553144e23f130bdb514d559f991d19288c0e6d0ad00440636e906127fc90841515815260200190565b60405180910390a250565b606081156105d5576001600160a01b0384166000908152600d602052604090206105d2908484612d23565b6128448b8b8b8b8b8b8b8b8b8b613bae565b61284e3382613d4d565b5050505050505050505050565b6001600160a01b038316600090815260046020908152604080832033845290915281208184600181111561289157612891614c4e565b60018111156128a2576128a2614c4e565b81526020808201929092526040908101600090812062ffffff86168252909252902054905080156129e857600081815260016020819052604090912090810154600160601b900464ffffffffff161561297c5760006129028686866131df565b905061290e8184613dce565b6129183384613ec7565b6000838152600160208190526040822082815590810180546001600160a81b03191690556002810180546001600160a01b031990811690915560038201805490911690559061296a6004830182614a64565b612978600583016000614a64565b5050505b6001600160a01b03851660009081526004602090815260408083203384529091528120908560018111156129b2576129b2614c4e565b60018111156129c3576129c3614c4e565b81526020808201929092526040908101600090812062ffffff87168252909252812055505b60405181907f233d1d5c74ac8791f0673668c3df846ed7254243dc50ce621d05653f5c64b58790600090a250505050565b6001600160a01b0383166000908152600b60205260408120606091839003612a4157506105d5565b6106ee8185856137f8565b612a54613215565b336000818152600760205260409020805464ffffffffff19164264ffffffffff161790556001600160a01b038a168103612aa15760405163068690bf60e11b815260040160405180910390fd5b6000612ab48d8d8d858e8e8e8e8e613ff4565b9050612ac08b8261440f565b612aca828261440f565b612ad48284613d4d565b612ae1818686600161323f565b60405181907f0962211fdd8bae00324df1e7f067e248569f92820b635d0dc5c6f5801f01e8fb90600090a2505061284e6001600055565b6001600160a01b038085166000908152600460209081526040808320938716835292905290812081846001811115612b5257612b52614c4e565b6001811115612b6357612b63614c4e565b815260200190815260200160002060008362ffffff1662ffffff1681526020019081526020016000205490505b949350505050565b612ba0613215565b336000818152600760209081526040808320805464ffffffffff421664ffffffffff199091161790558683526002909152902060018101549091600160581b9091046001600160a01b031614612c095760405163068690bf60e11b815260040160405180910390fd5b60018154600160f81b900460ff166005811115612c2857612c28614c4e565b14612c4657604051636f20b45d60e11b815260040160405180910390fd5b60008060018084015460ff1690811115612c6257612c62614c4e565b14612c82578154612c7d906001600160801b03166002615a79565b612c8e565b81546001600160801b03165b6003830154909150612caa906001600160a01b03163383614478565b81546001600160f81b0316600160f91b17825560018201805464ffffffffff60301b1916600160301b4264ffffffffff160217905560405185907f92b2020aad33d0e9762dc13240d6871c7d105bf5580e3cdd3b1753c5d850fecf90600090a2612d17858585600261323f565b5050610a8c6001600055565b82546060908084101580612d35575082155b15612d4057506105d5565b6000612d4c84866157dc565b905084811080612d5b57508181115b15612d635750805b6000855b82811015612df4576000600260008a8481548110612d8757612d8761581e565b90600052602060002001548152602001908152602001600020905060006005811115612db557612db5614c4e565b8154600160f81b900460ff166005811115612dd257612dd2614c4e565b03612ddd5750612dec565b82612de781615aeb565b935050505b600101612d67565b50806001600160401b03811115612e0d57612e0d615808565b604051908082528060200260200182016040528015612e4657816020015b612e33614b33565b815260200190600190039081612e2b5790505b5093506000865b83811015611319576000898281548110612e6957612e6961581e565b6000918252602080832090910154808352600290915260408220909250908154600160f81b900460ff166005811115612ea457612ea4614c4e565b03612eb05750506131d7565b604080516101808101825282546001600160801b0381168252600160801b81046001600160601b03166020830152600160e01b810462ffffff169282019290925260009183906060830190600160f81b900460ff166005811115612f1657612f16614c4e565b6005811115612f2757612f27614c4e565b815260018281015460209092019160ff1690811115612f4857612f48614c4e565b6001811115612f5957612f59614c4e565b8152600182015464ffffffffff610100820481166020840152600160301b82041660408301526001600160a01b03600160581b9091048116606083015260028301548116608083015260038301541660a082015260048201805460c090920191612fc29061585b565b80601f0160208091040260200160405190810160405280929190818152602001828054612fee9061585b565b801561303b5780601f106130105761010080835404028352916020019161303b565b820191906000526020600020905b81548152906001019060200180831161301e57829003601f168201915b5050505050815260200160058201805480602002602001604051908101604052809291908181526020016000905b82821015613189576000848152602090819020604080516080810190915260028502909101805464ffffffffff811683529192909190830190600160281b900460ff1660058111156130bd576130bd614c4e565b60058111156130ce576130ce614c4e565b81528154600160301b900460ff16151560208201526001820180546040909201916130f89061585b565b80601f01602080910402602001604051908101604052809291908181526020018280546131249061585b565b80156131715780601f1061314657610100808354040283529160200191613171565b820191906000526020600020905b81548152906001019060200180831161315457829003601f168201915b50505050508152505081526020019060010190613069565b505050508152505090506040518060400160405280848152602001828152508986815181106131ba576131ba61581e565b602002602001018190525084806131d090615aeb565b9550505050505b600101612e4d565b60008383836040516020016131f693929190615b04565b6040516020818303038152906040528051906020012090509392505050565b60026000540361323857604051633ee5aeb560e01b815260040160405180910390fd5b6002600055565b60008481526002602052604090206001810154600160581b90046001600160a01b0316331480159061327e575060028101546001600160a01b03163314155b1561329c5760405163068690bf60e11b815260040160405180910390fd5b8054600160f81b900460ff1660018160058111156132bc576132bc614c4e565b141580156132dc575060028160058111156132d9576132d9614c4e565b14155b80156132fa575060038160058111156132f7576132f7614c4e565b14155b1561331857604051636f20b45d60e11b815260040160405180910390fd5b600282015460408051608081019091524264ffffffffff1681526001600160a01b039091163314908490600580860191906020820190849081111561335f5761335f614c4e565b8152602001841515815260200189898080601f016020809104026020016040519081016040528093929190818152602001838380828437600092018290525093909452505083546001810185559381526020908190208351600290950201805464ffffffffff19811664ffffffffff909616958617825591840151939490939250839165ffffffffffff191617600160281b83600581111561340357613403614c4e565b021790555060408201518154901515600160301b0260ff60301b199091161781556060820151600182019061343890826158f1565b505050600584015460009061344f906001906157f5565b60405163ffffffff8216815290915089907f0aa69bf4e1ee8d115f11a2eb28f4ed7afff601626aac3e1bb0108fb828ff032c9060200160405180910390a2505050505050505050565b6001600160a01b03821660009081526010602090815260408083208484529091528120549003610c7f576001600160a01b0382166000908152600f60205260409020546134e69060016157dc565b6001600160a01b0383166000818152601060209081526040808320868452825280832094909455918152600f825291822080546001810182559083529120018190555050565b61353683826145c2565b610a8c82826145c2565b600061271061355960326001600160801b038516615a62565b6135639190615b34565b90506135748684611a918486615b56565b6001600160a01b038086166000908152600660205260408120548392169081156135e3576127106135b06107d06001600160801b038716615a62565b6135ba9190615b34565b90506001600160801b038116156135e3576135d6898383613699565b6135e08184615b56565b92505b6001600160a01b0380881660009081526006602052604090205416801561365357600061271061361e610bb86001600160801b038916615a62565b6136289190615b34565b90506001600160801b03811615613651576136448b8383613699565b61364e8186615b56565b94505b505b6001600160801b0384161561368d5761368d8a7f000000000000000000000000000000000000000000000000000000000000000086613699565b50505050505050505050565b806001600160801b03166000036136af57505050565b610a8c6001600160a01b038416836001600160801b0384166146ee565b6001600160a01b0382166000908152601060209081526040808320848452909152812054908190036136fd57505050565b600061370a6001836157f5565b6001600160a01b0385166000908152600f60205260408120805492935091613734906001906157f5565b90508083146137a35760008282815481106137515761375161581e565b90600052602060002001549050808385815481106137715761377161581e565b60009182526020808320909101929092556001600160a01b038916815260108252604080822093825292909152208490555b818054806137b3576137b3615b75565b6000828152602080822083016000199081018390559092019092556001600160a01b039097168152601087526040808220968252959096525050509082209190915550565b8254606090808410158061380a575082155b1561381557506105d5565b600061382184866157dc565b90508481108061383057508181115b156138385750805b6000855b828110156138b15760008882815481106138585761385861581e565b60009182526020808320919091015480835260019182905260408320918201549093509091600160601b90910464ffffffffff1690036138995750506138a9565b836138a381615aeb565b94505050505b60010161383c565b50806001600160401b038111156138ca576138ca615808565b60405190808252806020026020018201604052801561390357816020015b6138f0614ac2565b8152602001906001900390816138e85790505b5093506000865b838110156113195760008982815481106139265761392661581e565b60009182526020808320919091015480835260019182905260408320918201549093509091600160601b90910464ffffffffff169003613967575050613ba6565b604080516101408101825282546001600160801b038082168352600160801b9091041660208201526001808401546001600160601b03811693830193909352600160601b830464ffffffffff166060830152600160881b830462ffffff166080830152600092849160a0840191600160a01b900460ff16908111156139ee576139ee614c4e565b60018111156139ff576139ff614c4e565b815260028201546001600160a01b0390811660208301526003830154166040820152600482018054606090920191613a369061585b565b80601f0160208091040260200160405190810160405280929190818152602001828054613a629061585b565b8015613aaf5780601f10613a8457610100808354040283529160200191613aaf565b820191906000526020600020905b815481529060010190602001808311613a9257829003601f168201915b50505050508152602001600582018054613ac89061585b565b80601f0160208091040260200160405190810160405280929190818152602001828054613af49061585b565b8015613b415780601f10613b1657610100808354040283529160200191613b41565b820191906000526020600020905b815481529060010190602001808311613b2457829003601f168201915b5050509190925250506040805160608101825286815260038601546001600160a01b031660208201529081018390528b51929350918b915087908110613b8957613b8961581e565b60200260200101819052508480613b9f90615aeb565b9550505050505b60010161390a565b6000613bbc8b338c8c61474d565b60008181526001602081905260409091209081015491925090600160601b900464ffffffffff16158015613c71576001808301805462ffffff8e16600160881b0262ffffff60881b198216811783558f9360ff60a01b1990911663ffffffff60881b199092169190911790600160a01b908490811115613c3e57613c3e614c4e565b02179055506002820180546001600160a01b038f166001600160a01b031991821617909155600383018054909116331790555b6001600160801b03888116600160801b02908a161782556001820180546001600160601b038c166001600160601b031990911617905560048201613cb68789836159a9565b5060058201613cc68587836159a9565b5060018201805464ffffffffff60601b1916600160601b4264ffffffffff16021790556000613cf68e8e8e6131df565b90508115613d1257613d0881856148b5565b613d123385614924565b60405184907f9b8f1594adb3b8420f8f64c7991ec1a6d7f8e27097a5d85f85bb0c0f9b5ad96290600090a25050505050505050505050505050565b6001600160a01b03811615801590613d775750816001600160a01b0316816001600160a01b031614155b8015613d9b57506001600160a01b0382811660009081526006602052604090205416155b15610c7f576001600160a01b03918216600090815260066020526040902080546001600160a01b03191691909216179055565b6000828152600a60209081526040808320848452918290528220549091819003613df85750505050565b600084815260096020526040812090613e126001846157f5565b8254909150600090613e26906001906157f5565b9050808214613e82576000838281548110613e4357613e4361581e565b9060005260206000200154905080848481548110613e6357613e6361581e565b6000918252602080832090910192909255918252869052604090208490555b82805480613e9257613e92615b75565b600190038181906000526020600020016000905590558460008781526020019081526020016000206000905550505050505050565b6001600160a01b0382166000908152600c6020908152604080832084845290915281205490819003613ef857505050565b6001600160a01b0383166000908152600b6020526040812090613f1c6001846157f5565b8254909150600090613f30906001906157f5565b9050808214613f9f576000838281548110613f4d57613f4d61581e565b9060005260206000200154905080848481548110613f6d57613f6d61581e565b60009182526020808320909101929092556001600160a01b0389168152600c8252604080822093825292909152208490555b82805480613faf57613faf615b75565b6000828152602080822083016000199081018390559092019092556001600160a01b039097168152600c87526040808220968252959096525050509082209190915550565b6001600160a01b03808a166000908152600460209081526040808320938b1683529290529081208190818b600181111561403057614030614c4e565b600181111561404157614041614c4e565b81526020808201929092526040908101600090812062ffffff8a1682528352818120548082526001909352206003810154919250906001600160a01b038b81169116146140a157604051636df5846d60e01b815260040160405180910390fd5b6001600160a01b038a16600090815260076020526040902054600160681b900460ff166140e15760405163a1231e1f60e01b815260040160405180910390fd5b60008b60018111156140f5576140f5614c4e565b036141305760018101546001600160601b038088169116101561412b57604051630bb46cf960e11b815260040160405180910390fd5b614161565b60018101546001600160601b038088169116111561416157604051630bb46cf960e11b815260040160405180910390fd5b80546001600160801b039081169089161080614191575080546001600160801b03600160801b9091048116908916115b156141af576040516327466a8f60e11b815260040160405180910390fd5b6000808c60018111156141c4576141c4614c4e565b146141cf57886141da565b6141da896002615a79565b90506141e78d8b83614478565b6001600160a01b038a16600090815260056020526040812080548290614215906001600160401b0316615b8b565b91906101000a8154816001600160401b0302191690836001600160401b03160217905590508a8160405160200161424d929190615ac1565b60408051601f19818403018152918152815160209283012060008181526002909352912080546001600160801b038d166001600160801b0319821681178355600187810154600160801b6001600160601b03909116026001600160e01b031990931690911791909117808355929750909142919083906001600160f81b0316600160f81b8302179055508e8260010160006101000a81548160ff021916908360018111156142fd576142fd614c4e565b02179055508d82600101600b6101000a8154816001600160a01b0302191690836001600160a01b031602179055508c8260020160006101000a8154816001600160a01b0302191690836001600160a01b031602179055508a82600001601c6101000a81548162ffffff021916908362ffffff160217905550808260010160016101000a81548164ffffffffff021916908364ffffffffff160217905550808260010160066101000a81548164ffffffffff021916908364ffffffffff1602179055508f8260030160006101000a8154816001600160a01b0302191690836001600160a01b0316021790555088888360040191826143fb9291906159a9565b505050505050509998505050505050505050565b6001600160a01b0382166000908152600d60205260409020546144339060016157dc565b6001600160a01b039092166000818152600e60209081526040808320858452825280832095909555918152600d82529283208054600181018255908452922090910155565b806001600160801b031660000361448e57505050565b6040516370a0823160e01b81526000906001600160a01b038516906370a08231906144bd903090600401615458565b602060405180830381865afa1580156144da573d6000803e3d6000fd5b505050506040513d601f19601f820116820180604052508101906144fe9190615bb7565b905061451e6001600160a01b03851684306001600160801b0386166149ba565b6040516370a0823160e01b81526000906001600160a01b038616906370a082319061454d903090600401615458565b602060405180830381865afa15801561456a573d6000803e3d6000fd5b505050506040513d601f19601f8201168201806040525081019061458e9190615bb7565b90506001600160801b0383166145a483836157f5565b14610bcc57604051631033736160e11b815260040160405180910390fd5b6001600160a01b0382166000908152600e60209081526040808320848452909152812054908190036145f357505050565b60006146006001836157f5565b6001600160a01b0385166000908152600d6020526040812080549293509161462a906001906157f5565b90508083146146995760008282815481106146475761464761581e565b90600052602060002001549050808385815481106146675761466761581e565b60009182526020808320909101929092556001600160a01b0389168152600e8252604080822093825292909152208490555b818054806146a9576146a9615b75565b6000828152602080822083016000199081018390559092019092556001600160a01b039097168152600e87526040808220968252959096525050509082209190915550565b6040516001600160a01b03838116602483015260448201839052610a8c91859182169063a9059cbb906064015b604051602081830303815290604052915060e01b6020820180516001600160e01b0383818316178352505050506149f3565b6001600160a01b03808516600090815260046020908152604080832093871683529290529081208184600181111561478757614787614c4e565b600181111561479857614798614c4e565b81526020808201929092526040908101600090812062ffffff86168252909252902054905080612b90576001600160a01b0384166000908152600360205260408120805482906147f0906001600160401b0316615b8b565b91906101000a8154816001600160401b0302191690836001600160401b03160217905590508481604051602001614828929190615ac1565b60408051601f1981840301815291815281516020928301206001600160a01b03808a16600090815260048552838120918a1681529352908220909350839186600181111561487857614878614c4e565b600181111561488957614889614c4e565b81526020808201929092526040908101600090812062ffffff8816825290925290205550949350505050565b6000828152600a602090815260408083208484529182905290912054156148db57505050565b6000838152600960205260409020546148f59060016157dc565b600083815260209283526040808220929092559384526009825283208054600181018255908452922090910155565b6001600160a01b0382166000908152600c6020908152604080832084845290915290205415614951575050565b6001600160a01b0382166000908152600b60205260409020546149759060016157dc565b6001600160a01b039092166000818152600c60209081526040808320858452825280832095909555918152600b82529283208054600181018255908452922090910155565b6040516001600160a01b0384811660248301528381166044830152606482018390526125429186918216906323b872dd9060840161471b565b600080602060008451602086016000885af180614a16576040513d6000823e3d81fd5b50506000513d91508115614a2e578060011415614a3b565b6001600160a01b0384163b155b156125425783604051635274afe760e01b8152600401614a5b9190615458565b60405180910390fd5b508054614a709061585b565b6000825580601f10614a80575050565b601f016020900490600052602060002090810190614a9e9190614bab565b50565b5080546000825560020290600052602060002090810190614a9e9190614bc4565b6040805160608101825260008082526020820152908101614b2e604080516101408101825260008082526020820181905291810182905260608101829052608081018290529060a082019081526000602082018190526040820152606080820181905260809091015290565b905290565b604080518082019091526000815260208101614b2e60408051610180810182526000808252602082018190529181018290529060608201908152602001600081526000602082018190526040820181905260608083018290526080830182905260a083019190915260c0820181905260e09091015290565b5b80821115614bc05760008155600101614bac565b5090565b80821115614bc057805466ffffffffffffff191681556000614be96001830182614a64565b50600201614bc4565b80356001600160a01b0381168114614c0957600080fd5b919050565b600080600060608486031215614c2357600080fd5b614c2c84614bf2565b95602085013595506040909401359392505050565b6001600160801b03169052565b634e487b7160e01b600052602160045260246000fd5b60068110614c7457614c74614c4e565b9052565b60028110614c7457614c74614c4e565b6001600160a01b03169052565b6000815180845260005b81811015614cbb57602081850181015186830182015201614c9f565b506000602082860101526020601f19601f83011685010191505092915050565b600082825180855260208501945060208160051b8301016020850160005b83811015614d6857601f19858403018852815164ffffffffff81511684526020810151614d296020860182614c64565b506040810151151560408501526060810151905060806060850152614d516080850182614c95565b6020998a0199909450929092019150600101614cf9565b50909695505050505050565b805182526000602082015160406020850152614d94604085018251614c41565b60208101516001600160601b0316606085810191909152604082015162ffffff166080860152810151614dca60a0860182614c64565b506080810151614ddd60c0860182614c78565b5060a081015164ffffffffff811660e08601525060c081015164ffffffffff81166101008601525060e0810151614e18610120860182614c88565b50610100810151614e2d610140860182614c88565b50610120810151614e42610160860182614c88565b5061014081015161018080860152614e5e6101c0860182614c95565b90506101608201519150603f19858203016101a08601526106ee8183614cdb565b6000602082016020835280845180835260408501915060408160051b86010192506020860160005b82811015614ed857603f19878603018452614ec3858351614d74565b94506020938401939190910190600101614ea7565b50929695505050505050565b803560028110614c0957600080fd5b803562ffffff81168114614c0957600080fd5b600080600080600060a08688031215614f1e57600080fd5b614f2786614bf2565b9450614f3560208701614ee4565b9350614f4360408701614ef3565b94979396509394606081013594506080013592915050565b602080825282518282018190526000918401906040840190835b81811015614f93578351835260209384019390920191600101614f75565b509095945050505050565b60008083601f840112614fb057600080fd5b5081356001600160401b03811115614fc757600080fd5b602083019150836020828501011115614fdf57600080fd5b9250929050565b600080600060408486031215614ffb57600080fd5b8335925060208401356001600160401b0381111561501857600080fd5b61502486828701614f9e565b9497909650939450505050565b6000806020838503121561504457600080fd5b82356001600160401b0381111561505a57600080fd5b61506685828601614f9e565b90969095509350505050565b60006020828403121561508457600080fd5b5035919050565b6000602082016020835280845180835260408501915060408160051b86010192506020860160005b82811015614ed857603f19878603018452815164ffffffffff815116865260208101516150e36020880182614c64565b50604081015115156040870152606081015190506080606087015261510b6080870182614c95565b95505060209384019391909101906001016150b3565b60006020828403121561513357600080fd5b6105d582614bf2565b60008083601f84011261514e57600080fd5b5081356001600160401b0381111561516557600080fd5b6020830191508360208260051b8501011115614fdf57600080fd5b60008060006040848603121561519557600080fd5b83356001600160401b038111156151ab57600080fd5b6151b78682870161513c565b909790965060209590950135949350505050565b602080825282518282018190526000918401906040840190835b81811015614f935783516001600160a01b03168352602093840193909201916001016151e5565b64ffffffffff871681528560030b60208201528460030b6040820152831515606082015260c06080820152600061524660c0830185614c95565b82810360a08401526152588185614c95565b9998505050505050505050565b6000806020838503121561527857600080fd5b82356001600160401b0381111561528e57600080fd5b6150668582860161513c565b6000602082016020835280845180835260408501915060408160051b86010192506020860160005b82811015614ed857603f19878603018452815164ffffffffff8151168652602081015160030b6020870152604081015160030b6040870152606081015115156060870152608081015160c0608088015261531f60c0880182614c95565b905060a0820151915086810360a088015261533a8183614c95565b9650505060209384019391909101906001016152c2565b8051825260018060a01b0360208201511660208301526000604082015160606040850152615383606085018251614c41565b60208101516153956080860182614c41565b5060408101516001600160601b031660a085810191909152606082015164ffffffffff1660c0860152608082015162ffffff1660e08601528101516153de610100860182614c78565b5060c08101516153f2610120860182614c88565b5060e0810151615406610140860182614c88565b506101008101516101406101608601526154246101a0860182614c95565b90506101208201519150605f19858203016101808601526106ee8183614c95565b6020815260006105d56020830184615351565b6001600160a01b0391909116815260200190565b6020815260006105d56020830184614d74565b60008060006060848603121561549457600080fd5b61549d84614bf2565b92506154ab60208501614ee4565b91506154b960408501614ef3565b90509250925092565b6000602082016020835280845180835260408501915060408160051b86010192506020860160005b82811015614ed857603f19878603018452615506858351615351565b945060209384019391909101906001016154ea565b6001600160801b038c1681526001600160601b038b16602082015262ffffff8a16604082015261554e606082018a614c64565b61555b6080820189614c78565b64ffffffffff871660a082015264ffffffffff861660c082015261558260e0820186614c88565b615590610100820185614c88565b61559e610120820184614c88565b61016061014082015260006155b7610160830184614c95565b9d9c50505050505050505050505050565b6000602082840312156155da57600080fd5b813580151581146105d557600080fd5b80356001600160601b0381168114614c0957600080fd5b80356001600160801b0381168114614c0957600080fd5b60008060008060008060008060008060006101208c8e03121561563a57600080fd5b6156438c614bf2565b9a5061565160208d01614ee4565b995061565f60408d01614ef3565b985061566d60608d016155ea565b975061567b60808d01615601565b965061568960a08d01615601565b955060c08c01356001600160401b038111156156a457600080fd5b6156b08e828f01614f9e565b90965094505060e08c01356001600160401b038111156156cf57600080fd5b6156db8e828f01614f9e565b90945092506156ef90506101008d01614bf2565b90509295989b509295989b9093969950565b60008060008060008060008060008060006101208c8e03121561572357600080fd5b61572c8c614bf2565b9a5061573a60208d01614ee4565b995061574860408d01614bf2565b985061575660608d01615601565b975061576460808d01614ef3565b965061568960a08d016155ea565b6000806000806080858703121561578857600080fd5b61579185614bf2565b935061579f60208601614bf2565b92506157ad60408601614ee4565b91506157bb60608601614ef3565b905092959194509250565b634e487b7160e01b600052601160045260246000fd5b808201808211156157ef576157ef6157c6565b92915050565b818103818111156157ef576157ef6157c6565b634e487b7160e01b600052604160045260246000fd5b634e487b7160e01b600052603260045260246000fd5b600381810b9083900b01637fffffff8113637fffffff19821217156157ef576157ef6157c6565b600181811c9082168061586f57607f821691505b60208210810361588f57634e487b7160e01b600052602260045260246000fd5b50919050565b601f821115610a8c57806000526020600020601f840160051c810160208510156158bc5750805b601f840160051c820191505b81811015610bcc57600081556001016158c8565b600019600383901b1c191660019190911b1790565b81516001600160401b0381111561590a5761590a615808565b61591e81615918845461585b565b84615895565b6020601f82116001811461594c576000831561593a5750848201515b61594484826158dc565b855550610bcc565b600084815260208120601f198516915b8281101561597c578785015182556020948501946001909201910161595c565b508482101561599a5786840151600019600387901b60f8161c191681555b50505050600190811b01905550565b6001600160401b038311156159c0576159c0615808565b6159d4836159ce835461585b565b83615895565b6000601f841160018114615a0257600085156159f05750838201355b6159fa86826158dc565b845550610bcc565b600083815260209020601f19861690835b82811015615a335786850135825560209485019460019092019101615a13565b5086821015615a505760001960f88860031b161c19848701351681555b505060018560011b0183555050505050565b80820281158282048414176157ef576157ef6157c6565b6001600160801b038181168382160290811690818114615a9b57615a9b6157c6565b5092915050565b6001600160401b0381811683821601908111156157ef576157ef6157c6565b60609290921b6001600160601b031916825260c01b6001600160c01b0319166014820152601c0190565b600060018201615afd57615afd6157c6565b5060010190565b6001600160a01b038416815260608101615b216020830185614c78565b62ffffff83166040830152949350505050565b600082615b5157634e487b7160e01b600052601260045260246000fd5b500490565b6001600160801b0382811682821603908111156157ef576157ef6157c6565b634e487b7160e01b600052603160045260246000fd5b60006001600160401b0382166002600160401b03198101615bae57615bae6157c6565b60010192915050565b600060208284031215615bc957600080fd5b505191905056fec677acc686f4424b864e232e217de479edc357e161509d63e7304bccb2b5253aa2646970667358221220e0e9103bd2e4be3334970a9815a154bf54b39722bc24ebfeee50394af01839bf64736f6c634300081c0033",
  "linkReferences": {},
  "deployedLinkReferences": {},
  "immutableReferences": {
    "1552": [
      {
        "length": 32,
        "start": 13928
      }
    ]
  },
  "inputSourceName": "project/contracts/Swap2p.sol",
  "buildInfoId": "solc-0_8_28-133e9afb759515e71568a39bea8ac3c41f080cf1"
}