{
  "_format": "hh3-artifact-1",
  "contractName": "Swap2p",
  "sourceName": "contracts/Swap2p.sol",
  "abi": [
    {
      "inputs": [
        {
          "internalType": "address",
          "name": "author_",
          "type": "address"
        }
      ],
      "stateMutability": "nonpayable",
      "type": "constructor"
    },
    {
      "inputs": [],
      "name": "AmountOutOfBounds",
      "type": "error"
    },
    {
      "inputs": [],
      "name": "AuthorZero",
      "type": "error"
    },
    {
      "inputs": [],
      "name": "DealNotFound",
      "type": "error"
    },
    {
      "inputs": [],
      "name": "FeeOnTransferTokenNotSupported",
      "type": "error"
    },
    {
      "inputs": [],
      "name": "InsufficientDeposit",
      "type": "error"
    },
    {
      "inputs": [],
      "name": "InsufficientReserve",
      "type": "error"
    },
    {
      "inputs": [],
      "name": "MakerOffline",
      "type": "error"
    },
    {
      "inputs": [],
      "name": "NicknameTaken",
      "type": "error"
    },
    {
      "inputs": [],
      "name": "NotFiatPayer",
      "type": "error"
    },
    {
      "inputs": [],
      "name": "OfferNotFound",
      "type": "error"
    },
    {
      "inputs": [],
      "name": "ReentrancyGuardReentrantCall",
      "type": "error"
    },
    {
      "inputs": [
        {
          "internalType": "address",
          "name": "token",
          "type": "address"
        }
      ],
      "name": "SafeERC20FailedOperation",
      "type": "error"
    },
    {
      "inputs": [],
      "name": "WorsePrice",
      "type": "error"
    },
    {
      "inputs": [],
      "name": "WrongCaller",
      "type": "error"
    },
    {
      "inputs": [],
      "name": "WrongSide",
      "type": "error"
    },
    {
      "inputs": [],
      "name": "WrongState",
      "type": "error"
    },
    {
      "anonymous": false,
      "inputs": [
        {
          "indexed": true,
          "internalType": "bytes32",
          "name": "id",
          "type": "bytes32"
        },
        {
          "indexed": false,
          "internalType": "uint32",
          "name": "index",
          "type": "uint32"
        }
      ],
      "name": "Chat",
      "type": "event"
    },
    {
      "anonymous": false,
      "inputs": [
        {
          "indexed": true,
          "internalType": "bytes32",
          "name": "id",
          "type": "bytes32"
        }
      ],
      "name": "DealAccepted",
      "type": "event"
    },
    {
      "anonymous": false,
      "inputs": [
        {
          "indexed": true,
          "internalType": "bytes32",
          "name": "id",
          "type": "bytes32"
        }
      ],
      "name": "DealCanceled",
      "type": "event"
    },
    {
      "anonymous": false,
      "inputs": [
        {
          "indexed": true,
          "internalType": "bytes32",
          "name": "id",
          "type": "bytes32"
        }
      ],
      "name": "DealDeleted",
      "type": "event"
    },
    {
      "anonymous": false,
      "inputs": [
        {
          "indexed": true,
          "internalType": "bytes32",
          "name": "id",
          "type": "bytes32"
        }
      ],
      "name": "DealPaid",
      "type": "event"
    },
    {
      "anonymous": false,
      "inputs": [
        {
          "indexed": true,
          "internalType": "bytes32",
          "name": "id",
          "type": "bytes32"
        }
      ],
      "name": "DealReleased",
      "type": "event"
    },
    {
      "anonymous": false,
      "inputs": [
        {
          "indexed": true,
          "internalType": "bytes32",
          "name": "id",
          "type": "bytes32"
        }
      ],
      "name": "DealRequested",
      "type": "event"
    },
    {
      "anonymous": false,
      "inputs": [
        {
          "indexed": true,
          "internalType": "address",
          "name": "maker",
          "type": "address"
        },
        {
          "indexed": false,
          "internalType": "bool",
          "name": "online",
          "type": "bool"
        }
      ],
      "name": "MakerOnline",
      "type": "event"
    },
    {
      "anonymous": false,
      "inputs": [
        {
          "indexed": true,
          "internalType": "bytes32",
          "name": "id",
          "type": "bytes32"
        }
      ],
      "name": "OfferDeleted",
      "type": "event"
    },
    {
      "anonymous": false,
      "inputs": [
        {
          "indexed": true,
          "internalType": "bytes32",
          "name": "id",
          "type": "bytes32"
        }
      ],
      "name": "OfferUpsert",
      "type": "event"
    },
    {
      "inputs": [
        {
          "internalType": "address",
          "name": "",
          "type": "address"
        }
      ],
      "name": "affiliates",
      "outputs": [
        {
          "internalType": "address",
          "name": "",
          "type": "address"
        }
      ],
      "stateMutability": "view",
      "type": "function"
    },
    {
      "inputs": [
        {
          "internalType": "bytes32",
          "name": "id",
          "type": "bytes32"
        },
        {
          "internalType": "bytes",
          "name": "reason",
          "type": "bytes"
        }
      ],
      "name": "cancelDeal",
      "outputs": [],
      "stateMutability": "nonpayable",
      "type": "function"
    },
    {
      "inputs": [
        {
          "internalType": "bytes32",
          "name": "id",
          "type": "bytes32"
        },
        {
          "internalType": "bytes",
          "name": "reason",
          "type": "bytes"
        }
      ],
      "name": "cancelRequest",
      "outputs": [],
      "stateMutability": "nonpayable",
      "type": "function"
    },
    {
      "inputs": [
        {
          "internalType": "bytes32[]",
          "name": "ids",
          "type": "bytes32[]"
        },
        {
          "internalType": "uint256",
          "name": "minAgeHours",
          "type": "uint256"
        }
      ],
      "name": "cleanupDeals",
      "outputs": [],
      "stateMutability": "nonpayable",
      "type": "function"
    },
    {
      "inputs": [
        {
          "internalType": "bytes32",
          "name": "",
          "type": "bytes32"
        }
      ],
      "name": "deals",
      "outputs": [
        {
          "internalType": "uint128",
          "name": "amount",
          "type": "uint128"
        },
        {
          "internalType": "uint96",
          "name": "price",
          "type": "uint96"
        },
        {
          "internalType": "Swap2p.FiatCode",
          "name": "fiat",
          "type": "uint24"
        },
        {
          "internalType": "enum Swap2p.DealState",
          "name": "state",
          "type": "uint8"
        },
        {
          "internalType": "enum Swap2p.Side",
          "name": "side",
          "type": "uint8"
        },
        {
          "internalType": "uint40",
          "name": "tsRequest",
          "type": "uint40"
        },
        {
          "internalType": "uint40",
          "name": "tsLast",
          "type": "uint40"
        },
        {
          "internalType": "address",
          "name": "maker",
          "type": "address"
        },
        {
          "internalType": "address",
          "name": "taker",
          "type": "address"
        },
        {
          "internalType": "address",
          "name": "token",
          "type": "address"
        },
        {
          "internalType": "string",
          "name": "paymentMethod",
          "type": "string"
        }
      ],
      "stateMutability": "view",
      "type": "function"
    },
    {
      "inputs": [
        {
          "internalType": "bytes32",
          "name": "id",
          "type": "bytes32"
        }
      ],
      "name": "getDeal",
      "outputs": [
        {
          "components": [
            {
              "internalType": "bytes32",
              "name": "id",
              "type": "bytes32"
            },
            {
              "components": [
                {
                  "internalType": "uint128",
                  "name": "amount",
                  "type": "uint128"
                },
                {
                  "internalType": "uint96",
                  "name": "price",
                  "type": "uint96"
                },
                {
                  "internalType": "Swap2p.FiatCode",
                  "name": "fiat",
                  "type": "uint24"
                },
                {
                  "internalType": "enum Swap2p.DealState",
                  "name": "state",
                  "type": "uint8"
                },
                {
                  "internalType": "enum Swap2p.Side",
                  "name": "side",
                  "type": "uint8"
                },
                {
                  "internalType": "uint40",
                  "name": "tsRequest",
                  "type": "uint40"
                },
                {
                  "internalType": "uint40",
                  "name": "tsLast",
                  "type": "uint40"
                },
                {
                  "internalType": "address",
                  "name": "maker",
                  "type": "address"
                },
                {
                  "internalType": "address",
                  "name": "taker",
                  "type": "address"
                },
                {
                  "internalType": "address",
                  "name": "token",
                  "type": "address"
                },
                {
                  "internalType": "string",
                  "name": "paymentMethod",
                  "type": "string"
                },
                {
                  "components": [
                    {
                      "internalType": "uint40",
                      "name": "ts",
                      "type": "uint40"
                    },
                    {
                      "internalType": "enum Swap2p.DealState",
                      "name": "state",
                      "type": "uint8"
                    },
                    {
                      "internalType": "bool",
                      "name": "toMaker",
                      "type": "bool"
                    },
                    {
                      "internalType": "bytes",
                      "name": "text",
                      "type": "bytes"
                    }
                  ],
                  "internalType": "struct Swap2p.ChatMessage[]",
                  "name": "chat",
                  "type": "tuple[]"
                }
              ],
              "internalType": "struct Swap2p.Deal",
              "name": "deal",
              "type": "tuple"
            }
          ],
          "internalType": "struct Swap2p.DealInfo",
          "name": "info",
          "type": "tuple"
        }
      ],
      "stateMutability": "view",
      "type": "function"
    },
    {
      "inputs": [
        {
          "internalType": "bytes32",
          "name": "id",
          "type": "bytes32"
        }
      ],
      "name": "getDealChat",
      "outputs": [
        {
          "components": [
            {
              "internalType": "uint40",
              "name": "ts",
              "type": "uint40"
            },
            {
              "internalType": "enum Swap2p.DealState",
              "name": "state",
              "type": "uint8"
            },
            {
              "internalType": "bool",
              "name": "toMaker",
              "type": "bool"
            },
            {
              "internalType": "bytes",
              "name": "text",
              "type": "bytes"
            }
          ],
          "internalType": "struct Swap2p.ChatMessage[]",
          "name": "out",
          "type": "tuple[]"
        }
      ],
      "stateMutability": "view",
      "type": "function"
    },
    {
      "inputs": [
        {
          "internalType": "address",
          "name": "maker",
          "type": "address"
        }
      ],
      "name": "getMakerOfferCount",
      "outputs": [
        {
          "internalType": "uint256",
          "name": "",
          "type": "uint256"
        }
      ],
      "stateMutability": "view",
      "type": "function"
    },
    {
      "inputs": [
        {
          "internalType": "address",
          "name": "maker",
          "type": "address"
        },
        {
          "internalType": "uint256",
          "name": "off",
          "type": "uint256"
        },
        {
          "internalType": "uint256",
          "name": "lim",
          "type": "uint256"
        }
      ],
      "name": "getMakerOfferIds",
      "outputs": [
        {
          "internalType": "bytes32[]",
          "name": "out",
          "type": "bytes32[]"
        }
      ],
      "stateMutability": "view",
      "type": "function"
    },
    {
      "inputs": [
        {
          "internalType": "address",
          "name": "maker",
          "type": "address"
        },
        {
          "internalType": "uint256",
          "name": "off",
          "type": "uint256"
        },
        {
          "internalType": "uint256",
          "name": "lim",
          "type": "uint256"
        }
      ],
      "name": "getMakerOffers",
      "outputs": [
        {
          "components": [
            {
              "internalType": "bytes32",
              "name": "id",
              "type": "bytes32"
            },
            {
              "internalType": "address",
              "name": "maker",
              "type": "address"
            },
            {
              "components": [
                {
                  "internalType": "uint128",
                  "name": "minAmt",
                  "type": "uint128"
                },
                {
                  "internalType": "uint128",
                  "name": "maxAmt",
                  "type": "uint128"
                },
                {
                  "internalType": "uint96",
                  "name": "reserve",
                  "type": "uint96"
                },
                {
                  "internalType": "uint96",
                  "name": "priceFiatPerToken",
                  "type": "uint96"
                },
                {
                  "internalType": "uint40",
                  "name": "ts",
                  "type": "uint40"
                },
                {
                  "internalType": "Swap2p.FiatCode",
                  "name": "fiat",
                  "type": "uint24"
                },
                {
                  "internalType": "enum Swap2p.Side",
                  "name": "side",
                  "type": "uint8"
                },
                {
                  "internalType": "address",
                  "name": "token",
                  "type": "address"
                },
                {
                  "internalType": "address",
                  "name": "maker",
                  "type": "address"
                },
                {
                  "internalType": "string",
                  "name": "paymentMethods",
                  "type": "string"
                },
                {
                  "internalType": "string",
                  "name": "requirements",
                  "type": "string"
                }
              ],
              "internalType": "struct Swap2p.Offer",
              "name": "offer",
              "type": "tuple"
            }
          ],
          "internalType": "struct Swap2p.OfferInfo[]",
          "name": "out",
          "type": "tuple[]"
        }
      ],
      "stateMutability": "view",
      "type": "function"
    },
    {
      "inputs": [
        {
          "internalType": "address[]",
          "name": "accounts",
          "type": "address[]"
        }
      ],
      "name": "getMakerProfiles",
      "outputs": [
        {
          "components": [
            {
              "internalType": "uint40",
              "name": "lastActivity",
              "type": "uint40"
            },
            {
              "internalType": "int32",
              "name": "dealsCancelled",
              "type": "int32"
            },
            {
              "internalType": "int32",
              "name": "dealsCompleted",
              "type": "int32"
            },
            {
              "internalType": "bool",
              "name": "online",
              "type": "bool"
            },
            {
              "internalType": "string",
              "name": "nickname",
              "type": "string"
            },
            {
              "internalType": "string",
              "name": "chatPublicKey",
              "type": "string"
            }
          ],
          "internalType": "struct Swap2p.MakerProfile[]",
          "name": "profiles",
          "type": "tuple[]"
        }
      ],
      "stateMutability": "view",
      "type": "function"
    },
    {
      "inputs": [
        {
          "internalType": "address",
          "name": "token",
          "type": "address"
        },
        {
          "internalType": "enum Swap2p.Side",
          "name": "s",
          "type": "uint8"
        },
        {
          "internalType": "Swap2p.FiatCode",
          "name": "f",
          "type": "uint24"
        },
        {
          "internalType": "uint256",
          "name": "off",
          "type": "uint256"
        },
        {
          "internalType": "uint256",
          "name": "lim",
          "type": "uint256"
        }
      ],
      "name": "getMarketOfferIds",
      "outputs": [
        {
          "internalType": "bytes32[]",
          "name": "out",
          "type": "bytes32[]"
        }
      ],
      "stateMutability": "view",
      "type": "function"
    },
    {
      "inputs": [
        {
          "internalType": "address",
          "name": "token",
          "type": "address"
        },
        {
          "internalType": "enum Swap2p.Side",
          "name": "s",
          "type": "uint8"
        },
        {
          "internalType": "Swap2p.FiatCode",
          "name": "f",
          "type": "uint24"
        },
        {
          "internalType": "uint256",
          "name": "off",
          "type": "uint256"
        },
        {
          "internalType": "uint256",
          "name": "lim",
          "type": "uint256"
        }
      ],
      "name": "getMarketOffers",
      "outputs": [
        {
          "components": [
            {
              "internalType": "bytes32",
              "name": "id",
              "type": "bytes32"
            },
            {
              "internalType": "address",
              "name": "maker",
              "type": "address"
            },
            {
              "components": [
                {
                  "internalType": "uint128",
                  "name": "minAmt",
                  "type": "uint128"
                },
                {
                  "internalType": "uint128",
                  "name": "maxAmt",
                  "type": "uint128"
                },
                {
                  "internalType": "uint96",
                  "name": "reserve",
                  "type": "uint96"
                },
                {
                  "internalType": "uint96",
                  "name": "priceFiatPerToken",
                  "type": "uint96"
                },
                {
                  "internalType": "uint40",
                  "name": "ts",
                  "type": "uint40"
                },
                {
                  "internalType": "Swap2p.FiatCode",
                  "name": "fiat",
                  "type": "uint24"
                },
                {
                  "internalType": "enum Swap2p.Side",
                  "name": "side",
                  "type": "uint8"
                },
                {
                  "internalType": "address",
                  "name": "token",
                  "type": "address"
                },
                {
                  "internalType": "address",
                  "name": "maker",
                  "type": "address"
                },
                {
                  "internalType": "string",
                  "name": "paymentMethods",
                  "type": "string"
                },
                {
                  "internalType": "string",
                  "name": "requirements",
                  "type": "string"
                }
              ],
              "internalType": "struct Swap2p.Offer",
              "name": "offer",
              "type": "tuple"
            }
          ],
          "internalType": "struct Swap2p.OfferInfo[]",
          "name": "out",
          "type": "tuple[]"
        }
      ],
      "stateMutability": "view",
      "type": "function"
    },
    {
      "inputs": [
        {
          "internalType": "bytes32",
          "name": "id",
          "type": "bytes32"
        }
      ],
      "name": "getOfferById",
      "outputs": [
        {
          "components": [
            {
              "internalType": "bytes32",
              "name": "id",
              "type": "bytes32"
            },
            {
              "internalType": "address",
              "name": "maker",
              "type": "address"
            },
            {
              "components": [
                {
                  "internalType": "uint128",
                  "name": "minAmt",
                  "type": "uint128"
                },
                {
                  "internalType": "uint128",
                  "name": "maxAmt",
                  "type": "uint128"
                },
                {
                  "internalType": "uint96",
                  "name": "reserve",
                  "type": "uint96"
                },
                {
                  "internalType": "uint96",
                  "name": "priceFiatPerToken",
                  "type": "uint96"
                },
                {
                  "internalType": "uint40",
                  "name": "ts",
                  "type": "uint40"
                },
                {
                  "internalType": "Swap2p.FiatCode",
                  "name": "fiat",
                  "type": "uint24"
                },
                {
                  "internalType": "enum Swap2p.Side",
                  "name": "side",
                  "type": "uint8"
                },
                {
                  "internalType": "address",
                  "name": "token",
                  "type": "address"
                },
                {
                  "internalType": "address",
                  "name": "maker",
                  "type": "address"
                },
                {
                  "internalType": "string",
                  "name": "paymentMethods",
                  "type": "string"
                },
                {
                  "internalType": "string",
                  "name": "requirements",
                  "type": "string"
                }
              ],
              "internalType": "struct Swap2p.Offer",
              "name": "offer",
              "type": "tuple"
            }
          ],
          "internalType": "struct Swap2p.OfferInfo",
          "name": "info",
          "type": "tuple"
        }
      ],
      "stateMutability": "view",
      "type": "function"
    },
    {
      "inputs": [
        {
          "internalType": "address",
          "name": "token",
          "type": "address"
        },
        {
          "internalType": "enum Swap2p.Side",
          "name": "s",
          "type": "uint8"
        },
        {
          "internalType": "Swap2p.FiatCode",
          "name": "f",
          "type": "uint24"
        }
      ],
      "name": "getOfferCount",
      "outputs": [
        {
          "internalType": "uint256",
          "name": "",
          "type": "uint256"
        }
      ],
      "stateMutability": "view",
      "type": "function"
    },
    {
      "inputs": [
        {
          "internalType": "address",
          "name": "token",
          "type": "address"
        },
        {
          "internalType": "address",
          "name": "maker",
          "type": "address"
        },
        {
          "internalType": "enum Swap2p.Side",
          "name": "s",
          "type": "uint8"
        },
        {
          "internalType": "Swap2p.FiatCode",
          "name": "f",
          "type": "uint24"
        }
      ],
      "name": "getOfferId",
      "outputs": [
        {
          "internalType": "bytes32",
          "name": "",
          "type": "bytes32"
        }
      ],
      "stateMutability": "view",
      "type": "function"
    },
    {
      "inputs": [
        {
          "internalType": "address",
          "name": "token",
          "type": "address"
        },
        {
          "internalType": "enum Swap2p.Side",
          "name": "s",
          "type": "uint8"
        },
        {
          "internalType": "Swap2p.FiatCode",
          "name": "f",
          "type": "uint24"
        },
        {
          "internalType": "uint256",
          "name": "off",
          "type": "uint256"
        },
        {
          "internalType": "uint256",
          "name": "lim",
          "type": "uint256"
        }
      ],
      "name": "getOfferKeys",
      "outputs": [
        {
          "internalType": "address[]",
          "name": "out",
          "type": "address[]"
        }
      ],
      "stateMutability": "view",
      "type": "function"
    },
    {
      "inputs": [
        {
          "internalType": "address",
          "name": "u",
          "type": "address"
        }
      ],
      "name": "getOpenDealCount",
      "outputs": [
        {
          "internalType": "uint256",
          "name": "",
          "type": "uint256"
        }
      ],
      "stateMutability": "view",
      "type": "function"
    },
    {
      "inputs": [
        {
          "internalType": "address",
          "name": "u",
          "type": "address"
        },
        {
          "internalType": "uint256",
          "name": "off",
          "type": "uint256"
        },
        {
          "internalType": "uint256",
          "name": "lim",
          "type": "uint256"
        }
      ],
      "name": "getOpenDeals",
      "outputs": [
        {
          "internalType": "bytes32[]",
          "name": "out",
          "type": "bytes32[]"
        }
      ],
      "stateMutability": "view",
      "type": "function"
    },
    {
      "inputs": [
        {
          "internalType": "address",
          "name": "u",
          "type": "address"
        },
        {
          "internalType": "uint256",
          "name": "off",
          "type": "uint256"
        },
        {
          "internalType": "uint256",
          "name": "lim",
          "type": "uint256"
        }
      ],
      "name": "getOpenDealsDetailed",
      "outputs": [
        {
          "components": [
            {
              "internalType": "bytes32",
              "name": "id",
              "type": "bytes32"
            },
            {
              "components": [
                {
                  "internalType": "uint128",
                  "name": "amount",
                  "type": "uint128"
                },
                {
                  "internalType": "uint96",
                  "name": "price",
                  "type": "uint96"
                },
                {
                  "internalType": "Swap2p.FiatCode",
                  "name": "fiat",
                  "type": "uint24"
                },
                {
                  "internalType": "enum Swap2p.DealState",
                  "name": "state",
                  "type": "uint8"
                },
                {
                  "internalType": "enum Swap2p.Side",
                  "name": "side",
                  "type": "uint8"
                },
                {
                  "internalType": "uint40",
                  "name": "tsRequest",
                  "type": "uint40"
                },
                {
                  "internalType": "uint40",
                  "name": "tsLast",
                  "type": "uint40"
                },
                {
                  "internalType": "address",
                  "name": "maker",
                  "type": "address"
                },
                {
                  "internalType": "address",
                  "name": "taker",
                  "type": "address"
                },
                {
                  "internalType": "address",
                  "name": "token",
                  "type": "address"
                },
                {
                  "internalType": "string",
                  "name": "paymentMethod",
                  "type": "string"
                },
                {
                  "components": [
                    {
                      "internalType": "uint40",
                      "name": "ts",
                      "type": "uint40"
                    },
                    {
                      "internalType": "enum Swap2p.DealState",
                      "name": "state",
                      "type": "uint8"
                    },
                    {
                      "internalType": "bool",
                      "name": "toMaker",
                      "type": "bool"
                    },
                    {
                      "internalType": "bytes",
                      "name": "text",
                      "type": "bytes"
                    }
                  ],
                  "internalType": "struct Swap2p.ChatMessage[]",
                  "name": "chat",
                  "type": "tuple[]"
                }
              ],
              "internalType": "struct Swap2p.Deal",
              "name": "deal",
              "type": "tuple"
            }
          ],
          "internalType": "struct Swap2p.DealInfo[]",
          "name": "out",
          "type": "tuple[]"
        }
      ],
      "stateMutability": "view",
      "type": "function"
    },
    {
      "inputs": [
        {
          "internalType": "address",
          "name": "u",
          "type": "address"
        }
      ],
      "name": "getRecentDealCount",
      "outputs": [
        {
          "internalType": "uint256",
          "name": "",
          "type": "uint256"
        }
      ],
      "stateMutability": "view",
      "type": "function"
    },
    {
      "inputs": [
        {
          "internalType": "address",
          "name": "u",
          "type": "address"
        },
        {
          "internalType": "uint256",
          "name": "off",
          "type": "uint256"
        },
        {
          "internalType": "uint256",
          "name": "lim",
          "type": "uint256"
        }
      ],
      "name": "getRecentDeals",
      "outputs": [
        {
          "internalType": "bytes32[]",
          "name": "out",
          "type": "bytes32[]"
        }
      ],
      "stateMutability": "view",
      "type": "function"
    },
    {
      "inputs": [
        {
          "internalType": "address",
          "name": "u",
          "type": "address"
        },
        {
          "internalType": "uint256",
          "name": "off",
          "type": "uint256"
        },
        {
          "internalType": "uint256",
          "name": "lim",
          "type": "uint256"
        }
      ],
      "name": "getRecentDealsDetailed",
      "outputs": [
        {
          "components": [
            {
              "internalType": "bytes32",
              "name": "id",
              "type": "bytes32"
            },
            {
              "components": [
                {
                  "internalType": "uint128",
                  "name": "amount",
                  "type": "uint128"
                },
                {
                  "internalType": "uint96",
                  "name": "price",
                  "type": "uint96"
                },
                {
                  "internalType": "Swap2p.FiatCode",
                  "name": "fiat",
                  "type": "uint24"
                },
                {
                  "internalType": "enum Swap2p.DealState",
                  "name": "state",
                  "type": "uint8"
                },
                {
                  "internalType": "enum Swap2p.Side",
                  "name": "side",
                  "type": "uint8"
                },
                {
                  "internalType": "uint40",
                  "name": "tsRequest",
                  "type": "uint40"
                },
                {
                  "internalType": "uint40",
                  "name": "tsLast",
                  "type": "uint40"
                },
                {
                  "internalType": "address",
                  "name": "maker",
                  "type": "address"
                },
                {
                  "internalType": "address",
                  "name": "taker",
                  "type": "address"
                },
                {
                  "internalType": "address",
                  "name": "token",
                  "type": "address"
                },
                {
                  "internalType": "string",
                  "name": "paymentMethod",
                  "type": "string"
                },
                {
                  "components": [
                    {
                      "internalType": "uint40",
                      "name": "ts",
                      "type": "uint40"
                    },
                    {
                      "internalType": "enum Swap2p.DealState",
                      "name": "state",
                      "type": "uint8"
                    },
                    {
                      "internalType": "bool",
                      "name": "toMaker",
                      "type": "bool"
                    },
                    {
                      "internalType": "bytes",
                      "name": "text",
                      "type": "bytes"
                    }
                  ],
                  "internalType": "struct Swap2p.ChatMessage[]",
                  "name": "chat",
                  "type": "tuple[]"
                }
              ],
              "internalType": "struct Swap2p.Deal",
              "name": "deal",
              "type": "tuple"
            }
          ],
          "internalType": "struct Swap2p.DealInfo[]",
          "name": "out",
          "type": "tuple[]"
        }
      ],
      "stateMutability": "view",
      "type": "function"
    },
    {
      "inputs": [
        {
          "internalType": "address",
          "name": "token",
          "type": "address"
        },
        {
          "internalType": "enum Swap2p.Side",
          "name": "s",
          "type": "uint8"
        },
        {
          "internalType": "Swap2p.FiatCode",
          "name": "f",
          "type": "uint24"
        }
      ],
      "name": "listOffers",
      "outputs": [
        {
          "components": [
            {
              "internalType": "bytes32",
              "name": "id",
              "type": "bytes32"
            },
            {
              "internalType": "address",
              "name": "maker",
              "type": "address"
            },
            {
              "components": [
                {
                  "internalType": "uint128",
                  "name": "minAmt",
                  "type": "uint128"
                },
                {
                  "internalType": "uint128",
                  "name": "maxAmt",
                  "type": "uint128"
                },
                {
                  "internalType": "uint96",
                  "name": "reserve",
                  "type": "uint96"
                },
                {
                  "internalType": "uint96",
                  "name": "priceFiatPerToken",
                  "type": "uint96"
                },
                {
                  "internalType": "uint40",
                  "name": "ts",
                  "type": "uint40"
                },
                {
                  "internalType": "Swap2p.FiatCode",
                  "name": "fiat",
                  "type": "uint24"
                },
                {
                  "internalType": "enum Swap2p.Side",
                  "name": "side",
                  "type": "uint8"
                },
                {
                  "internalType": "address",
                  "name": "token",
                  "type": "address"
                },
                {
                  "internalType": "address",
                  "name": "maker",
                  "type": "address"
                },
                {
                  "internalType": "string",
                  "name": "paymentMethods",
                  "type": "string"
                },
                {
                  "internalType": "string",
                  "name": "requirements",
                  "type": "string"
                }
              ],
              "internalType": "struct Swap2p.Offer",
              "name": "offer",
              "type": "tuple"
            }
          ],
          "internalType": "struct Swap2p.OfferInfo[]",
          "name": "out",
          "type": "tuple[]"
        }
      ],
      "stateMutability": "view",
      "type": "function"
    },
    {
      "inputs": [
        {
          "internalType": "address",
          "name": "",
          "type": "address"
        }
      ],
      "name": "makerInfo",
      "outputs": [
        {
          "internalType": "uint40",
          "name": "lastActivity",
          "type": "uint40"
        },
        {
          "internalType": "int32",
          "name": "dealsCancelled",
          "type": "int32"
        },
        {
          "internalType": "int32",
          "name": "dealsCompleted",
          "type": "int32"
        },
        {
          "internalType": "bool",
          "name": "online",
          "type": "bool"
        },
        {
          "internalType": "string",
          "name": "nickname",
          "type": "string"
        },
        {
          "internalType": "string",
          "name": "chatPublicKey",
          "type": "string"
        }
      ],
      "stateMutability": "view",
      "type": "function"
    },
    {
      "inputs": [
        {
          "internalType": "bytes32",
          "name": "id",
          "type": "bytes32"
        },
        {
          "internalType": "bytes",
          "name": "msg_",
          "type": "bytes"
        }
      ],
      "name": "maker_acceptRequest",
      "outputs": [],
      "stateMutability": "nonpayable",
      "type": "function"
    },
    {
      "inputs": [
        {
          "internalType": "address",
          "name": "token",
          "type": "address"
        },
        {
          "internalType": "enum Swap2p.Side",
          "name": "s",
          "type": "uint8"
        },
        {
          "internalType": "Swap2p.FiatCode",
          "name": "f",
          "type": "uint24"
        }
      ],
      "name": "maker_deleteOffer",
      "outputs": [],
      "stateMutability": "nonpayable",
      "type": "function"
    },
    {
      "inputs": [
        {
          "internalType": "address",
          "name": "token",
          "type": "address"
        },
        {
          "internalType": "enum Swap2p.Side",
          "name": "s",
          "type": "uint8"
        },
        {
          "internalType": "Swap2p.FiatCode",
          "name": "f",
          "type": "uint24"
        },
        {
          "internalType": "uint96",
          "name": "price",
          "type": "uint96"
        },
        {
          "internalType": "uint96",
          "name": "reserve",
          "type": "uint96"
        },
        {
          "internalType": "uint128",
          "name": "minAmt",
          "type": "uint128"
        },
        {
          "internalType": "uint128",
          "name": "maxAmt",
          "type": "uint128"
        },
        {
          "internalType": "string",
          "name": "paymentMethods",
          "type": "string"
        },
        {
          "internalType": "string",
          "name": "requirements",
          "type": "string"
        },
        {
          "internalType": "address",
          "name": "partner",
          "type": "address"
        }
      ],
      "name": "maker_makeOffer",
      "outputs": [],
      "stateMutability": "nonpayable",
      "type": "function"
    },
    {
      "inputs": [
        {
          "internalType": "bytes32",
          "name": "id",
          "type": "bytes32"
        },
        {
          "internalType": "bytes",
          "name": "msg_",
          "type": "bytes"
        }
      ],
      "name": "markFiatPaid",
      "outputs": [],
      "stateMutability": "nonpayable",
      "type": "function"
    },
    {
      "inputs": [
        {
          "internalType": "address",
          "name": "taker",
          "type": "address"
        }
      ],
      "name": "previewNextDealId",
      "outputs": [
        {
          "internalType": "bytes32",
          "name": "id",
          "type": "bytes32"
        },
        {
          "internalType": "uint64",
          "name": "nonce",
          "type": "uint64"
        }
      ],
      "stateMutability": "view",
      "type": "function"
    },
    {
      "inputs": [
        {
          "internalType": "address",
          "name": "maker",
          "type": "address"
        }
      ],
      "name": "previewNextOfferId",
      "outputs": [
        {
          "internalType": "bytes32",
          "name": "id",
          "type": "bytes32"
        },
        {
          "internalType": "uint64",
          "name": "nonce",
          "type": "uint64"
        }
      ],
      "stateMutability": "view",
      "type": "function"
    },
    {
      "inputs": [
        {
          "internalType": "bytes32",
          "name": "id",
          "type": "bytes32"
        },
        {
          "internalType": "bytes",
          "name": "msg_",
          "type": "bytes"
        }
      ],
      "name": "release",
      "outputs": [],
      "stateMutability": "nonpayable",
      "type": "function"
    },
    {
      "inputs": [
        {
          "internalType": "bytes32",
          "name": "id",
          "type": "bytes32"
        },
        {
          "internalType": "bytes",
          "name": "t",
          "type": "bytes"
        }
      ],
      "name": "sendMessage",
      "outputs": [],
      "stateMutability": "nonpayable",
      "type": "function"
    },
    {
      "inputs": [
        {
          "internalType": "string",
          "name": "key",
          "type": "string"
        }
      ],
      "name": "setChatPublicKey",
      "outputs": [],
      "stateMutability": "nonpayable",
      "type": "function"
    },
    {
      "inputs": [
        {
          "internalType": "string",
          "name": "nick",
          "type": "string"
        }
      ],
      "name": "setNickname",
      "outputs": [],
      "stateMutability": "nonpayable",
      "type": "function"
    },
    {
      "inputs": [
        {
          "internalType": "bool",
          "name": "on",
          "type": "bool"
        }
      ],
      "name": "setOnline",
      "outputs": [],
      "stateMutability": "nonpayable",
      "type": "function"
    },
    {
      "inputs": [
        {
          "internalType": "address",
          "name": "token",
          "type": "address"
        },
        {
          "internalType": "enum Swap2p.Side",
          "name": "s",
          "type": "uint8"
        },
        {
          "internalType": "address",
          "name": "maker",
          "type": "address"
        },
        {
          "internalType": "uint128",
          "name": "amount",
          "type": "uint128"
        },
        {
          "internalType": "Swap2p.FiatCode",
          "name": "f",
          "type": "uint24"
        },
        {
          "internalType": "uint96",
          "name": "expectedPrice",
          "type": "uint96"
        },
        {
          "internalType": "string",
          "name": "paymentMethod",
          "type": "string"
        },
        {
          "internalType": "bytes",
          "name": "paymentDetails",
          "type": "bytes"
        },
        {
          "internalType": "address",
          "name": "partner",
          "type": "address"
        }
      ],
      "name": "taker_requestOffer",
      "outputs": [],
      "stateMutability": "nonpayable",
      "type": "function"
    }
  ],
  "bytecode": "0x60a0604052348015600f57600080fd5b506040516160ad3803806160ad833981016040819052602c916067565b60016000556001600160a01b03811660575760405163f79316e160e01b815260040160405180910390fd5b6001600160a01b03166080526095565b600060208284031215607857600080fd5b81516001600160a01b0381168114608e57600080fd5b9392505050565b608051615ffd6100b060003960006138810152615ffd6000f3fe608060405234801561001057600080fd5b50600436106101b75760003560e01c806301d563f9146101bc578063167abbdc146101e55780631bc8a466146102055780631c5d9faa1461021a57806320ded8531461022d57806323c640e71461024d57806323d317a9146102605780632b9c45cb146102735780632f0cd5aa146102aa5780632fbe2ce9146102bd5780633d4d81de146102dd5780633d8dfcce146102f05780633ed152f5146103155780633f9951aa146103285780634314a8e21461034857806347437d1c1461035b5780634be974b51461036e5780634bfac20c1461038e5780634f51e294146103a157806351a6fad5146103d75780635ca3f31b146103f757806364c1cfa11461040a5780636d2a0fd01461041d5780636f557ae51461044d57806371a735c714610460578063722fe606146104735780637b05fd1d1461049c57806381cd872a146104bc5780638f658829146104e65780639af8868c146104f9578063b0fa390314610522578063bd407c1e14610535578063cb34d04014610548578063ce4b8daf1461055b578063d1dd1c271461056e578063d486b7c414610581578063f05b89fe14610594575b600080fd5b6101cf6101ca366004614efd565b6105a7565b6040516101dc9190615179565b60405180910390f35b6101f86101f3366004615200565b6105dc565b6040516101dc9190615255565b6102186102133660046152e0565b6106f7565b005b61021861022836600461532b565b610a91565b61024061023b36600461536c565b610c83565b6040516101dc9190615385565b61021861025b3660046152e0565b610de6565b6101f861026e366004614efd565b610e19565b61029c61028136600461541b565b6001600160a01b03166000908152600b602052604090205490565b6040519081526020016101dc565b6102186102b836600461547a565b610f17565b6102d06102cb366004615200565b6110d0565b6040516101dc91906154c5565b6101f86102eb366004614efd565b611217565b6103036102fe36600461541b565b611325565b6040516101dc96959493929190615506565b61021861032336600461532b565b611482565b61033b61033636600461555f565b6114b4565b6040516101dc9190615594565b6101f8610356366004614efd565b6117d0565b6102186103693660046152e0565b6118c3565b61038161037c36600461536c565b611ce9565b6040516101dc9190615752565b61021861039c3660046152e0565b611f51565b6103ca6103af36600461541b565b6006602052600090815260409020546001600160a01b031681565b6040516101dc9190615765565b6103ea6103e536600461536c565b6122a7565b6040516101dc9190615779565b61029c61040536600461578c565b6125e5565b6102186104183660046152e0565b61260f565b61043061042b36600461541b565b612784565b604080519283526001600160401b039091166020830152016101dc565b61021861045b3660046157fd565b6127e5565b61043061046e36600461541b565b612810565b61029c61048136600461541b565b6001600160a01b03166000908152600d602052604090205490565b6104af6104aa366004615200565b61283f565b6040516101dc91906158fa565b6104cf6104ca36600461536c565b612886565b6040516101dc9b9a99989796959493929190615953565b6104af6104f436600461578c565b6129a8565b61029c61050736600461541b565b6001600160a01b03166000908152600f602052604090205490565b610218610530366004615a00565b6129f9565b6101cf610543366004614efd565b612a6e565b61021861055636600461578c565b612a99565b6104af610569366004614efd565b612c50565b61021861057c366004615a22565b612c83565b61029c61058f366004615b0b565b612d31565b6102186105a23660046152e0565b612db1565b606081156105d5576001600160a01b0384166000908152600f602052604090206105d2908484612f3c565b90505b9392505050565b60606000600960006105ef8989896133f8565b8152602081019190915260400160002080549091508085101580610611575083155b1561061d5750506106ee565b60006106298587615b75565b90508581108061063857508181115b156106405750805b600061064c8783615b8e565b9050806001600160401b0381111561066657610666615ba1565b60405190808252806020026020018201604052801561068f578160200160208202803683370190505b50945060005b818110156106e857846106a8828a615b75565b815481106106b8576106b8615bb7565b90600052602060002001548682815181106106d5576106d5615bb7565b6020908102919091010152600101610695565b50505050505b95945050505050565b6106ff61342e565b336000908152600760209081526040808320805464ffffffffff19164264ffffffffff161790558583526002909152902060038154600160f81b900460ff16600581111561074f5761074f614f4a565b1461076d57604051636f20b45d60e11b815260040160405180910390fd5b600060018083015460ff169081111561078857610788614f4a565b1480156107a2575060028101546001600160a01b03163314155b806107e2575060018181015460ff16818111156107c1576107c1614f4a565b1480156107e257506001810154600160581b90046001600160a01b03163314155b156108005760405163068690bf60e11b815260040160405180910390fd5b61080d8484846004613458565b80546001600160f81b0316600160fa1b17815560018101805464ffffffffff60301b1916600160301b4264ffffffffff1602179081905561085e90600160581b90046001600160a01b0316856136b1565b6002810154610876906001600160a01b0316856136b1565b6001810154600282015461089e916001600160a01b03600160581b9091048116911686613745565b600181810154600160581b90046001600160a01b0316600090815260076020526040902080546009906108dc908490600160481b900460030b615bcd565b825463ffffffff9182166101009390930a92830291909202199091161790555060028101546001600160a01b03166000908152600760205260409020805460019190600990610936908490600160481b900460030b615bcd565b92506101000a81548163ffffffff021916908360030b63ffffffff160217905550600080600181111561096b5761096b614f4a565b60018084015460ff169081111561098457610984614f4a565b1461099c5760028201546001600160a01b03166109b2565b6001820154600160581b90046001600160a01b03165b60038301546002840154600185015485549394506109f6936001600160a01b039384169392831692600160581b9092049091169085906001600160801b0316613759565b600382015460028301548354610a22926001600160a01b039081169216906001600160801b03166138b2565b600382015460018301548354610a55926001600160a01b0390811692600160581b900416906001600160801b03166138b2565b60405185907f7fd4245b0f72acadc4c87701af2ae8b00ba2adeef4b3e209897df6cef0426bee90600090a25050610a8c6001600055565b505050565b336000908152600760209081526040808320805464ffffffffff19164264ffffffffff161781558151601f86018490048402810184019092528482529291859085908190840183828082843760009201829052506001870180549596509094909350610aff92509050615bf4565b80601f0160208091040260200160405190810160405280929190818152602001828054610b2b90615bf4565b8015610b785780601f10610b4d57610100808354040283529160200191610b78565b820191906000526020600020905b815481529060010190602001808311610b5b57829003601f168201915b505050505090508151600003610bd357805115610bcc5780516020808301919091206000818152600883526040808220805460ff19169055805193840190528252906001850190610bc99082615c8a565b50505b5050505050565b81516020830120815115610bf75780828051906020012003610bf757505050505050565b60008181526008602052604090205460ff1615610c2757604051637ec9752560e01b815260040160405180910390fd5b6000818152600860205260409020805460ff191660019081179091558401610c50868883615d42565b50815115610c7a5781516020808401919091206000908152600890915260409020805460ff191690555b505050505b5050565b606060026000838152602001908152602001600020600501805480602002602001604051908101604052809291908181526020016000905b82821015610ddb576000848152602090819020604080516080810190915260028502909101805464ffffffffff811683529192909190830190600160281b900460ff166005811115610d0f57610d0f614f4a565b6005811115610d2057610d20614f4a565b81528154600160301b900460ff1615156020820152600182018054604090920191610d4a90615bf4565b80601f0160208091040260200160405190810160405280929190818152602001828054610d7690615bf4565b8015610dc35780601f10610d9857610100808354040283529160200191610dc3565b820191906000526020600020905b815481529060010190602001808311610da657829003601f168201915b50505050508152505081526020019060010190610cbb565b505050509050919050565b336000908152600760205260408120805464ffffffffff19164264ffffffffff16179055610a8c90849084908490613458565b6001600160a01b0383166000908152600f60205260409020805460609190808510610e455750506105d5565b6000610e518587615b75565b905085811080610e6057508181115b15610e685750805b610e728682615b8e565b6001600160401b03811115610e8957610e89615ba1565b604051908082528060200260200182016040528015610eb2578160200160208202803683370190505b509350855b81811015610f0c57838181548110610ed157610ed1615bb7565b9060005260206000200154858883610ee99190615b8e565b81518110610ef957610ef9615bb7565b6020908102919091010152600101610eb7565b505050509392505050565b6030811015610f3957604051636f20b45d60e11b815260040160405180910390fd5b6000610f4782610e10615dfb565b90508260005b81811015610c7a576000868683818110610f6957610f69615bb7565b60209081029290920135600081815260029093526040909220805492935091600160f81b900460ff1690506004816005811115610fa857610fa8614f4a565b14158015610fc857506005816005811115610fc557610fc5614f4a565b14155b15610fd5575050506110c8565b60018201548690610ff490600160301b900464ffffffffff1642615b8e565b1015611002575050506110c8565b600180830154600280850154600087815260208390526040812081815594850180546001600160f81b031916905591840180546001600160a01b031990811690915560038501805490911690556001600160a01b03600160581b909304831693921691906110736004830182614d4c565b611081600583016000614d89565b505061108d82866138e5565b61109781866138e5565b60405185907f5dfd3d3075c6a14eb1287a8fa566b2a067908e976de63c0f9f4a5246f82a485290600090a250505050505b600101610f4d565b60606000600960006110e38989896133f8565b8152602081019190915260400160002080549091508085101580611105575083155b156111115750506106ee565b600061111d8587615b75565b90508581108061112c57508181115b156111345750805b60006111408783615b8e565b9050806001600160401b0381111561115a5761115a615ba1565b604051908082528060200260200182016040528015611183578160200160208202803683370190505b50945060005b818110156106e8576000600181876111a1858d615b75565b815481106111b1576111b1615bb7565b9060005260206000200154815260200190815260200160002090508060030160009054906101000a90046001600160a01b03168783815181106111f6576111f6615bb7565b6001600160a01b039092166020928302919091019091015250600101611189565b6001600160a01b0383166000908152600b602052604090208054606091908085101580611242575083155b1561124e5750506105d5565b600061125a8587615b75565b90508581108061126957508181115b156112715750805b600061127d8783615b8e565b9050806001600160401b0381111561129757611297615ba1565b6040519080825280602002602001820160405280156112c0578160200160208202803683370190505b50945060005b8181101561131957846112d9828a615b75565b815481106112e9576112e9615bb7565b906000526020600020015486828151811061130657611306615bb7565b60209081029190910101526001016112c6565b50505050509392505050565b6007602052600090815260409020805460018201805464ffffffffff831693600160281b8404600390810b94600160481b810490910b93600160681b90910460ff169261137190615bf4565b80601f016020809104026020016040519081016040528092919081815260200182805461139d90615bf4565b80156113ea5780601f106113bf576101008083540402835291602001916113ea565b820191906000526020600020905b8154815290600101906020018083116113cd57829003601f168201915b5050505050908060020180546113ff90615bf4565b80601f016020809104026020016040519081016040528092919081815260200182805461142b90615bf4565b80156114785780601f1061144d57610100808354040283529160200191611478565b820191906000526020600020905b81548152906001019060200180831161145b57829003601f168201915b5050505050905086565b336000908152600760205260409020805464ffffffffff19164264ffffffffff16178155600201610a8c828483615d42565b606081806001600160401b038111156114cf576114cf615ba1565b60405190808252806020026020018201604052801561153157816020015b6040805160c081018252600080825260208083018290529282018190526060808301919091526080820181905260a082015282526000199092019101816114ed5790505b50915060005b818110156117c85760006007600087878581811061155757611557615bb7565b905060200201602081019061156c919061541b565b6001600160a01b03168152602081019190915260400160002080548551919250600160681b900460ff16908590849081106115a9576115a9615bb7565b60209081029190910101519015156060909101528054845164ffffffffff909116908590849081106115dd576115dd615bb7565b602090810291909101015164ffffffffff909116905260018101805461160290615bf4565b80601f016020809104026020016040519081016040528092919081815260200182805461162e90615bf4565b801561167b5780601f106116505761010080835404028352916020019161167b565b820191906000526020600020905b81548152906001019060200180831161165e57829003601f168201915b505050505084838151811061169257611692615bb7565b60209081029190910101516080015280548451600160281b90910460030b908590849081106116c3576116c3615bb7565b602090810291909101810151600392830b91015281548551600160481b90910490910b908590849081106116f9576116f9615bb7565b60200260200101516040019060030b908160030b8152505080600201805461172090615bf4565b80601f016020809104026020016040519081016040528092919081815260200182805461174c90615bf4565b80156117995780601f1061176e57610100808354040283529160200191611799565b820191906000526020600020905b81548152906001019060200180831161177c57829003601f168201915b50505050508483815181106117b0576117b0615bb7565b602090810291909101015160a0015250600101611537565b505092915050565b6001600160a01b0383166000908152600d602052604090208054606091908085106117fc5750506105d5565b60006118088587615b75565b90508581108061181757508181115b1561181f5750805b6118298682615b8e565b6001600160401b0381111561184057611840615ba1565b604051908082528060200260200182016040528015611869578160200160208202803683370190505b509350855b81811015610f0c5783818154811061188857611888615bb7565b90600052602060002001548588836118a09190615b8e565b815181106118b0576118b0615bb7565b602090810291909101015260010161186e565b6118cb61342e565b336000908152600760209081526040808320805464ffffffffff19164264ffffffffff16179055858352600291829052909120908154600160f81b900460ff16600581111561191c5761191c614f4a565b1461193a57604051636f20b45d60e11b815260040160405180910390fd5b6001810154600160581b90046001600160a01b031633036119945760005b60018083015460ff169081111561197157611971614f4a565b1461198f5760405163153c8df760e31b815260040160405180910390fd5b6119c8565b60028101546001600160a01b031633036119af576001611958565b60405163068690bf60e11b815260040160405180910390fd5b6119d58484846005613458565b80546001600160f81b0316600560f81b1781556001808201805464ffffffffff4216600160301b0264ffffffffff60301b19821681179283905560038501546001600160a01b039081166000908152600460209081526040808320600160581b90970490931682529490945283209293849260ff92831692169190911790811115611a6257611a62614f4a565b6001811115611a7357611a73614f4a565b8152602080820192909252604090810160009081208554600160e01b900462ffffff16825290925290205490508015611b2057600081815260016020819052604090912090810154600160c01b900464ffffffffff1615611b1e5782546001820180546001600160801b0390921691600090611af99084906001600160601b0316615e12565b92506101000a8154816001600160601b0302191690836001600160601b031602179055505b505b6001820154611b3f90600160581b90046001600160a01b0316866136b1565b6002820154611b57906001600160a01b0316866136b1565b600060018084015460ff1690811115611b7257611b72614f4a565b03611be75760038201546002808401548454611baf936001600160a01b0390811693921691611baa916001600160801b031690615e31565b6138b2565b600382015460018301548354611be2926001600160a01b0390811692600160581b900416906001600160801b03166138b2565b611c4c565b600382015460028301548354611c13926001600160a01b039081169216906001600160801b03166138b2565b600382015460018301548354611c4c926001600160a01b0390811692600160581b90041690611baa906001600160801b03166002615e31565b60018201546002830154611c74916001600160a01b03600160581b9091048116911687613745565b336000908152600760205260409020805460019190600590611ca1908490600160281b900460030b615bcd565b92506101000a81548163ffffffff021916908360030b63ffffffff16021790555084600080516020615fa883398151915260405160405180910390a25050610a8c6001600055565b611cf1614daa565b60008281526001602081905260408220908101549091600160c01b90910464ffffffffff169003611d3557604051636df5846d60e01b815260040160405180910390fd5b82825260038101546001600160a01b0316602080840191909152604080516101608101825283546001600160801b038082168352600160801b90910416928101929092526001808401546001600160601b0380821693850193909352600160601b81049092166060840152600160c01b820464ffffffffff166080840152600160e81b90910462ffffff1660a08301526002830154839160c084019160ff1690811115611de457611de4614f4a565b6001811115611df557611df5614f4a565b815260028201546001600160a01b03610100909104811660208301526003830154166040820152600482018054606090920191611e3190615bf4565b80601f0160208091040260200160405190810160405280929190818152602001828054611e5d90615bf4565b8015611eaa5780601f10611e7f57610100808354040283529160200191611eaa565b820191906000526020600020905b815481529060010190602001808311611e8d57829003601f168201915b50505050508152602001600582018054611ec390615bf4565b80601f0160208091040260200160405190810160405280929190818152602001828054611eef90615bf4565b8015611f3c5780601f10611f1157610100808354040283529160200191611f3c565b820191906000526020600020905b815481529060010190602001808311611f1f57829003601f168201915b50505091909252505050604083015250919050565b611f5961342e565b336000818152600760209081526040808320805464ffffffffff421664ffffffffff199091161790558683526002909152902060018101549091600160581b9091046001600160a01b031614801590611fbf575060028101546001600160a01b03163314155b15611fdd5760405163068690bf60e11b815260040160405180910390fd5b60018154600160f81b900460ff166005811115611ffc57611ffc614f4a565b1461201a57604051636f20b45d60e11b815260040160405180910390fd5b6120278484846005613458565b80546001600160f81b0316600560f81b17815560018101805464ffffffffff60301b1916600160301b4264ffffffffff1602179081905561207890600160581b90046001600160a01b0316856136b1565b6002810154612090906001600160a01b0316856136b1565b60038101546001600160a01b039081166000908152600460209081526040808320600180870154600160581b81049096168552925282209192839160ff909116908111156120e0576120e0614f4a565b60018111156120f1576120f1614f4a565b8152602080820192909252604090810160009081208554600160e01b900462ffffff1682529092529020549050801561219e57600081815260016020819052604090912090810154600160c01b900464ffffffffff161561219c5782546001820180546001600160801b03909216916000906121779084906001600160601b0316615e12565b92506101000a8154816001600160601b0302191690836001600160601b031602179055505b505b60008060018085015460ff16908111156121ba576121ba614f4a565b146121cf5782546001600160801b03166121e5565b82546121e5906001600160801b03166002615e31565b60038401546002850154919250612209916001600160a01b039182169116836138b2565b60018301546002840154612231916001600160a01b03600160581b9091048116911688613745565b33600090815260076020526040902080546001919060059061225e908490600160281b900460030b615bcd565b92506101000a81548163ffffffff021916908360030b63ffffffff16021790555085600080516020615fa883398151915260405160405180910390a2505050610a8c6001600055565b6122af614e22565b6000828152600260205260408120908154600160f81b900460ff1660058111156122db576122db614f4a565b036122f95760405163223da47360e21b815260040160405180910390fd5b828252604080516101808101825282546001600160801b0381168252600160801b81046001600160601b03166020830152600160e01b810462ffffff16928201929092529082906060830190600160f81b900460ff16600581111561236057612360614f4a565b600581111561237157612371614f4a565b815260018281015460209092019160ff169081111561239257612392614f4a565b60018111156123a3576123a3614f4a565b8152600182015464ffffffffff610100820481166020840152600160301b82041660408301526001600160a01b03600160581b9091048116606083015260028301548116608083015260038301541660a082015260048201805460c09092019161240c90615bf4565b80601f016020809104026020016040519081016040528092919081815260200182805461243890615bf4565b80156124855780601f1061245a57610100808354040283529160200191612485565b820191906000526020600020905b81548152906001019060200180831161246857829003601f168201915b5050505050815260200160058201805480602002602001604051908101604052809291908181526020016000905b828210156125d3576000848152602090819020604080516080810190915260028502909101805464ffffffffff811683529192909190830190600160281b900460ff16600581111561250757612507614f4a565b600581111561251857612518614f4a565b81528154600160301b900460ff161515602082015260018201805460409092019161254290615bf4565b80601f016020809104026020016040519081016040528092919081815260200182805461256e90615bf4565b80156125bb5780601f10612590576101008083540402835291602001916125bb565b820191906000526020600020905b81548152906001019060200180831161259e57829003601f168201915b505050505081525050815260200190600101906124b3565b50505091525050602083015250919050565b6000600960006125f68686866133f8565b8152602081019190915260400160002054949350505050565b336000908152600760209081526040808320805464ffffffffff19164264ffffffffff16179055858352600291829052909120908154600160f81b900460ff16600581111561266057612660614f4a565b1461267e57604051636f20b45d60e11b815260040160405180910390fd5b600060018083015460ff169081111561269957612699614f4a565b1480156126ba57506001810154600160581b90046001600160a01b03163314155b806126f3575060018181015460ff16818111156126d9576126d9614f4a565b1480156126f3575060028101546001600160a01b03163314155b15612711576040516330698c3d60e01b815260040160405180910390fd5b80546001600160f81b0316600360f81b17815560018101805464ffffffffff60301b1916600160301b4264ffffffffff160217905560405184907fb30095b0d687bb11974087f374f985f2ff4f7b4f9900e31d32f699d416e2213b90600090a261277e8484846003613458565b50505050565b6001600160a01b03811660009081526005602052604081205481906127b3906001600160401b03166001615e5a565b905082816040516020016127c8929190615e79565b604051602081830303815290604052805190602001209150915091565b6127f88c8c8c8c8c8c8c8c8c8c8c613a11565b6128023382613bce565b505050505050505050505050565b6001600160a01b03811660009081526003602052604081205481906127b3906001600160401b03166001615e5a565b60606000600960006128528989896133f8565b815260200190815260200160002090508260000361287057506106ee565b61287b818585613c4f565b979650505050505050565b6002602081905260009182526040909120805460018201549282015460038301546004840180546001600160801b038516966001600160601b03600160801b8704169662ffffff600160e01b8804169660ff600160f81b9091048116969083169564ffffffffff6101008504811696600160301b8604909116956001600160a01b03600160581b90960486169593841694929093169261292590615bf4565b80601f016020809104026020016040519081016040528092919081815260200182805461295190615bf4565b801561299e5780601f106129735761010080835404028352916020019161299e565b820191906000526020600020905b81548152906001019060200180831161298157829003601f168201915b505050505090508b565b60606000600960006129bb8787876133f8565b81526020019081526020016000209050600081805490509050806000036129e35750506105d5565b6129ef82600083613c4f565b9695505050505050565b33600081815260076020526040908190208054841515600160681b0264ffffffffff60ff60681b011990911664ffffffffff421617179055517fbf7433268f9e84553144e23f130bdb514d559f991d19288c0e6d0ad00440636e90612a6390841515815260200190565b60405180910390a250565b606081156105d5576001600160a01b0384166000908152600d602052604090206105d2908484612f3c565b6001600160a01b0383166000908152600460209081526040808320338452909152812081846001811115612acf57612acf614f4a565b6001811115612ae057612ae0614f4a565b81526020808201929092526040908101600090812062ffffff8616825290925290205490508015612c1f57600081815260016020819052604090912090810154600160c01b900464ffffffffff1615612bb3576000612b408686866133f8565b9050612b4c818461401b565b612b563384614114565b600083815260016020819052604082208281559081018290556002810180546001600160a81b03191690556003810180546001600160a01b031916905590612ba16004830182614d4c565b612baf600583016000614d4c565b5050505b6001600160a01b0385166000908152600460209081526040808320338452909152812090856001811115612be957612be9614f4a565b6001811115612bfa57612bfa614f4a565b81526020808201929092526040908101600090812062ffffff87168252909252812055505b60405181907f233d1d5c74ac8791f0673668c3df846ed7254243dc50ce621d05653f5c64b58790600090a250505050565b6001600160a01b0383166000908152600b60205260408120606091839003612c7857506105d5565b6106ee818585613c4f565b612c8b61342e565b336000818152600760205260408120805464ffffffffff19164264ffffffffff16179055612cc08d8d8d858e8e8e8e8e614241565b9050612ccc8b826146f7565b612cd682826146f7565b612ce08284613bce565b612ced8186866001613458565b60405181907f0962211fdd8bae00324df1e7f067e248569f92820b635d0dc5c6f5801f01e8fb90600090a25050612d246001600055565b5050505050505050505050565b6001600160a01b038085166000908152600460209081526040808320938716835292905290812081846001811115612d6b57612d6b614f4a565b6001811115612d7c57612d7c614f4a565b815260200190815260200160002060008362ffffff1662ffffff1681526020019081526020016000205490505b949350505050565b612db961342e565b336000818152600760209081526040808320805464ffffffffff421664ffffffffff199091161790558683526002909152902060018101549091600160581b9091046001600160a01b031614612e225760405163068690bf60e11b815260040160405180910390fd5b60018154600160f81b900460ff166005811115612e4157612e41614f4a565b14612e5f57604051636f20b45d60e11b815260040160405180910390fd5b60008060018084015460ff1690811115612e7b57612e7b614f4a565b14612e9b578154612e96906001600160801b03166002615e31565b612ea7565b81546001600160801b03165b6003830154909150612ec3906001600160a01b03163383614760565b81546001600160f81b0316600160f91b17825560018201805464ffffffffff60301b1916600160301b4264ffffffffff160217905560405185907f92b2020aad33d0e9762dc13240d6871c7d105bf5580e3cdd3b1753c5d850fecf90600090a2612f308585856002613458565b5050610a8c6001600055565b82546060908084101580612f4e575082155b15612f5957506105d5565b6000612f658486615b75565b905084811080612f7457508181115b15612f7c5750805b6000855b8281101561300d576000600260008a8481548110612fa057612fa0615bb7565b90600052602060002001548152602001908152602001600020905060006005811115612fce57612fce614f4a565b8154600160f81b900460ff166005811115612feb57612feb614f4a565b03612ff65750613005565b8261300081615ea3565b935050505b600101612f80565b50806001600160401b0381111561302657613026615ba1565b60405190808252806020026020018201604052801561305f57816020015b61304c614e22565b8152602001906001900390816130445790505b5093506000865b8381101561131957600089828154811061308257613082615bb7565b6000918252602080832090910154808352600290915260408220909250908154600160f81b900460ff1660058111156130bd576130bd614f4a565b036130c95750506133f0565b604080516101808101825282546001600160801b0381168252600160801b81046001600160601b03166020830152600160e01b810462ffffff169282019290925260009183906060830190600160f81b900460ff16600581111561312f5761312f614f4a565b600581111561314057613140614f4a565b815260018281015460209092019160ff169081111561316157613161614f4a565b600181111561317257613172614f4a565b8152600182015464ffffffffff610100820481166020840152600160301b82041660408301526001600160a01b03600160581b9091048116606083015260028301548116608083015260038301541660a082015260048201805460c0909201916131db90615bf4565b80601f016020809104026020016040519081016040528092919081815260200182805461320790615bf4565b80156132545780601f1061322957610100808354040283529160200191613254565b820191906000526020600020905b81548152906001019060200180831161323757829003601f168201915b5050505050815260200160058201805480602002602001604051908101604052809291908181526020016000905b828210156133a2576000848152602090819020604080516080810190915260028502909101805464ffffffffff811683529192909190830190600160281b900460ff1660058111156132d6576132d6614f4a565b60058111156132e7576132e7614f4a565b81528154600160301b900460ff161515602082015260018201805460409092019161331190615bf4565b80601f016020809104026020016040519081016040528092919081815260200182805461333d90615bf4565b801561338a5780601f1061335f5761010080835404028352916020019161338a565b820191906000526020600020905b81548152906001019060200180831161336d57829003601f168201915b50505050508152505081526020019060010190613282565b505050508152505090506040518060400160405280848152602001828152508986815181106133d3576133d3615bb7565b602002602001018190525084806133e990615ea3565b9550505050505b600101613066565b600083838360405160200161340f93929190615ebc565b6040516020818303038152906040528051906020012090509392505050565b60026000540361345157604051633ee5aeb560e01b815260040160405180910390fd5b6002600055565b60008481526002602052604090206001810154600160581b90046001600160a01b03163314801590613497575060028101546001600160a01b03163314155b156134b55760405163068690bf60e11b815260040160405180910390fd5b8054600160f81b900460ff1660018160058111156134d5576134d5614f4a565b141580156134f5575060028160058111156134f2576134f2614f4a565b14155b80156135135750600381600581111561351057613510614f4a565b14155b1561353157604051636f20b45d60e11b815260040160405180910390fd5b600282015460408051608081019091524264ffffffffff1681526001600160a01b039091163314908490600580860191906020820190849081111561357857613578614f4a565b8152602001841515815260200189898080601f016020809104026020016040519081016040528093929190818152602001838380828437600092018290525093909452505083546001810185559381526020908190208351600290950201805464ffffffffff19811664ffffffffff909616958617825591840151939490939250839165ffffffffffff191617600160281b83600581111561361c5761361c614f4a565b021790555060408201518154901515600160301b0260ff60301b19909116178155606082015160018201906136519082615c8a565b505050600584015460009061366890600190615b8e565b60405163ffffffff8216815290915089907f0aa69bf4e1ee8d115f11a2eb28f4ed7afff601626aac3e1bb0108fb828ff032c9060200160405180910390a2505050505050505050565b6001600160a01b03821660009081526010602090815260408083208484529091528120549003610c7f576001600160a01b0382166000908152600f60205260409020546136ff906001615b75565b6001600160a01b0383166000818152601060209081526040808320868452825280832094909455918152600f825291822080546001810182559083529120018190555050565b61374f83826148aa565b610a8c82826148aa565b600061271061377260326001600160801b038516615dfb565b61377c9190615eec565b905061378d8684611baa8486615f0e565b6001600160a01b038086166000908152600660205260408120548392169081156137fc576127106137c96107d06001600160801b038716615dfb565b6137d39190615eec565b90506001600160801b038116156137fc576137ef8983836138b2565b6137f98184615f0e565b92505b6001600160a01b0380881660009081526006602052604090205416801561386c576000612710613837610bb86001600160801b038916615dfb565b6138419190615eec565b90506001600160801b0381161561386a5761385d8b83836138b2565b6138678186615f0e565b94505b505b6001600160801b038416156138a6576138a68a7f0000000000000000000000000000000000000000000000000000000000000000866138b2565b50505050505050505050565b806001600160801b03166000036138c857505050565b610a8c6001600160a01b038416836001600160801b0384166149d6565b6001600160a01b03821660009081526010602090815260408083208484529091528120549081900361391657505050565b6000613923600183615b8e565b6001600160a01b0385166000908152600f6020526040812080549293509161394d90600190615b8e565b90508083146139bc57600082828154811061396a5761396a615bb7565b906000526020600020015490508083858154811061398a5761398a615bb7565b60009182526020808320909101929092556001600160a01b038916815260108252604080822093825292909152208490555b818054806139cc576139cc615f2d565b6000828152602080822083016000199081018390559092019092556001600160a01b039097168152601087526040808220968252959096525050509082209190915550565b6000613a1f8c338d8d614a35565b60008181526001602081905260409091209081015491925090600160c01b900464ffffffffff16158015613ae6576001808301805462ffffff8f16600160e81b026001600160e81b039091161790556002830180548f9260ff19909116908381811115613a8e57613a8e614f4a565b02179055508d8260020160016101000a8154816001600160a01b0302191690836001600160a01b03160217905550338260030160006101000a8154816001600160a01b0302191690836001600160a01b031602179055505b6001600160801b03888116600160801b02908a161782556001820180546001600160601b038d8116600160601b026001600160c01b0319909216908d161717905560048201613b36878983615d42565b5060058201613b46858783615d42565b5060018201805464ffffffffff60c01b1916600160c01b4264ffffffffff16021790556000613b768f8f8f6133f8565b90508115613b9257613b888185614b9d565b613b923385614c0c565b60405184907f9b8f1594adb3b8420f8f64c7991ec1a6d7f8e27097a5d85f85bb0c0f9b5ad96290600090a2505050505050505050505050505050565b6001600160a01b03811615801590613bf85750816001600160a01b0316816001600160a01b031614155b8015613c1c57506001600160a01b0382811660009081526006602052604090205416155b15610c7f576001600160a01b03918216600090815260066020526040902080546001600160a01b03191691909216179055565b82546060908084101580613c61575082155b15613c6c57506105d5565b6000613c788486615b75565b905084811080613c8757508181115b15613c8f5750805b6000855b82811015613d08576000888281548110613caf57613caf615bb7565b60009182526020808320919091015480835260019182905260408320918201549093509091600160c01b90910464ffffffffff169003613cf0575050613d00565b83613cfa81615ea3565b94505050505b600101613c93565b50806001600160401b03811115613d2157613d21615ba1565b604051908082528060200260200182016040528015613d5a57816020015b613d47614daa565b815260200190600190039081613d3f5790505b5093506000865b83811015611319576000898281548110613d7d57613d7d615bb7565b60009182526020808320919091015480835260019182905260408320918201549093509091600160c01b90910464ffffffffff169003613dbe575050614013565b604080516101608101825282546001600160801b038082168352600160801b9091041660208201526001808401546001600160601b0380821694840194909452600160601b81049093166060830152600160c01b830464ffffffffff166080830152600160e81b90920462ffffff1660a08201526002830154600092849160c084019160ff90911690811115613e5657613e56614f4a565b6001811115613e6757613e67614f4a565b815260028201546001600160a01b03610100909104811660208301526003830154166040820152600482018054606090920191613ea390615bf4565b80601f0160208091040260200160405190810160405280929190818152602001828054613ecf90615bf4565b8015613f1c5780601f10613ef157610100808354040283529160200191613f1c565b820191906000526020600020905b815481529060010190602001808311613eff57829003601f168201915b50505050508152602001600582018054613f3590615bf4565b80601f0160208091040260200160405190810160405280929190818152602001828054613f6190615bf4565b8015613fae5780601f10613f8357610100808354040283529160200191613fae565b820191906000526020600020905b815481529060010190602001808311613f9157829003601f168201915b5050509190925250506040805160608101825286815260038601546001600160a01b031660208201529081018390528b51929350918b915087908110613ff657613ff6615bb7565b6020026020010181905250848061400c90615ea3565b9550505050505b600101613d61565b6000828152600a602090815260408083208484529182905282205490918190036140455750505050565b60008481526009602052604081209061405f600184615b8e565b825490915060009061407390600190615b8e565b90508082146140cf57600083828154811061409057614090615bb7565b90600052602060002001549050808484815481106140b0576140b0615bb7565b6000918252602080832090910192909255918252869052604090208490555b828054806140df576140df615f2d565b600190038181906000526020600020016000905590558460008781526020019081526020016000206000905550505050505050565b6001600160a01b0382166000908152600c602090815260408083208484529091528120549081900361414557505050565b6001600160a01b0383166000908152600b6020526040812090614169600184615b8e565b825490915060009061417d90600190615b8e565b90508082146141ec57600083828154811061419a5761419a615bb7565b90600052602060002001549050808484815481106141ba576141ba615bb7565b60009182526020808320909101929092556001600160a01b0389168152600c8252604080822093825292909152208490555b828054806141fc576141fc615f2d565b6000828152602080822083016000199081018390559092019092556001600160a01b039097168152600c87526040808220968252959096525050509082209190915550565b6001600160a01b03808a166000908152600460209081526040808320938b1683529290529081208190818b600181111561427d5761427d614f4a565b600181111561428e5761428e614f4a565b81526020808201929092526040908101600090812062ffffff8a1682528352818120548082526001909352206003810154919250906001600160a01b038b81169116146142ee57604051636df5846d60e01b815260040160405180910390fd5b6001600160a01b038a16600090815260076020526040902054600160681b900460ff1661432e5760405163a1231e1f60e01b815260040160405180910390fd5b60008b600181111561434257614342614f4a565b036143845760018101546001600160601b03808816600160601b90920416101561437f57604051630bb46cf960e11b815260040160405180910390fd5b6143bc565b60018101546001600160601b03808816600160601b9092041611156143bc57604051630bb46cf960e11b815260040160405180910390fd5b80546001600160801b0390811690891610806143ec575080546001600160801b03600160801b9091048116908916115b1561440a576040516327466a8f60e11b815260040160405180910390fd5b60018101546001600160601b03808a169116101561443b576040516328b35f2160e01b815260040160405180910390fd5b60018101805489919060009061445b9084906001600160601b0316615f43565b92506101000a8154816001600160601b0302191690836001600160601b03160217905550600080600181111561449357614493614f4a565b8c60018111156144a5576144a5614f4a565b146144b057886144bb565b6144bb896002615e31565b90506144c88d8b83614760565b6001600160a01b038a166000908152600560205260408120805482906144f6906001600160401b0316615f62565b91906101000a8154816001600160401b0302191690836001600160401b03160217905590508a8160405160200161452e929190615e79565b60408051808303601f19018152918152815160209283012060008181526002909352912080546001600160801b031981166001600160801b038e1690811783556001878101546001600160e01b0319909316909117600160601b9092046001600160601b0316600160801b0291909117808355929750909142919083906001600160f81b0316600160f81b8302179055508e8260010160006101000a81548160ff021916908360018111156145e5576145e5614f4a565b02179055508d82600101600b6101000a8154816001600160a01b0302191690836001600160a01b031602179055508c8260020160006101000a8154816001600160a01b0302191690836001600160a01b031602179055508a82600001601c6101000a81548162ffffff021916908362ffffff160217905550808260010160016101000a81548164ffffffffff021916908364ffffffffff160217905550808260010160066101000a81548164ffffffffff021916908364ffffffffff1602179055508f8260030160006101000a8154816001600160a01b0302191690836001600160a01b0316021790555088888360040191826146e3929190615d42565b505050505050509998505050505050505050565b6001600160a01b0382166000908152600d602052604090205461471b906001615b75565b6001600160a01b039092166000818152600e60209081526040808320858452825280832095909555918152600d82529283208054600181018255908452922090910155565b806001600160801b031660000361477657505050565b6040516370a0823160e01b81526000906001600160a01b038516906370a08231906147a5903090600401615765565b602060405180830381865afa1580156147c2573d6000803e3d6000fd5b505050506040513d601f19601f820116820180604052508101906147e69190615f8e565b90506148066001600160a01b03851684306001600160801b038616614ca2565b6040516370a0823160e01b81526000906001600160a01b038616906370a0823190614835903090600401615765565b602060405180830381865afa158015614852573d6000803e3d6000fd5b505050506040513d601f19601f820116820180604052508101906148769190615f8e565b90506001600160801b03831661488c8383615b8e565b14610bcc57604051631033736160e11b815260040160405180910390fd5b6001600160a01b0382166000908152600e60209081526040808320848452909152812054908190036148db57505050565b60006148e8600183615b8e565b6001600160a01b0385166000908152600d6020526040812080549293509161491290600190615b8e565b905080831461498157600082828154811061492f5761492f615bb7565b906000526020600020015490508083858154811061494f5761494f615bb7565b60009182526020808320909101929092556001600160a01b0389168152600e8252604080822093825292909152208490555b8180548061499157614991615f2d565b6000828152602080822083016000199081018390559092019092556001600160a01b039097168152600e87526040808220968252959096525050509082209190915550565b6040516001600160a01b03838116602483015260448201839052610a8c91859182169063a9059cbb906064015b604051602081830303815290604052915060e01b6020820180516001600160e01b038381831617835250505050614cdb565b6001600160a01b038085166000908152600460209081526040808320938716835292905290812081846001811115614a6f57614a6f614f4a565b6001811115614a8057614a80614f4a565b81526020808201929092526040908101600090812062ffffff86168252909252902054905080612da9576001600160a01b038416600090815260036020526040812080548290614ad8906001600160401b0316615f62565b91906101000a8154816001600160401b0302191690836001600160401b03160217905590508481604051602001614b10929190615e79565b60408051601f1981840301815291815281516020928301206001600160a01b03808a16600090815260048552838120918a16815293529082209093508391866001811115614b6057614b60614f4a565b6001811115614b7157614b71614f4a565b81526020808201929092526040908101600090812062ffffff8816825290925290205550949350505050565b6000828152600a60209081526040808320848452918290529091205415614bc357505050565b600083815260096020526040902054614bdd906001615b75565b600083815260209283526040808220929092559384526009825283208054600181018255908452922090910155565b6001600160a01b0382166000908152600c6020908152604080832084845290915290205415614c39575050565b6001600160a01b0382166000908152600b6020526040902054614c5d906001615b75565b6001600160a01b039092166000818152600c60209081526040808320858452825280832095909555918152600b82529283208054600181018255908452922090910155565b6040516001600160a01b03848116602483015283811660448301526064820183905261277e9186918216906323b872dd90608401614a03565b600080602060008451602086016000885af180614cfe576040513d6000823e3d81fd5b50506000513d91508115614d16578060011415614d23565b6001600160a01b0384163b155b1561277e5783604051635274afe760e01b8152600401614d439190615765565b60405180910390fd5b508054614d5890615bf4565b6000825580601f10614d68575050565b601f016020900490600052602060002090810190614d869190614e9a565b50565b5080546000825560020290600052602060002090810190614d869190614eb3565b6040805160608101825260008082526020820152908101614e1d6040805161016081018252600080825260208201819052918101829052606081018290526080810182905260a081018290529060c082019081526000602082018190526040820152606080820181905260809091015290565b905290565b604080518082019091526000815260208101614e1d60408051610180810182526000808252602082018190529181018290529060608201908152602001600081526000602082018190526040820181905260608083018290526080830182905260a083019190915260c0820181905260e09091015290565b5b80821115614eaf5760008155600101614e9b565b5090565b80821115614eaf57805466ffffffffffffff191681556000614ed86001830182614d4c565b50600201614eb3565b80356001600160a01b0381168114614ef857600080fd5b919050565b600080600060608486031215614f1257600080fd5b614f1b84614ee1565b95602085013595506040909401359392505050565b6001600160801b03169052565b6001600160601b03169052565b634e487b7160e01b600052602160045260246000fd5b60068110614f7057614f70614f4a565b9052565b60028110614f7057614f70614f4a565b6001600160a01b03169052565b6000815180845260005b81811015614fb757602081850181015186830182015201614f9b565b506000602082860101526020601f19601f83011685010191505092915050565b600082825180855260208501945060208160051b8301016020850160005b8381101561506457601f19858403018852815164ffffffffff815116845260208101516150256020860182614f60565b50604081015115156040850152606081015190506080606085015261504d6080850182614f91565b6020998a0199909450929092019150600101614ff5565b50909695505050505050565b805182526000602082015160406020850152615090604085018251614f30565b60208101516150a26060860182614f3d565b50604081015162ffffff16608085015260608101516150c460a0860182614f60565b5060808101516150d760c0860182614f74565b5060a081015164ffffffffff811660e08601525060c081015164ffffffffff81166101008601525060e0810151615112610120860182614f84565b50610100810151615127610140860182614f84565b5061012081015161513c610160860182614f84565b50610140810151610180808601526151586101c0860182614f91565b90506101608201519150603f19858203016101a08601526106ee8183614fd7565b6000602082016020835280845180835260408501915060408160051b86010192506020860160005b828110156151d257603f198786030184526151bd858351615070565b945060209384019391909101906001016151a1565b50929695505050505050565b803560028110614ef857600080fd5b803562ffffff81168114614ef857600080fd5b600080600080600060a0868803121561521857600080fd5b61522186614ee1565b945061522f602087016151de565b935061523d604087016151ed565b94979396509394606081013594506080013592915050565b602080825282518282018190526000918401906040840190835b8181101561528d57835183526020938401939092019160010161526f565b509095945050505050565b60008083601f8401126152aa57600080fd5b5081356001600160401b038111156152c157600080fd5b6020830191508360208285010111156152d957600080fd5b9250929050565b6000806000604084860312156152f557600080fd5b8335925060208401356001600160401b0381111561531257600080fd5b61531e86828701615298565b9497909650939450505050565b6000806020838503121561533e57600080fd5b82356001600160401b0381111561535457600080fd5b61536085828601615298565b90969095509350505050565b60006020828403121561537e57600080fd5b5035919050565b6000602082016020835280845180835260408501915060408160051b86010192506020860160005b828110156151d257603f19878603018452815164ffffffffff815116865260208101516153dd6020880182614f60565b5060408101511515604087015260608101519050608060608701526154056080870182614f91565b95505060209384019391909101906001016153ad565b60006020828403121561542d57600080fd5b6105d582614ee1565b60008083601f84011261544857600080fd5b5081356001600160401b0381111561545f57600080fd5b6020830191508360208260051b85010111156152d957600080fd5b60008060006040848603121561548f57600080fd5b83356001600160401b038111156154a557600080fd5b6154b186828701615436565b909790965060209590950135949350505050565b602080825282518282018190526000918401906040840190835b8181101561528d5783516001600160a01b03168352602093840193909201916001016154df565b64ffffffffff871681528560030b60208201528460030b6040820152831515606082015260c06080820152600061554060c0830185614f91565b82810360a08401526155528185614f91565b9998505050505050505050565b6000806020838503121561557257600080fd5b82356001600160401b0381111561558857600080fd5b61536085828601615436565b6000602082016020835280845180835260408501915060408160051b86010192506020860160005b828110156151d257603f19878603018452815164ffffffffff8151168652602081015160030b6020870152604081015160030b6040870152606081015115156060870152608081015160c0608088015261561960c0880182614f91565b905060a0820151915086810360a08801526156348183614f91565b9650505060209384019391909101906001016155bc565b8051825260018060a01b036020820151166020830152600060408201516060604085015261567d606085018251614f30565b602081015161568f6080860182614f30565b5060408101516156a260a0860182614f3d565b5060608101516156b560c0860182614f3d565b50608081015164ffffffffff1660e085015260a081015162ffffff1661010085015260c08101516156ea610120860182614f74565b5060e08101516156fe610140860182614f84565b50610100810151615713610160860182614f84565b506101208101516101606101808601526157316101c0860182614f91565b90506101408201519150605f19858203016101a08601526106ee8183614f91565b6020815260006105d5602083018461564b565b6001600160a01b0391909116815260200190565b6020815260006105d56020830184615070565b6000806000606084860312156157a157600080fd5b6157aa84614ee1565b92506157b8602085016151de565b91506157c6604085016151ed565b90509250925092565b80356001600160601b0381168114614ef857600080fd5b80356001600160801b0381168114614ef857600080fd5b6000806000806000806000806000806000806101408d8f03121561582057600080fd5b6158298d614ee1565b9b5061583760208e016151de565b9a5061584560408e016151ed565b995061585360608e016157cf565b985061586160808e016157cf565b975061586f60a08e016157e6565b965061587d60c08e016157e6565b95506001600160401b0360e08e0135111561589757600080fd5b6158a78e60e08f01358f01615298565b90955093506001600160401b036101008e013511156158c557600080fd5b6158d68e6101008f01358f01615298565b90935091506158e86101208e01614ee1565b90509295989b509295989b509295989b565b6000602082016020835280845180835260408501915060408160051b86010192506020860160005b828110156151d257603f1987860301845261593e85835161564b565b94506020938401939190910190600101615922565b6001600160801b038c1681526001600160601b038b16602082015262ffffff8a166040820152615986606082018a614f60565b6159936080820189614f74565b64ffffffffff871660a082015264ffffffffff861660c08201526159ba60e0820186614f84565b6159c8610100820185614f84565b6159d6610120820184614f84565b61016061014082015260006159ef610160830184614f91565b9d9c50505050505050505050505050565b600060208284031215615a1257600080fd5b813580151581146105d557600080fd5b60008060008060008060008060008060006101208c8e031215615a4457600080fd5b615a4d8c614ee1565b9a50615a5b60208d016151de565b9950615a6960408d01614ee1565b9850615a7760608d016157e6565b9750615a8560808d016151ed565b9650615a9360a08d016157cf565b955060c08c01356001600160401b03811115615aae57600080fd5b615aba8e828f01615298565b90965094505060e08c01356001600160401b03811115615ad957600080fd5b615ae58e828f01615298565b9094509250615af990506101008d01614ee1565b90509295989b509295989b9093969950565b60008060008060808587031215615b2157600080fd5b615b2a85614ee1565b9350615b3860208601614ee1565b9250615b46604086016151de565b9150615b54606086016151ed565b905092959194509250565b634e487b7160e01b600052601160045260246000fd5b80820180821115615b8857615b88615b5f565b92915050565b81810381811115615b8857615b88615b5f565b634e487b7160e01b600052604160045260246000fd5b634e487b7160e01b600052603260045260246000fd5b600381810b9083900b01637fffffff8113637fffffff1982121715615b8857615b88615b5f565b600181811c90821680615c0857607f821691505b602082108103615c2857634e487b7160e01b600052602260045260246000fd5b50919050565b601f821115610a8c57806000526020600020601f840160051c81016020851015615c555750805b601f840160051c820191505b81811015610bcc5760008155600101615c61565b600019600383901b1c191660019190911b1790565b81516001600160401b03811115615ca357615ca3615ba1565b615cb781615cb18454615bf4565b84615c2e565b6020601f821160018114615ce55760008315615cd35750848201515b615cdd8482615c75565b855550610bcc565b600084815260208120601f198516915b82811015615d155787850151825560209485019460019092019101615cf5565b5084821015615d335786840151600019600387901b60f8161c191681555b50505050600190811b01905550565b6001600160401b03831115615d5957615d59615ba1565b615d6d83615d678354615bf4565b83615c2e565b6000601f841160018114615d9b5760008515615d895750838201355b615d938682615c75565b845550610bcc565b600083815260209020601f19861690835b82811015615dcc5786850135825560209485019460019092019101615dac565b5086821015615de95760001960f88860031b161c19848701351681555b505060018560011b0183555050505050565b8082028115828204841417615b8857615b88615b5f565b6001600160601b038181168382160190811115615b8857615b88615b5f565b6001600160801b038181168382160290811690818114615e5357615e53615b5f565b5092915050565b6001600160401b038181168382160190811115615b8857615b88615b5f565b60609290921b6001600160601b031916825260c01b6001600160c01b0319166014820152601c0190565b600060018201615eb557615eb5615b5f565b5060010190565b6001600160a01b038416815260608101615ed96020830185614f74565b62ffffff83166040830152949350505050565b600082615f0957634e487b7160e01b600052601260045260246000fd5b500490565b6001600160801b038281168282160390811115615b8857615b88615b5f565b634e487b7160e01b600052603160045260246000fd5b6001600160601b038281168282160390811115615b8857615b88615b5f565b60006001600160401b0382166002600160401b03198101615f8557615f85615b5f565b60010192915050565b600060208284031215615fa057600080fd5b505191905056fec677acc686f4424b864e232e217de479edc357e161509d63e7304bccb2b5253aa2646970667358221220f8736d4a5faf59c1bd67a72bd7bd9c5ea9d0fe2f467cee925a57c67dc531678464736f6c634300081c0033",
  "linkReferences": {},
  "deployedLinkReferences": {},
  "immutableReferences": {
    "1554": [
      {
        "length": 32,
        "start": 14465
      }
    ]
  },
  "inputSourceName": "project/contracts/Swap2p.sol",
  "buildInfoId": "solc-0_8_28-33a63d96fecf5734f5c7395f5650ef10db4837a4"
}