{
  "_format": "hh3-artifact-1",
  "contractName": "Swap2p",
  "sourceName": "contracts/Swap2p.sol",
  "abi": [
    {
      "inputs": [
        {
          "internalType": "address",
          "name": "author_",
          "type": "address"
        }
      ],
      "stateMutability": "nonpayable",
      "type": "constructor"
    },
    {
      "inputs": [],
      "name": "AmountOutOfBounds",
      "type": "error"
    },
    {
      "inputs": [],
      "name": "AuthorZero",
      "type": "error"
    },
    {
      "inputs": [],
      "name": "DealNotFound",
      "type": "error"
    },
    {
      "inputs": [],
      "name": "FeeOnTransferTokenNotSupported",
      "type": "error"
    },
    {
      "inputs": [],
      "name": "InsufficientDeposit",
      "type": "error"
    },
    {
      "inputs": [],
      "name": "InsufficientReserve",
      "type": "error"
    },
    {
      "inputs": [],
      "name": "MakerOffline",
      "type": "error"
    },
    {
      "inputs": [],
      "name": "NicknameTaken",
      "type": "error"
    },
    {
      "inputs": [],
      "name": "NotFiatPayer",
      "type": "error"
    },
    {
      "inputs": [],
      "name": "OfferNotFound",
      "type": "error"
    },
    {
      "inputs": [],
      "name": "ReentrancyGuardReentrantCall",
      "type": "error"
    },
    {
      "inputs": [
        {
          "internalType": "address",
          "name": "token",
          "type": "address"
        }
      ],
      "name": "SafeERC20FailedOperation",
      "type": "error"
    },
    {
      "inputs": [],
      "name": "WorsePrice",
      "type": "error"
    },
    {
      "inputs": [],
      "name": "WrongCaller",
      "type": "error"
    },
    {
      "inputs": [],
      "name": "WrongSide",
      "type": "error"
    },
    {
      "inputs": [],
      "name": "WrongState",
      "type": "error"
    },
    {
      "anonymous": false,
      "inputs": [
        {
          "indexed": true,
          "internalType": "bytes32",
          "name": "id",
          "type": "bytes32"
        },
        {
          "indexed": false,
          "internalType": "uint32",
          "name": "index",
          "type": "uint32"
        }
      ],
      "name": "Chat",
      "type": "event"
    },
    {
      "anonymous": false,
      "inputs": [
        {
          "indexed": true,
          "internalType": "bytes32",
          "name": "id",
          "type": "bytes32"
        }
      ],
      "name": "DealAccepted",
      "type": "event"
    },
    {
      "anonymous": false,
      "inputs": [
        {
          "indexed": true,
          "internalType": "bytes32",
          "name": "id",
          "type": "bytes32"
        }
      ],
      "name": "DealCanceled",
      "type": "event"
    },
    {
      "anonymous": false,
      "inputs": [
        {
          "indexed": true,
          "internalType": "bytes32",
          "name": "id",
          "type": "bytes32"
        }
      ],
      "name": "DealDeleted",
      "type": "event"
    },
    {
      "anonymous": false,
      "inputs": [
        {
          "indexed": true,
          "internalType": "bytes32",
          "name": "id",
          "type": "bytes32"
        }
      ],
      "name": "DealPaid",
      "type": "event"
    },
    {
      "anonymous": false,
      "inputs": [
        {
          "indexed": true,
          "internalType": "bytes32",
          "name": "id",
          "type": "bytes32"
        }
      ],
      "name": "DealReleased",
      "type": "event"
    },
    {
      "anonymous": false,
      "inputs": [
        {
          "indexed": true,
          "internalType": "bytes32",
          "name": "id",
          "type": "bytes32"
        }
      ],
      "name": "DealRequested",
      "type": "event"
    },
    {
      "anonymous": false,
      "inputs": [
        {
          "indexed": true,
          "internalType": "address",
          "name": "maker",
          "type": "address"
        },
        {
          "indexed": false,
          "internalType": "bool",
          "name": "online",
          "type": "bool"
        }
      ],
      "name": "MakerOnline",
      "type": "event"
    },
    {
      "anonymous": false,
      "inputs": [
        {
          "indexed": true,
          "internalType": "bytes32",
          "name": "id",
          "type": "bytes32"
        }
      ],
      "name": "OfferDeleted",
      "type": "event"
    },
    {
      "anonymous": false,
      "inputs": [
        {
          "indexed": true,
          "internalType": "bytes32",
          "name": "id",
          "type": "bytes32"
        }
      ],
      "name": "OfferUpsert",
      "type": "event"
    },
    {
      "inputs": [
        {
          "internalType": "address",
          "name": "",
          "type": "address"
        }
      ],
      "name": "affiliates",
      "outputs": [
        {
          "internalType": "address",
          "name": "",
          "type": "address"
        }
      ],
      "stateMutability": "view",
      "type": "function"
    },
    {
      "inputs": [
        {
          "internalType": "bytes32",
          "name": "id",
          "type": "bytes32"
        },
        {
          "internalType": "bytes",
          "name": "reason",
          "type": "bytes"
        }
      ],
      "name": "cancelDeal",
      "outputs": [],
      "stateMutability": "nonpayable",
      "type": "function"
    },
    {
      "inputs": [
        {
          "internalType": "bytes32",
          "name": "id",
          "type": "bytes32"
        },
        {
          "internalType": "bytes",
          "name": "reason",
          "type": "bytes"
        }
      ],
      "name": "cancelRequest",
      "outputs": [],
      "stateMutability": "nonpayable",
      "type": "function"
    },
    {
      "inputs": [
        {
          "internalType": "bytes32[]",
          "name": "ids",
          "type": "bytes32[]"
        },
        {
          "internalType": "uint256",
          "name": "minAgeHours",
          "type": "uint256"
        }
      ],
      "name": "cleanupDeals",
      "outputs": [],
      "stateMutability": "nonpayable",
      "type": "function"
    },
    {
      "inputs": [
        {
          "internalType": "bytes32",
          "name": "",
          "type": "bytes32"
        }
      ],
      "name": "deals",
      "outputs": [
        {
          "internalType": "uint128",
          "name": "amount",
          "type": "uint128"
        },
        {
          "internalType": "uint96",
          "name": "price",
          "type": "uint96"
        },
        {
          "internalType": "Swap2p.FiatCode",
          "name": "fiat",
          "type": "uint24"
        },
        {
          "internalType": "enum Swap2p.DealState",
          "name": "state",
          "type": "uint8"
        },
        {
          "internalType": "enum Swap2p.Side",
          "name": "side",
          "type": "uint8"
        },
        {
          "internalType": "uint40",
          "name": "tsRequest",
          "type": "uint40"
        },
        {
          "internalType": "uint40",
          "name": "tsLast",
          "type": "uint40"
        },
        {
          "internalType": "address",
          "name": "maker",
          "type": "address"
        },
        {
          "internalType": "address",
          "name": "taker",
          "type": "address"
        },
        {
          "internalType": "address",
          "name": "token",
          "type": "address"
        },
        {
          "internalType": "string",
          "name": "paymentMethod",
          "type": "string"
        }
      ],
      "stateMutability": "view",
      "type": "function"
    },
    {
      "inputs": [
        {
          "internalType": "bytes32",
          "name": "id",
          "type": "bytes32"
        }
      ],
      "name": "getDeal",
      "outputs": [
        {
          "components": [
            {
              "internalType": "bytes32",
              "name": "id",
              "type": "bytes32"
            },
            {
              "components": [
                {
                  "internalType": "uint128",
                  "name": "amount",
                  "type": "uint128"
                },
                {
                  "internalType": "uint96",
                  "name": "price",
                  "type": "uint96"
                },
                {
                  "internalType": "Swap2p.FiatCode",
                  "name": "fiat",
                  "type": "uint24"
                },
                {
                  "internalType": "enum Swap2p.DealState",
                  "name": "state",
                  "type": "uint8"
                },
                {
                  "internalType": "enum Swap2p.Side",
                  "name": "side",
                  "type": "uint8"
                },
                {
                  "internalType": "uint40",
                  "name": "tsRequest",
                  "type": "uint40"
                },
                {
                  "internalType": "uint40",
                  "name": "tsLast",
                  "type": "uint40"
                },
                {
                  "internalType": "address",
                  "name": "maker",
                  "type": "address"
                },
                {
                  "internalType": "address",
                  "name": "taker",
                  "type": "address"
                },
                {
                  "internalType": "address",
                  "name": "token",
                  "type": "address"
                },
                {
                  "internalType": "string",
                  "name": "paymentMethod",
                  "type": "string"
                },
                {
                  "components": [
                    {
                      "internalType": "uint40",
                      "name": "ts",
                      "type": "uint40"
                    },
                    {
                      "internalType": "enum Swap2p.DealState",
                      "name": "state",
                      "type": "uint8"
                    },
                    {
                      "internalType": "bool",
                      "name": "toMaker",
                      "type": "bool"
                    },
                    {
                      "internalType": "bytes",
                      "name": "text",
                      "type": "bytes"
                    }
                  ],
                  "internalType": "struct Swap2p.ChatMessage[]",
                  "name": "chat",
                  "type": "tuple[]"
                }
              ],
              "internalType": "struct Swap2p.Deal",
              "name": "deal",
              "type": "tuple"
            }
          ],
          "internalType": "struct Swap2p.DealInfo",
          "name": "info",
          "type": "tuple"
        }
      ],
      "stateMutability": "view",
      "type": "function"
    },
    {
      "inputs": [
        {
          "internalType": "bytes32",
          "name": "id",
          "type": "bytes32"
        }
      ],
      "name": "getDealChat",
      "outputs": [
        {
          "components": [
            {
              "internalType": "uint40",
              "name": "ts",
              "type": "uint40"
            },
            {
              "internalType": "enum Swap2p.DealState",
              "name": "state",
              "type": "uint8"
            },
            {
              "internalType": "bool",
              "name": "toMaker",
              "type": "bool"
            },
            {
              "internalType": "bytes",
              "name": "text",
              "type": "bytes"
            }
          ],
          "internalType": "struct Swap2p.ChatMessage[]",
          "name": "out",
          "type": "tuple[]"
        }
      ],
      "stateMutability": "view",
      "type": "function"
    },
    {
      "inputs": [
        {
          "internalType": "address",
          "name": "maker",
          "type": "address"
        }
      ],
      "name": "getMakerOfferCount",
      "outputs": [
        {
          "internalType": "uint256",
          "name": "",
          "type": "uint256"
        }
      ],
      "stateMutability": "view",
      "type": "function"
    },
    {
      "inputs": [
        {
          "internalType": "address",
          "name": "maker",
          "type": "address"
        },
        {
          "internalType": "uint256",
          "name": "off",
          "type": "uint256"
        },
        {
          "internalType": "uint256",
          "name": "lim",
          "type": "uint256"
        }
      ],
      "name": "getMakerOfferIds",
      "outputs": [
        {
          "internalType": "bytes32[]",
          "name": "out",
          "type": "bytes32[]"
        }
      ],
      "stateMutability": "view",
      "type": "function"
    },
    {
      "inputs": [
        {
          "internalType": "address",
          "name": "maker",
          "type": "address"
        },
        {
          "internalType": "uint256",
          "name": "off",
          "type": "uint256"
        },
        {
          "internalType": "uint256",
          "name": "lim",
          "type": "uint256"
        }
      ],
      "name": "getMakerOffers",
      "outputs": [
        {
          "components": [
            {
              "internalType": "bytes32",
              "name": "id",
              "type": "bytes32"
            },
            {
              "internalType": "address",
              "name": "maker",
              "type": "address"
            },
            {
              "components": [
                {
                  "internalType": "uint128",
                  "name": "minAmt",
                  "type": "uint128"
                },
                {
                  "internalType": "uint128",
                  "name": "maxAmt",
                  "type": "uint128"
                },
                {
                  "internalType": "uint96",
                  "name": "reserve",
                  "type": "uint96"
                },
                {
                  "internalType": "uint96",
                  "name": "priceFiatPerToken",
                  "type": "uint96"
                },
                {
                  "internalType": "uint32",
                  "name": "ts",
                  "type": "uint32"
                },
                {
                  "internalType": "Swap2p.FiatCode",
                  "name": "fiat",
                  "type": "uint24"
                },
                {
                  "internalType": "enum Swap2p.Side",
                  "name": "side",
                  "type": "uint8"
                },
                {
                  "internalType": "address",
                  "name": "token",
                  "type": "address"
                },
                {
                  "internalType": "address",
                  "name": "maker",
                  "type": "address"
                },
                {
                  "internalType": "string",
                  "name": "paymentMethods",
                  "type": "string"
                },
                {
                  "internalType": "string",
                  "name": "requirements",
                  "type": "string"
                }
              ],
              "internalType": "struct Swap2p.Offer",
              "name": "offer",
              "type": "tuple"
            }
          ],
          "internalType": "struct Swap2p.OfferInfo[]",
          "name": "out",
          "type": "tuple[]"
        }
      ],
      "stateMutability": "view",
      "type": "function"
    },
    {
      "inputs": [
        {
          "internalType": "address[]",
          "name": "accounts",
          "type": "address[]"
        }
      ],
      "name": "getMakerProfiles",
      "outputs": [
        {
          "components": [
            {
              "internalType": "uint40",
              "name": "lastActivity",
              "type": "uint40"
            },
            {
              "internalType": "int32",
              "name": "dealsCancelled",
              "type": "int32"
            },
            {
              "internalType": "int32",
              "name": "dealsCompleted",
              "type": "int32"
            },
            {
              "internalType": "bool",
              "name": "online",
              "type": "bool"
            },
            {
              "internalType": "string",
              "name": "nickname",
              "type": "string"
            }
          ],
          "internalType": "struct Swap2p.MakerProfile[]",
          "name": "profiles",
          "type": "tuple[]"
        }
      ],
      "stateMutability": "view",
      "type": "function"
    },
    {
      "inputs": [
        {
          "internalType": "address",
          "name": "token",
          "type": "address"
        },
        {
          "internalType": "enum Swap2p.Side",
          "name": "s",
          "type": "uint8"
        },
        {
          "internalType": "Swap2p.FiatCode",
          "name": "f",
          "type": "uint24"
        },
        {
          "internalType": "uint256",
          "name": "off",
          "type": "uint256"
        },
        {
          "internalType": "uint256",
          "name": "lim",
          "type": "uint256"
        }
      ],
      "name": "getMarketOfferIds",
      "outputs": [
        {
          "internalType": "bytes32[]",
          "name": "out",
          "type": "bytes32[]"
        }
      ],
      "stateMutability": "view",
      "type": "function"
    },
    {
      "inputs": [
        {
          "internalType": "address",
          "name": "token",
          "type": "address"
        },
        {
          "internalType": "enum Swap2p.Side",
          "name": "s",
          "type": "uint8"
        },
        {
          "internalType": "Swap2p.FiatCode",
          "name": "f",
          "type": "uint24"
        },
        {
          "internalType": "uint256",
          "name": "off",
          "type": "uint256"
        },
        {
          "internalType": "uint256",
          "name": "lim",
          "type": "uint256"
        }
      ],
      "name": "getMarketOffers",
      "outputs": [
        {
          "components": [
            {
              "internalType": "bytes32",
              "name": "id",
              "type": "bytes32"
            },
            {
              "internalType": "address",
              "name": "maker",
              "type": "address"
            },
            {
              "components": [
                {
                  "internalType": "uint128",
                  "name": "minAmt",
                  "type": "uint128"
                },
                {
                  "internalType": "uint128",
                  "name": "maxAmt",
                  "type": "uint128"
                },
                {
                  "internalType": "uint96",
                  "name": "reserve",
                  "type": "uint96"
                },
                {
                  "internalType": "uint96",
                  "name": "priceFiatPerToken",
                  "type": "uint96"
                },
                {
                  "internalType": "uint32",
                  "name": "ts",
                  "type": "uint32"
                },
                {
                  "internalType": "Swap2p.FiatCode",
                  "name": "fiat",
                  "type": "uint24"
                },
                {
                  "internalType": "enum Swap2p.Side",
                  "name": "side",
                  "type": "uint8"
                },
                {
                  "internalType": "address",
                  "name": "token",
                  "type": "address"
                },
                {
                  "internalType": "address",
                  "name": "maker",
                  "type": "address"
                },
                {
                  "internalType": "string",
                  "name": "paymentMethods",
                  "type": "string"
                },
                {
                  "internalType": "string",
                  "name": "requirements",
                  "type": "string"
                }
              ],
              "internalType": "struct Swap2p.Offer",
              "name": "offer",
              "type": "tuple"
            }
          ],
          "internalType": "struct Swap2p.OfferInfo[]",
          "name": "out",
          "type": "tuple[]"
        }
      ],
      "stateMutability": "view",
      "type": "function"
    },
    {
      "inputs": [
        {
          "internalType": "bytes32",
          "name": "id",
          "type": "bytes32"
        }
      ],
      "name": "getOfferById",
      "outputs": [
        {
          "components": [
            {
              "internalType": "bytes32",
              "name": "id",
              "type": "bytes32"
            },
            {
              "internalType": "address",
              "name": "maker",
              "type": "address"
            },
            {
              "components": [
                {
                  "internalType": "uint128",
                  "name": "minAmt",
                  "type": "uint128"
                },
                {
                  "internalType": "uint128",
                  "name": "maxAmt",
                  "type": "uint128"
                },
                {
                  "internalType": "uint96",
                  "name": "reserve",
                  "type": "uint96"
                },
                {
                  "internalType": "uint96",
                  "name": "priceFiatPerToken",
                  "type": "uint96"
                },
                {
                  "internalType": "uint32",
                  "name": "ts",
                  "type": "uint32"
                },
                {
                  "internalType": "Swap2p.FiatCode",
                  "name": "fiat",
                  "type": "uint24"
                },
                {
                  "internalType": "enum Swap2p.Side",
                  "name": "side",
                  "type": "uint8"
                },
                {
                  "internalType": "address",
                  "name": "token",
                  "type": "address"
                },
                {
                  "internalType": "address",
                  "name": "maker",
                  "type": "address"
                },
                {
                  "internalType": "string",
                  "name": "paymentMethods",
                  "type": "string"
                },
                {
                  "internalType": "string",
                  "name": "requirements",
                  "type": "string"
                }
              ],
              "internalType": "struct Swap2p.Offer",
              "name": "offer",
              "type": "tuple"
            }
          ],
          "internalType": "struct Swap2p.OfferInfo",
          "name": "info",
          "type": "tuple"
        }
      ],
      "stateMutability": "view",
      "type": "function"
    },
    {
      "inputs": [
        {
          "internalType": "address",
          "name": "token",
          "type": "address"
        },
        {
          "internalType": "enum Swap2p.Side",
          "name": "s",
          "type": "uint8"
        },
        {
          "internalType": "Swap2p.FiatCode",
          "name": "f",
          "type": "uint24"
        }
      ],
      "name": "getOfferCount",
      "outputs": [
        {
          "internalType": "uint256",
          "name": "",
          "type": "uint256"
        }
      ],
      "stateMutability": "view",
      "type": "function"
    },
    {
      "inputs": [
        {
          "internalType": "address",
          "name": "token",
          "type": "address"
        },
        {
          "internalType": "address",
          "name": "maker",
          "type": "address"
        },
        {
          "internalType": "enum Swap2p.Side",
          "name": "s",
          "type": "uint8"
        },
        {
          "internalType": "Swap2p.FiatCode",
          "name": "f",
          "type": "uint24"
        }
      ],
      "name": "getOfferId",
      "outputs": [
        {
          "internalType": "bytes32",
          "name": "",
          "type": "bytes32"
        }
      ],
      "stateMutability": "view",
      "type": "function"
    },
    {
      "inputs": [
        {
          "internalType": "address",
          "name": "token",
          "type": "address"
        },
        {
          "internalType": "enum Swap2p.Side",
          "name": "s",
          "type": "uint8"
        },
        {
          "internalType": "Swap2p.FiatCode",
          "name": "f",
          "type": "uint24"
        },
        {
          "internalType": "uint256",
          "name": "off",
          "type": "uint256"
        },
        {
          "internalType": "uint256",
          "name": "lim",
          "type": "uint256"
        }
      ],
      "name": "getOfferKeys",
      "outputs": [
        {
          "internalType": "address[]",
          "name": "out",
          "type": "address[]"
        }
      ],
      "stateMutability": "view",
      "type": "function"
    },
    {
      "inputs": [
        {
          "internalType": "address",
          "name": "u",
          "type": "address"
        }
      ],
      "name": "getOpenDealCount",
      "outputs": [
        {
          "internalType": "uint256",
          "name": "",
          "type": "uint256"
        }
      ],
      "stateMutability": "view",
      "type": "function"
    },
    {
      "inputs": [
        {
          "internalType": "address",
          "name": "u",
          "type": "address"
        },
        {
          "internalType": "uint256",
          "name": "off",
          "type": "uint256"
        },
        {
          "internalType": "uint256",
          "name": "lim",
          "type": "uint256"
        }
      ],
      "name": "getOpenDeals",
      "outputs": [
        {
          "internalType": "bytes32[]",
          "name": "out",
          "type": "bytes32[]"
        }
      ],
      "stateMutability": "view",
      "type": "function"
    },
    {
      "inputs": [
        {
          "internalType": "address",
          "name": "u",
          "type": "address"
        },
        {
          "internalType": "uint256",
          "name": "off",
          "type": "uint256"
        },
        {
          "internalType": "uint256",
          "name": "lim",
          "type": "uint256"
        }
      ],
      "name": "getOpenDealsDetailed",
      "outputs": [
        {
          "components": [
            {
              "internalType": "bytes32",
              "name": "id",
              "type": "bytes32"
            },
            {
              "components": [
                {
                  "internalType": "uint128",
                  "name": "amount",
                  "type": "uint128"
                },
                {
                  "internalType": "uint96",
                  "name": "price",
                  "type": "uint96"
                },
                {
                  "internalType": "Swap2p.FiatCode",
                  "name": "fiat",
                  "type": "uint24"
                },
                {
                  "internalType": "enum Swap2p.DealState",
                  "name": "state",
                  "type": "uint8"
                },
                {
                  "internalType": "enum Swap2p.Side",
                  "name": "side",
                  "type": "uint8"
                },
                {
                  "internalType": "uint40",
                  "name": "tsRequest",
                  "type": "uint40"
                },
                {
                  "internalType": "uint40",
                  "name": "tsLast",
                  "type": "uint40"
                },
                {
                  "internalType": "address",
                  "name": "maker",
                  "type": "address"
                },
                {
                  "internalType": "address",
                  "name": "taker",
                  "type": "address"
                },
                {
                  "internalType": "address",
                  "name": "token",
                  "type": "address"
                },
                {
                  "internalType": "string",
                  "name": "paymentMethod",
                  "type": "string"
                },
                {
                  "components": [
                    {
                      "internalType": "uint40",
                      "name": "ts",
                      "type": "uint40"
                    },
                    {
                      "internalType": "enum Swap2p.DealState",
                      "name": "state",
                      "type": "uint8"
                    },
                    {
                      "internalType": "bool",
                      "name": "toMaker",
                      "type": "bool"
                    },
                    {
                      "internalType": "bytes",
                      "name": "text",
                      "type": "bytes"
                    }
                  ],
                  "internalType": "struct Swap2p.ChatMessage[]",
                  "name": "chat",
                  "type": "tuple[]"
                }
              ],
              "internalType": "struct Swap2p.Deal",
              "name": "deal",
              "type": "tuple"
            }
          ],
          "internalType": "struct Swap2p.DealInfo[]",
          "name": "out",
          "type": "tuple[]"
        }
      ],
      "stateMutability": "view",
      "type": "function"
    },
    {
      "inputs": [
        {
          "internalType": "address",
          "name": "u",
          "type": "address"
        }
      ],
      "name": "getRecentDealCount",
      "outputs": [
        {
          "internalType": "uint256",
          "name": "",
          "type": "uint256"
        }
      ],
      "stateMutability": "view",
      "type": "function"
    },
    {
      "inputs": [
        {
          "internalType": "address",
          "name": "u",
          "type": "address"
        },
        {
          "internalType": "uint256",
          "name": "off",
          "type": "uint256"
        },
        {
          "internalType": "uint256",
          "name": "lim",
          "type": "uint256"
        }
      ],
      "name": "getRecentDeals",
      "outputs": [
        {
          "internalType": "bytes32[]",
          "name": "out",
          "type": "bytes32[]"
        }
      ],
      "stateMutability": "view",
      "type": "function"
    },
    {
      "inputs": [
        {
          "internalType": "address",
          "name": "u",
          "type": "address"
        },
        {
          "internalType": "uint256",
          "name": "off",
          "type": "uint256"
        },
        {
          "internalType": "uint256",
          "name": "lim",
          "type": "uint256"
        }
      ],
      "name": "getRecentDealsDetailed",
      "outputs": [
        {
          "components": [
            {
              "internalType": "bytes32",
              "name": "id",
              "type": "bytes32"
            },
            {
              "components": [
                {
                  "internalType": "uint128",
                  "name": "amount",
                  "type": "uint128"
                },
                {
                  "internalType": "uint96",
                  "name": "price",
                  "type": "uint96"
                },
                {
                  "internalType": "Swap2p.FiatCode",
                  "name": "fiat",
                  "type": "uint24"
                },
                {
                  "internalType": "enum Swap2p.DealState",
                  "name": "state",
                  "type": "uint8"
                },
                {
                  "internalType": "enum Swap2p.Side",
                  "name": "side",
                  "type": "uint8"
                },
                {
                  "internalType": "uint40",
                  "name": "tsRequest",
                  "type": "uint40"
                },
                {
                  "internalType": "uint40",
                  "name": "tsLast",
                  "type": "uint40"
                },
                {
                  "internalType": "address",
                  "name": "maker",
                  "type": "address"
                },
                {
                  "internalType": "address",
                  "name": "taker",
                  "type": "address"
                },
                {
                  "internalType": "address",
                  "name": "token",
                  "type": "address"
                },
                {
                  "internalType": "string",
                  "name": "paymentMethod",
                  "type": "string"
                },
                {
                  "components": [
                    {
                      "internalType": "uint40",
                      "name": "ts",
                      "type": "uint40"
                    },
                    {
                      "internalType": "enum Swap2p.DealState",
                      "name": "state",
                      "type": "uint8"
                    },
                    {
                      "internalType": "bool",
                      "name": "toMaker",
                      "type": "bool"
                    },
                    {
                      "internalType": "bytes",
                      "name": "text",
                      "type": "bytes"
                    }
                  ],
                  "internalType": "struct Swap2p.ChatMessage[]",
                  "name": "chat",
                  "type": "tuple[]"
                }
              ],
              "internalType": "struct Swap2p.Deal",
              "name": "deal",
              "type": "tuple"
            }
          ],
          "internalType": "struct Swap2p.DealInfo[]",
          "name": "out",
          "type": "tuple[]"
        }
      ],
      "stateMutability": "view",
      "type": "function"
    },
    {
      "inputs": [
        {
          "internalType": "address",
          "name": "token",
          "type": "address"
        },
        {
          "internalType": "enum Swap2p.Side",
          "name": "s",
          "type": "uint8"
        },
        {
          "internalType": "Swap2p.FiatCode",
          "name": "f",
          "type": "uint24"
        }
      ],
      "name": "listOffers",
      "outputs": [
        {
          "components": [
            {
              "internalType": "bytes32",
              "name": "id",
              "type": "bytes32"
            },
            {
              "internalType": "address",
              "name": "maker",
              "type": "address"
            },
            {
              "components": [
                {
                  "internalType": "uint128",
                  "name": "minAmt",
                  "type": "uint128"
                },
                {
                  "internalType": "uint128",
                  "name": "maxAmt",
                  "type": "uint128"
                },
                {
                  "internalType": "uint96",
                  "name": "reserve",
                  "type": "uint96"
                },
                {
                  "internalType": "uint96",
                  "name": "priceFiatPerToken",
                  "type": "uint96"
                },
                {
                  "internalType": "uint32",
                  "name": "ts",
                  "type": "uint32"
                },
                {
                  "internalType": "Swap2p.FiatCode",
                  "name": "fiat",
                  "type": "uint24"
                },
                {
                  "internalType": "enum Swap2p.Side",
                  "name": "side",
                  "type": "uint8"
                },
                {
                  "internalType": "address",
                  "name": "token",
                  "type": "address"
                },
                {
                  "internalType": "address",
                  "name": "maker",
                  "type": "address"
                },
                {
                  "internalType": "string",
                  "name": "paymentMethods",
                  "type": "string"
                },
                {
                  "internalType": "string",
                  "name": "requirements",
                  "type": "string"
                }
              ],
              "internalType": "struct Swap2p.Offer",
              "name": "offer",
              "type": "tuple"
            }
          ],
          "internalType": "struct Swap2p.OfferInfo[]",
          "name": "out",
          "type": "tuple[]"
        }
      ],
      "stateMutability": "view",
      "type": "function"
    },
    {
      "inputs": [
        {
          "internalType": "address",
          "name": "",
          "type": "address"
        }
      ],
      "name": "makerInfo",
      "outputs": [
        {
          "internalType": "uint40",
          "name": "lastActivity",
          "type": "uint40"
        },
        {
          "internalType": "int32",
          "name": "dealsCancelled",
          "type": "int32"
        },
        {
          "internalType": "int32",
          "name": "dealsCompleted",
          "type": "int32"
        },
        {
          "internalType": "bool",
          "name": "online",
          "type": "bool"
        },
        {
          "internalType": "string",
          "name": "nickname",
          "type": "string"
        }
      ],
      "stateMutability": "view",
      "type": "function"
    },
    {
      "inputs": [
        {
          "internalType": "bytes32",
          "name": "id",
          "type": "bytes32"
        },
        {
          "internalType": "bytes",
          "name": "msg_",
          "type": "bytes"
        }
      ],
      "name": "maker_acceptRequest",
      "outputs": [],
      "stateMutability": "nonpayable",
      "type": "function"
    },
    {
      "inputs": [
        {
          "internalType": "address",
          "name": "token",
          "type": "address"
        },
        {
          "internalType": "enum Swap2p.Side",
          "name": "s",
          "type": "uint8"
        },
        {
          "internalType": "Swap2p.FiatCode",
          "name": "f",
          "type": "uint24"
        }
      ],
      "name": "maker_deleteOffer",
      "outputs": [],
      "stateMutability": "nonpayable",
      "type": "function"
    },
    {
      "inputs": [
        {
          "internalType": "address",
          "name": "token",
          "type": "address"
        },
        {
          "internalType": "enum Swap2p.Side",
          "name": "s",
          "type": "uint8"
        },
        {
          "internalType": "Swap2p.FiatCode",
          "name": "f",
          "type": "uint24"
        },
        {
          "internalType": "uint96",
          "name": "price",
          "type": "uint96"
        },
        {
          "internalType": "uint96",
          "name": "reserve",
          "type": "uint96"
        },
        {
          "internalType": "uint128",
          "name": "minAmt",
          "type": "uint128"
        },
        {
          "internalType": "uint128",
          "name": "maxAmt",
          "type": "uint128"
        },
        {
          "internalType": "string",
          "name": "paymentMethods",
          "type": "string"
        },
        {
          "internalType": "string",
          "name": "requirements",
          "type": "string"
        },
        {
          "internalType": "address",
          "name": "partner",
          "type": "address"
        }
      ],
      "name": "maker_makeOffer",
      "outputs": [],
      "stateMutability": "nonpayable",
      "type": "function"
    },
    {
      "inputs": [
        {
          "internalType": "bytes32",
          "name": "id",
          "type": "bytes32"
        },
        {
          "internalType": "bytes",
          "name": "msg_",
          "type": "bytes"
        }
      ],
      "name": "markFiatPaid",
      "outputs": [],
      "stateMutability": "nonpayable",
      "type": "function"
    },
    {
      "inputs": [
        {
          "internalType": "address",
          "name": "taker",
          "type": "address"
        }
      ],
      "name": "previewNextDealId",
      "outputs": [
        {
          "internalType": "bytes32",
          "name": "id",
          "type": "bytes32"
        },
        {
          "internalType": "uint64",
          "name": "nonce",
          "type": "uint64"
        }
      ],
      "stateMutability": "view",
      "type": "function"
    },
    {
      "inputs": [
        {
          "internalType": "address",
          "name": "maker",
          "type": "address"
        }
      ],
      "name": "previewNextOfferId",
      "outputs": [
        {
          "internalType": "bytes32",
          "name": "id",
          "type": "bytes32"
        },
        {
          "internalType": "uint64",
          "name": "nonce",
          "type": "uint64"
        }
      ],
      "stateMutability": "view",
      "type": "function"
    },
    {
      "inputs": [
        {
          "internalType": "bytes32",
          "name": "id",
          "type": "bytes32"
        },
        {
          "internalType": "bytes",
          "name": "msg_",
          "type": "bytes"
        }
      ],
      "name": "release",
      "outputs": [],
      "stateMutability": "nonpayable",
      "type": "function"
    },
    {
      "inputs": [
        {
          "internalType": "bytes32",
          "name": "id",
          "type": "bytes32"
        },
        {
          "internalType": "bytes",
          "name": "t",
          "type": "bytes"
        }
      ],
      "name": "sendMessage",
      "outputs": [],
      "stateMutability": "nonpayable",
      "type": "function"
    },
    {
      "inputs": [
        {
          "internalType": "string",
          "name": "nick",
          "type": "string"
        }
      ],
      "name": "setNickname",
      "outputs": [],
      "stateMutability": "nonpayable",
      "type": "function"
    },
    {
      "inputs": [
        {
          "internalType": "bool",
          "name": "on",
          "type": "bool"
        }
      ],
      "name": "setOnline",
      "outputs": [],
      "stateMutability": "nonpayable",
      "type": "function"
    },
    {
      "inputs": [
        {
          "internalType": "address",
          "name": "token",
          "type": "address"
        },
        {
          "internalType": "enum Swap2p.Side",
          "name": "s",
          "type": "uint8"
        },
        {
          "internalType": "address",
          "name": "maker",
          "type": "address"
        },
        {
          "internalType": "uint128",
          "name": "amount",
          "type": "uint128"
        },
        {
          "internalType": "Swap2p.FiatCode",
          "name": "f",
          "type": "uint24"
        },
        {
          "internalType": "uint96",
          "name": "expectedPrice",
          "type": "uint96"
        },
        {
          "internalType": "string",
          "name": "paymentMethod",
          "type": "string"
        },
        {
          "internalType": "bytes",
          "name": "paymentDetails",
          "type": "bytes"
        },
        {
          "internalType": "address",
          "name": "partner",
          "type": "address"
        }
      ],
      "name": "taker_requestOffer",
      "outputs": [],
      "stateMutability": "nonpayable",
      "type": "function"
    }
  ],
  "bytecode": "0x60a0604052348015600f57600080fd5b506040516160b53803806160b5833981016040819052602c916067565b60016000556001600160a01b03811660575760405163f79316e160e01b815260040160405180910390fd5b6001600160a01b03166080526095565b600060208284031215607857600080fd5b81516001600160a01b0381168114608e57600080fd5b9392505050565b6080516160056100b0600039600061370101526160056000f3fe608060405234801561001057600080fd5b50600436106101ac5760003560e01c806301d563f9146101b1578063167abbdc146101da5780631bc8a466146101fa5780631c5d9faa1461020f57806320ded8531461022257806323c640e71461024257806323d317a9146102555780632b9c45cb146102685780632f0cd5aa1461029f5780632fbe2ce9146102b25780633d4d81de146102d25780633d8dfcce146102e55780633f9951aa146103095780634314a8e21461032957806347437d1c1461033c5780634be974b51461034f5780634bfac20c1461036f5780634f51e2941461038257806351a6fad5146103b85780635ca3f31b146103d857806364c1cfa1146103eb5780636d2a0fd0146103fe5780636f557ae51461042e57806371a735c714610441578063722fe606146104545780637b05fd1d1461047d57806381cd872a1461049d5780638f658829146104c75780639af8868c146104da578063b0fa390314610503578063bd407c1e14610516578063cb34d04014610529578063ce4b8daf1461053c578063d1dd1c271461054f578063d486b7c414610562578063f05b89fe14610575575b600080fd5b6101c46101bf366004614eba565b610588565b6040516101d19190615136565b60405180910390f35b6101ed6101e83660046151bd565b6105bd565b6040516101d19190615212565b61020d61020836600461529d565b6106d8565b005b61020d61021d3660046152e8565b610a78565b610235610230366004615329565b610c6a565b6040516101d19190615342565b61020d61025036600461529d565b610dcd565b6101ed610263366004614eba565b610dfc565b6102916102763660046153d8565b6001600160a01b03166000908152600b602052604090205490565b6040519081526020016101d1565b61020d6102ad366004615437565b610efa565b6102c56102c03660046151bd565b6110b3565b6040516101d19190615482565b6101ed6102e0366004614eba565b6111fa565b6102f86102f33660046153d8565b611308565b6040516101d19594939291906154c3565b61031c6103173660046154fd565b6113d7565b6040516101d19190615532565b6101ed610337366004614eba565b61163d565b61020d61034a36600461529d565b611730565b61036261035d366004615329565b611b5b565b6040516101d191906156d5565b61020d61037d36600461529d565b611dbe565b6103ab6103903660046153d8565b6006602052600090815260409020546001600160a01b031681565b6040516101d191906156e8565b6103cb6103c6366004615329565b612119565b6040516101d191906156fc565b6102916103e636600461570f565b612457565b61020d6103f936600461529d565b612481565b61041161040c3660046153d8565b6125fc565b604080519283526001600160401b039091166020830152016101d1565b61020d61043c366004615780565b61265d565b61041161044f3660046153d8565b612689565b6102916104623660046153d8565b6001600160a01b03166000908152600d602052604090205490565b61049061048b3660046151bd565b6126b8565b6040516101d1919061587d565b6104b06104ab366004615329565b6126ff565b6040516101d19b9a999897969594939291906158d6565b6104906104d536600461570f565b612821565b6102916104e83660046153d8565b6001600160a01b03166000908152600f602052604090205490565b61020d610511366004615983565b612872565b6101c4610524366004614eba565b6128e7565b61020d61053736600461570f565b612912565b61049061054a366004614eba565b612ac4565b61020d61055d3660046159a5565b612af7565b610291610570366004615a8e565b612bab565b61020d61058336600461529d565b612c2b565b606081156105b6576001600160a01b0384166000908152600f602052604090206105b3908484612dbc565b90505b9392505050565b60606000600960006105d0898989613278565b81526020810191909152604001600020805490915080851015806105f2575083155b156105fe5750506106cf565b600061060a8587615af8565b90508581108061061957508181115b156106215750805b600061062d8783615b11565b9050806001600160401b0381111561064757610647615b24565b604051908082528060200260200182016040528015610670578160200160208202803683370190505b50945060005b818110156106c95784610689828a615af8565b8154811061069957610699615b3a565b90600052602060002001548682815181106106b6576106b6615b3a565b6020908102919091010152600101610676565b50505050505b95945050505050565b6106e06132ae565b336000908152600760209081526040808320805464ffffffffff19164264ffffffffff161790558583526002909152902060038154600160f81b900460ff16600581111561073057610730614f07565b1461074e57604051636f20b45d60e11b815260040160405180910390fd5b600060018083015460ff169081111561076957610769614f07565b148015610783575060028101546001600160a01b03163314155b806107c3575060018181015460ff16818111156107a2576107a2614f07565b1480156107c357506001810154600160581b90046001600160a01b03163314155b156107e15760405163068690bf60e11b815260040160405180910390fd5b81156107f4576107f484848460046132d8565b80546001600160f81b0316600160fa1b17815560018101805464ffffffffff60301b1916600160301b4264ffffffffff1602179081905561084590600160581b90046001600160a01b031685613531565b600281015461085d906001600160a01b031685613531565b60018101546002820154610885916001600160a01b03600160581b90910481169116866135c5565b600181810154600160581b90046001600160a01b0316600090815260076020526040902080546009906108c3908490600160481b900460030b615b50565b825463ffffffff9182166101009390930a92830291909202199091161790555060028101546001600160a01b0316600090815260076020526040902080546001919060099061091d908490600160481b900460030b615b50565b92506101000a81548163ffffffff021916908360030b63ffffffff160217905550600080600181111561095257610952614f07565b60018084015460ff169081111561096b5761096b614f07565b146109835760028201546001600160a01b0316610999565b6001820154600160581b90046001600160a01b03165b60038301546002840154600185015485549394506109dd936001600160a01b039384169392831692600160581b9092049091169085906001600160801b03166135d9565b600382015460028301548354610a09926001600160a01b039081169216906001600160801b0316613732565b600382015460018301548354610a3c926001600160a01b0390811692600160581b900416906001600160801b0316613732565b60405185907f7fd4245b0f72acadc4c87701af2ae8b00ba2adeef4b3e209897df6cef0426bee90600090a25050610a736001600055565b505050565b336000908152600760209081526040808320805464ffffffffff19164264ffffffffff161781558151601f86018490048402810184019092528482529291859085908190840183828082843760009201829052506001870180549596509094909350610ae692509050615b77565b80601f0160208091040260200160405190810160405280929190818152602001828054610b1290615b77565b8015610b5f5780601f10610b3457610100808354040283529160200191610b5f565b820191906000526020600020905b815481529060010190602001808311610b4257829003601f168201915b505050505090508151600003610bba57805115610bb35780516020808301919091206000818152600883526040808220805460ff19169055805193840190528252906001850190610bb09082615c0d565b50505b5050505050565b81516020830120815115610bde5780828051906020012003610bde57505050505050565b60008181526008602052604090205460ff1615610c0e57604051637ec9752560e01b815260040160405180910390fd5b6000818152600860205260409020805460ff191660019081179091558401610c37868883615cc5565b50815115610c615781516020808401919091206000908152600890915260409020805460ff191690555b505050505b5050565b606060026000838152602001908152602001600020600501805480602002602001604051908101604052809291908181526020016000905b82821015610dc2576000848152602090819020604080516080810190915260028502909101805464ffffffffff811683529192909190830190600160281b900460ff166005811115610cf657610cf6614f07565b6005811115610d0757610d07614f07565b81528154600160301b900460ff1615156020820152600182018054604090920191610d3190615b77565b80601f0160208091040260200160405190810160405280929190818152602001828054610d5d90615b77565b8015610daa5780601f10610d7f57610100808354040283529160200191610daa565b820191906000526020600020905b815481529060010190602001808311610d8d57829003601f168201915b50505050508152505081526020019060010190610ca2565b505050509050919050565b336000908152600760205260409020805464ffffffffff19164264ffffffffff16179055610a73838383613765565b6001600160a01b0383166000908152600f60205260409020805460609190808510610e285750506105b6565b6000610e348587615af8565b905085811080610e4357508181115b15610e4b5750805b610e558682615b11565b6001600160401b03811115610e6c57610e6c615b24565b604051908082528060200260200182016040528015610e95578160200160208202803683370190505b509350855b81811015610eef57838181548110610eb457610eb4615b3a565b9060005260206000200154858883610ecc9190615b11565b81518110610edc57610edc615b3a565b6020908102919091010152600101610e9a565b505050509392505050565b6030811015610f1c57604051636f20b45d60e11b815260040160405180910390fd5b6000610f2a82610e10615d7e565b90508260005b81811015610c61576000868683818110610f4c57610f4c615b3a565b60209081029290920135600081815260029093526040909220805492935091600160f81b900460ff1690506004816005811115610f8b57610f8b614f07565b14158015610fab57506005816005811115610fa857610fa8614f07565b14155b15610fb8575050506110ab565b60018201548690610fd790600160301b900464ffffffffff1642615b11565b1015610fe5575050506110ab565b600180830154600280850154600087815260208390526040812081815594850180546001600160f81b031916905591840180546001600160a01b031990811690915560038501805490911690556001600160a01b03600160581b909304831693921691906110566004830182614d09565b611064600583016000614d46565b50506110708286613772565b61107a8186613772565b60405185907f5dfd3d3075c6a14eb1287a8fa566b2a067908e976de63c0f9f4a5246f82a485290600090a250505050505b600101610f30565b60606000600960006110c6898989613278565b81526020810191909152604001600020805490915080851015806110e8575083155b156110f45750506106cf565b60006111008587615af8565b90508581108061110f57508181115b156111175750805b60006111238783615b11565b9050806001600160401b0381111561113d5761113d615b24565b604051908082528060200260200182016040528015611166578160200160208202803683370190505b50945060005b818110156106c957600060018187611184858d615af8565b8154811061119457611194615b3a565b9060005260206000200154815260200190815260200160002090508060030160009054906101000a90046001600160a01b03168783815181106111d9576111d9615b3a565b6001600160a01b03909216602092830291909101909101525060010161116c565b6001600160a01b0383166000908152600b602052604090208054606091908085101580611225575083155b156112315750506105b6565b600061123d8587615af8565b90508581108061124c57508181115b156112545750805b60006112608783615b11565b9050806001600160401b0381111561127a5761127a615b24565b6040519080825280602002602001820160405280156112a3578160200160208202803683370190505b50945060005b818110156112fc57846112bc828a615af8565b815481106112cc576112cc615b3a565b90600052602060002001548682815181106112e9576112e9615b3a565b60209081029190910101526001016112a9565b50505050509392505050565b6007602052600090815260409020805460018201805464ffffffffff831693600160281b8404600390810b94600160481b810490910b93600160681b90910460ff169261135490615b77565b80601f016020809104026020016040519081016040528092919081815260200182805461138090615b77565b80156113cd5780601f106113a2576101008083540402835291602001916113cd565b820191906000526020600020905b8154815290600101906020018083116113b057829003601f168201915b5050505050905085565b606081806001600160401b038111156113f2576113f2615b24565b60405190808252806020026020018201604052801561144d57816020015b6040805160a08101825260008082526020808301829052928201819052606080830191909152608082015282526000199092019101816114105790505b50915060005b818110156116355760006007600087878581811061147357611473615b3a565b905060200201602081019061148891906153d8565b6001600160a01b03168152602081019190915260400160002080548551919250600160681b900460ff16908590849081106114c5576114c5615b3a565b60209081029190910101519015156060909101528054845164ffffffffff909116908590849081106114f9576114f9615b3a565b602090810291909101015164ffffffffff909116905260018101805461151e90615b77565b80601f016020809104026020016040519081016040528092919081815260200182805461154a90615b77565b80156115975780601f1061156c57610100808354040283529160200191611597565b820191906000526020600020905b81548152906001019060200180831161157a57829003601f168201915b50505050508483815181106115ae576115ae615b3a565b60209081029190910101516080015280548451600160281b90910460030b908590849081106115df576115df615b3a565b602090810291909101810151600392830b91015281548551600160481b90910490910b9085908490811061161557611615615b3a565b602090810291909101015160039190910b60409091015250600101611453565b505092915050565b6001600160a01b0383166000908152600d602052604090208054606091908085106116695750506105b6565b60006116758587615af8565b90508581108061168457508181115b1561168c5750805b6116968682615b11565b6001600160401b038111156116ad576116ad615b24565b6040519080825280602002602001820160405280156116d6578160200160208202803683370190505b509350855b81811015610eef578381815481106116f5576116f5615b3a565b906000526020600020015485888361170d9190615b11565b8151811061171d5761171d615b3a565b60209081029190910101526001016116db565b6117386132ae565b336000908152600760209081526040808320805464ffffffffff19164264ffffffffff16179055858352600291829052909120908154600160f81b900460ff16600581111561178957611789614f07565b146117a757604051636f20b45d60e11b815260040160405180910390fd5b6001810154600160581b90046001600160a01b031633036118015760005b60018083015460ff16908111156117de576117de614f07565b146117fc5760405163153c8df760e31b815260040160405180910390fd5b611835565b60028101546001600160a01b0316330361181c5760016117c5565b60405163068690bf60e11b815260040160405180910390fd5b81156118485761184884848460056132d8565b80546001600160f81b0316600560f81b1781556001808201805464ffffffffff4216600160301b0264ffffffffff60301b19821681179283905560038501546001600160a01b039081166000908152600460209081526040808320600160581b90970490931682529490945283209293849260ff928316921691909117908111156118d5576118d5614f07565b60018111156118e6576118e6614f07565b8152602080820192909252604090810160009081208554600160e01b900462ffffff1682529092529020549050801561199257600081815260016020819052604090912090810154600160c01b900463ffffffff16156119905782546001820180546001600160801b039092169160009061196b9084906001600160601b0316615d95565b92506101000a8154816001600160601b0302191690836001600160601b031602179055505b505b60018201546119b190600160581b90046001600160a01b031686613531565b60028201546119c9906001600160a01b031686613531565b600060018084015460ff16908111156119e4576119e4614f07565b03611a595760038201546002808401548454611a21936001600160a01b0390811693921691611a1c916001600160801b031690615db4565b613732565b600382015460018301548354611a54926001600160a01b0390811692600160581b900416906001600160801b0316613732565b611abe565b600382015460028301548354611a85926001600160a01b039081169216906001600160801b0316613732565b600382015460018301548354611abe926001600160a01b0390811692600160581b90041690611a1c906001600160801b03166002615db4565b60018201546002830154611ae6916001600160a01b03600160581b90910481169116876135c5565b336000908152600760205260409020805460019190600590611b13908490600160281b900460030b615b50565b92506101000a81548163ffffffff021916908360030b63ffffffff16021790555084600080516020615fb083398151915260405160405180910390a25050610a736001600055565b611b63614d67565b60008281526001602081905260408220908101549091600160c01b90910463ffffffff169003611ba657604051636df5846d60e01b815260040160405180910390fd5b82825260038101546001600160a01b0316602080840191909152604080516101608101825283546001600160801b038082168352600160801b90910416928101929092526001808401546001600160601b0380821693850193909352600160601b81049092166060840152600160c01b820463ffffffff166080840152600160e01b820462ffffff1660a0840152839160c0840191600160f81b90910460ff1690811115611c5657611c56614f07565b6001811115611c6757611c67614f07565b815260028201546001600160a01b0390811660208301526003830154166040820152600482018054606090920191611c9e90615b77565b80601f0160208091040260200160405190810160405280929190818152602001828054611cca90615b77565b8015611d175780601f10611cec57610100808354040283529160200191611d17565b820191906000526020600020905b815481529060010190602001808311611cfa57829003601f168201915b50505050508152602001600582018054611d3090615b77565b80601f0160208091040260200160405190810160405280929190818152602001828054611d5c90615b77565b8015611da95780601f10611d7e57610100808354040283529160200191611da9565b820191906000526020600020905b815481529060010190602001808311611d8c57829003601f168201915b50505091909252505050604083015250919050565b611dc66132ae565b336000818152600760209081526040808320805464ffffffffff421664ffffffffff199091161790558683526002909152902060018101549091600160581b9091046001600160a01b031614801590611e2c575060028101546001600160a01b03163314155b15611e4a5760405163068690bf60e11b815260040160405180910390fd5b60018154600160f81b900460ff166005811115611e6957611e69614f07565b14611e8757604051636f20b45d60e11b815260040160405180910390fd5b8115611e9a57611e9a84848460056132d8565b80546001600160f81b0316600560f81b17815560018101805464ffffffffff60301b1916600160301b4264ffffffffff16021790819055611eeb90600160581b90046001600160a01b031685613531565b6002810154611f03906001600160a01b031685613531565b60038101546001600160a01b039081166000908152600460209081526040808320600180870154600160581b81049096168552925282209192839160ff90911690811115611f5357611f53614f07565b6001811115611f6457611f64614f07565b8152602080820192909252604090810160009081208554600160e01b900462ffffff1682529092529020549050801561201057600081815260016020819052604090912090810154600160c01b900463ffffffff161561200e5782546001820180546001600160801b0390921691600090611fe99084906001600160601b0316615d95565b92506101000a8154816001600160601b0302191690836001600160601b031602179055505b505b60008060018085015460ff169081111561202c5761202c614f07565b146120415782546001600160801b0316612057565b8254612057906001600160801b03166002615db4565b6003840154600285015491925061207b916001600160a01b03918216911683613732565b600183015460028401546120a3916001600160a01b03600160581b90910481169116886135c5565b3360009081526007602052604090208054600191906005906120d0908490600160281b900460030b615b50565b92506101000a81548163ffffffff021916908360030b63ffffffff16021790555085600080516020615fb083398151915260405160405180910390a2505050610a736001600055565b612121614ddf565b6000828152600260205260408120908154600160f81b900460ff16600581111561214d5761214d614f07565b0361216b5760405163223da47360e21b815260040160405180910390fd5b828252604080516101808101825282546001600160801b0381168252600160801b81046001600160601b03166020830152600160e01b810462ffffff16928201929092529082906060830190600160f81b900460ff1660058111156121d2576121d2614f07565b60058111156121e3576121e3614f07565b815260018281015460209092019160ff169081111561220457612204614f07565b600181111561221557612215614f07565b8152600182015464ffffffffff610100820481166020840152600160301b82041660408301526001600160a01b03600160581b9091048116606083015260028301548116608083015260038301541660a082015260048201805460c09092019161227e90615b77565b80601f01602080910402602001604051908101604052809291908181526020018280546122aa90615b77565b80156122f75780601f106122cc576101008083540402835291602001916122f7565b820191906000526020600020905b8154815290600101906020018083116122da57829003601f168201915b5050505050815260200160058201805480602002602001604051908101604052809291908181526020016000905b82821015612445576000848152602090819020604080516080810190915260028502909101805464ffffffffff811683529192909190830190600160281b900460ff16600581111561237957612379614f07565b600581111561238a5761238a614f07565b81528154600160301b900460ff16151560208201526001820180546040909201916123b490615b77565b80601f01602080910402602001604051908101604052809291908181526020018280546123e090615b77565b801561242d5780601f106124025761010080835404028352916020019161242d565b820191906000526020600020905b81548152906001019060200180831161241057829003601f168201915b50505050508152505081526020019060010190612325565b50505091525050602083015250919050565b600060096000612468868686613278565b8152602081019190915260400160002054949350505050565b336000908152600760209081526040808320805464ffffffffff19164264ffffffffff16179055858352600291829052909120908154600160f81b900460ff1660058111156124d2576124d2614f07565b146124f057604051636f20b45d60e11b815260040160405180910390fd5b600060018083015460ff169081111561250b5761250b614f07565b14801561252c57506001810154600160581b90046001600160a01b03163314155b80612565575060018181015460ff168181111561254b5761254b614f07565b148015612565575060028101546001600160a01b03163314155b15612583576040516330698c3d60e01b815260040160405180910390fd5b80546001600160f81b0316600360f81b17815560018101805464ffffffffff60301b1916600160301b4264ffffffffff160217905560405184907fb30095b0d687bb11974087f374f985f2ff4f7b4f9900e31d32f699d416e2213b90600090a281156125f6576125f684848460036132d8565b50505050565b6001600160a01b038116600090815260056020526040812054819061262b906001600160401b03166001615ddd565b90508281604051602001612640929190615dfc565b604051602081830303815290604052805190602001209150915091565b612671338d8d8d8d8d8d8d8d8d8d8d61389e565b61267b3382613b39565b505050505050505050505050565b6001600160a01b038116600090815260036020526040812054819061262b906001600160401b03166001615ddd565b60606000600960006126cb898989613278565b81526020019081526020016000209050826000036126e957506106cf565b6126f4818585613bba565b979650505050505050565b6002602081905260009182526040909120805460018201549282015460038301546004840180546001600160801b038516966001600160601b03600160801b8704169662ffffff600160e01b8804169660ff600160f81b9091048116969083169564ffffffffff6101008504811696600160301b8604909116956001600160a01b03600160581b90960486169593841694929093169261279e90615b77565b80601f01602080910402602001604051908101604052809291908181526020018280546127ca90615b77565b80156128175780601f106127ec57610100808354040283529160200191612817565b820191906000526020600020905b8154815290600101906020018083116127fa57829003601f168201915b505050505090508b565b6060600060096000612834878787613278565b815260200190815260200160002090506000818054905090508060000361285c5750506105b6565b61286882600083613bba565b9695505050505050565b33600081815260076020526040908190208054841515600160681b0264ffffffffff60ff60681b011990911664ffffffffff421617179055517fbf7433268f9e84553144e23f130bdb514d559f991d19288c0e6d0ad00440636e906128dc90841515815260200190565b60405180910390a250565b606081156105b6576001600160a01b0384166000908152600d602052604090206105b3908484612dbc565b6001600160a01b038316600090815260046020908152604080832033845290915281208184600181111561294857612948614f07565b600181111561295957612959614f07565b81526020808201929092526040908101600090812062ffffff8616825290925290205490508015612a9357600081815260016020819052604090912090810154600160c01b900463ffffffff1615612a275760006129b8868686613278565b90506129c48184613f7d565b6129ce3384614076565b600083815260016020819052604082208281559081018290556002810180546001600160a01b0319908116909155600382018054909116905590612a156004830182614d09565b612a23600583016000614d09565b5050505b6001600160a01b0385166000908152600460209081526040808320338452909152812090856001811115612a5d57612a5d614f07565b6001811115612a6e57612a6e614f07565b81526020808201929092526040908101600090812062ffffff87168252909252812055505b60405181907f233d1d5c74ac8791f0673668c3df846ed7254243dc50ce621d05653f5c64b58790600090a250505050565b6001600160a01b0383166000908152600b60205260408120606091839003612aec57506105b6565b6106cf818585613bba565b612aff6132ae565b336000818152600760205260408120805464ffffffffff19164264ffffffffff16179055612b348d8d8d858e8e8e8e8e6141a3565b9050612b408b82614659565b612b4a8282614659565b612b548284613b39565b8315612b6757612b6781868660016132d8565b60405181907f0962211fdd8bae00324df1e7f067e248569f92820b635d0dc5c6f5801f01e8fb90600090a25050612b9e6001600055565b5050505050505050505050565b6001600160a01b038085166000908152600460209081526040808320938716835292905290812081846001811115612be557612be5614f07565b6001811115612bf657612bf6614f07565b815260200190815260200160002060008362ffffff1662ffffff1681526020019081526020016000205490505b949350505050565b612c336132ae565b336000818152600760209081526040808320805464ffffffffff421664ffffffffff199091161790558683526002909152902060018101549091600160581b9091046001600160a01b031614612c9c5760405163068690bf60e11b815260040160405180910390fd5b60018154600160f81b900460ff166005811115612cbb57612cbb614f07565b14612cd957604051636f20b45d60e11b815260040160405180910390fd5b60008060018084015460ff1690811115612cf557612cf5614f07565b14612d15578154612d10906001600160801b03166002615db4565b612d21565b81546001600160801b03165b6003830154909150612d3d906001600160a01b031633836146c2565b81546001600160f81b0316600160f91b17825560018201805464ffffffffff60301b1916600160301b4264ffffffffff160217905560405185907f92b2020aad33d0e9762dc13240d6871c7d105bf5580e3cdd3b1753c5d850fecf90600090a28215612db057612db085858560026132d8565b5050610a736001600055565b82546060908084101580612dce575082155b15612dd957506105b6565b6000612de58486615af8565b905084811080612df457508181115b15612dfc5750805b6000855b82811015612e8d576000600260008a8481548110612e2057612e20615b3a565b90600052602060002001548152602001908152602001600020905060006005811115612e4e57612e4e614f07565b8154600160f81b900460ff166005811115612e6b57612e6b614f07565b03612e765750612e85565b82612e8081615e26565b935050505b600101612e00565b50806001600160401b03811115612ea657612ea6615b24565b604051908082528060200260200182016040528015612edf57816020015b612ecc614ddf565b815260200190600190039081612ec45790505b5093506000865b838110156112fc576000898281548110612f0257612f02615b3a565b6000918252602080832090910154808352600290915260408220909250908154600160f81b900460ff166005811115612f3d57612f3d614f07565b03612f49575050613270565b604080516101808101825282546001600160801b0381168252600160801b81046001600160601b03166020830152600160e01b810462ffffff169282019290925260009183906060830190600160f81b900460ff166005811115612faf57612faf614f07565b6005811115612fc057612fc0614f07565b815260018281015460209092019160ff1690811115612fe157612fe1614f07565b6001811115612ff257612ff2614f07565b8152600182015464ffffffffff610100820481166020840152600160301b82041660408301526001600160a01b03600160581b9091048116606083015260028301548116608083015260038301541660a082015260048201805460c09092019161305b90615b77565b80601f016020809104026020016040519081016040528092919081815260200182805461308790615b77565b80156130d45780601f106130a9576101008083540402835291602001916130d4565b820191906000526020600020905b8154815290600101906020018083116130b757829003601f168201915b5050505050815260200160058201805480602002602001604051908101604052809291908181526020016000905b82821015613222576000848152602090819020604080516080810190915260028502909101805464ffffffffff811683529192909190830190600160281b900460ff16600581111561315657613156614f07565b600581111561316757613167614f07565b81528154600160301b900460ff161515602082015260018201805460409092019161319190615b77565b80601f01602080910402602001604051908101604052809291908181526020018280546131bd90615b77565b801561320a5780601f106131df5761010080835404028352916020019161320a565b820191906000526020600020905b8154815290600101906020018083116131ed57829003601f168201915b50505050508152505081526020019060010190613102565b5050505081525050905060405180604001604052808481526020018281525089868151811061325357613253615b3a565b6020026020010181905250848061326990615e26565b9550505050505b600101612ee6565b600083838360405160200161328f93929190615e3f565b6040516020818303038152906040528051906020012090509392505050565b6002600054036132d157604051633ee5aeb560e01b815260040160405180910390fd5b6002600055565b60008481526002602052604090206001810154600160581b90046001600160a01b03163314801590613317575060028101546001600160a01b03163314155b156133355760405163068690bf60e11b815260040160405180910390fd5b8054600160f81b900460ff16600181600581111561335557613355614f07565b141580156133755750600281600581111561337257613372614f07565b14155b80156133935750600381600581111561339057613390614f07565b14155b156133b157604051636f20b45d60e11b815260040160405180910390fd5b600282015460408051608081019091524264ffffffffff1681526001600160a01b03909116331490849060058086019190602082019084908111156133f8576133f8614f07565b8152602001841515815260200189898080601f016020809104026020016040519081016040528093929190818152602001838380828437600092018290525093909452505083546001810185559381526020908190208351600290950201805464ffffffffff19811664ffffffffff909616958617825591840151939490939250839165ffffffffffff191617600160281b83600581111561349c5761349c614f07565b021790555060408201518154901515600160301b0260ff60301b19909116178155606082015160018201906134d19082615c0d565b50505060058401546000906134e890600190615b11565b60405163ffffffff8216815290915089907f0aa69bf4e1ee8d115f11a2eb28f4ed7afff601626aac3e1bb0108fb828ff032c9060200160405180910390a2505050505050505050565b6001600160a01b03821660009081526010602090815260408083208484529091528120549003610c66576001600160a01b0382166000908152600f602052604090205461357f906001615af8565b6001600160a01b0383166000818152601060209081526040808320868452825280832094909455918152600f825291822080546001810182559083529120018190555050565b6135cf838261480c565b610a73828261480c565b60006127106135f260326001600160801b038516615d7e565b6135fc9190615e6f565b905061360d8684611a1c8486615e91565b6001600160a01b0380861660009081526006602052604081205483921690811561367c576127106136496107d06001600160801b038716615d7e565b6136539190615e6f565b90506001600160801b0381161561367c5761366f898383613732565b6136798184615e91565b92505b6001600160a01b038088166000908152600660205260409020541680156136ec5760006127106136b7610bb86001600160801b038916615d7e565b6136c19190615e6f565b90506001600160801b038116156136ea576136dd8b8383613732565b6136e78186615e91565b94505b505b6001600160801b03841615613726576137268a7f000000000000000000000000000000000000000000000000000000000000000086613732565b50505050505050505050565b806001600160801b031660000361374857505050565b610a736001600160a01b038416836001600160801b038416614938565b610a7383838360006132d8565b6001600160a01b0382166000908152601060209081526040808320848452909152812054908190036137a357505050565b60006137b0600183615b11565b6001600160a01b0385166000908152600f602052604081208054929350916137da90600190615b11565b90508083146138495760008282815481106137f7576137f7615b3a565b906000526020600020015490508083858154811061381757613817615b3a565b60009182526020808320909101929092556001600160a01b038916815260108252604080822093825292909152208490555b8180548061385957613859615eb0565b6000828152602080822083016000199081018390559092019092556001600160a01b039097168152601087526040808220968252959096525050509082209190915550565b60006138ac8c8e8d8d614997565b600081815260016020819052604090912090810154919250600160c01b90910463ffffffff1615908115613981578b81600101601c6101000a81548162ffffff021916908362ffffff1602179055508c81600101601f6101000a81548160ff0219169083600181111561392157613921614f07565b02179055508d8160020160006101000a8154816001600160a01b0302191690836001600160a01b031602179055508e8160030160006101000a8154816001600160a01b0302191690836001600160a01b0316021790555061398181614aff565b80546001600160801b038a81169116146139b75780546001600160801b0319166001600160801b038a161781556139b781614aff565b80546001600160801b03898116600160801b90920416146139f35780546001600160801b03808a16600160801b0291161781556139f381614aff565b60018101546001600160601b038b8116911614613a30576001810180546001600160601b0319166001600160601b038c16179055613a3081614aff565b60018101546001600160601b038c8116600160601b9092041614613a7d57600181018054600160601b600160c01b031916600160601b6001600160601b038e1602179055613a7d81614aff565b613a8b816004018888614b20565b613aa85760048101613a9e878983615cc5565b50613aa881614aff565b613ab6816005018686614b20565b613ad35760058101613ac9858783615cc5565b50613ad381614aff565b506000613ae18e8e8e613278565b90508115613afd57613af38184614b5a565b613afd8f84614bc9565b60405183907f9b8f1594adb3b8420f8f64c7991ec1a6d7f8e27097a5d85f85bb0c0f9b5ad96290600090a2505050505050505050505050505050565b6001600160a01b03811615801590613b635750816001600160a01b0316816001600160a01b031614155b8015613b8757506001600160a01b0382811660009081526006602052604090205416155b15610c66576001600160a01b03918216600090815260066020526040902080546001600160a01b03191691909216179055565b82546060908084101580613bcc575082155b15613bd757506105b6565b6000613be38486615af8565b905084811080613bf257508181115b15613bfa5750805b6000855b82811015613c72576000888281548110613c1a57613c1a615b3a565b60009182526020808320919091015480835260019182905260408320918201549093509091600160c01b90910463ffffffff169003613c5a575050613c6a565b83613c6481615e26565b94505050505b600101613bfe565b50806001600160401b03811115613c8b57613c8b615b24565b604051908082528060200260200182016040528015613cc457816020015b613cb1614d67565b815260200190600190039081613ca95790505b5093506000865b838110156112fc576000898281548110613ce757613ce7615b3a565b60009182526020808320919091015480835260019182905260408320918201549093509091600160c01b90910463ffffffff169003613d27575050613f75565b604080516101608101825282546001600160801b038082168352600160801b9091041660208201526001808401546001600160601b0380821694840194909452600160601b81049093166060830152600160c01b830463ffffffff166080830152600160e01b830462ffffff1660a0830152600092849160c0840191600160f81b900460ff1690811115613dbd57613dbd614f07565b6001811115613dce57613dce614f07565b815260028201546001600160a01b0390811660208301526003830154166040820152600482018054606090920191613e0590615b77565b80601f0160208091040260200160405190810160405280929190818152602001828054613e3190615b77565b8015613e7e5780601f10613e5357610100808354040283529160200191613e7e565b820191906000526020600020905b815481529060010190602001808311613e6157829003601f168201915b50505050508152602001600582018054613e9790615b77565b80601f0160208091040260200160405190810160405280929190818152602001828054613ec390615b77565b8015613f105780601f10613ee557610100808354040283529160200191613f10565b820191906000526020600020905b815481529060010190602001808311613ef357829003601f168201915b5050509190925250506040805160608101825286815260038601546001600160a01b031660208201529081018390528b51929350918b915087908110613f5857613f58615b3a565b60200260200101819052508480613f6e90615e26565b9550505050505b600101613ccb565b6000828152600a60209081526040808320848452918290528220549091819003613fa75750505050565b600084815260096020526040812090613fc1600184615b11565b8254909150600090613fd590600190615b11565b9050808214614031576000838281548110613ff257613ff2615b3a565b906000526020600020015490508084848154811061401257614012615b3a565b6000918252602080832090910192909255918252869052604090208490555b8280548061404157614041615eb0565b600190038181906000526020600020016000905590558460008781526020019081526020016000206000905550505050505050565b6001600160a01b0382166000908152600c60209081526040808320848452909152812054908190036140a757505050565b6001600160a01b0383166000908152600b60205260408120906140cb600184615b11565b82549091506000906140df90600190615b11565b905080821461414e5760008382815481106140fc576140fc615b3a565b906000526020600020015490508084848154811061411c5761411c615b3a565b60009182526020808320909101929092556001600160a01b0389168152600c8252604080822093825292909152208490555b8280548061415e5761415e615eb0565b6000828152602080822083016000199081018390559092019092556001600160a01b039097168152600c87526040808220968252959096525050509082209190915550565b6001600160a01b03808a166000908152600460209081526040808320938b1683529290529081208190818b60018111156141df576141df614f07565b60018111156141f0576141f0614f07565b81526020808201929092526040908101600090812062ffffff8a1682528352818120548082526001909352206003810154919250906001600160a01b038b811691161461425057604051636df5846d60e01b815260040160405180910390fd5b6001600160a01b038a16600090815260076020526040902054600160681b900460ff166142905760405163a1231e1f60e01b815260040160405180910390fd5b60008b60018111156142a4576142a4614f07565b036142e65760018101546001600160601b03808816600160601b9092041610156142e157604051630bb46cf960e11b815260040160405180910390fd5b61431e565b60018101546001600160601b03808816600160601b90920416111561431e57604051630bb46cf960e11b815260040160405180910390fd5b80546001600160801b03908116908916108061434e575080546001600160801b03600160801b9091048116908916115b1561436c576040516327466a8f60e11b815260040160405180910390fd5b60018101546001600160601b03808a169116101561439d576040516328b35f2160e01b815260040160405180910390fd5b6001810180548991906000906143bd9084906001600160601b0316615ec6565b92506101000a8154816001600160601b0302191690836001600160601b0316021790555060008060018111156143f5576143f5614f07565b8c600181111561440757614407614f07565b14614412578861441d565b61441d896002615db4565b905061442a8d8b836146c2565b6001600160a01b038a16600090815260056020526040812080548290614458906001600160401b0316615ee5565b91906101000a8154816001600160401b0302191690836001600160401b03160217905590508a81604051602001614490929190615dfc565b60408051808303601f19018152918152815160209283012060008181526002909352912080546001600160801b031981166001600160801b038e1690811783556001878101546001600160e01b0319909316909117600160601b9092046001600160601b0316600160801b0291909117808355929750909142919083906001600160f81b0316600160f81b8302179055508e8260010160006101000a81548160ff0219169083600181111561454757614547614f07565b02179055508d82600101600b6101000a8154816001600160a01b0302191690836001600160a01b031602179055508c8260020160006101000a8154816001600160a01b0302191690836001600160a01b031602179055508a82600001601c6101000a81548162ffffff021916908362ffffff160217905550808260010160016101000a81548164ffffffffff021916908364ffffffffff160217905550808260010160066101000a81548164ffffffffff021916908364ffffffffff1602179055508f8260030160006101000a8154816001600160a01b0302191690836001600160a01b031602179055508888836004019182614645929190615cc5565b505050505050509998505050505050505050565b6001600160a01b0382166000908152600d602052604090205461467d906001615af8565b6001600160a01b039092166000818152600e60209081526040808320858452825280832095909555918152600d82529283208054600181018255908452922090910155565b806001600160801b03166000036146d857505050565b6040516370a0823160e01b81526000906001600160a01b038516906370a08231906147079030906004016156e8565b602060405180830381865afa158015614724573d6000803e3d6000fd5b505050506040513d601f19601f820116820180604052508101906147489190615f11565b90506147686001600160a01b03851684306001600160801b038616614c5f565b6040516370a0823160e01b81526000906001600160a01b038616906370a08231906147979030906004016156e8565b602060405180830381865afa1580156147b4573d6000803e3d6000fd5b505050506040513d601f19601f820116820180604052508101906147d89190615f11565b90506001600160801b0383166147ee8383615b11565b14610bb357604051631033736160e11b815260040160405180910390fd5b6001600160a01b0382166000908152600e602090815260408083208484529091528120549081900361483d57505050565b600061484a600183615b11565b6001600160a01b0385166000908152600d6020526040812080549293509161487490600190615b11565b90508083146148e357600082828154811061489157614891615b3a565b90600052602060002001549050808385815481106148b1576148b1615b3a565b60009182526020808320909101929092556001600160a01b0389168152600e8252604080822093825292909152208490555b818054806148f3576148f3615eb0565b6000828152602080822083016000199081018390559092019092556001600160a01b039097168152600e87526040808220968252959096525050509082209190915550565b6040516001600160a01b03838116602483015260448201839052610a7391859182169063a9059cbb906064015b604051602081830303815290604052915060e01b6020820180516001600160e01b038381831617835250505050614c98565b6001600160a01b0380851660009081526004602090815260408083209387168352929052908120818460018111156149d1576149d1614f07565b60018111156149e2576149e2614f07565b81526020808201929092526040908101600090812062ffffff86168252909252902054905080612c23576001600160a01b038416600090815260036020526040812080548290614a3a906001600160401b0316615ee5565b91906101000a8154816001600160401b0302191690836001600160401b03160217905590508481604051602001614a72929190615dfc565b60408051601f1981840301815291815281516020928301206001600160a01b03808a16600090815260048552838120918a16815293529082209093508391866001811115614ac257614ac2614f07565b6001811115614ad357614ad3614f07565b81526020808201929092526040908101600090812062ffffff8816825290925290205550949350505050565b600101805463ffffffff60c01b1916600160c01b4263ffffffff1602179055565b60008282604051614b32929190615f2a565b604051809103902084604051614b489190615f3a565b60405180910390201490509392505050565b6000828152600a60209081526040808320848452918290529091205415614b8057505050565b600083815260096020526040902054614b9a906001615af8565b600083815260209283526040808220929092559384526009825283208054600181018255908452922090910155565b6001600160a01b0382166000908152600c6020908152604080832084845290915290205415614bf6575050565b6001600160a01b0382166000908152600b6020526040902054614c1a906001615af8565b6001600160a01b039092166000818152600c60209081526040808320858452825280832095909555918152600b82529283208054600181018255908452922090910155565b6040516001600160a01b0384811660248301528381166044830152606482018390526125f69186918216906323b872dd90608401614965565b600080602060008451602086016000885af180614cbb576040513d6000823e3d81fd5b50506000513d91508115614cd3578060011415614ce0565b6001600160a01b0384163b155b156125f65783604051635274afe760e01b8152600401614d0091906156e8565b60405180910390fd5b508054614d1590615b77565b6000825580601f10614d25575050565b601f016020900490600052602060002090810190614d439190614e57565b50565b5080546000825560020290600052602060002090810190614d439190614e70565b6040805160608101825260008082526020820152908101614dda6040805161016081018252600080825260208201819052918101829052606081018290526080810182905260a081018290529060c082019081526000602082018190526040820152606080820181905260809091015290565b905290565b604080518082019091526000815260208101614dda60408051610180810182526000808252602082018190529181018290529060608201908152602001600081526000602082018190526040820181905260608083018290526080830182905260a083019190915260c0820181905260e09091015290565b5b80821115614e6c5760008155600101614e58565b5090565b80821115614e6c57805466ffffffffffffff191681556000614e956001830182614d09565b50600201614e70565b80356001600160a01b0381168114614eb557600080fd5b919050565b600080600060608486031215614ecf57600080fd5b614ed884614e9e565b95602085013595506040909401359392505050565b6001600160801b03169052565b6001600160601b03169052565b634e487b7160e01b600052602160045260246000fd5b60068110614f2d57614f2d614f07565b9052565b60028110614f2d57614f2d614f07565b6001600160a01b03169052565b6000815180845260005b81811015614f7457602081850181015186830182015201614f58565b506000602082860101526020601f19601f83011685010191505092915050565b600082825180855260208501945060208160051b8301016020850160005b8381101561502157601f19858403018852815164ffffffffff81511684526020810151614fe26020860182614f1d565b50604081015115156040850152606081015190506080606085015261500a6080850182614f4e565b6020998a0199909450929092019150600101614fb2565b50909695505050505050565b80518252600060208201516040602085015261504d604085018251614eed565b602081015161505f6060860182614efa565b50604081015162ffffff166080850152606081015161508160a0860182614f1d565b50608081015161509460c0860182614f31565b5060a081015164ffffffffff811660e08601525060c081015164ffffffffff81166101008601525060e08101516150cf610120860182614f41565b506101008101516150e4610140860182614f41565b506101208101516150f9610160860182614f41565b50610140810151610180808601526151156101c0860182614f4e565b90506101608201519150603f19858203016101a08601526106cf8183614f94565b6000602082016020835280845180835260408501915060408160051b86010192506020860160005b8281101561518f57603f1987860301845261517a85835161502d565b9450602093840193919091019060010161515e565b50929695505050505050565b803560028110614eb557600080fd5b803562ffffff81168114614eb557600080fd5b600080600080600060a086880312156151d557600080fd5b6151de86614e9e565b94506151ec6020870161519b565b93506151fa604087016151aa565b94979396509394606081013594506080013592915050565b602080825282518282018190526000918401906040840190835b8181101561524a57835183526020938401939092019160010161522c565b509095945050505050565b60008083601f84011261526757600080fd5b5081356001600160401b0381111561527e57600080fd5b60208301915083602082850101111561529657600080fd5b9250929050565b6000806000604084860312156152b257600080fd5b8335925060208401356001600160401b038111156152cf57600080fd5b6152db86828701615255565b9497909650939450505050565b600080602083850312156152fb57600080fd5b82356001600160401b0381111561531157600080fd5b61531d85828601615255565b90969095509350505050565b60006020828403121561533b57600080fd5b5035919050565b6000602082016020835280845180835260408501915060408160051b86010192506020860160005b8281101561518f57603f19878603018452815164ffffffffff8151168652602081015161539a6020880182614f1d565b5060408101511515604087015260608101519050608060608701526153c26080870182614f4e565b955050602093840193919091019060010161536a565b6000602082840312156153ea57600080fd5b6105b682614e9e565b60008083601f84011261540557600080fd5b5081356001600160401b0381111561541c57600080fd5b6020830191508360208260051b850101111561529657600080fd5b60008060006040848603121561544c57600080fd5b83356001600160401b0381111561546257600080fd5b61546e868287016153f3565b909790965060209590950135949350505050565b602080825282518282018190526000918401906040840190835b8181101561524a5783516001600160a01b031683526020938401939092019160010161549c565b64ffffffffff861681528460030b60208201528360030b6040820152821515606082015260a0608082015260006126f460a0830184614f4e565b6000806020838503121561551057600080fd5b82356001600160401b0381111561552657600080fd5b61531d858286016153f3565b6000602082016020835280845180835260408501915060408160051b86010192506020860160005b8281101561518f57603f19878603018452815164ffffffffff8151168652602081015160030b6020870152604081015160030b60408701526060810151151560608701526080810151905060a060808701526155b960a0870182614f4e565b955050602093840193919091019060010161555a565b8051825260018060a01b0360208201511660208301526000604082015160606040850152615601606085018251614eed565b60208101516156136080860182614eed565b50604081015161562660a0860182614efa565b50606081015161563960c0860182614efa565b50608081015163ffffffff1660e085015260a081015162ffffff1661010085015260c081015161566d610120860182614f31565b5060e0810151615681610140860182614f41565b50610100810151615696610160860182614f41565b506101208101516101606101808601526156b46101c0860182614f4e565b90506101408201519150605f19858203016101a08601526106cf8183614f4e565b6020815260006105b660208301846155cf565b6001600160a01b0391909116815260200190565b6020815260006105b6602083018461502d565b60008060006060848603121561572457600080fd5b61572d84614e9e565b925061573b6020850161519b565b9150615749604085016151aa565b90509250925092565b80356001600160601b0381168114614eb557600080fd5b80356001600160801b0381168114614eb557600080fd5b6000806000806000806000806000806000806101408d8f0312156157a357600080fd5b6157ac8d614e9e565b9b506157ba60208e0161519b565b9a506157c860408e016151aa565b99506157d660608e01615752565b98506157e460808e01615752565b97506157f260a08e01615769565b965061580060c08e01615769565b95506001600160401b0360e08e0135111561581a57600080fd5b61582a8e60e08f01358f01615255565b90955093506001600160401b036101008e0135111561584857600080fd5b6158598e6101008f01358f01615255565b909350915061586b6101208e01614e9e565b90509295989b509295989b509295989b565b6000602082016020835280845180835260408501915060408160051b86010192506020860160005b8281101561518f57603f198786030184526158c18583516155cf565b945060209384019391909101906001016158a5565b6001600160801b038c1681526001600160601b038b16602082015262ffffff8a166040820152615909606082018a614f1d565b6159166080820189614f31565b64ffffffffff871660a082015264ffffffffff861660c082015261593d60e0820186614f41565b61594b610100820185614f41565b615959610120820184614f41565b6101606101408201526000615972610160830184614f4e565b9d9c50505050505050505050505050565b60006020828403121561599557600080fd5b813580151581146105b657600080fd5b60008060008060008060008060008060006101208c8e0312156159c757600080fd5b6159d08c614e9e565b9a506159de60208d0161519b565b99506159ec60408d01614e9e565b98506159fa60608d01615769565b9750615a0860808d016151aa565b9650615a1660a08d01615752565b955060c08c01356001600160401b03811115615a3157600080fd5b615a3d8e828f01615255565b90965094505060e08c01356001600160401b03811115615a5c57600080fd5b615a688e828f01615255565b9094509250615a7c90506101008d01614e9e565b90509295989b509295989b9093969950565b60008060008060808587031215615aa457600080fd5b615aad85614e9e565b9350615abb60208601614e9e565b9250615ac96040860161519b565b9150615ad7606086016151aa565b905092959194509250565b634e487b7160e01b600052601160045260246000fd5b80820180821115615b0b57615b0b615ae2565b92915050565b81810381811115615b0b57615b0b615ae2565b634e487b7160e01b600052604160045260246000fd5b634e487b7160e01b600052603260045260246000fd5b600381810b9083900b01637fffffff8113637fffffff1982121715615b0b57615b0b615ae2565b600181811c90821680615b8b57607f821691505b602082108103615bab57634e487b7160e01b600052602260045260246000fd5b50919050565b601f821115610a7357806000526020600020601f840160051c81016020851015615bd85750805b601f840160051c820191505b81811015610bb35760008155600101615be4565b600019600383901b1c191660019190911b1790565b81516001600160401b03811115615c2657615c26615b24565b615c3a81615c348454615b77565b84615bb1565b6020601f821160018114615c685760008315615c565750848201515b615c608482615bf8565b855550610bb3565b600084815260208120601f198516915b82811015615c985787850151825560209485019460019092019101615c78565b5084821015615cb65786840151600019600387901b60f8161c191681555b50505050600190811b01905550565b6001600160401b03831115615cdc57615cdc615b24565b615cf083615cea8354615b77565b83615bb1565b6000601f841160018114615d1e5760008515615d0c5750838201355b615d168682615bf8565b845550610bb3565b600083815260209020601f19861690835b82811015615d4f5786850135825560209485019460019092019101615d2f565b5086821015615d6c5760001960f88860031b161c19848701351681555b505060018560011b0183555050505050565b8082028115828204841417615b0b57615b0b615ae2565b6001600160601b038181168382160190811115615b0b57615b0b615ae2565b6001600160801b038181168382160290811690818114615dd657615dd6615ae2565b5092915050565b6001600160401b038181168382160190811115615b0b57615b0b615ae2565b60609290921b6001600160601b031916825260c01b6001600160c01b0319166014820152601c0190565b600060018201615e3857615e38615ae2565b5060010190565b6001600160a01b038416815260608101615e5c6020830185614f31565b62ffffff83166040830152949350505050565b600082615e8c57634e487b7160e01b600052601260045260246000fd5b500490565b6001600160801b038281168282160390811115615b0b57615b0b615ae2565b634e487b7160e01b600052603160045260246000fd5b6001600160601b038281168282160390811115615b0b57615b0b615ae2565b60006001600160401b0382166002600160401b03198101615f0857615f08615ae2565b60010192915050565b600060208284031215615f2357600080fd5b5051919050565b8183823760009101908152919050565b6000808354615f4881615b77565b600182168015615f5f5760018114615f7457615fa4565b60ff1983168652811515820286019350615fa4565b86600052602060002060005b83811015615f9c57815488820152600190910190602001615f80565b505081860193505b50919594505050505056fec677acc686f4424b864e232e217de479edc357e161509d63e7304bccb2b5253aa2646970667358221220937efcab05bc897899e2145e38e09ba371abcd29c085b3873ac1f9171e99c79964736f6c634300081c0033",
  "linkReferences": {},
  "deployedLinkReferences": {},
  "immutableReferences": {
    "1552": [
      {
        "length": 32,
        "start": 14081
      }
    ]
  },
  "inputSourceName": "project/contracts/Swap2p.sol",
  "buildInfoId": "solc-0_8_28-d21c94350136a3398b17a5e8ca67cb7d3b94d045"
}