{
  "_format": "hh3-artifact-1",
  "contractName": "Swap2p",
  "sourceName": "contracts/Swap2p.sol",
  "abi": [
    {
      "inputs": [
        {
          "internalType": "address",
          "name": "author_",
          "type": "address"
        }
      ],
      "stateMutability": "nonpayable",
      "type": "constructor"
    },
    {
      "inputs": [],
      "name": "AmountOutOfBounds",
      "type": "error"
    },
    {
      "inputs": [],
      "name": "AuthorZero",
      "type": "error"
    },
    {
      "inputs": [],
      "name": "FeeOnTransferTokenNotSupported",
      "type": "error"
    },
    {
      "inputs": [],
      "name": "InsufficientDeposit",
      "type": "error"
    },
    {
      "inputs": [],
      "name": "InsufficientReserve",
      "type": "error"
    },
    {
      "inputs": [],
      "name": "MakerOffline",
      "type": "error"
    },
    {
      "inputs": [],
      "name": "NicknameTaken",
      "type": "error"
    },
    {
      "inputs": [],
      "name": "NotFiatPayer",
      "type": "error"
    },
    {
      "inputs": [],
      "name": "OfferNotFound",
      "type": "error"
    },
    {
      "inputs": [],
      "name": "ReentrancyGuardReentrantCall",
      "type": "error"
    },
    {
      "inputs": [
        {
          "internalType": "address",
          "name": "token",
          "type": "address"
        }
      ],
      "name": "SafeERC20FailedOperation",
      "type": "error"
    },
    {
      "inputs": [],
      "name": "SelfPartnerNotAllowed",
      "type": "error"
    },
    {
      "inputs": [],
      "name": "WorsePrice",
      "type": "error"
    },
    {
      "inputs": [],
      "name": "WrongCaller",
      "type": "error"
    },
    {
      "inputs": [],
      "name": "WrongSide",
      "type": "error"
    },
    {
      "inputs": [],
      "name": "WrongState",
      "type": "error"
    },
    {
      "anonymous": false,
      "inputs": [
        {
          "indexed": true,
          "internalType": "bytes32",
          "name": "id",
          "type": "bytes32"
        },
        {
          "indexed": true,
          "internalType": "address",
          "name": "from",
          "type": "address"
        },
        {
          "indexed": false,
          "internalType": "bytes",
          "name": "text",
          "type": "bytes"
        }
      ],
      "name": "Chat",
      "type": "event"
    },
    {
      "anonymous": false,
      "inputs": [
        {
          "indexed": true,
          "internalType": "bytes32",
          "name": "id",
          "type": "bytes32"
        }
      ],
      "name": "DealAccepted",
      "type": "event"
    },
    {
      "anonymous": false,
      "inputs": [
        {
          "indexed": true,
          "internalType": "bytes32",
          "name": "id",
          "type": "bytes32"
        }
      ],
      "name": "DealCanceled",
      "type": "event"
    },
    {
      "anonymous": false,
      "inputs": [
        {
          "indexed": true,
          "internalType": "bytes32",
          "name": "id",
          "type": "bytes32"
        }
      ],
      "name": "DealDeleted",
      "type": "event"
    },
    {
      "anonymous": false,
      "inputs": [
        {
          "indexed": true,
          "internalType": "bytes32",
          "name": "id",
          "type": "bytes32"
        }
      ],
      "name": "DealPaid",
      "type": "event"
    },
    {
      "anonymous": false,
      "inputs": [
        {
          "indexed": true,
          "internalType": "bytes32",
          "name": "id",
          "type": "bytes32"
        }
      ],
      "name": "DealReleased",
      "type": "event"
    },
    {
      "anonymous": false,
      "inputs": [
        {
          "indexed": true,
          "internalType": "bytes32",
          "name": "id",
          "type": "bytes32"
        },
        {
          "indexed": true,
          "internalType": "address",
          "name": "token",
          "type": "address"
        },
        {
          "indexed": true,
          "internalType": "address",
          "name": "maker",
          "type": "address"
        },
        {
          "indexed": false,
          "internalType": "address",
          "name": "taker",
          "type": "address"
        },
        {
          "indexed": false,
          "internalType": "uint128",
          "name": "amount",
          "type": "uint128"
        },
        {
          "indexed": false,
          "internalType": "string",
          "name": "paymentDetails",
          "type": "string"
        }
      ],
      "name": "DealRequested",
      "type": "event"
    },
    {
      "anonymous": false,
      "inputs": [
        {
          "indexed": true,
          "internalType": "bytes32",
          "name": "id",
          "type": "bytes32"
        },
        {
          "indexed": true,
          "internalType": "address",
          "name": "token",
          "type": "address"
        },
        {
          "indexed": true,
          "internalType": "address",
          "name": "partner",
          "type": "address"
        },
        {
          "indexed": false,
          "internalType": "uint128",
          "name": "fee",
          "type": "uint128"
        },
        {
          "indexed": false,
          "internalType": "uint128",
          "name": "partnerShare",
          "type": "uint128"
        }
      ],
      "name": "FeeDistributed",
      "type": "event"
    },
    {
      "anonymous": false,
      "inputs": [
        {
          "indexed": true,
          "internalType": "address",
          "name": "maker",
          "type": "address"
        },
        {
          "indexed": false,
          "internalType": "bool",
          "name": "online",
          "type": "bool"
        }
      ],
      "name": "MakerOnline",
      "type": "event"
    },
    {
      "anonymous": false,
      "inputs": [
        {
          "indexed": false,
          "internalType": "bytes32",
          "name": "id",
          "type": "bytes32"
        },
        {
          "indexed": true,
          "internalType": "address",
          "name": "token",
          "type": "address"
        },
        {
          "indexed": true,
          "internalType": "address",
          "name": "maker",
          "type": "address"
        },
        {
          "indexed": false,
          "internalType": "enum Swap2p.Side",
          "name": "side",
          "type": "uint8"
        },
        {
          "indexed": true,
          "internalType": "Swap2p.FiatCode",
          "name": "fiat",
          "type": "uint24"
        }
      ],
      "name": "OfferDeleted",
      "type": "event"
    },
    {
      "anonymous": false,
      "inputs": [
        {
          "indexed": false,
          "internalType": "bytes32",
          "name": "id",
          "type": "bytes32"
        },
        {
          "indexed": true,
          "internalType": "address",
          "name": "token",
          "type": "address"
        },
        {
          "indexed": true,
          "internalType": "address",
          "name": "maker",
          "type": "address"
        },
        {
          "indexed": true,
          "internalType": "Swap2p.FiatCode",
          "name": "fiat",
          "type": "uint24"
        },
        {
          "components": [
            {
              "internalType": "uint128",
              "name": "minAmt",
              "type": "uint128"
            },
            {
              "internalType": "uint128",
              "name": "maxAmt",
              "type": "uint128"
            },
            {
              "internalType": "uint96",
              "name": "reserve",
              "type": "uint96"
            },
            {
              "internalType": "uint96",
              "name": "priceFiatPerToken",
              "type": "uint96"
            },
            {
              "internalType": "uint32",
              "name": "ts",
              "type": "uint32"
            },
            {
              "internalType": "Swap2p.FiatCode",
              "name": "fiat",
              "type": "uint24"
            },
            {
              "internalType": "enum Swap2p.Side",
              "name": "side",
              "type": "uint8"
            },
            {
              "internalType": "address",
              "name": "token",
              "type": "address"
            },
            {
              "internalType": "address",
              "name": "maker",
              "type": "address"
            },
            {
              "internalType": "string",
              "name": "paymentMethods",
              "type": "string"
            },
            {
              "internalType": "string",
              "name": "requirements",
              "type": "string"
            }
          ],
          "indexed": false,
          "internalType": "struct Swap2p.Offer",
          "name": "offer",
          "type": "tuple"
        },
        {
          "indexed": false,
          "internalType": "string",
          "name": "comment",
          "type": "string"
        }
      ],
      "name": "OfferUpsert",
      "type": "event"
    },
    {
      "anonymous": false,
      "inputs": [
        {
          "indexed": true,
          "internalType": "address",
          "name": "taker",
          "type": "address"
        },
        {
          "indexed": true,
          "internalType": "address",
          "name": "partner",
          "type": "address"
        }
      ],
      "name": "PartnerBound",
      "type": "event"
    },
    {
      "inputs": [
        {
          "internalType": "address",
          "name": "",
          "type": "address"
        }
      ],
      "name": "affiliates",
      "outputs": [
        {
          "internalType": "address",
          "name": "",
          "type": "address"
        }
      ],
      "stateMutability": "view",
      "type": "function"
    },
    {
      "inputs": [
        {
          "internalType": "bytes32",
          "name": "id",
          "type": "bytes32"
        },
        {
          "internalType": "bytes",
          "name": "reason",
          "type": "bytes"
        }
      ],
      "name": "cancelDeal",
      "outputs": [],
      "stateMutability": "nonpayable",
      "type": "function"
    },
    {
      "inputs": [
        {
          "internalType": "bytes32",
          "name": "id",
          "type": "bytes32"
        },
        {
          "internalType": "bytes",
          "name": "reason",
          "type": "bytes"
        }
      ],
      "name": "cancelRequest",
      "outputs": [],
      "stateMutability": "nonpayable",
      "type": "function"
    },
    {
      "inputs": [
        {
          "internalType": "bytes32[]",
          "name": "ids",
          "type": "bytes32[]"
        },
        {
          "internalType": "uint256",
          "name": "minAgeHours",
          "type": "uint256"
        }
      ],
      "name": "cleanupDeals",
      "outputs": [],
      "stateMutability": "nonpayable",
      "type": "function"
    },
    {
      "inputs": [
        {
          "internalType": "bytes32",
          "name": "",
          "type": "bytes32"
        }
      ],
      "name": "deals",
      "outputs": [
        {
          "internalType": "uint128",
          "name": "amount",
          "type": "uint128"
        },
        {
          "internalType": "uint96",
          "name": "price",
          "type": "uint96"
        },
        {
          "internalType": "enum Swap2p.DealState",
          "name": "state",
          "type": "uint8"
        },
        {
          "internalType": "enum Swap2p.Side",
          "name": "side",
          "type": "uint8"
        },
        {
          "internalType": "address",
          "name": "maker",
          "type": "address"
        },
        {
          "internalType": "address",
          "name": "taker",
          "type": "address"
        },
        {
          "internalType": "Swap2p.FiatCode",
          "name": "fiat",
          "type": "uint24"
        },
        {
          "internalType": "uint40",
          "name": "tsRequest",
          "type": "uint40"
        },
        {
          "internalType": "uint40",
          "name": "tsLast",
          "type": "uint40"
        },
        {
          "internalType": "address",
          "name": "token",
          "type": "address"
        }
      ],
      "stateMutability": "view",
      "type": "function"
    },
    {
      "inputs": [
        {
          "internalType": "address",
          "name": "maker",
          "type": "address"
        }
      ],
      "name": "getMakerOfferCount",
      "outputs": [
        {
          "internalType": "uint256",
          "name": "",
          "type": "uint256"
        }
      ],
      "stateMutability": "view",
      "type": "function"
    },
    {
      "inputs": [
        {
          "internalType": "address",
          "name": "maker",
          "type": "address"
        },
        {
          "internalType": "uint256",
          "name": "off",
          "type": "uint256"
        },
        {
          "internalType": "uint256",
          "name": "lim",
          "type": "uint256"
        }
      ],
      "name": "getMakerOfferIds",
      "outputs": [
        {
          "internalType": "bytes32[]",
          "name": "out",
          "type": "bytes32[]"
        }
      ],
      "stateMutability": "view",
      "type": "function"
    },
    {
      "inputs": [
        {
          "internalType": "address",
          "name": "maker",
          "type": "address"
        },
        {
          "internalType": "uint256",
          "name": "off",
          "type": "uint256"
        },
        {
          "internalType": "uint256",
          "name": "lim",
          "type": "uint256"
        }
      ],
      "name": "getMakerOffers",
      "outputs": [
        {
          "components": [
            {
              "internalType": "bytes32",
              "name": "id",
              "type": "bytes32"
            },
            {
              "internalType": "address",
              "name": "maker",
              "type": "address"
            },
            {
              "components": [
                {
                  "internalType": "uint128",
                  "name": "minAmt",
                  "type": "uint128"
                },
                {
                  "internalType": "uint128",
                  "name": "maxAmt",
                  "type": "uint128"
                },
                {
                  "internalType": "uint96",
                  "name": "reserve",
                  "type": "uint96"
                },
                {
                  "internalType": "uint96",
                  "name": "priceFiatPerToken",
                  "type": "uint96"
                },
                {
                  "internalType": "uint32",
                  "name": "ts",
                  "type": "uint32"
                },
                {
                  "internalType": "Swap2p.FiatCode",
                  "name": "fiat",
                  "type": "uint24"
                },
                {
                  "internalType": "enum Swap2p.Side",
                  "name": "side",
                  "type": "uint8"
                },
                {
                  "internalType": "address",
                  "name": "token",
                  "type": "address"
                },
                {
                  "internalType": "address",
                  "name": "maker",
                  "type": "address"
                },
                {
                  "internalType": "string",
                  "name": "paymentMethods",
                  "type": "string"
                },
                {
                  "internalType": "string",
                  "name": "requirements",
                  "type": "string"
                }
              ],
              "internalType": "struct Swap2p.Offer",
              "name": "offer",
              "type": "tuple"
            }
          ],
          "internalType": "struct Swap2p.OfferInfo[]",
          "name": "out",
          "type": "tuple[]"
        }
      ],
      "stateMutability": "view",
      "type": "function"
    },
    {
      "inputs": [
        {
          "internalType": "address[]",
          "name": "accounts",
          "type": "address[]"
        }
      ],
      "name": "getMakerProfiles",
      "outputs": [
        {
          "components": [
            {
              "internalType": "bool",
              "name": "online",
              "type": "bool"
            },
            {
              "internalType": "uint40",
              "name": "lastActivity",
              "type": "uint40"
            },
            {
              "internalType": "string",
              "name": "nickname",
              "type": "string"
            },
            {
              "internalType": "int32",
              "name": "dealsCancelled",
              "type": "int32"
            },
            {
              "internalType": "int32",
              "name": "dealsCompleted",
              "type": "int32"
            }
          ],
          "internalType": "struct Swap2p.MakerProfile[]",
          "name": "profiles",
          "type": "tuple[]"
        }
      ],
      "stateMutability": "view",
      "type": "function"
    },
    {
      "inputs": [
        {
          "internalType": "address",
          "name": "token",
          "type": "address"
        },
        {
          "internalType": "enum Swap2p.Side",
          "name": "s",
          "type": "uint8"
        },
        {
          "internalType": "Swap2p.FiatCode",
          "name": "f",
          "type": "uint24"
        },
        {
          "internalType": "uint256",
          "name": "off",
          "type": "uint256"
        },
        {
          "internalType": "uint256",
          "name": "lim",
          "type": "uint256"
        }
      ],
      "name": "getMarketOfferIds",
      "outputs": [
        {
          "internalType": "bytes32[]",
          "name": "out",
          "type": "bytes32[]"
        }
      ],
      "stateMutability": "view",
      "type": "function"
    },
    {
      "inputs": [
        {
          "internalType": "address",
          "name": "token",
          "type": "address"
        },
        {
          "internalType": "enum Swap2p.Side",
          "name": "s",
          "type": "uint8"
        },
        {
          "internalType": "Swap2p.FiatCode",
          "name": "f",
          "type": "uint24"
        },
        {
          "internalType": "uint256",
          "name": "off",
          "type": "uint256"
        },
        {
          "internalType": "uint256",
          "name": "lim",
          "type": "uint256"
        }
      ],
      "name": "getMarketOffers",
      "outputs": [
        {
          "components": [
            {
              "internalType": "bytes32",
              "name": "id",
              "type": "bytes32"
            },
            {
              "internalType": "address",
              "name": "maker",
              "type": "address"
            },
            {
              "components": [
                {
                  "internalType": "uint128",
                  "name": "minAmt",
                  "type": "uint128"
                },
                {
                  "internalType": "uint128",
                  "name": "maxAmt",
                  "type": "uint128"
                },
                {
                  "internalType": "uint96",
                  "name": "reserve",
                  "type": "uint96"
                },
                {
                  "internalType": "uint96",
                  "name": "priceFiatPerToken",
                  "type": "uint96"
                },
                {
                  "internalType": "uint32",
                  "name": "ts",
                  "type": "uint32"
                },
                {
                  "internalType": "Swap2p.FiatCode",
                  "name": "fiat",
                  "type": "uint24"
                },
                {
                  "internalType": "enum Swap2p.Side",
                  "name": "side",
                  "type": "uint8"
                },
                {
                  "internalType": "address",
                  "name": "token",
                  "type": "address"
                },
                {
                  "internalType": "address",
                  "name": "maker",
                  "type": "address"
                },
                {
                  "internalType": "string",
                  "name": "paymentMethods",
                  "type": "string"
                },
                {
                  "internalType": "string",
                  "name": "requirements",
                  "type": "string"
                }
              ],
              "internalType": "struct Swap2p.Offer",
              "name": "offer",
              "type": "tuple"
            }
          ],
          "internalType": "struct Swap2p.OfferInfo[]",
          "name": "out",
          "type": "tuple[]"
        }
      ],
      "stateMutability": "view",
      "type": "function"
    },
    {
      "inputs": [
        {
          "internalType": "bytes32",
          "name": "id",
          "type": "bytes32"
        }
      ],
      "name": "getOfferById",
      "outputs": [
        {
          "components": [
            {
              "internalType": "bytes32",
              "name": "id",
              "type": "bytes32"
            },
            {
              "internalType": "address",
              "name": "maker",
              "type": "address"
            },
            {
              "components": [
                {
                  "internalType": "uint128",
                  "name": "minAmt",
                  "type": "uint128"
                },
                {
                  "internalType": "uint128",
                  "name": "maxAmt",
                  "type": "uint128"
                },
                {
                  "internalType": "uint96",
                  "name": "reserve",
                  "type": "uint96"
                },
                {
                  "internalType": "uint96",
                  "name": "priceFiatPerToken",
                  "type": "uint96"
                },
                {
                  "internalType": "uint32",
                  "name": "ts",
                  "type": "uint32"
                },
                {
                  "internalType": "Swap2p.FiatCode",
                  "name": "fiat",
                  "type": "uint24"
                },
                {
                  "internalType": "enum Swap2p.Side",
                  "name": "side",
                  "type": "uint8"
                },
                {
                  "internalType": "address",
                  "name": "token",
                  "type": "address"
                },
                {
                  "internalType": "address",
                  "name": "maker",
                  "type": "address"
                },
                {
                  "internalType": "string",
                  "name": "paymentMethods",
                  "type": "string"
                },
                {
                  "internalType": "string",
                  "name": "requirements",
                  "type": "string"
                }
              ],
              "internalType": "struct Swap2p.Offer",
              "name": "offer",
              "type": "tuple"
            }
          ],
          "internalType": "struct Swap2p.OfferInfo",
          "name": "info",
          "type": "tuple"
        }
      ],
      "stateMutability": "view",
      "type": "function"
    },
    {
      "inputs": [
        {
          "internalType": "address",
          "name": "token",
          "type": "address"
        },
        {
          "internalType": "enum Swap2p.Side",
          "name": "s",
          "type": "uint8"
        },
        {
          "internalType": "Swap2p.FiatCode",
          "name": "f",
          "type": "uint24"
        }
      ],
      "name": "getOfferCount",
      "outputs": [
        {
          "internalType": "uint256",
          "name": "",
          "type": "uint256"
        }
      ],
      "stateMutability": "view",
      "type": "function"
    },
    {
      "inputs": [
        {
          "internalType": "address",
          "name": "token",
          "type": "address"
        },
        {
          "internalType": "address",
          "name": "maker",
          "type": "address"
        },
        {
          "internalType": "enum Swap2p.Side",
          "name": "s",
          "type": "uint8"
        },
        {
          "internalType": "Swap2p.FiatCode",
          "name": "f",
          "type": "uint24"
        }
      ],
      "name": "getOfferId",
      "outputs": [
        {
          "internalType": "bytes32",
          "name": "",
          "type": "bytes32"
        }
      ],
      "stateMutability": "view",
      "type": "function"
    },
    {
      "inputs": [
        {
          "internalType": "address",
          "name": "token",
          "type": "address"
        },
        {
          "internalType": "enum Swap2p.Side",
          "name": "s",
          "type": "uint8"
        },
        {
          "internalType": "Swap2p.FiatCode",
          "name": "f",
          "type": "uint24"
        },
        {
          "internalType": "uint256",
          "name": "off",
          "type": "uint256"
        },
        {
          "internalType": "uint256",
          "name": "lim",
          "type": "uint256"
        }
      ],
      "name": "getOfferKeys",
      "outputs": [
        {
          "internalType": "address[]",
          "name": "out",
          "type": "address[]"
        }
      ],
      "stateMutability": "view",
      "type": "function"
    },
    {
      "inputs": [
        {
          "internalType": "address",
          "name": "u",
          "type": "address"
        }
      ],
      "name": "getOpenDealCount",
      "outputs": [
        {
          "internalType": "uint256",
          "name": "",
          "type": "uint256"
        }
      ],
      "stateMutability": "view",
      "type": "function"
    },
    {
      "inputs": [
        {
          "internalType": "address",
          "name": "u",
          "type": "address"
        },
        {
          "internalType": "uint256",
          "name": "off",
          "type": "uint256"
        },
        {
          "internalType": "uint256",
          "name": "lim",
          "type": "uint256"
        }
      ],
      "name": "getOpenDeals",
      "outputs": [
        {
          "internalType": "bytes32[]",
          "name": "out",
          "type": "bytes32[]"
        }
      ],
      "stateMutability": "view",
      "type": "function"
    },
    {
      "inputs": [
        {
          "internalType": "address",
          "name": "u",
          "type": "address"
        },
        {
          "internalType": "uint256",
          "name": "off",
          "type": "uint256"
        },
        {
          "internalType": "uint256",
          "name": "lim",
          "type": "uint256"
        }
      ],
      "name": "getOpenDealsDetailed",
      "outputs": [
        {
          "components": [
            {
              "internalType": "bytes32",
              "name": "id",
              "type": "bytes32"
            },
            {
              "components": [
                {
                  "internalType": "uint128",
                  "name": "amount",
                  "type": "uint128"
                },
                {
                  "internalType": "uint96",
                  "name": "price",
                  "type": "uint96"
                },
                {
                  "internalType": "enum Swap2p.DealState",
                  "name": "state",
                  "type": "uint8"
                },
                {
                  "internalType": "enum Swap2p.Side",
                  "name": "side",
                  "type": "uint8"
                },
                {
                  "internalType": "address",
                  "name": "maker",
                  "type": "address"
                },
                {
                  "internalType": "address",
                  "name": "taker",
                  "type": "address"
                },
                {
                  "internalType": "Swap2p.FiatCode",
                  "name": "fiat",
                  "type": "uint24"
                },
                {
                  "internalType": "uint40",
                  "name": "tsRequest",
                  "type": "uint40"
                },
                {
                  "internalType": "uint40",
                  "name": "tsLast",
                  "type": "uint40"
                },
                {
                  "internalType": "address",
                  "name": "token",
                  "type": "address"
                }
              ],
              "internalType": "struct Swap2p.Deal",
              "name": "deal",
              "type": "tuple"
            }
          ],
          "internalType": "struct Swap2p.DealInfo[]",
          "name": "out",
          "type": "tuple[]"
        }
      ],
      "stateMutability": "view",
      "type": "function"
    },
    {
      "inputs": [
        {
          "internalType": "address",
          "name": "u",
          "type": "address"
        }
      ],
      "name": "getRecentDealCount",
      "outputs": [
        {
          "internalType": "uint256",
          "name": "",
          "type": "uint256"
        }
      ],
      "stateMutability": "view",
      "type": "function"
    },
    {
      "inputs": [
        {
          "internalType": "address",
          "name": "u",
          "type": "address"
        },
        {
          "internalType": "uint256",
          "name": "off",
          "type": "uint256"
        },
        {
          "internalType": "uint256",
          "name": "lim",
          "type": "uint256"
        }
      ],
      "name": "getRecentDeals",
      "outputs": [
        {
          "internalType": "bytes32[]",
          "name": "out",
          "type": "bytes32[]"
        }
      ],
      "stateMutability": "view",
      "type": "function"
    },
    {
      "inputs": [
        {
          "internalType": "address",
          "name": "u",
          "type": "address"
        },
        {
          "internalType": "uint256",
          "name": "off",
          "type": "uint256"
        },
        {
          "internalType": "uint256",
          "name": "lim",
          "type": "uint256"
        }
      ],
      "name": "getRecentDealsDetailed",
      "outputs": [
        {
          "components": [
            {
              "internalType": "bytes32",
              "name": "id",
              "type": "bytes32"
            },
            {
              "components": [
                {
                  "internalType": "uint128",
                  "name": "amount",
                  "type": "uint128"
                },
                {
                  "internalType": "uint96",
                  "name": "price",
                  "type": "uint96"
                },
                {
                  "internalType": "enum Swap2p.DealState",
                  "name": "state",
                  "type": "uint8"
                },
                {
                  "internalType": "enum Swap2p.Side",
                  "name": "side",
                  "type": "uint8"
                },
                {
                  "internalType": "address",
                  "name": "maker",
                  "type": "address"
                },
                {
                  "internalType": "address",
                  "name": "taker",
                  "type": "address"
                },
                {
                  "internalType": "Swap2p.FiatCode",
                  "name": "fiat",
                  "type": "uint24"
                },
                {
                  "internalType": "uint40",
                  "name": "tsRequest",
                  "type": "uint40"
                },
                {
                  "internalType": "uint40",
                  "name": "tsLast",
                  "type": "uint40"
                },
                {
                  "internalType": "address",
                  "name": "token",
                  "type": "address"
                }
              ],
              "internalType": "struct Swap2p.Deal",
              "name": "deal",
              "type": "tuple"
            }
          ],
          "internalType": "struct Swap2p.DealInfo[]",
          "name": "out",
          "type": "tuple[]"
        }
      ],
      "stateMutability": "view",
      "type": "function"
    },
    {
      "inputs": [
        {
          "internalType": "address",
          "name": "token",
          "type": "address"
        },
        {
          "internalType": "enum Swap2p.Side",
          "name": "s",
          "type": "uint8"
        },
        {
          "internalType": "Swap2p.FiatCode",
          "name": "f",
          "type": "uint24"
        }
      ],
      "name": "listOffers",
      "outputs": [
        {
          "components": [
            {
              "internalType": "bytes32",
              "name": "id",
              "type": "bytes32"
            },
            {
              "internalType": "address",
              "name": "maker",
              "type": "address"
            },
            {
              "components": [
                {
                  "internalType": "uint128",
                  "name": "minAmt",
                  "type": "uint128"
                },
                {
                  "internalType": "uint128",
                  "name": "maxAmt",
                  "type": "uint128"
                },
                {
                  "internalType": "uint96",
                  "name": "reserve",
                  "type": "uint96"
                },
                {
                  "internalType": "uint96",
                  "name": "priceFiatPerToken",
                  "type": "uint96"
                },
                {
                  "internalType": "uint32",
                  "name": "ts",
                  "type": "uint32"
                },
                {
                  "internalType": "Swap2p.FiatCode",
                  "name": "fiat",
                  "type": "uint24"
                },
                {
                  "internalType": "enum Swap2p.Side",
                  "name": "side",
                  "type": "uint8"
                },
                {
                  "internalType": "address",
                  "name": "token",
                  "type": "address"
                },
                {
                  "internalType": "address",
                  "name": "maker",
                  "type": "address"
                },
                {
                  "internalType": "string",
                  "name": "paymentMethods",
                  "type": "string"
                },
                {
                  "internalType": "string",
                  "name": "requirements",
                  "type": "string"
                }
              ],
              "internalType": "struct Swap2p.Offer",
              "name": "offer",
              "type": "tuple"
            }
          ],
          "internalType": "struct Swap2p.OfferInfo[]",
          "name": "out",
          "type": "tuple[]"
        }
      ],
      "stateMutability": "view",
      "type": "function"
    },
    {
      "inputs": [
        {
          "internalType": "address",
          "name": "",
          "type": "address"
        }
      ],
      "name": "makerInfo",
      "outputs": [
        {
          "internalType": "bool",
          "name": "online",
          "type": "bool"
        },
        {
          "internalType": "uint40",
          "name": "lastActivity",
          "type": "uint40"
        },
        {
          "internalType": "string",
          "name": "nickname",
          "type": "string"
        },
        {
          "internalType": "int32",
          "name": "dealsCancelled",
          "type": "int32"
        },
        {
          "internalType": "int32",
          "name": "dealsCompleted",
          "type": "int32"
        }
      ],
      "stateMutability": "view",
      "type": "function"
    },
    {
      "inputs": [
        {
          "internalType": "bytes32",
          "name": "id",
          "type": "bytes32"
        },
        {
          "internalType": "bytes",
          "name": "msg_",
          "type": "bytes"
        }
      ],
      "name": "maker_acceptRequest",
      "outputs": [],
      "stateMutability": "nonpayable",
      "type": "function"
    },
    {
      "inputs": [
        {
          "internalType": "address",
          "name": "token",
          "type": "address"
        },
        {
          "internalType": "enum Swap2p.Side",
          "name": "s",
          "type": "uint8"
        },
        {
          "internalType": "Swap2p.FiatCode",
          "name": "f",
          "type": "uint24"
        }
      ],
      "name": "maker_deleteOffer",
      "outputs": [],
      "stateMutability": "nonpayable",
      "type": "function"
    },
    {
      "inputs": [
        {
          "internalType": "address",
          "name": "token",
          "type": "address"
        },
        {
          "internalType": "enum Swap2p.Side",
          "name": "s",
          "type": "uint8"
        },
        {
          "internalType": "Swap2p.FiatCode",
          "name": "f",
          "type": "uint24"
        },
        {
          "internalType": "uint96",
          "name": "price",
          "type": "uint96"
        },
        {
          "internalType": "uint96",
          "name": "reserve",
          "type": "uint96"
        },
        {
          "internalType": "uint128",
          "name": "minAmt",
          "type": "uint128"
        },
        {
          "internalType": "uint128",
          "name": "maxAmt",
          "type": "uint128"
        },
        {
          "components": [
            {
              "internalType": "string",
              "name": "paymentMethods",
              "type": "string"
            },
            {
              "internalType": "string",
              "name": "requirements",
              "type": "string"
            },
            {
              "internalType": "string",
              "name": "comment",
              "type": "string"
            }
          ],
          "internalType": "struct Swap2p.MakerOfferTexts",
          "name": "texts",
          "type": "tuple"
        }
      ],
      "name": "maker_makeOffer",
      "outputs": [],
      "stateMutability": "nonpayable",
      "type": "function"
    },
    {
      "inputs": [
        {
          "internalType": "bytes32",
          "name": "id",
          "type": "bytes32"
        },
        {
          "internalType": "bytes",
          "name": "msg_",
          "type": "bytes"
        }
      ],
      "name": "markFiatPaid",
      "outputs": [],
      "stateMutability": "nonpayable",
      "type": "function"
    },
    {
      "inputs": [
        {
          "internalType": "address",
          "name": "taker",
          "type": "address"
        }
      ],
      "name": "previewNextDealId",
      "outputs": [
        {
          "internalType": "bytes32",
          "name": "id",
          "type": "bytes32"
        },
        {
          "internalType": "uint64",
          "name": "nonce",
          "type": "uint64"
        }
      ],
      "stateMutability": "view",
      "type": "function"
    },
    {
      "inputs": [
        {
          "internalType": "address",
          "name": "maker",
          "type": "address"
        }
      ],
      "name": "previewNextOfferId",
      "outputs": [
        {
          "internalType": "bytes32",
          "name": "id",
          "type": "bytes32"
        },
        {
          "internalType": "uint64",
          "name": "nonce",
          "type": "uint64"
        }
      ],
      "stateMutability": "view",
      "type": "function"
    },
    {
      "inputs": [
        {
          "internalType": "bytes32",
          "name": "id",
          "type": "bytes32"
        },
        {
          "internalType": "bytes",
          "name": "msg_",
          "type": "bytes"
        }
      ],
      "name": "release",
      "outputs": [],
      "stateMutability": "nonpayable",
      "type": "function"
    },
    {
      "inputs": [
        {
          "internalType": "bytes32",
          "name": "id",
          "type": "bytes32"
        },
        {
          "internalType": "bytes",
          "name": "t",
          "type": "bytes"
        }
      ],
      "name": "sendMessage",
      "outputs": [],
      "stateMutability": "nonpayable",
      "type": "function"
    },
    {
      "inputs": [
        {
          "internalType": "string",
          "name": "nick",
          "type": "string"
        }
      ],
      "name": "setNickname",
      "outputs": [],
      "stateMutability": "nonpayable",
      "type": "function"
    },
    {
      "inputs": [
        {
          "internalType": "bool",
          "name": "on",
          "type": "bool"
        }
      ],
      "name": "setOnline",
      "outputs": [],
      "stateMutability": "nonpayable",
      "type": "function"
    },
    {
      "inputs": [
        {
          "internalType": "address",
          "name": "token",
          "type": "address"
        },
        {
          "internalType": "enum Swap2p.Side",
          "name": "s",
          "type": "uint8"
        },
        {
          "internalType": "address",
          "name": "maker",
          "type": "address"
        },
        {
          "internalType": "uint128",
          "name": "amount",
          "type": "uint128"
        },
        {
          "internalType": "Swap2p.FiatCode",
          "name": "f",
          "type": "uint24"
        },
        {
          "internalType": "uint96",
          "name": "expectedPrice",
          "type": "uint96"
        },
        {
          "internalType": "string",
          "name": "details",
          "type": "string"
        },
        {
          "internalType": "address",
          "name": "partner",
          "type": "address"
        }
      ],
      "name": "taker_requestOffer",
      "outputs": [],
      "stateMutability": "nonpayable",
      "type": "function"
    }
  ],
  "bytecode": "0x60a0604052348015600f57600080fd5b5060405161578b38038061578b833981016040819052602c916067565b60016000556001600160a01b03811660575760405163f79316e160e01b815260040160405180910390fd5b6001600160a01b03166080526095565b600060208284031215607857600080fd5b81516001600160a01b0381168114608e57600080fd5b9392505050565b6080516156db6100b0600039600061340c01526156db6000f3fe608060405234801561001057600080fd5b50600436106101965760003560e01c806301d563f91461019b578063167abbdc146101c45780631bc8a466146101e45780631c5d9faa146101f957806323c640e71461020c57806323d317a91461021f578063285289eb146102325780632b9c45cb146102455780632f0cd5aa1461027c5780632fbe2ce91461028f5780633d4d81de146102af5780633d8dfcce146102c25780633f9951aa146102e65780634314a8e21461030657806347437d1c146103195780634be974b51461032c5780634bfac20c1461034c5780634f51e2941461035f5780635ca3f31b1461039557806364c1cfa1146103a85780636d2a0fd0146103bb57806371a735c7146103eb578063722fe606146103fe5780637b05fd1d1461042757806381cd872a146104475780638f658829146104fc5780639af8868c1461050f578063b0fa390314610538578063bd407c1e1461054b578063cb34d0401461055e578063ce4b8daf14610571578063d486b7c414610584578063e7f2587014610597578063f05b89fe146105aa575b600080fd5b6101ae6101a936600461458a565b6105bd565b6040516101bb919061461e565b60405180910390f35b6101d76101d236600461474c565b6105f2565b6040516101bb91906147a1565b6101f76101f2366004614821565b61070d565b005b6101f761020736600461486c565b610a9d565b6101f761021a366004614821565b610c94565b6101d761022d36600461458a565b610cc8565b6101f76102403660046148db565b610dc6565b61026e610253366004614993565b6001600160a01b03166000908152600b602052604090205490565b6040519081526020016101bb565b6101f761028a3660046149f2565b610de1565b6102a261029d36600461474c565b610f7c565b6040516101bb9190614a3d565b6101d76102bd36600461458a565b6110c3565b6102d56102d0366004614993565b6111d1565b6040516101bb959493929190614ac4565b6102f96102f4366004614b08565b61129d565b6040516101bb9190614b3d565b6101d761031436600461458a565b611505565b6101f7610327366004614821565b6115f8565b61033f61033a366004614bec565b611a16565b6040516101bb9190614d0b565b6101f761035a366004614821565b611c79565b61038861036d366004614993565b6006602052600090815260409020546001600160a01b031681565b6040516101bb9190614d1e565b61026e6103a3366004614d32565b611fcb565b6101f76103b6366004614821565b611ff5565b6103ce6103c9366004614993565b61216b565b604080519283526001600160401b039091166020830152016101bb565b6103ce6103f9366004614993565b6121cc565b61026e61040c366004614993565b6001600160a01b03166000908152600d602052604090205490565b61043a61043536600461474c565b6121fb565b6040516101bb9190614d75565b6104e6610455366004614bec565b600260208190526000918252604090912080546001820154928201546003909201546001600160801b038216936001600160601b03600160801b8404169360ff600160e01b8504811694600160e81b900416926001600160a01b03928316928281169262ffffff600160a01b8204169264ffffffffff600160b81b90920482169291811691600160281b909104168a565b6040516101bb9a99989796959493929190614dce565b61043a61050a366004614d32565b612242565b61026e61051d366004614993565b6001600160a01b03166000908152600f602052604090205490565b6101f7610546366004614e5d565b612293565b6101ae61055936600461458a565b6122fe565b6101f761056c366004614d32565b612329565b61043a61057f36600461458a565b612503565b61026e610592366004614e7f565b612536565b6101f76105a5366004614ed3565b6125b6565b6101f76105b8366004614821565b612b91565b606081156105eb576001600160a01b0384166000908152600f602052604090206105e8908484612d1d565b90505b9392505050565b6060600060096000610605898989613003565b8152602081019190915260400160002080549091508085101580610627575083155b15610633575050610704565b600061063f8587614fa0565b90508581108061064e57508181115b156106565750805b60006106628783614fb9565b9050806001600160401b0381111561067c5761067c614fcc565b6040519080825280602002602001820160405280156106a5578160200160208202803683370190505b50945060005b818110156106fe57846106be828a614fa0565b815481106106ce576106ce614fe2565b90600052602060002001548682815181106106eb576106eb614fe2565b60209081029190910101526001016106ab565b50505050505b95945050505050565b610715613039565b336000908152600760209081526040808320805465ffffffffff0019166101004264ffffffffff16021790558583526002909152902060038154600160e01b900460ff16600581111561076a5761076a6145d7565b1461078857604051636f20b45d60e11b815260040160405180910390fd5b60008154600160e81b900460ff1660018111156107a7576107a76145d7565b1480156107c1575060028101546001600160a01b03163314155b80610800575060018154600160e81b900460ff1660018111156107e6576107e66145d7565b148015610800575060018101546001600160a01b03163314155b1561081e5760405163068690bf60e11b815260040160405180910390fd5b811561082f5761082f848484613063565b805460ff60e01b1916600160e21b17815560038101805464ffffffffff19164264ffffffffff161790556001810154610871906001600160a01b031685613180565b6002810154610889906001600160a01b031685613180565b600181015460028201546108aa916001600160a01b03908116911686613214565b6001818101546001600160a01b0316600090815260076020526040902060020180546004906108e4908490600160201b900460030b614ff8565b825463ffffffff9182166101009390930a9283029190920219909116179055506002808201546001600160a01b0316600090815260076020526040902001805460019190600490610940908490600160201b900460030b614ff8565b92506101000a81548163ffffffff021916908360030b63ffffffff1602179055506000806001811115610975576109756145d7565b8254600160e81b900460ff166001811115610992576109926145d7565b146109aa5760028201546001600160a01b03166109b9565b60018201546001600160a01b03165b60038301546002840154600185015485549394506109fb9389936001600160a01b03600160281b909104811693811692169086906001600160801b0316613228565b600382015460028301548354610a2e926001600160a01b03600160281b90910481169216906001600160801b031661343e565b600382015460018301548354610a61926001600160a01b03600160281b90910481169216906001600160801b031661343e565b60405185907f7fd4245b0f72acadc4c87701af2ae8b00ba2adeef4b3e209897df6cef0426bee90600090a25050610a986001600055565b505050565b336000908152600760209081526040808320805465ffffffffff0019166101004264ffffffffff16021781558151601f86018490048402810184019092528482529291859085908190840183828082843760009201829052506001870180549596509094909350610b109250905061501f565b80601f0160208091040260200160405190810160405280929190818152602001828054610b3c9061501f565b8015610b895780601f10610b5e57610100808354040283529160200191610b89565b820191906000526020600020905b815481529060010190602001808311610b6c57829003601f168201915b505050505090508151600003610be457805115610bdd5780516020808301919091206000818152600883526040808220805460ff19169055805193840190528252906001850190610bda90826150b5565b50505b5050505050565b81516020830120815115610c085780828051906020012003610c0857505050505050565b60008181526008602052604090205460ff1615610c3857604051637ec9752560e01b815260040160405180910390fd5b6000818152600860205260409020805460ff191660019081179091558401610c6186888361516d565b50815115610c8b5781516020808401919091206000908152600890915260409020805460ff191690555b505050505b5050565b336000908152600760205260409020805465ffffffffff0019166101004264ffffffffff1602179055610a98838383613063565b6001600160a01b0383166000908152600f60205260409020805460609190808510610cf45750506105eb565b6000610d008587614fa0565b905085811080610d0f57508181115b15610d175750805b610d218682614fb9565b6001600160401b03811115610d3857610d38614fcc565b604051908082528060200260200182016040528015610d61578160200160208202803683370190505b509350855b81811015610dbb57838181548110610d8057610d80614fe2565b9060005260206000200154858883610d989190614fb9565b81518110610da857610da8614fe2565b6020908102919091010152600101610d66565b505050509392505050565b610dd7338989898989898989613471565b5050505050505050565b6030811015610e0357604051636f20b45d60e11b815260040160405180910390fd5b6000610e1182610e10615226565b90508260005b81811015610c8b576000868683818110610e3357610e33614fe2565b60209081029290920135600081815260029093526040909220805492935091600160e01b900460ff1690506004816005811115610e7257610e726145d7565b14158015610e9257506005816005811115610e8f57610e8f6145d7565b14155b15610e9f57505050610f74565b60038201548690610eb79064ffffffffff1642614fb9565b1015610ec557505050610f74565b600180830154600280850154600087815260208390526040902080546001600160f01b031916815593840180546001600160a01b031916905590830180546001600160e01b0319169055600390920180546001600160c81b03191690556001600160a01b039081169116610f3982866136ce565b610f4381866136ce565b60405185907f5dfd3d3075c6a14eb1287a8fa566b2a067908e976de63c0f9f4a5246f82a485290600090a250505050505b600101610e17565b6060600060096000610f8f898989613003565b8152602081019190915260400160002080549091508085101580610fb1575083155b15610fbd575050610704565b6000610fc98587614fa0565b905085811080610fd857508181115b15610fe05750805b6000610fec8783614fb9565b9050806001600160401b0381111561100657611006614fcc565b60405190808252806020026020018201604052801561102f578160200160208202803683370190505b50945060005b818110156106fe5760006001818761104d858d614fa0565b8154811061105d5761105d614fe2565b9060005260206000200154815260200190815260200160002090508060030160009054906101000a90046001600160a01b03168783815181106110a2576110a2614fe2565b6001600160a01b039092166020928302919091019091015250600101611035565b6001600160a01b0383166000908152600b6020526040902080546060919080851015806110ee575083155b156110fa5750506105eb565b60006111068587614fa0565b90508581108061111557508181115b1561111d5750805b60006111298783614fb9565b9050806001600160401b0381111561114357611143614fcc565b60405190808252806020026020018201604052801561116c578160200160208202803683370190505b50945060005b818110156111c55784611185828a614fa0565b8154811061119557611195614fe2565b90600052602060002001548682815181106111b2576111b2614fe2565b6020908102919091010152600101611172565b50505050509392505050565b6007602052600090815260409020805460018201805460ff83169361010090930464ffffffffff169291906112059061501f565b80601f01602080910402602001604051908101604052809291908181526020018280546112319061501f565b801561127e5780601f106112535761010080835404028352916020019161127e565b820191906000526020600020905b81548152906001019060200180831161126157829003601f168201915b50505060029093015491925050600381810b91600160201b9004900b85565b606081806001600160401b038111156112b8576112b8614fcc565b60405190808252806020026020018201604052801561131257816020015b6040805160a081018252600080825260208083018290526060938301849052928201819052608082015282526000199092019101816112d65790505b50915060005b818110156114fd5760006007600087878581811061133857611338614fe2565b905060200201602081019061134d9190614993565b6001600160a01b0316815260208101919091526040016000208054855191925060ff169085908490811061138357611383614fe2565b602090810291909101015190151590528054845161010090910464ffffffffff16908590849081106113b7576113b7614fe2565b60209081029190910181015164ffffffffff9092169101526001810180546113de9061501f565b80601f016020809104026020016040519081016040528092919081815260200182805461140a9061501f565b80156114575780601f1061142c57610100808354040283529160200191611457565b820191906000526020600020905b81548152906001019060200180831161143a57829003601f168201915b505050505084838151811061146e5761146e614fe2565b6020026020010151604001819052508060020160009054906101000a900460030b8483815181106114a1576114a1614fe2565b60200260200101516060019060030b908160030b815250508060020160049054906101000a900460030b8483815181106114dd576114dd614fe2565b602090810291909101015160039190910b60809091015250600101611318565b505092915050565b6001600160a01b0383166000908152600d602052604090208054606091908085106115315750506105eb565b600061153d8587614fa0565b90508581108061154c57508181115b156115545750805b61155e8682614fb9565b6001600160401b0381111561157557611575614fcc565b60405190808252806020026020018201604052801561159e578160200160208202803683370190505b509350855b81811015610dbb578381815481106115bd576115bd614fe2565b90600052602060002001548588836115d59190614fb9565b815181106115e5576115e5614fe2565b60209081029190910101526001016115a3565b611600613039565b336000908152600760209081526040808320805465ffffffffff0019166101004264ffffffffff1602179055858352600291829052909120908154600160e01b900460ff166005811115611656576116566145d7565b1461167457604051636f20b45d60e11b815260040160405180910390fd5b60018101546001600160a01b031633036116cb5760005b8154600160e81b900460ff1660018111156116a8576116a86145d7565b146116c65760405163153c8df760e31b815260040160405180910390fd5b6116ff565b60028101546001600160a01b031633036116e657600161168b565b60405163068690bf60e11b815260040160405180910390fd5b811561171057611710848484613063565b805460ff60e01b1916600560e01b1780825560038201805464ffffffffff19164264ffffffffff161790819055600160281b90046001600160a01b03908116600090815260046020908152604080832060018088015490951684529091528120909290918391600160e81b900460ff1690811115611790576117906145d7565b60018111156117a1576117a16145d7565b8152602080820192909252604090810160009081206002860154600160a01b900462ffffff1682529092529020549050801561185057600081815260016020819052604090912090810154600160c01b900463ffffffff161561184e5782546001820180546001600160801b03909216916000906118299084906001600160601b031661523d565b92506101000a8154816001600160601b0302191690836001600160601b031602179055505b505b6001820154611868906001600160a01b031686613180565b6002820154611880906001600160a01b031686613180565b60008254600160e81b900460ff16600181111561189f5761189f6145d7565b0361191b57600382015460028084015484546118e3936001600160a01b03600160281b9091048116939216916118de916001600160801b03169061525c565b61343e565b600382015460018301548354611916926001600160a01b03600160281b90910481169216906001600160801b031661343e565b611987565b60038201546002830154835461194e926001600160a01b03600160281b90910481169216906001600160801b031661343e565b600382015460018301548354611987926001600160a01b03600160281b90910481169216906118de906001600160801b0316600261525c565b600182015460028301546119a8916001600160a01b03908116911687613214565b3360009081526007602052604081206002018054600192906119ce90849060030b614ff8565b92506101000a81548163ffffffff021916908360030b63ffffffff1602179055508460008051602061566683398151915260405160405180910390a25050610a986001600055565b611a1e614438565b60008281526001602081905260408220908101549091600160c01b90910463ffffffff169003611a6157604051636df5846d60e01b815260040160405180910390fd5b82825260038101546001600160a01b0316602080840191909152604080516101608101825283546001600160801b038082168352600160801b90910416928101929092526001808401546001600160601b0380821693850193909352600160601b81049092166060840152600160c01b820463ffffffff166080840152600160e01b820462ffffff1660a0840152839160c0840191600160f81b90910460ff1690811115611b1157611b116145d7565b6001811115611b2257611b226145d7565b815260028201546001600160a01b0390811660208301526003830154166040820152600482018054606090920191611b599061501f565b80601f0160208091040260200160405190810160405280929190818152602001828054611b859061501f565b8015611bd25780601f10611ba757610100808354040283529160200191611bd2565b820191906000526020600020905b815481529060010190602001808311611bb557829003601f168201915b50505050508152602001600582018054611beb9061501f565b80601f0160208091040260200160405190810160405280929190818152602001828054611c179061501f565b8015611c645780601f10611c3957610100808354040283529160200191611c64565b820191906000526020600020905b815481529060010190602001808311611c4757829003601f168201915b50505091909252505050604083015250919050565b611c81613039565b336000818152600760209081526040808320805465ffffffffff0019166101004264ffffffffff160217905586835260029091529020600181015490916001600160a01b0390911614801590611ce4575060028101546001600160a01b03163314155b15611d025760405163068690bf60e11b815260040160405180910390fd5b60018154600160e01b900460ff166005811115611d2157611d216145d7565b14611d3f57604051636f20b45d60e11b815260040160405180910390fd5b8115611d5057611d50848484613063565b805460ff60e01b1916600560e01b17815560038101805464ffffffffff19164264ffffffffff161790556001810154611d92906001600160a01b031685613180565b6002810154611daa906001600160a01b031685613180565b6003810154600160281b90046001600160a01b039081166000908152600460209081526040808320600180870154909516845290915281208354919290918391600160e81b90910460ff1690811115611e0557611e056145d7565b6001811115611e1657611e166145d7565b8152602080820192909252604090810160009081206002860154600160a01b900462ffffff16825290925290205490508015611ec557600081815260016020819052604090912090810154600160c01b900463ffffffff1615611ec35782546001820180546001600160801b0390921691600090611e9e9084906001600160601b031661523d565b92506101000a8154816001600160601b0302191690836001600160601b031602179055505b505b6000808354600160e81b900460ff166001811115611ee557611ee56145d7565b14611efa5782546001600160801b0316611f10565b8254611f10906001600160801b0316600261525c565b60038401546002850154919250611f3b916001600160a01b03600160281b909204821691168361343e565b60018301546002840154611f5c916001600160a01b03908116911688613214565b336000908152600760205260408120600201805460019290611f8290849060030b614ff8565b92506101000a81548163ffffffff021916908360030b63ffffffff1602179055508560008051602061566683398151915260405160405180910390a2505050610a986001600055565b600060096000611fdc868686613003565b8152602081019190915260400160002054949350505050565b336000908152600760209081526040808320805465ffffffffff0019166101004264ffffffffff1602179055858352600291829052909120908154600160e01b900460ff16600581111561204b5761204b6145d7565b1461206957604051636f20b45d60e11b815260040160405180910390fd5b60008154600160e81b900460ff166001811115612088576120886145d7565b1480156120a2575060018101546001600160a01b03163314155b806120e1575060018154600160e81b900460ff1660018111156120c7576120c76145d7565b1480156120e1575060028101546001600160a01b03163314155b156120ff576040516330698c3d60e01b815260040160405180910390fd5b805460ff60e01b1916600360e01b17815560038101805464ffffffffff19164264ffffffffff1617905560405184907fb30095b0d687bb11974087f374f985f2ff4f7b4f9900e31d32f699d416e2213b90600090a2811561216557612165848484613063565b50505050565b6001600160a01b038116600090815260056020526040812054819061219a906001600160401b03166001615285565b905082816040516020016121af9291906152a4565b604051602081830303815290604052805190602001209150915091565b6001600160a01b038116600090815260036020526040812054819061219a906001600160401b03166001615285565b606060006009600061220e898989613003565b815260200190815260200160002090508260000361222c5750610704565b6122378185856137fa565b979650505050505050565b6060600060096000612255878787613003565b815260200190815260200160002090506000818054905090508060000361227d5750506105eb565b612289826000836137fa565b9695505050505050565b33600081815260076020908152604091829020805465ffffffffffff19166101004264ffffffffff160260ff19161785151590811790915591519182527fbf7433268f9e84553144e23f130bdb514d559f991d19288c0e6d0ad00440636e910160405180910390a250565b606081156105eb576001600160a01b0384166000908152600d602052604090206105e8908484612d1d565b6001600160a01b038316600090815260046020908152604080832033845290915281208184600181111561235f5761235f6145d7565b6001811115612370576123706145d7565b81526020808201929092526040908101600090812062ffffff86168252909252902054905080156124aa57600081815260016020819052604090912090810154600160c01b900463ffffffff161561243e5760006123cf868686613003565b90506123db8184613bbd565b6123e53384613cb6565b600083815260016020819052604082208281559081018290556002810180546001600160a01b031990811690915560038201805490911690559061242c60048301826144b0565b61243a6005830160006144b0565b5050505b6001600160a01b0385166000908152600460209081526040808320338452909152812090856001811115612474576124746145d7565b6001811115612485576124856145d7565b81526020808201929092526040908101600090812062ffffff87168252909252812055505b8162ffffff16336001600160a01b0316856001600160a01b03167f932af58d0bd82a1d60ef8de95c72b12b431eb2abbf6c2f7a44ad1a05f041138584876040516124f59291906152ce565b60405180910390a450505050565b6001600160a01b0383166000908152600b6020526040812060609183900361252b57506105eb565b6107048185856137fa565b6001600160a01b038085166000908152600460209081526040808320938716835292905290812081846001811115612570576125706145d7565b6001811115612581576125816145d7565b815260200190815260200160002060008362ffffff1662ffffff1681526020019081526020016000205490505b949350505050565b6125be613039565b336000908152600760209081526040808320805465ffffffffff0019166101004264ffffffffff16021790556001600160a01b038c8116845260048352818420908b16845290915281206001908290818c8481111561261f5761261f6145d7565b6001811115612630576126306145d7565b81526020808201929092526040908101600090812062ffffff8c1682528352818120548452918301939093529101902060038101549091506001600160a01b0389811691161461269357604051636df5846d60e01b815260040160405180910390fd5b6001600160a01b03881660009081526007602052604090205460ff166126cc5760405163a1231e1f60e01b815260040160405180910390fd5b60008960018111156126e0576126e06145d7565b036127225760018101546001600160601b03808716600160601b90920416101561271d57604051630bb46cf960e11b815260040160405180910390fd5b61275a565b60018101546001600160601b03808716600160601b90920416111561275a57604051630bb46cf960e11b815260040160405180910390fd5b80546001600160801b03908116908816108061278a575080546001600160801b03600160801b9091048116908816115b156127a8576040516327466a8f60e11b815260040160405180910390fd5b60018101546001600160601b03808916911610156127d9576040516328b35f2160e01b815260040160405180910390fd5b6001810180548891906000906127f99084906001600160601b03166152e2565b92506101000a8154816001600160601b0302191690836001600160601b031602179055506000806001811115612831576128316145d7565b8a6001811115612843576128436145d7565b1461284e5787612859565b61285988600261525c565b90506128668b3383613de3565b3360009081526005602052604081208054829061288b906001600160401b0316615301565b91906101000a8154816001600160401b0302191690836001600160401b0316021790559050600033826040516020016128c59291906152a4565b60408051808303601f19018152918152815160209283012060008181526002909352912080546001600160801b031981166001600160801b038e1690811783556001888101546001600160e01b0319909316909117600160601b9092046001600160601b0316600160801b02919091178083559293509091829060ff60e01b1916600160e01b83021790555080548d90829060ff60e81b1916600160e81b836001811115612975576129756145d7565b02179055508b8160010160006101000a8154816001600160a01b0302191690836001600160a01b03160217905550338160020160006101000a8154816001600160a01b0302191690836001600160a01b03160217905550898160020160146101000a81548162ffffff021916908362ffffff160217905550428160020160176101000a81548164ffffffffff021916908364ffffffffff160217905550428160030160006101000a81548164ffffffffff021916908364ffffffffff1602179055508d8160030160056101000a8154816001600160a01b0302191690836001600160a01b03160217905550612a6a8c83613f2d565b612a743383613f2d565b336000908152600660205260409020546001600160a01b0316158015612aa257506001600160a01b03861615155b15612b2557336001600160a01b03871603612ad05760405163ab95c4bb60e01b815260040160405180910390fd5b3360008181526006602052604080822080546001600160a01b0319166001600160a01b038b1690811790915590519092917f886a0b64a7b66700b649d5a86a5f42688ff2fb3d578fffdbd20d5c0236073e3491a35b8b6001600160a01b03168e6001600160a01b0316837f8ecbb1a96f6faa17209e39902a4f2e82faf68c45c8adc350a7b1d734cb075234338f8d8d604051612b6f9493929190615356565b60405180910390a45050505050612b866001600055565b505050505050505050565b612b99613039565b336000818152600760209081526040808320805465ffffffffff0019166101004264ffffffffff160217905586835260029091529020600181015490916001600160a01b0390911614612bff5760405163068690bf60e11b815260040160405180910390fd5b60018154600160e01b900460ff166005811115612c1e57612c1e6145d7565b14612c3c57604051636f20b45d60e11b815260040160405180910390fd5b6000808254600160e81b900460ff166001811115612c5c57612c5c6145d7565b14612c7c578154612c77906001600160801b0316600261525c565b612c88565b81546001600160801b03165b6003830154909150612cab90600160281b90046001600160a01b03163383613de3565b815460ff60e01b1916600160e11b17825560038201805464ffffffffff19164264ffffffffff1617905560405185907f92b2020aad33d0e9762dc13240d6871c7d105bf5580e3cdd3b1753c5d850fecf90600090a28215612d1157612d11858585613063565b5050610a986001600055565b82546060908084101580612d2f575082155b15612d3a57506105eb565b6000612d468486614fa0565b905084811080612d5557508181115b15612d5d5750805b6000855b82811015612dee576000600260008a8481548110612d8157612d81614fe2565b90600052602060002001548152602001908152602001600020905060006005811115612daf57612daf6145d7565b8154600160e01b900460ff166005811115612dcc57612dcc6145d7565b03612dd75750612de6565b82612de18161538a565b935050505b600101612d61565b50806001600160401b03811115612e0757612e07614fcc565b604051908082528060200260200182016040528015612e4057816020015b612e2d6144ed565b815260200190600190039081612e255790505b5093506000865b838110156111c5576000898281548110612e6357612e63614fe2565b6000918252602080832090910154808352600290915260408220909250908154600160e01b900460ff166005811115612e9e57612e9e6145d7565b03612eaa575050612ffb565b604080516101408101825282546001600160801b0381168252600160801b81046001600160601b03166020830152600092849190830190600160e01b900460ff166005811115612efc57612efc6145d7565b6005811115612f0d57612f0d6145d7565b81528154602090910190600160e81b900460ff166001811115612f3257612f326145d7565b6001811115612f4357612f436145d7565b815260018201546001600160a01b03908116602080840191909152600284015480831660408086019190915262ffffff600160a01b830416606086015264ffffffffff600160b81b9092048216608086015260039095015490811660a0850152600160281b900490911660c090920191909152815180830190925285825281018290528a51919250908a9087908110612fde57612fde614fe2565b60200260200101819052508480612ff49061538a565b9550505050505b600101612e47565b600083838360405160200161301a939291906153a3565b6040516020818303038152906040528051906020012090509392505050565b60026000540361305c57604051633ee5aeb560e01b815260040160405180910390fd5b6002600055565b600083815260026020526040902060018101546001600160a01b0316331480159061309b575060028101546001600160a01b03163314155b156130b95760405163068690bf60e11b815260040160405180910390fd5b8054600160e01b900460ff1660018160058111156130d9576130d96145d7565b141580156130f9575060028160058111156130f6576130f66145d7565b14155b801561311757506003816005811115613114576131146145d7565b14155b1561313557604051636f20b45d60e11b815260040160405180910390fd5b336001600160a01b0316857f06d860b94bf0bcf9e9b46a339373a9340a4273cc493d5d44dde261d0e19c4bf186866040516131719291906153d3565b60405180910390a35050505050565b6001600160a01b03821660009081526010602090815260408083208484529091528120549003610c90576001600160a01b0382166000908152600f60205260409020546131ce906001614fa0565b6001600160a01b0383166000818152601060209081526040808320868452825280832094909455918152600f825291822080546001810182559083529120018190555050565b61321e8382613f96565b610a988282613f96565b600061271061324160326001600160801b038516615226565b61324b91906153e7565b905061325c86846118de8486615409565b6001600160a01b0380861660009081526006602052604081205483921690811561330c576127106132986107d06001600160801b038716615226565b6132a291906153e7565b90506001600160801b038116156132cb576132be89838361343e565b6132c88184615409565b92505b816001600160a01b0316896001600160a01b03168b60008051602061568683398151915287856040516132ff929190615428565b60405180910390a461334b565b60006001600160a01b0316896001600160a01b03168b600080516020615686833981519152876000604051613342929190615428565b60405180910390a45b6001600160a01b038088166000908152600660205260409020541680156133f7576000612710613386610bb86001600160801b038916615226565b61339091906153e7565b90506001600160801b038116156133b9576133ac8b838361343e565b6133b68186615409565b94505b816001600160a01b03168b6001600160a01b03168d60008051602061568683398151915289856040516133ed929190615428565b60405180910390a4505b6001600160801b03841615613431576134318a7f00000000000000000000000000000000000000000000000000000000000000008661343e565b5050505050505050505050565b806001600160801b031660000361345457505050565b610a986001600160a01b038416836001600160801b0384166140c2565b600061347f898b8a8a614121565b9050600060016000838152602001908152602001600020905060008160010160189054906101000a900463ffffffff1663ffffffff166000149050858260000160006101000a8154816001600160801b0302191690836001600160801b03160217905550848260000160106101000a8154816001600160801b0302191690836001600160801b03160217905550868260010160006101000a8154816001600160601b0302191690836001600160601b031602179055508782600101600c6101000a8154816001600160601b0302191690836001600160601b031602179055508882600101601c6101000a81548162ffffff021916908362ffffff160217905550428260010160186101000a81548163ffffffff021916908363ffffffff1602179055508982600101601f6101000a81548160ff021916908360018111156135c8576135c86145d7565b02179055506002820180546001600160a01b03808e166001600160a01b031992831617909255600384018054928f169290911691909117905561360b8480615442565b600484019161361b91908361516d565b506136296020850185615442565b600584019161363991908361516d565b5060006136478c8c8c613003565b90508115613663576136598185614289565b6136638d856142f8565b62ffffff8a166001600160a01b03808f16908e167fa337e78573a8e0baa892c1a060f418e50147333043de94f869c0575dd626877187876136a760408c018c615442565b6040516136b79493929190615517565b60405180910390a450505050505050505050505050565b6001600160a01b0382166000908152601060209081526040808320848452909152812054908190036136ff57505050565b600061370c600183614fb9565b6001600160a01b0385166000908152600f6020526040812080549293509161373690600190614fb9565b90508083146137a557600082828154811061375357613753614fe2565b906000526020600020015490508083858154811061377357613773614fe2565b60009182526020808320909101929092556001600160a01b038916815260108252604080822093825292909152208490555b818054806137b5576137b5615636565b6000828152602080822083016000199081018390559092019092556001600160a01b039097168152601087526040808220968252959096525050509082209190915550565b8254606090808410158061380c575082155b1561381757506105eb565b60006138238486614fa0565b90508481108061383257508181115b1561383a5750805b6000855b828110156138b257600088828154811061385a5761385a614fe2565b60009182526020808320919091015480835260019182905260408320918201549093509091600160c01b90910463ffffffff16900361389a5750506138aa565b836138a48161538a565b94505050505b60010161383e565b50806001600160401b038111156138cb576138cb614fcc565b60405190808252806020026020018201604052801561390457816020015b6138f1614438565b8152602001906001900390816138e95790505b5093506000865b838110156111c557600089828154811061392757613927614fe2565b60009182526020808320919091015480835260019182905260408320918201549093509091600160c01b90910463ffffffff169003613967575050613bb5565b604080516101608101825282546001600160801b038082168352600160801b9091041660208201526001808401546001600160601b0380821694840194909452600160601b81049093166060830152600160c01b830463ffffffff166080830152600160e01b830462ffffff1660a0830152600092849160c0840191600160f81b900460ff16908111156139fd576139fd6145d7565b6001811115613a0e57613a0e6145d7565b815260028201546001600160a01b0390811660208301526003830154166040820152600482018054606090920191613a459061501f565b80601f0160208091040260200160405190810160405280929190818152602001828054613a719061501f565b8015613abe5780601f10613a9357610100808354040283529160200191613abe565b820191906000526020600020905b815481529060010190602001808311613aa157829003601f168201915b50505050508152602001600582018054613ad79061501f565b80601f0160208091040260200160405190810160405280929190818152602001828054613b039061501f565b8015613b505780601f10613b2557610100808354040283529160200191613b50565b820191906000526020600020905b815481529060010190602001808311613b3357829003601f168201915b5050509190925250506040805160608101825286815260038601546001600160a01b031660208201529081018390528b51929350918b915087908110613b9857613b98614fe2565b60200260200101819052508480613bae9061538a565b9550505050505b60010161390b565b6000828152600a60209081526040808320848452918290528220549091819003613be75750505050565b600084815260096020526040812090613c01600184614fb9565b8254909150600090613c1590600190614fb9565b9050808214613c71576000838281548110613c3257613c32614fe2565b9060005260206000200154905080848481548110613c5257613c52614fe2565b6000918252602080832090910192909255918252869052604090208490555b82805480613c8157613c81615636565b600190038181906000526020600020016000905590558460008781526020019081526020016000206000905550505050505050565b6001600160a01b0382166000908152600c6020908152604080832084845290915281205490819003613ce757505050565b6001600160a01b0383166000908152600b6020526040812090613d0b600184614fb9565b8254909150600090613d1f90600190614fb9565b9050808214613d8e576000838281548110613d3c57613d3c614fe2565b9060005260206000200154905080848481548110613d5c57613d5c614fe2565b60009182526020808320909101929092556001600160a01b0389168152600c8252604080822093825292909152208490555b82805480613d9e57613d9e615636565b6000828152602080822083016000199081018390559092019092556001600160a01b039097168152600c87526040808220968252959096525050509082209190915550565b806001600160801b0316600003613df957505050565b6040516370a0823160e01b81526000906001600160a01b038516906370a0823190613e28903090600401614d1e565b602060405180830381865afa158015613e45573d6000803e3d6000fd5b505050506040513d601f19601f82011682018060405250810190613e69919061564c565b9050613e896001600160a01b03851684306001600160801b03861661438e565b6040516370a0823160e01b81526000906001600160a01b038616906370a0823190613eb8903090600401614d1e565b602060405180830381865afa158015613ed5573d6000803e3d6000fd5b505050506040513d601f19601f82011682018060405250810190613ef9919061564c565b90506001600160801b038316613f0f8383614fb9565b14610bdd57604051631033736160e11b815260040160405180910390fd5b6001600160a01b0382166000908152600d6020526040902054613f51906001614fa0565b6001600160a01b039092166000818152600e60209081526040808320858452825280832095909555918152600d82529283208054600181018255908452922090910155565b6001600160a01b0382166000908152600e6020908152604080832084845290915281205490819003613fc757505050565b6000613fd4600183614fb9565b6001600160a01b0385166000908152600d60205260408120805492935091613ffe90600190614fb9565b905080831461406d57600082828154811061401b5761401b614fe2565b906000526020600020015490508083858154811061403b5761403b614fe2565b60009182526020808320909101929092556001600160a01b0389168152600e8252604080822093825292909152208490555b8180548061407d5761407d615636565b6000828152602080822083016000199081018390559092019092556001600160a01b039097168152600e87526040808220968252959096525050509082209190915550565b6040516001600160a01b03838116602483015260448201839052610a9891859182169063a9059cbb906064015b604051602081830303815290604052915060e01b6020820180516001600160e01b0383818316178352505050506143c7565b6001600160a01b03808516600090815260046020908152604080832093871683529290529081208184600181111561415b5761415b6145d7565b600181111561416c5761416c6145d7565b81526020808201929092526040908101600090812062ffffff861682529092529020549050806125ae576001600160a01b0384166000908152600360205260408120805482906141c4906001600160401b0316615301565b91906101000a8154816001600160401b0302191690836001600160401b031602179055905084816040516020016141fc9291906152a4565b60408051601f1981840301815291815281516020928301206001600160a01b03808a16600090815260048552838120918a1681529352908220909350839186600181111561424c5761424c6145d7565b600181111561425d5761425d6145d7565b81526020808201929092526040908101600090812062ffffff8816825290925290205550949350505050565b6000828152600a602090815260408083208484529182905290912054156142af57505050565b6000838152600960205260409020546142c9906001614fa0565b600083815260209283526040808220929092559384526009825283208054600181018255908452922090910155565b6001600160a01b0382166000908152600c6020908152604080832084845290915290205415614325575050565b6001600160a01b0382166000908152600b6020526040902054614349906001614fa0565b6001600160a01b039092166000818152600c60209081526040808320858452825280832095909555918152600b82529283208054600181018255908452922090910155565b6040516001600160a01b0384811660248301528381166044830152606482018390526121659186918216906323b872dd906084016140ef565b600080602060008451602086016000885af1806143ea576040513d6000823e3d81fd5b50506000513d9150811561440257806001141561440f565b6001600160a01b0384163b155b156121655783604051635274afe760e01b815260040161442f9190614d1e565b60405180910390fd5b60408051606081018252600080825260208201529081016144ab6040805161016081018252600080825260208201819052918101829052606081018290526080810182905260a081018290529060c082019081526000602082018190526040820152606080820181905260809091015290565b905290565b5080546144bc9061501f565b6000825580601f106144cc575050565b601f0160209004906000526020600020908101906144ea9190614555565b50565b6040805180820190915260008152602081016144ab6040805161014081018252600080825260208201819052909182019081526020016000815260006020820181905260408201819052606082018190526080820181905260a0820181905260c09091015290565b5b8082111561456a5760008155600101614556565b5090565b80356001600160a01b038116811461458557600080fd5b919050565b60008060006060848603121561459f57600080fd5b6145a88461456e565b95602085013595506040909401359392505050565b6001600160801b03169052565b6001600160601b03169052565b634e487b7160e01b600052602160045260246000fd5b600681106145fd576145fd6145d7565b9052565b600281106145fd576145fd6145d7565b6001600160a01b03169052565b602080825282518282018190526000918401906040840190835b8181101561471f578351805184526020810151905061465b6020850182516145bd565b602081015161466d60408601826145ca565b50604081015161468060608601826145ed565b5060608101516146936080860182614601565b5060808101516146a660a0860182614611565b5060a08101516146b960c0860182614611565b5060c081015162ffffff811660e08601525060e081015164ffffffffff81166101008601525061010081015164ffffffffff8116610120860152506101200151614707610140850182614611565b50602093909301926101609290920191600101614638565b509095945050505050565b80356002811061458557600080fd5b803562ffffff8116811461458557600080fd5b600080600080600060a0868803121561476457600080fd5b61476d8661456e565b945061477b6020870161472a565b935061478960408701614739565b94979396509394606081013594506080013592915050565b602080825282518282018190526000918401906040840190835b8181101561471f5783518352602093840193909201916001016147bb565b60008083601f8401126147eb57600080fd5b5081356001600160401b0381111561480257600080fd5b60208301915083602082850101111561481a57600080fd5b9250929050565b60008060006040848603121561483657600080fd5b8335925060208401356001600160401b0381111561485357600080fd5b61485f868287016147d9565b9497909650939450505050565b6000806020838503121561487f57600080fd5b82356001600160401b0381111561489557600080fd5b6148a1858286016147d9565b90969095509350505050565b80356001600160601b038116811461458557600080fd5b80356001600160801b038116811461458557600080fd5b600080600080600080600080610100898b0312156148f857600080fd5b6149018961456e565b975061490f60208a0161472a565b965061491d60408a01614739565b955061492b60608a016148ad565b945061493960808a016148ad565b935061494760a08a016148c4565b925061495560c08a016148c4565b915060e08901356001600160401b0381111561497057600080fd5b89016060818c03121561498257600080fd5b809150509295985092959890939650565b6000602082840312156149a557600080fd5b6105eb8261456e565b60008083601f8401126149c057600080fd5b5081356001600160401b038111156149d757600080fd5b6020830191508360208260051b850101111561481a57600080fd5b600080600060408486031215614a0757600080fd5b83356001600160401b03811115614a1d57600080fd5b614a29868287016149ae565b909790965060209590950135949350505050565b602080825282518282018190526000918401906040840190835b8181101561471f5783516001600160a01b0316835260209384019390920191600101614a57565b6000815180845260005b81811015614aa457602081850181015186830182015201614a88565b506000602082860101526020601f19601f83011685010191505092915050565b851515815264ffffffffff8516602082015260a060408201526000614aec60a0830186614a7e565b600394850b60608401529290930b608090910152949350505050565b60008060208385031215614b1b57600080fd5b82356001600160401b03811115614b3157600080fd5b6148a1858286016149ae565b6000602082016020835280845180835260408501915060408160051b86010192506020860160005b82811015614be057603f19878603018452815180511515865264ffffffffff6020820151166020870152604081015160a06040880152614ba860a0880182614a7e565b9050606082015160030b6060880152608082015160030b60808801528096505050602082019150602084019350600181019050614b65565b50929695505050505050565b600060208284031215614bfe57600080fd5b5035919050565b8051825260018060a01b0360208201511660208301526000604082015160606040850152614c376060850182516145bd565b6020810151614c4960808601826145bd565b506040810151614c5c60a08601826145ca565b506060810151614c6f60c08601826145ca565b50608081015163ffffffff1660e085015260a081015162ffffff1661010085015260c0810151614ca3610120860182614601565b5060e0810151614cb7610140860182614611565b50610100810151614ccc610160860182614611565b50610120810151610160610180860152614cea6101c0860182614a7e565b90506101408201519150605f19858203016101a08601526107048183614a7e565b6020815260006105eb6020830184614c05565b6001600160a01b0391909116815260200190565b600080600060608486031215614d4757600080fd5b614d508461456e565b9250614d5e6020850161472a565b9150614d6c60408501614739565b90509250925092565b6000602082016020835280845180835260408501915060408160051b86010192506020860160005b82811015614be057603f19878603018452614db9858351614c05565b94506020938401939190910190600101614d9d565b6001600160801b038b1681526001600160601b038a1660208201526101408101614dfb604083018b6145ed565b614e08606083018a614601565b6001600160a01b038881166080840152871660a083015262ffffff861660c083015264ffffffffff85811660e08401528416610100830152614e4e610120830184614611565b9b9a5050505050505050505050565b600060208284031215614e6f57600080fd5b813580151581146105eb57600080fd5b60008060008060808587031215614e9557600080fd5b614e9e8561456e565b9350614eac6020860161456e565b9250614eba6040860161472a565b9150614ec860608601614739565b905092959194509250565b60008060008060008060008060006101008a8c031215614ef257600080fd5b614efb8a61456e565b9850614f0960208b0161472a565b9750614f1760408b0161456e565b9650614f2560608b016148c4565b9550614f3360808b01614739565b9450614f4160a08b016148ad565b935060c08a01356001600160401b03811115614f5c57600080fd5b614f688c828d016147d9565b9094509250614f7b905060e08b0161456e565b90509295985092959850929598565b634e487b7160e01b600052601160045260246000fd5b80820180821115614fb357614fb3614f8a565b92915050565b81810381811115614fb357614fb3614f8a565b634e487b7160e01b600052604160045260246000fd5b634e487b7160e01b600052603260045260246000fd5b600381810b9083900b01637fffffff8113637fffffff1982121715614fb357614fb3614f8a565b600181811c9082168061503357607f821691505b60208210810361505357634e487b7160e01b600052602260045260246000fd5b50919050565b601f821115610a9857806000526020600020601f840160051c810160208510156150805750805b601f840160051c820191505b81811015610bdd576000815560010161508c565b600019600383901b1c191660019190911b1790565b81516001600160401b038111156150ce576150ce614fcc565b6150e2816150dc845461501f565b84615059565b6020601f82116001811461511057600083156150fe5750848201515b61510884826150a0565b855550610bdd565b600084815260208120601f198516915b828110156151405787850151825560209485019460019092019101615120565b508482101561515e5786840151600019600387901b60f8161c191681555b50505050600190811b01905550565b6001600160401b0383111561518457615184614fcc565b61519883615192835461501f565b83615059565b6000601f8411600181146151c657600085156151b45750838201355b6151be86826150a0565b845550610bdd565b600083815260209020601f19861690835b828110156151f757868501358255602094850194600190920191016151d7565b50868210156152145760001960f88860031b161c19848701351681555b505060018560011b0183555050505050565b8082028115828204841417614fb357614fb3614f8a565b6001600160601b038181168382160190811115614fb357614fb3614f8a565b6001600160801b03818116838216029081169081811461527e5761527e614f8a565b5092915050565b6001600160401b038181168382160190811115614fb357614fb3614f8a565b60609290921b6001600160601b031916825260c01b6001600160c01b0319166014820152601c0190565b828152604081016105eb6020830184614601565b6001600160601b038281168282160390811115614fb357614fb3614f8a565b60006001600160401b0382166002600160401b0319810161532457615324614f8a565b60010192915050565b81835281816020850137506000828201602090810191909152601f909101601f19169091010190565b6001600160a01b03851681526001600160801b0384166020820152606060408201819052600090612289908301848661532d565b60006001820161539c5761539c614f8a565b5060010190565b6001600160a01b0384168152606081016153c06020830185614601565b62ffffff83166040830152949350505050565b6020815260006105e860208301848661532d565b60008261540457634e487b7160e01b600052601260045260246000fd5b500490565b6001600160801b038281168282160390811115614fb357614fb3614f8a565b6001600160801b0392831681529116602082015260400190565b6000808335601e1984360301811261545957600080fd5b8301803591506001600160401b0382111561547357600080fd5b60200191503681900382131561481a57600080fd5b6001600160a01b031690565b600081546154a18161501f565b8085526001821680156154bb57600181146154d75761550e565b60ff1983166020870152602082151560051b870101935061550e565b84600052602060002060005b838110156155055781546020828a0101526001820191506020810190506154e3565b87016020019450505b50505092915050565b848152606060208201819052845460009161553d9084016001600160801b0383166145bd565b61554d608084018260801c6145bd565b50600185015461556960a084016001600160601b0383166145ca565b61558360c08401606083901c6001600160601b03166145ca565b60c081901c63ffffffff1660e084015260e081901c62ffffff166101008401526155b461012084018260f81c614601565b506155c26002860154615488565b6155d0610140840182614611565b506155de6003860154615488565b6155ec610160840182614611565b506101606101808301526156076101c0830160048701615494565b828103605f19016101a08401526156218160058801615494565b9050828103604084015261223781858761532d565b634e487b7160e01b600052603160045260246000fd5b60006020828403121561565e57600080fd5b505191905056fec677acc686f4424b864e232e217de479edc357e161509d63e7304bccb2b5253ad8cd130f7e2605268d0b30654b1c8f8bbecbd7fbd2589770379ebceb4709784ba2646970667358221220899ad2454aac2a50d045f232f4164d34aac141d9fae502bc780f3f98e0d7c1d464736f6c634300081c0033",
  "linkReferences": {},
  "deployedLinkReferences": {},
  "immutableReferences": {
    "1543": [
      {
        "length": 32,
        "start": 13324
      }
    ]
  },
  "inputSourceName": "project/contracts/Swap2p.sol",
  "buildInfoId": "solc-0_8_28-3141471ad756fb97bf1bec1bdbca7fd538e5b272"
}