{
  "_format": "hh3-artifact-1",
  "contractName": "Swap2p",
  "sourceName": "contracts/Swap2p.sol",
  "abi": [
    {
      "inputs": [
        {
          "internalType": "address",
          "name": "author_",
          "type": "address"
        }
      ],
      "stateMutability": "nonpayable",
      "type": "constructor"
    },
    {
      "inputs": [],
      "name": "AmountOutOfBounds",
      "type": "error"
    },
    {
      "inputs": [],
      "name": "AuthorZero",
      "type": "error"
    },
    {
      "inputs": [],
      "name": "FeeOnTransferTokenNotSupported",
      "type": "error"
    },
    {
      "inputs": [],
      "name": "InsufficientDeposit",
      "type": "error"
    },
    {
      "inputs": [],
      "name": "InsufficientReserve",
      "type": "error"
    },
    {
      "inputs": [],
      "name": "MakerOffline",
      "type": "error"
    },
    {
      "inputs": [],
      "name": "NicknameTaken",
      "type": "error"
    },
    {
      "inputs": [],
      "name": "NotFiatPayer",
      "type": "error"
    },
    {
      "inputs": [],
      "name": "OfferNotFound",
      "type": "error"
    },
    {
      "inputs": [],
      "name": "ReentrancyGuardReentrantCall",
      "type": "error"
    },
    {
      "inputs": [
        {
          "internalType": "address",
          "name": "token",
          "type": "address"
        }
      ],
      "name": "SafeERC20FailedOperation",
      "type": "error"
    },
    {
      "inputs": [],
      "name": "SelfPartnerNotAllowed",
      "type": "error"
    },
    {
      "inputs": [],
      "name": "WorsePrice",
      "type": "error"
    },
    {
      "inputs": [],
      "name": "WrongCaller",
      "type": "error"
    },
    {
      "inputs": [],
      "name": "WrongSide",
      "type": "error"
    },
    {
      "inputs": [],
      "name": "WrongState",
      "type": "error"
    },
    {
      "anonymous": false,
      "inputs": [
        {
          "indexed": true,
          "internalType": "bytes32",
          "name": "id",
          "type": "bytes32"
        },
        {
          "indexed": true,
          "internalType": "address",
          "name": "from",
          "type": "address"
        },
        {
          "indexed": false,
          "internalType": "bytes",
          "name": "text",
          "type": "bytes"
        }
      ],
      "name": "Chat",
      "type": "event"
    },
    {
      "anonymous": false,
      "inputs": [
        {
          "indexed": true,
          "internalType": "bytes32",
          "name": "id",
          "type": "bytes32"
        }
      ],
      "name": "DealAccepted",
      "type": "event"
    },
    {
      "anonymous": false,
      "inputs": [
        {
          "indexed": true,
          "internalType": "bytes32",
          "name": "id",
          "type": "bytes32"
        }
      ],
      "name": "DealCanceled",
      "type": "event"
    },
    {
      "anonymous": false,
      "inputs": [
        {
          "indexed": true,
          "internalType": "bytes32",
          "name": "id",
          "type": "bytes32"
        }
      ],
      "name": "DealDeleted",
      "type": "event"
    },
    {
      "anonymous": false,
      "inputs": [
        {
          "indexed": true,
          "internalType": "bytes32",
          "name": "id",
          "type": "bytes32"
        }
      ],
      "name": "DealPaid",
      "type": "event"
    },
    {
      "anonymous": false,
      "inputs": [
        {
          "indexed": true,
          "internalType": "bytes32",
          "name": "id",
          "type": "bytes32"
        }
      ],
      "name": "DealReleased",
      "type": "event"
    },
    {
      "anonymous": false,
      "inputs": [
        {
          "indexed": true,
          "internalType": "bytes32",
          "name": "id",
          "type": "bytes32"
        },
        {
          "indexed": true,
          "internalType": "address",
          "name": "token",
          "type": "address"
        },
        {
          "indexed": true,
          "internalType": "address",
          "name": "maker",
          "type": "address"
        },
        {
          "indexed": false,
          "internalType": "address",
          "name": "taker",
          "type": "address"
        },
        {
          "indexed": false,
          "internalType": "uint128",
          "name": "amount",
          "type": "uint128"
        },
        {
          "indexed": false,
          "internalType": "string",
          "name": "paymentDetails",
          "type": "string"
        }
      ],
      "name": "DealRequested",
      "type": "event"
    },
    {
      "anonymous": false,
      "inputs": [
        {
          "indexed": true,
          "internalType": "bytes32",
          "name": "id",
          "type": "bytes32"
        },
        {
          "indexed": true,
          "internalType": "address",
          "name": "token",
          "type": "address"
        },
        {
          "indexed": true,
          "internalType": "address",
          "name": "partner",
          "type": "address"
        },
        {
          "indexed": false,
          "internalType": "uint128",
          "name": "fee",
          "type": "uint128"
        },
        {
          "indexed": false,
          "internalType": "uint128",
          "name": "partnerShare",
          "type": "uint128"
        }
      ],
      "name": "FeeDistributed",
      "type": "event"
    },
    {
      "anonymous": false,
      "inputs": [
        {
          "indexed": true,
          "internalType": "address",
          "name": "maker",
          "type": "address"
        },
        {
          "indexed": false,
          "internalType": "bool",
          "name": "online",
          "type": "bool"
        }
      ],
      "name": "MakerOnline",
      "type": "event"
    },
    {
      "anonymous": false,
      "inputs": [
        {
          "indexed": false,
          "internalType": "bytes32",
          "name": "id",
          "type": "bytes32"
        },
        {
          "indexed": true,
          "internalType": "address",
          "name": "token",
          "type": "address"
        },
        {
          "indexed": true,
          "internalType": "address",
          "name": "maker",
          "type": "address"
        },
        {
          "indexed": false,
          "internalType": "enum Swap2p.Side",
          "name": "side",
          "type": "uint8"
        },
        {
          "indexed": true,
          "internalType": "Swap2p.FiatCode",
          "name": "fiat",
          "type": "uint24"
        }
      ],
      "name": "OfferDeleted",
      "type": "event"
    },
    {
      "anonymous": false,
      "inputs": [
        {
          "indexed": false,
          "internalType": "bytes32",
          "name": "id",
          "type": "bytes32"
        },
        {
          "indexed": true,
          "internalType": "address",
          "name": "token",
          "type": "address"
        },
        {
          "indexed": true,
          "internalType": "address",
          "name": "maker",
          "type": "address"
        },
        {
          "indexed": true,
          "internalType": "Swap2p.FiatCode",
          "name": "fiat",
          "type": "uint24"
        },
        {
          "components": [
            {
              "internalType": "uint128",
              "name": "minAmt",
              "type": "uint128"
            },
            {
              "internalType": "uint128",
              "name": "maxAmt",
              "type": "uint128"
            },
            {
              "internalType": "uint96",
              "name": "reserve",
              "type": "uint96"
            },
            {
              "internalType": "uint96",
              "name": "priceFiatPerToken",
              "type": "uint96"
            },
            {
              "internalType": "Swap2p.FiatCode",
              "name": "fiat",
              "type": "uint24"
            },
            {
              "internalType": "uint32",
              "name": "ts",
              "type": "uint32"
            },
            {
              "internalType": "enum Swap2p.Side",
              "name": "side",
              "type": "uint8"
            },
            {
              "internalType": "address",
              "name": "token",
              "type": "address"
            },
            {
              "internalType": "string",
              "name": "paymentMethods",
              "type": "string"
            }
          ],
          "indexed": false,
          "internalType": "struct Swap2p.Offer",
          "name": "offer",
          "type": "tuple"
        },
        {
          "indexed": false,
          "internalType": "string",
          "name": "comment",
          "type": "string"
        }
      ],
      "name": "OfferUpsert",
      "type": "event"
    },
    {
      "anonymous": false,
      "inputs": [
        {
          "indexed": true,
          "internalType": "address",
          "name": "taker",
          "type": "address"
        },
        {
          "indexed": true,
          "internalType": "address",
          "name": "partner",
          "type": "address"
        }
      ],
      "name": "PartnerBound",
      "type": "event"
    },
    {
      "inputs": [
        {
          "internalType": "address",
          "name": "",
          "type": "address"
        }
      ],
      "name": "affiliates",
      "outputs": [
        {
          "internalType": "address",
          "name": "",
          "type": "address"
        }
      ],
      "stateMutability": "view",
      "type": "function"
    },
    {
      "inputs": [
        {
          "internalType": "bytes32",
          "name": "id",
          "type": "bytes32"
        },
        {
          "internalType": "bytes",
          "name": "reason",
          "type": "bytes"
        }
      ],
      "name": "cancelDeal",
      "outputs": [],
      "stateMutability": "nonpayable",
      "type": "function"
    },
    {
      "inputs": [
        {
          "internalType": "bytes32",
          "name": "id",
          "type": "bytes32"
        },
        {
          "internalType": "bytes",
          "name": "reason",
          "type": "bytes"
        }
      ],
      "name": "cancelRequest",
      "outputs": [],
      "stateMutability": "nonpayable",
      "type": "function"
    },
    {
      "inputs": [
        {
          "internalType": "bytes32[]",
          "name": "ids",
          "type": "bytes32[]"
        },
        {
          "internalType": "uint256",
          "name": "minAgeHours",
          "type": "uint256"
        }
      ],
      "name": "cleanupDeals",
      "outputs": [],
      "stateMutability": "nonpayable",
      "type": "function"
    },
    {
      "inputs": [
        {
          "internalType": "bytes32",
          "name": "",
          "type": "bytes32"
        }
      ],
      "name": "deals",
      "outputs": [
        {
          "internalType": "uint128",
          "name": "amount",
          "type": "uint128"
        },
        {
          "internalType": "uint96",
          "name": "price",
          "type": "uint96"
        },
        {
          "internalType": "enum Swap2p.DealState",
          "name": "state",
          "type": "uint8"
        },
        {
          "internalType": "enum Swap2p.Side",
          "name": "side",
          "type": "uint8"
        },
        {
          "internalType": "address",
          "name": "maker",
          "type": "address"
        },
        {
          "internalType": "address",
          "name": "taker",
          "type": "address"
        },
        {
          "internalType": "Swap2p.FiatCode",
          "name": "fiat",
          "type": "uint24"
        },
        {
          "internalType": "uint40",
          "name": "tsRequest",
          "type": "uint40"
        },
        {
          "internalType": "uint40",
          "name": "tsLast",
          "type": "uint40"
        },
        {
          "internalType": "address",
          "name": "token",
          "type": "address"
        }
      ],
      "stateMutability": "view",
      "type": "function"
    },
    {
      "inputs": [
        {
          "internalType": "address[]",
          "name": "accounts",
          "type": "address[]"
        }
      ],
      "name": "getMakerProfiles",
      "outputs": [
        {
          "components": [
            {
              "internalType": "bool",
              "name": "online",
              "type": "bool"
            },
            {
              "internalType": "uint40",
              "name": "lastActivity",
              "type": "uint40"
            },
            {
              "internalType": "string",
              "name": "requirements",
              "type": "string"
            },
            {
              "internalType": "string",
              "name": "nickname",
              "type": "string"
            },
            {
              "internalType": "int32",
              "name": "dealsCancelled",
              "type": "int32"
            },
            {
              "internalType": "int32",
              "name": "dealsCompleted",
              "type": "int32"
            }
          ],
          "internalType": "struct Swap2p.MakerProfile[]",
          "name": "profiles",
          "type": "tuple[]"
        }
      ],
      "stateMutability": "view",
      "type": "function"
    },
    {
      "inputs": [
        {
          "internalType": "bytes32",
          "name": "id",
          "type": "bytes32"
        }
      ],
      "name": "getOfferById",
      "outputs": [
        {
          "components": [
            {
              "internalType": "bytes32",
              "name": "id",
              "type": "bytes32"
            },
            {
              "internalType": "address",
              "name": "maker",
              "type": "address"
            },
            {
              "components": [
                {
                  "internalType": "uint128",
                  "name": "minAmt",
                  "type": "uint128"
                },
                {
                  "internalType": "uint128",
                  "name": "maxAmt",
                  "type": "uint128"
                },
                {
                  "internalType": "uint96",
                  "name": "reserve",
                  "type": "uint96"
                },
                {
                  "internalType": "uint96",
                  "name": "priceFiatPerToken",
                  "type": "uint96"
                },
                {
                  "internalType": "Swap2p.FiatCode",
                  "name": "fiat",
                  "type": "uint24"
                },
                {
                  "internalType": "uint32",
                  "name": "ts",
                  "type": "uint32"
                },
                {
                  "internalType": "enum Swap2p.Side",
                  "name": "side",
                  "type": "uint8"
                },
                {
                  "internalType": "address",
                  "name": "token",
                  "type": "address"
                },
                {
                  "internalType": "string",
                  "name": "paymentMethods",
                  "type": "string"
                }
              ],
              "internalType": "struct Swap2p.Offer",
              "name": "offer",
              "type": "tuple"
            }
          ],
          "internalType": "struct Swap2p.OfferInfo",
          "name": "info",
          "type": "tuple"
        }
      ],
      "stateMutability": "view",
      "type": "function"
    },
    {
      "inputs": [
        {
          "internalType": "address",
          "name": "token",
          "type": "address"
        },
        {
          "internalType": "enum Swap2p.Side",
          "name": "s",
          "type": "uint8"
        },
        {
          "internalType": "Swap2p.FiatCode",
          "name": "f",
          "type": "uint24"
        }
      ],
      "name": "getOfferCount",
      "outputs": [
        {
          "internalType": "uint256",
          "name": "",
          "type": "uint256"
        }
      ],
      "stateMutability": "view",
      "type": "function"
    },
    {
      "inputs": [
        {
          "internalType": "address",
          "name": "token",
          "type": "address"
        },
        {
          "internalType": "address",
          "name": "maker",
          "type": "address"
        },
        {
          "internalType": "enum Swap2p.Side",
          "name": "s",
          "type": "uint8"
        },
        {
          "internalType": "Swap2p.FiatCode",
          "name": "f",
          "type": "uint24"
        }
      ],
      "name": "getOfferId",
      "outputs": [
        {
          "internalType": "bytes32",
          "name": "",
          "type": "bytes32"
        }
      ],
      "stateMutability": "view",
      "type": "function"
    },
    {
      "inputs": [
        {
          "internalType": "address",
          "name": "token",
          "type": "address"
        },
        {
          "internalType": "enum Swap2p.Side",
          "name": "s",
          "type": "uint8"
        },
        {
          "internalType": "Swap2p.FiatCode",
          "name": "f",
          "type": "uint24"
        },
        {
          "internalType": "uint256",
          "name": "off",
          "type": "uint256"
        },
        {
          "internalType": "uint256",
          "name": "lim",
          "type": "uint256"
        }
      ],
      "name": "getOfferKeys",
      "outputs": [
        {
          "internalType": "address[]",
          "name": "out",
          "type": "address[]"
        }
      ],
      "stateMutability": "view",
      "type": "function"
    },
    {
      "inputs": [
        {
          "internalType": "address",
          "name": "u",
          "type": "address"
        }
      ],
      "name": "getOpenDealCount",
      "outputs": [
        {
          "internalType": "uint256",
          "name": "",
          "type": "uint256"
        }
      ],
      "stateMutability": "view",
      "type": "function"
    },
    {
      "inputs": [
        {
          "internalType": "address",
          "name": "u",
          "type": "address"
        },
        {
          "internalType": "uint256",
          "name": "off",
          "type": "uint256"
        },
        {
          "internalType": "uint256",
          "name": "lim",
          "type": "uint256"
        }
      ],
      "name": "getOpenDeals",
      "outputs": [
        {
          "internalType": "bytes32[]",
          "name": "out",
          "type": "bytes32[]"
        }
      ],
      "stateMutability": "view",
      "type": "function"
    },
    {
      "inputs": [
        {
          "internalType": "address",
          "name": "u",
          "type": "address"
        }
      ],
      "name": "getRecentDealCount",
      "outputs": [
        {
          "internalType": "uint256",
          "name": "",
          "type": "uint256"
        }
      ],
      "stateMutability": "view",
      "type": "function"
    },
    {
      "inputs": [
        {
          "internalType": "address",
          "name": "u",
          "type": "address"
        },
        {
          "internalType": "uint256",
          "name": "off",
          "type": "uint256"
        },
        {
          "internalType": "uint256",
          "name": "lim",
          "type": "uint256"
        }
      ],
      "name": "getRecentDeals",
      "outputs": [
        {
          "internalType": "bytes32[]",
          "name": "out",
          "type": "bytes32[]"
        }
      ],
      "stateMutability": "view",
      "type": "function"
    },
    {
      "inputs": [
        {
          "internalType": "address",
          "name": "token",
          "type": "address"
        },
        {
          "internalType": "enum Swap2p.Side",
          "name": "s",
          "type": "uint8"
        },
        {
          "internalType": "Swap2p.FiatCode",
          "name": "f",
          "type": "uint24"
        }
      ],
      "name": "listOffers",
      "outputs": [
        {
          "components": [
            {
              "internalType": "bytes32",
              "name": "id",
              "type": "bytes32"
            },
            {
              "internalType": "address",
              "name": "maker",
              "type": "address"
            },
            {
              "components": [
                {
                  "internalType": "uint128",
                  "name": "minAmt",
                  "type": "uint128"
                },
                {
                  "internalType": "uint128",
                  "name": "maxAmt",
                  "type": "uint128"
                },
                {
                  "internalType": "uint96",
                  "name": "reserve",
                  "type": "uint96"
                },
                {
                  "internalType": "uint96",
                  "name": "priceFiatPerToken",
                  "type": "uint96"
                },
                {
                  "internalType": "Swap2p.FiatCode",
                  "name": "fiat",
                  "type": "uint24"
                },
                {
                  "internalType": "uint32",
                  "name": "ts",
                  "type": "uint32"
                },
                {
                  "internalType": "enum Swap2p.Side",
                  "name": "side",
                  "type": "uint8"
                },
                {
                  "internalType": "address",
                  "name": "token",
                  "type": "address"
                },
                {
                  "internalType": "string",
                  "name": "paymentMethods",
                  "type": "string"
                }
              ],
              "internalType": "struct Swap2p.Offer",
              "name": "offer",
              "type": "tuple"
            }
          ],
          "internalType": "struct Swap2p.OfferInfo[]",
          "name": "out",
          "type": "tuple[]"
        }
      ],
      "stateMutability": "view",
      "type": "function"
    },
    {
      "inputs": [
        {
          "internalType": "address",
          "name": "",
          "type": "address"
        }
      ],
      "name": "makerInfo",
      "outputs": [
        {
          "internalType": "bool",
          "name": "online",
          "type": "bool"
        },
        {
          "internalType": "uint40",
          "name": "lastActivity",
          "type": "uint40"
        },
        {
          "internalType": "string",
          "name": "requirements",
          "type": "string"
        },
        {
          "internalType": "string",
          "name": "nickname",
          "type": "string"
        },
        {
          "internalType": "int32",
          "name": "dealsCancelled",
          "type": "int32"
        },
        {
          "internalType": "int32",
          "name": "dealsCompleted",
          "type": "int32"
        }
      ],
      "stateMutability": "view",
      "type": "function"
    },
    {
      "inputs": [
        {
          "internalType": "bytes32",
          "name": "id",
          "type": "bytes32"
        },
        {
          "internalType": "bytes",
          "name": "msg_",
          "type": "bytes"
        }
      ],
      "name": "maker_acceptRequest",
      "outputs": [],
      "stateMutability": "nonpayable",
      "type": "function"
    },
    {
      "inputs": [
        {
          "internalType": "address",
          "name": "token",
          "type": "address"
        },
        {
          "internalType": "enum Swap2p.Side",
          "name": "s",
          "type": "uint8"
        },
        {
          "internalType": "Swap2p.FiatCode",
          "name": "f",
          "type": "uint24"
        }
      ],
      "name": "maker_deleteOffer",
      "outputs": [],
      "stateMutability": "nonpayable",
      "type": "function"
    },
    {
      "inputs": [
        {
          "internalType": "address",
          "name": "token",
          "type": "address"
        },
        {
          "internalType": "enum Swap2p.Side",
          "name": "s",
          "type": "uint8"
        },
        {
          "internalType": "Swap2p.FiatCode",
          "name": "f",
          "type": "uint24"
        },
        {
          "internalType": "uint96",
          "name": "price",
          "type": "uint96"
        },
        {
          "internalType": "uint96",
          "name": "reserve",
          "type": "uint96"
        },
        {
          "internalType": "uint128",
          "name": "minAmt",
          "type": "uint128"
        },
        {
          "internalType": "uint128",
          "name": "maxAmt",
          "type": "uint128"
        },
        {
          "components": [
            {
              "internalType": "string",
              "name": "paymentMethods",
              "type": "string"
            },
            {
              "internalType": "string",
              "name": "requirements",
              "type": "string"
            },
            {
              "internalType": "string",
              "name": "comment",
              "type": "string"
            }
          ],
          "internalType": "struct Swap2p.MakerOfferTexts",
          "name": "texts",
          "type": "tuple"
        }
      ],
      "name": "maker_makeOffer",
      "outputs": [],
      "stateMutability": "nonpayable",
      "type": "function"
    },
    {
      "inputs": [
        {
          "internalType": "bytes32",
          "name": "id",
          "type": "bytes32"
        },
        {
          "internalType": "bytes",
          "name": "msg_",
          "type": "bytes"
        }
      ],
      "name": "markFiatPaid",
      "outputs": [],
      "stateMutability": "nonpayable",
      "type": "function"
    },
    {
      "inputs": [
        {
          "internalType": "address",
          "name": "",
          "type": "address"
        },
        {
          "internalType": "address",
          "name": "",
          "type": "address"
        },
        {
          "internalType": "enum Swap2p.Side",
          "name": "",
          "type": "uint8"
        },
        {
          "internalType": "Swap2p.FiatCode",
          "name": "",
          "type": "uint24"
        }
      ],
      "name": "offers",
      "outputs": [
        {
          "internalType": "uint128",
          "name": "minAmt",
          "type": "uint128"
        },
        {
          "internalType": "uint128",
          "name": "maxAmt",
          "type": "uint128"
        },
        {
          "internalType": "uint96",
          "name": "reserve",
          "type": "uint96"
        },
        {
          "internalType": "uint96",
          "name": "priceFiatPerToken",
          "type": "uint96"
        },
        {
          "internalType": "Swap2p.FiatCode",
          "name": "fiat",
          "type": "uint24"
        },
        {
          "internalType": "uint32",
          "name": "ts",
          "type": "uint32"
        },
        {
          "internalType": "enum Swap2p.Side",
          "name": "side",
          "type": "uint8"
        },
        {
          "internalType": "address",
          "name": "token",
          "type": "address"
        },
        {
          "internalType": "string",
          "name": "paymentMethods",
          "type": "string"
        }
      ],
      "stateMutability": "view",
      "type": "function"
    },
    {
      "inputs": [
        {
          "internalType": "address",
          "name": "taker",
          "type": "address"
        }
      ],
      "name": "previewNextDealId",
      "outputs": [
        {
          "internalType": "bytes32",
          "name": "id",
          "type": "bytes32"
        },
        {
          "internalType": "uint64",
          "name": "nonce",
          "type": "uint64"
        }
      ],
      "stateMutability": "view",
      "type": "function"
    },
    {
      "inputs": [
        {
          "internalType": "address",
          "name": "maker",
          "type": "address"
        }
      ],
      "name": "previewNextOfferId",
      "outputs": [
        {
          "internalType": "bytes32",
          "name": "id",
          "type": "bytes32"
        },
        {
          "internalType": "uint64",
          "name": "nonce",
          "type": "uint64"
        }
      ],
      "stateMutability": "view",
      "type": "function"
    },
    {
      "inputs": [
        {
          "internalType": "bytes32",
          "name": "id",
          "type": "bytes32"
        },
        {
          "internalType": "bytes",
          "name": "msg_",
          "type": "bytes"
        }
      ],
      "name": "release",
      "outputs": [],
      "stateMutability": "nonpayable",
      "type": "function"
    },
    {
      "inputs": [
        {
          "internalType": "bytes32",
          "name": "id",
          "type": "bytes32"
        },
        {
          "internalType": "bytes",
          "name": "t",
          "type": "bytes"
        }
      ],
      "name": "sendMessage",
      "outputs": [],
      "stateMutability": "nonpayable",
      "type": "function"
    },
    {
      "inputs": [
        {
          "internalType": "string",
          "name": "nick",
          "type": "string"
        }
      ],
      "name": "setNickname",
      "outputs": [],
      "stateMutability": "nonpayable",
      "type": "function"
    },
    {
      "inputs": [
        {
          "internalType": "bool",
          "name": "on",
          "type": "bool"
        }
      ],
      "name": "setOnline",
      "outputs": [],
      "stateMutability": "nonpayable",
      "type": "function"
    },
    {
      "inputs": [
        {
          "internalType": "string",
          "name": "req",
          "type": "string"
        }
      ],
      "name": "setRequirements",
      "outputs": [],
      "stateMutability": "nonpayable",
      "type": "function"
    },
    {
      "inputs": [
        {
          "internalType": "address",
          "name": "token",
          "type": "address"
        },
        {
          "internalType": "enum Swap2p.Side",
          "name": "s",
          "type": "uint8"
        },
        {
          "internalType": "address",
          "name": "maker",
          "type": "address"
        },
        {
          "internalType": "uint128",
          "name": "amount",
          "type": "uint128"
        },
        {
          "internalType": "Swap2p.FiatCode",
          "name": "f",
          "type": "uint24"
        },
        {
          "internalType": "uint96",
          "name": "expectedPrice",
          "type": "uint96"
        },
        {
          "internalType": "string",
          "name": "details",
          "type": "string"
        },
        {
          "internalType": "address",
          "name": "partner",
          "type": "address"
        }
      ],
      "name": "taker_requestOffer",
      "outputs": [],
      "stateMutability": "nonpayable",
      "type": "function"
    }
  ],
  "bytecode": "0x60a0604052348015600f57600080fd5b506040516155ae3803806155ae833981016040819052602c916067565b60016000556001600160a01b03811660575760405163f79316e160e01b815260040160405180910390fd5b6001600160a01b03166080526095565b600060208284031215607857600080fd5b81516001600160a01b0381168114608e57600080fd5b9392505050565b6080516154fe6100b0600039600061351801526154fe6000f3fe608060405234801561001057600080fd5b506004361061015f5760003560e01c80630dc32ba9146101645780631bc8a466146101955780631c5d9faa146101aa5780631d1b8239146101bd57806323c640e7146101d057806323d317a9146101e3578063285289eb146102035780632f0cd5aa146102165780632fbe2ce9146102295780633d8dfcce146102495780633f9951aa1461026e5780634314a8e21461028e57806347437d1c146102a15780634be974b5146102b45780634bfac20c146102d45780634f51e294146102e75780635ca3f31b1461031d57806364c1cfa11461033e5780636d2a0fd01461035157806371a735c714610381578063722fe6061461039457806381cd872a146103bd5780638f658829146104725780639af8868c14610492578063b0fa3903146104bb578063cb34d040146104ce578063d486b7c4146104e1578063e7f25870146104f4578063f05b89fe14610507575b600080fd5b6101776101723660046144bf565b61051a565b60405161018c999897969594939291906145aa565b60405180910390f35b6101a86101a3366004614679565b61063e565b005b6101a86101b83660046146c4565b6109d2565b6101a86101cb3660046146c4565b610bc8565b6101a86101de366004614679565b610bff565b6101f66101f1366004614705565b610c33565b60405161018c9190614738565b6101a86102113660046147a9565b610d28565b6101a86102243660046148a5565b610d43565b61023c6102373660046148f0565b610ede565b60405161018c9190614945565b61025c610257366004614986565b611033565b60405161018c969594939291906149a1565b61028161027c3660046149fb565b61118c565b60405161018c9190614a30565b6101f661029c366004614705565b6114a3565b6101a86102af366004614679565b61158c565b6102c76102c2366004614af9565b611992565b60405161018c9190614be1565b6101a86102e2366004614679565b611c0d565b6103106102f5366004614986565b6007602052600090815260409020546001600160a01b031681565b60405161018c9190614bf4565b61033061032b366004614c08565b611f47565b60405190815260200161018c565b6101a861034c366004614679565b611faf565b61036461035f366004614986565b612125565b604080519283526001600160401b0390911660208301520161018c565b61036461038f366004614986565b612186565b6103306103a2366004614986565b6001600160a01b03166000908152600c602052604090205490565b61045c6103cb366004614af9565b600260208190526000918252604090912080546001820154928201546003909201546001600160801b038216936001600160601b03600160801b8404169360ff600160e01b8504811694600160e81b900416926001600160a01b03928316928281169262ffffff600160a01b8204169264ffffffffff600160b81b90920482169291811691600160281b909104168a565b60405161018c9a99989796959493929190614c4b565b610485610480366004614c08565b6121b5565b60405161018c9190614cd9565b6103306104a0366004614986565b6001600160a01b03166000908152600e602052604090205490565b6101a86104c9366004614d32565b612707565b6101a86104dc366004614c08565b612772565b6103306104ef3660046144bf565b61296e565b6101a8610502366004614d54565b6129ee565b6101a8610515366004614679565b612fb9565b6001602081815260009586526040808720825294865284862081529285528385209092528352912080549181015460028201546003830180546001600160801b0380871696600160801b900416946001600160601b0380861695600160601b810490911694600160c01b820462ffffff1694600160d81b830463ffffffff1694600160f81b90930460ff16936001600160a01b03909216926105bb90614e0b565b80601f01602080910402602001604051908101604052809291908181526020018280546105e790614e0b565b80156106345780601f1061060957610100808354040283529160200191610634565b820191906000526020600020905b81548152906001019060200180831161061757829003601f168201915b5050505050905089565b610646613145565b336000908152600860209081526040808320805465ffffffffff0019166101004264ffffffffff16021790558583526002909152902060038154600160e01b900460ff16600581111561069b5761069b61452d565b146106b957604051636f20b45d60e11b815260040160405180910390fd5b60008154600160e81b900460ff1660018111156106d8576106d861452d565b1480156106f2575060028101546001600160a01b03163314155b80610731575060018154600160e81b900460ff1660018111156107175761071761452d565b148015610731575060018101546001600160a01b03163314155b1561074f5760405163068690bf60e11b815260040160405180910390fd5b81156107605761076084848461316f565b805460ff60e01b1916600160e21b17815560038101805464ffffffffff19164264ffffffffff1617905560018101546107a2906001600160a01b03168561328c565b60028101546107ba906001600160a01b03168561328c565b600181015460028201546107db916001600160a01b03908116911686613320565b6001818101546001600160a01b03166000908152600860205260409020600390810180549091600491610818918591600160201b9004900b614e5b565b825463ffffffff9182166101009390930a92830291909202199091161790555060028101546001600160a01b0316600090815260086020526040902060039081018054600192600491610875918591600160201b9004900b614e5b565b92506101000a81548163ffffffff021916908360030b63ffffffff16021790555060008060018111156108aa576108aa61452d565b8254600160e81b900460ff1660018111156108c7576108c761452d565b146108df5760028201546001600160a01b03166108ee565b60018201546001600160a01b03165b60038301546002840154600185015485549394506109309389936001600160a01b03600160281b909104811693811692169086906001600160801b0316613334565b600382015460028301548354610963926001600160a01b03600160281b90910481169216906001600160801b031661354a565b600382015460018301548354610996926001600160a01b03600160281b90910481169216906001600160801b031661354a565b60405185907f7fd4245b0f72acadc4c87701af2ae8b00ba2adeef4b3e209897df6cef0426bee90600090a250506109cd6001600055565b505050565b336000908152600860209081526040808320805465ffffffffff0019166101004264ffffffffff16021781558151601f86018490048402810184019092528482529291859085908190840183828082843760009201829052506002870180549596509094909350610a4592509050614e0b565b80601f0160208091040260200160405190810160405280929190818152602001828054610a7190614e0b565b8015610abe5780601f10610a9357610100808354040283529160200191610abe565b820191906000526020600020905b815481529060010190602001808311610aa157829003601f168201915b505050505090508151600003610b1957805115610b125780516020808301919091206000818152600983526040808220805460ff19169055805193840190528252906002850190610b0f9082614efa565b50505b5050505050565b81516020830120815115610b3d5780828051906020012003610b3d57505050505050565b60008181526009602052604090205460ff1615610b6d57604051637ec9752560e01b815260040160405180910390fd5b6000818152600960205260409020805460ff1916600117905560028401610b95868883614fb2565b50815115610bbf5781516020808401919091206000908152600990915260409020805460ff191690555b505050505b5050565b336000908152600860205260409020805465ffffffffff0019166101004264ffffffffff16021781556001016109cd828483614fb2565b336000908152600860205260409020805465ffffffffff0019166101004264ffffffffff16021790556109cd83838361316f565b6001600160a01b0383166000908152600e60205260409020805460609190808510610c5f575050610d21565b6000610c6b858761506b565b905081811115610c785750805b610c82868261507e565b6001600160401b03811115610c9957610c99614e88565b604051908082528060200260200182016040528015610cc2578160200160208202803683370190505b509350855b81811015610d1c57838181548110610ce157610ce1615091565b9060005260206000200154858883610cf9919061507e565b81518110610d0957610d09615091565b6020908102919091010152600101610cc7565b505050505b9392505050565b610d3933898989898989898961357d565b5050505050505050565b6030811015610d6557604051636f20b45d60e11b815260040160405180910390fd5b6000610d7382610e106150a7565b90508260005b81811015610bbf576000868683818110610d9557610d95615091565b60209081029290920135600081815260029093526040909220805492935091600160e01b900460ff1690506004816005811115610dd457610dd461452d565b14158015610df457506005816005811115610df157610df161452d565b14155b15610e0157505050610ed6565b60038201548690610e199064ffffffffff164261507e565b1015610e2757505050610ed6565b600180830154600280850154600087815260208390526040902080546001600160f01b031916815593840180546001600160a01b031916905590830180546001600160e01b0319169055600390920180546001600160c81b03191690556001600160a01b039081169116610e9b82866137be565b610ea581866137be565b60405185907f5dfd3d3075c6a14eb1287a8fa566b2a067908e976de63c0f9f4a5246f82a485290600090a250505050505b600101610d79565b6001600160a01b0385166000908152600a602052604081206060919081876001811115610f0d57610f0d61452d565b6001811115610f1e57610f1e61452d565b81526020808201929092526040908101600090812062ffffff8916825290925290208054909150808510610f5357505061102a565b6000610f5f858761506b565b905081811115610f6c5750805b610f76868261507e565b6001600160401b03811115610f8d57610f8d614e88565b604051908082528060200260200182016040528015610fb6578160200160208202803683370190505b509350855b8181101561102557838181548110610fd557610fd5615091565b6000918252602090912001546001600160a01b031685610ff5898461507e565b8151811061100557611005615091565b6001600160a01b0390921660209283029190910190910152600101610fbb565b505050505b95945050505050565b6008602052600090815260409020805460018201805460ff83169361010090930464ffffffffff1692919061106790614e0b565b80601f016020809104026020016040519081016040528092919081815260200182805461109390614e0b565b80156110e05780601f106110b5576101008083540402835291602001916110e0565b820191906000526020600020905b8154815290600101906020018083116110c357829003601f168201915b5050505050908060020180546110f590614e0b565b80601f016020809104026020016040519081016040528092919081815260200182805461112190614e0b565b801561116e5780601f106111435761010080835404028352916020019161116e565b820191906000526020600020905b81548152906001019060200180831161115157829003601f168201915b50505050600392830154919282810b92600160201b9004900b905086565b606081806001600160401b038111156111a7576111a7614e88565b60405190808252806020026020018201604052801561120957816020015b6040805160c081018252600080825260208083018290526060938301849052838301939093526080820181905260a082015282526000199092019101816111c55790505b50915060005b8181101561149b5760006008600087878581811061122f5761122f615091565b90506020020160208101906112449190614986565b6001600160a01b0316815260208101919091526040016000208054855191925060ff169085908490811061127a5761127a615091565b602090810291909101015190151590528054845161010090910464ffffffffff16908590849081106112ae576112ae615091565b60209081029190910181015164ffffffffff9092169101526001810180546112d590614e0b565b80601f016020809104026020016040519081016040528092919081815260200182805461130190614e0b565b801561134e5780601f106113235761010080835404028352916020019161134e565b820191906000526020600020905b81548152906001019060200180831161133157829003601f168201915b505050505084838151811061136557611365615091565b60200260200101516040018190525080600201805461138390614e0b565b80601f01602080910402602001604051908101604052809291908181526020018280546113af90614e0b565b80156113fc5780601f106113d1576101008083540402835291602001916113fc565b820191906000526020600020905b8154815290600101906020018083116113df57829003601f168201915b505050505084838151811061141357611413615091565b6020908102919091010151606001526003808201548551910b9085908490811061143f5761143f615091565b60200260200101516080019060030b908160030b815250508060030160049054906101000a900460030b84838151811061147b5761147b615091565b602090810291909101015160039190910b60a0909101525060010161120f565b505092915050565b6001600160a01b0383166000908152600c602052604090208054606091908085106114cf575050610d21565b60006114db858761506b565b9050818111156114e85750805b6114f2868261507e565b6001600160401b0381111561150957611509614e88565b604051908082528060200260200182016040528015611532578160200160208202803683370190505b509350855b81811015610d1c5783818154811061155157611551615091565b9060005260206000200154858883611569919061507e565b8151811061157957611579615091565b6020908102919091010152600101611537565b611594613145565b336000908152600860209081526040808320805465ffffffffff0019166101004264ffffffffff1602179055858352600291829052909120908154600160e01b900460ff1660058111156115ea576115ea61452d565b1461160857604051636f20b45d60e11b815260040160405180910390fd5b60018101546001600160a01b0316330361165f5760005b8154600160e81b900460ff16600181111561163c5761163c61452d565b1461165a5760405163153c8df760e31b815260040160405180910390fd5b611693565b60028101546001600160a01b0316330361167a57600161161f565b60405163068690bf60e11b815260040160405180910390fd5b81156116a4576116a484848461316f565b805460ff60e01b1916600560e01b1780825560038201805464ffffffffff19164264ffffffffff161790819055600160281b90046001600160a01b039081166000908152600160208181526040808420838801549095168452939052918120909290918391600160e81b900460ff16908111156117235761172361452d565b60018111156117345761173461452d565b8152602080820192909252604090810160009081206002860154600160a01b900462ffffff16825290925290208054909150600160801b90046001600160801b0316156117cb5781546001820180546001600160801b03909216916000906117a69084906001600160601b03166150be565b92506101000a8154816001600160601b0302191690836001600160601b031602179055505b60018201546117e3906001600160a01b03168661328c565b60028201546117fb906001600160a01b03168661328c565b60008254600160e81b900460ff16600181111561181a5761181a61452d565b03611896576003820154600280840154845461185e936001600160a01b03600160281b909104811693921691611859916001600160801b0316906150dd565b61354a565b600382015460018301548354611891926001600160a01b03600160281b90910481169216906001600160801b031661354a565b611902565b6003820154600283015483546118c9926001600160a01b03600160281b90910481169216906001600160801b031661354a565b600382015460018301548354611902926001600160a01b03600160281b9091048116921690611859906001600160801b031660026150dd565b60018201546002830154611923916001600160a01b03908116911687613320565b33600090815260086020526040812060039081018054600193919261194a9185910b614e5b565b92506101000a81548163ffffffff021916908360030b63ffffffff1602179055508460008051602061548983398151915260405160405180910390a250506109cd6001600055565b61199a6143c0565b600082815260056020526040902060018101546001600160a01b03166119d357604051636df5846d60e01b815260040160405180910390fd5b80546001600160a01b039081166000908152600160208181526040808420838701549586168552909152822091928391600160a01b90910460ff1690811115611a1e57611a1e61452d565b6001811115611a2f57611a2f61452d565b815260208082019290925260409081016000908120600186810154600160a81b900462ffffff168352935290812091820154919250600160d81b90910463ffffffff169003611a9157604051636df5846d60e01b815260040160405180910390fd5b8383526001828101546001600160a01b0316602080860191909152604080516101208101825284546001600160801b038082168352600160801b9091041692810192909252838301546001600160601b0380821692840192909252600160601b81049091166060830152600160c01b810462ffffff166080830152600160d81b810463ffffffff1660a08301529091839160c0840191600160f81b90910460ff1690811115611b4257611b4261452d565b6001811115611b5357611b5361452d565b815260028201546001600160a01b03166020820152600382018054604090920191611b7d90614e0b565b80601f0160208091040260200160405190810160405280929190818152602001828054611ba990614e0b565b8015611bf65780601f10611bcb57610100808354040283529160200191611bf6565b820191906000526020600020905b815481529060010190602001808311611bd957829003601f168201915b505050919092525050506040840152509092915050565b611c15613145565b336000818152600860209081526040808320805465ffffffffff0019166101004264ffffffffff160217905586835260029091529020600181015490916001600160a01b0390911614801590611c78575060028101546001600160a01b03163314155b15611c965760405163068690bf60e11b815260040160405180910390fd5b60018154600160e01b900460ff166005811115611cb557611cb561452d565b14611cd357604051636f20b45d60e11b815260040160405180910390fd5b8115611ce457611ce484848461316f565b805460ff60e01b1916600560e01b17815560038101805464ffffffffff19164264ffffffffff161790556001810154611d26906001600160a01b03168561328c565b6002810154611d3e906001600160a01b03168561328c565b6003810154600160281b90046001600160a01b0390811660009081526001602081815260408084208387015490951684529390529181208354919290918391600160e81b90910460ff1690811115611d9857611d9861452d565b6001811115611da957611da961452d565b8152602080820192909252604090810160009081206002860154600160a01b900462ffffff16825290925290208054909150600160801b90046001600160801b031615611e405781546001820180546001600160801b0390921691600090611e1b9084906001600160601b03166150be565b92506101000a8154816001600160601b0302191690836001600160601b031602179055505b6000808354600160e81b900460ff166001811115611e6057611e6061452d565b14611e755782546001600160801b0316611e8b565b8254611e8b906001600160801b031660026150dd565b60038401546002850154919250611eb6916001600160a01b03600160281b909204821691168361354a565b60018301546002840154611ed7916001600160a01b03908116911688613320565b336000908152600860205260408120600390810180546001939192611efe9185910b614e5b565b92506101000a81548163ffffffff021916908360030b63ffffffff1602179055508560008051602061548983398151915260405160405180910390a25050506109cd6001600055565b6001600160a01b0383166000908152600a6020526040812081846001811115611f7257611f7261452d565b6001811115611f8357611f8361452d565b81526020808201929092526040908101600090812062ffffff8616825290925290205490509392505050565b336000908152600860209081526040808320805465ffffffffff0019166101004264ffffffffff1602179055858352600291829052909120908154600160e01b900460ff1660058111156120055761200561452d565b1461202357604051636f20b45d60e11b815260040160405180910390fd5b60008154600160e81b900460ff1660018111156120425761204261452d565b14801561205c575060018101546001600160a01b03163314155b8061209b575060018154600160e81b900460ff1660018111156120815761208161452d565b14801561209b575060028101546001600160a01b03163314155b156120b9576040516330698c3d60e01b815260040160405180910390fd5b805460ff60e01b1916600360e01b17815560038101805464ffffffffff19164264ffffffffff1617905560405184907fb30095b0d687bb11974087f374f985f2ff4f7b4f9900e31d32f699d416e2213b90600090a2811561211f5761211f84848461316f565b50505050565b6001600160a01b0381166000908152600660205260408120548190612154906001600160401b03166001615106565b90508281604051602001612169929190615125565b604051602081830303815290604052805190602001209150915091565b6001600160a01b0381166000908152600360205260408120548190612154906001600160401b03166001615106565b6001600160a01b0383166000908152600a6020526040812060609190818560018111156121e4576121e461452d565b60018111156121f5576121f561452d565b81526020808201929092526040908101600090812062ffffff871682529092528120805490925090805b82811015612397576001600160a01b03881660009081526004602052604081208554829087908590811061225557612255615091565b60009182526020808320909101546001600160a01b0316835282019290925260400181209089600181111561228c5761228c61452d565b600181111561229d5761229d61452d565b81526020808201929092526040908101600090812062ffffff8b1682528352818120546001600160a01b038d16825260019093529081208754929350909182908890869081106122ef576122ef615091565b60009182526020808320909101546001600160a01b031683528201929092526040018120908a60018111156123265761232661452d565b60018111156123375761233761452d565b81526020808201929092526040908101600090812062ffffff8c16825290925290209050811580159061237a57506001810154600160d81b900463ffffffff1615155b1561238d57836123898161514f565b9450505b505060010161221f565b50806001600160401b038111156123b0576123b0614e88565b6040519080825280602002602001820160405280156123e957816020015b6123d66143c0565b8152602001906001900390816123ce5790505b5093506000805b838110156126fb57600085828154811061240c5761240c615091565b60009182526020808320909101546001600160a01b038d811684526004835260408085209190921680855292528220909250818b60018111156124515761245161452d565b60018111156124625761246261452d565b815260200190815260200160002060008a62ffffff1662ffffff1681526020019081526020016000205490506000600160008d6001600160a01b03166001600160a01b031681526020019081526020016000206000846001600160a01b03166001600160a01b0316815260200190815260200160002060008c60018111156124ec576124ec61452d565b60018111156124fd576124fd61452d565b81526020808201929092526040908101600090812062ffffff8e1682529092529020905081158061253d57506001810154600160d81b900463ffffffff16155b1561254a575050506126f3565b604080516101208101825282546001600160801b038082168352600160801b9091041660208201526001808401546001600160601b0380821694840194909452600160601b81049093166060830152600160c01b830462ffffff166080830152600160d81b830463ffffffff1660a0830152600092849160c0840191600160f81b900460ff16908111156125e0576125e061452d565b60018111156125f1576125f161452d565b815260028201546001600160a01b0316602082015260038201805460409092019161261b90614e0b565b80601f016020809104026020016040519081016040528092919081815260200182805461264790614e0b565b80156126945780601f1061266957610100808354040283529160200191612694565b820191906000526020600020905b81548152906001019060200180831161267757829003601f168201915b50505050508152505090506040518060600160405280848152602001856001600160a01b03168152602001828152508a87815181106126d5576126d5615091565b602002602001018190525085806126eb9061514f565b965050505050505b6001016123f0565b50505050509392505050565b33600081815260086020908152604091829020805465ffffffffffff19166101004264ffffffffff160260ff19161785151590811790915591519182527fbf7433268f9e84553144e23f130bdb514d559f991d19288c0e6d0ad00440636e910160405180910390a250565b6001600160a01b03831660009081526004602090815260408083203384529091528120818460018111156127a8576127a861452d565b60018111156127b9576127b961452d565b81526020808201929092526040908101600090812062ffffff861682528352818120546001600160a01b038816825260018085528383203384529094529181209193509091859081111561280f5761280f61452d565b60018111156128205761282061452d565b81526020808201929092526040908101600090812062ffffff861682529092528120818155600181018290556002810180546001600160a01b03191690559061286c600383018261442b565b505061287a843385856138ea565b801561291557600081815260056020908152604080832080546001600160a01b0319168155600190810180546001600160c01b03191690556001600160a01b0388168452600483528184203385529092528220919085908111156128e0576128e061452d565b60018111156128f1576128f161452d565b81526020808201929092526040908101600090812062ffffff861682529092528120555b8162ffffff16336001600160a01b0316856001600160a01b03167f932af58d0bd82a1d60ef8de95c72b12b431eb2abbf6c2f7a44ad1a05f04113858487604051612960929190615168565b60405180910390a450505050565b6001600160a01b0380851660009081526004602090815260408083209387168352929052908120818460018111156129a8576129a861452d565b60018111156129b9576129b961452d565b815260200190815260200160002060008362ffffff1662ffffff1681526020019081526020016000205490505b949350505050565b6129f6613145565b336000908152600860209081526040808320805465ffffffffff0019166101004264ffffffffff16021790556001600160a01b038c811684526001808452828520918c168552925282209082908b90811115612a5457612a5461452d565b6001811115612a6557612a6561452d565b81526020808201929092526040908101600090812062ffffff8a16825290925281208054909250600160801b90046001600160801b03169003612abb57604051636df5846d60e01b815260040160405180910390fd5b6001600160a01b03881660009081526008602052604090205460ff16612af45760405163a1231e1f60e01b815260040160405180910390fd5b6000896001811115612b0857612b0861452d565b03612b4a5760018101546001600160601b03808716600160601b909204161015612b4557604051630bb46cf960e11b815260040160405180910390fd5b612b82565b60018101546001600160601b03808716600160601b909204161115612b8257604051630bb46cf960e11b815260040160405180910390fd5b80546001600160801b039081169088161080612bb2575080546001600160801b03600160801b9091048116908816115b15612bd0576040516327466a8f60e11b815260040160405180910390fd5b60018101546001600160601b0380891691161015612c01576040516328b35f2160e01b815260040160405180910390fd5b600181018054889190600090612c219084906001600160601b031661517c565b92506101000a8154816001600160601b0302191690836001600160601b031602179055506000806001811115612c5957612c5961452d565b8a6001811115612c6b57612c6b61452d565b14612c765787612c81565b612c818860026150dd565b9050612c8e8b3383613b6f565b33600090815260066020526040812080548290612cb3906001600160401b031661519b565b91906101000a8154816001600160401b0302191690836001600160401b031602179055905060003382604051602001612ced929190615125565b60408051808303601f19018152918152815160209283012060008181526002909352912080546001600160801b031981166001600160801b038e1690811783556001888101546001600160e01b0319909316909117600160601b9092046001600160601b0316600160801b02919091178083559293509091829060ff60e01b1916600160e01b83021790555080548d90829060ff60e81b1916600160e81b836001811115612d9d57612d9d61452d565b02179055508b8160010160006101000a8154816001600160a01b0302191690836001600160a01b03160217905550338160020160006101000a8154816001600160a01b0302191690836001600160a01b03160217905550898160020160146101000a81548162ffffff021916908362ffffff160217905550428160020160176101000a81548164ffffffffff021916908364ffffffffff160217905550428160030160006101000a81548164ffffffffff021916908364ffffffffff1602179055508d8160030160056101000a8154816001600160a01b0302191690836001600160a01b03160217905550612e928c83613cb9565b612e9c3383613cb9565b336000908152600760205260409020546001600160a01b0316158015612eca57506001600160a01b03861615155b15612f4d57336001600160a01b03871603612ef85760405163ab95c4bb60e01b815260040160405180910390fd5b3360008181526007602052604080822080546001600160a01b0319166001600160a01b038b1690811790915590519092917f886a0b64a7b66700b649d5a86a5f42688ff2fb3d578fffdbd20d5c0236073e3491a35b8b6001600160a01b03168e6001600160a01b0316837f8ecbb1a96f6faa17209e39902a4f2e82faf68c45c8adc350a7b1d734cb075234338f8d8d604051612f9794939291906151f0565b60405180910390a45050505050612fae6001600055565b505050505050505050565b612fc1613145565b336000818152600860209081526040808320805465ffffffffff0019166101004264ffffffffff160217905586835260029091529020600181015490916001600160a01b03909116146130275760405163068690bf60e11b815260040160405180910390fd5b60018154600160e01b900460ff1660058111156130465761304661452d565b1461306457604051636f20b45d60e11b815260040160405180910390fd5b6000808254600160e81b900460ff1660018111156130845761308461452d565b146130a457815461309f906001600160801b031660026150dd565b6130b0565b81546001600160801b03165b60038301549091506130d390600160281b90046001600160a01b03163383613b6f565b815460ff60e01b1916600160e11b17825560038201805464ffffffffff19164264ffffffffff1617905560405185907f92b2020aad33d0e9762dc13240d6871c7d105bf5580e3cdd3b1753c5d850fecf90600090a282156131395761313985858561316f565b50506109cd6001600055565b60026000540361316857604051633ee5aeb560e01b815260040160405180910390fd5b6002600055565b600083815260026020526040902060018101546001600160a01b031633148015906131a7575060028101546001600160a01b03163314155b156131c55760405163068690bf60e11b815260040160405180910390fd5b8054600160e01b900460ff1660018160058111156131e5576131e561452d565b14158015613205575060028160058111156132025761320261452d565b14155b8015613223575060038160058111156132205761322061452d565b14155b1561324157604051636f20b45d60e11b815260040160405180910390fd5b336001600160a01b0316857f06d860b94bf0bcf9e9b46a339373a9340a4273cc493d5d44dde261d0e19c4bf1868660405161327d92919061522e565b60405180910390a35050505050565b6001600160a01b0382166000908152600f602090815260408083208484529091528120549003610bc4576001600160a01b0382166000908152600e60205260409020546132da90600161506b565b6001600160a01b0383166000818152600f60209081526040808320868452825280832094909455918152600e825291822080546001810182559083529120018190555050565b61332a8382613d22565b6109cd8282613d22565b600061271061334d60326001600160801b0385166150a7565b6133579190615242565b905061336886846118598486615264565b6001600160a01b03808616600090815260076020526040812054839216908115613418576127106133a46107d06001600160801b0387166150a7565b6133ae9190615242565b90506001600160801b038116156133d7576133ca89838361354a565b6133d48184615264565b92505b816001600160a01b0316896001600160a01b03168b6000805160206154a9833981519152878560405161340b929190615283565b60405180910390a4613457565b60006001600160a01b0316896001600160a01b03168b6000805160206154a983398151915287600060405161344e929190615283565b60405180910390a45b6001600160a01b03808816600090815260076020526040902054168015613503576000612710613492610bb86001600160801b0389166150a7565b61349c9190615242565b90506001600160801b038116156134c5576134b88b838361354a565b6134c28186615264565b94505b816001600160a01b03168b6001600160a01b03168d6000805160206154a983398151915289856040516134f9929190615283565b60405180910390a4505b6001600160801b0384161561353d5761353d8a7f00000000000000000000000000000000000000000000000000000000000000008661354a565b5050505050505050505050565b806001600160801b031660000361356057505050565b6109cd6001600160a01b038416836001600160801b038416613e4e565b613589888a8989613ead565b6000613597898b8a8a61408d565b90506000600160008b6001600160a01b03166001600160a01b0316815260200190815260200160002060008c6001600160a01b03166001600160a01b0316815260200190815260200160002060008a60018111156135f7576135f761452d565b60018111156136085761360861452d565b81526020808201929092526040908101600090812062ffffff8c168083529352206001600160801b03868116600160801b029088161781556001808201805463ffffffff4216600160d81b0263ffffffff60d81b19600160c01b9096029590951666ffffffffffffff60c01b196001600160601b038e8116600160601b026001600160c01b0319909416908e1617929092179190911617939093178084559193508b92916001600160f81b031690600160f81b9084908111156136cd576136cd61452d565b02179055506002810180546001600160a01b0319166001600160a01b038c161790556136f9838061529d565b6003830191613709919083614fb2565b506137558b61371b602086018661529d565b8080601f0160208091040260200160405190810160405280939291908181526020018383808284376000920191909152506142ea92505050565b62ffffff88166001600160a01b03808d16908c167f7750970dc81c4e30d896044cc2ff5cbb2e4ac243bfe73ee7fb7d2ad07364b446858561379960408a018a61529d565b6040516137a99493929190615366565b60405180910390a45050505050505050505050565b6001600160a01b0382166000908152600f60209081526040808320848452909152812054908190036137ef57505050565b60006137fc60018361507e565b6001600160a01b0385166000908152600e602052604081208054929350916138269060019061507e565b905080831461389557600082828154811061384357613843615091565b906000526020600020015490508083858154811061386357613863615091565b60009182526020808320909101929092556001600160a01b0389168152600f8252604080822093825292909152208490555b818054806138a5576138a5615459565b6000828152602080822083016000199081018390559092019092556001600160a01b039097168152600f87526040808220968252959096525050509082209190915550565b6001600160a01b038085166000908152600b602090815260408083209387168352929052908120818460018111156139245761392461452d565b60018111156139355761393561452d565b815260200190815260200160002060008362ffffff1662ffffff1681526020019081526020016000205490508060000361396f575061211f565b6001600160a01b0385166000908152600a602052604081208185600181111561399a5761399a61452d565b60018111156139ab576139ab61452d565b81526020808201929092526040908101600090812062ffffff87168252909252812091506139da60018461507e565b82549091506000906139ee9060019061507e565b9050808214613ac9576000838281548110613a0b57613a0b615091565b9060005260206000200160009054906101000a90046001600160a01b0316905080848481548110613a3e57613a3e615091565b600091825260208083209190910180546001600160a01b0319166001600160a01b039485161790558b83168252600b8152604080832093851683529290529081208691896001811115613a9357613a9361452d565b6001811115613aa457613aa461452d565b81526020808201929092526040908101600090812062ffffff8b168252909252902055505b82805480613ad957613ad9615459565b60008281526020808220830160001990810180546001600160a01b03191690559092019092556001600160a01b038a81168352600b82526040808420918b1684529152812090876001811115613b3157613b3161452d565b6001811115613b4257613b4261452d565b81526020808201929092526040908101600090812062ffffff891682529092528120555050505050505050565b806001600160801b0316600003613b8557505050565b6040516370a0823160e01b81526000906001600160a01b038516906370a0823190613bb4903090600401614bf4565b602060405180830381865afa158015613bd1573d6000803e3d6000fd5b505050506040513d601f19601f82011682018060405250810190613bf5919061546f565b9050613c156001600160a01b03851684306001600160801b038616614316565b6040516370a0823160e01b81526000906001600160a01b038616906370a0823190613c44903090600401614bf4565b602060405180830381865afa158015613c61573d6000803e3d6000fd5b505050506040513d601f19601f82011682018060405250810190613c85919061546f565b90506001600160801b038316613c9b838361507e565b14610b1257604051631033736160e11b815260040160405180910390fd5b6001600160a01b0382166000908152600c6020526040902054613cdd90600161506b565b6001600160a01b039092166000818152600d60209081526040808320858452825280832095909555918152600c82529283208054600181018255908452922090910155565b6001600160a01b0382166000908152600d6020908152604080832084845290915281205490819003613d5357505050565b6000613d6060018361507e565b6001600160a01b0385166000908152600c60205260408120805492935091613d8a9060019061507e565b9050808314613df9576000828281548110613da757613da7615091565b9060005260206000200154905080838581548110613dc757613dc7615091565b60009182526020808320909101929092556001600160a01b0389168152600d8252604080822093825292909152208490555b81805480613e0957613e09615459565b6000828152602080822083016000199081018390559092019092556001600160a01b039097168152600d87526040808220968252959096525050509082209190915550565b6040516001600160a01b038381166024830152604482018390526109cd91859182169063a9059cbb906064015b604051602081830303815290604052915060e01b6020820180516001600160e01b03838183161783525050505061434f565b6001600160a01b038085166000908152600b60209081526040808320938716835292905290812090836001811115613ee757613ee761452d565b6001811115613ef857613ef861452d565b815260200190815260200160002060008262ffffff1662ffffff1681526020019081526020016000205460000361211f576001600160a01b0384166000908152600a6020526040812090836001811115613f5457613f5461452d565b6001811115613f6557613f6561452d565b81526020808201929092526040908101600090812062ffffff85168252909252902054613f9390600161506b565b6001600160a01b038086166000908152600b60209081526040808320938816835292905290812090846001811115613fcd57613fcd61452d565b6001811115613fde57613fde61452d565b81526020808201929092526040908101600090812062ffffff861682528352818120939093556001600160a01b0387168352600a90915281209083600181111561402a5761402a61452d565b600181111561403b5761403b61452d565b81526020808201929092526040908101600090812062ffffff85168252835290812080546001810182559082529190200180546001600160a01b0385166001600160a01b031990911617905550505050565b6001600160a01b0380851660009081526004602090815260408083209387168352929052908120818460018111156140c7576140c761452d565b60018111156140d8576140d861452d565b81526020808201929092526040908101600090812062ffffff861682529092529020549050806129e6576001600160a01b038416600090815260036020526040812080548290614130906001600160401b031661519b565b91906101000a8154816001600160401b0302191690836001600160401b03160217905590508481604051602001614168929190615125565b60408051601f1981840301815291815281516020928301206001600160a01b03808a16600090815260048552838120918a168152935290822090935083918660018111156141b8576141b861452d565b60018111156141c9576141c961452d565b815260200190815260200160002060008562ffffff1662ffffff168152602001908152602001600020819055506040518060800160405280876001600160a01b03168152602001866001600160a01b031681526020018560018111156142315761423161452d565b815262ffffff8516602091820152600084815260058252604090819020835181546001600160a01b03199081166001600160a01b039283161783559385015160018084018054968716929093169182178355938601519294929391926001600160a81b0319161790600160a01b9084908111156142b0576142b061452d565b0217905550606091909101516001909101805462ffffff909216600160a81b0262ffffff60a81b1990921691909117905550949350505050565b805115610bc4576001600160a01b03821660009081526008602052604090206001016109cd8282614efa565b6040516001600160a01b03848116602483015283811660448301526064820183905261211f9186918216906323b872dd90608401613e7b565b600080602060008451602086016000885af180614372576040513d6000823e3d81fd5b50506000513d9150811561438a578060011415614397565b6001600160a01b0384163b155b1561211f5783604051635274afe760e01b81526004016143b79190614bf4565b60405180910390fd5b60408051606081018252600080825260208201529081016144266040805161012081018252600080825260208201819052918101829052606081018290526080810182905260a081018290529060c0820190815260006020820152606060409091015290565b905290565b50805461443790614e0b565b6000825580601f10614447575050565b601f0160209004906000526020600020908101906144659190614468565b50565b5b8082111561447d5760008155600101614469565b5090565b80356001600160a01b038116811461449857600080fd5b919050565b80356002811061449857600080fd5b803562ffffff8116811461449857600080fd5b600080600080608085870312156144d557600080fd5b6144de85614481565b93506144ec60208601614481565b92506144fa6040860161449d565b9150614508606086016144ac565b905092959194509250565b6001600160801b03169052565b6001600160601b03169052565b634e487b7160e01b600052602160045260246000fd5b600281106145535761455361452d565b9052565b6001600160a01b03169052565b6000815180845260005b8181101561458a5760208185018101518683018201520161456e565b506000602082860101526020601f19601f83011685010191505092915050565b6001600160801b038a81168252891660208201526001600160601b0388811660408301528716606082015262ffffff8616608082015263ffffffff851660a08201526145f960c0820185614543565b6001600160a01b03831660e0820152610120610100820181905260009061462290830184614564565b9b9a5050505050505050505050565b60008083601f84011261464357600080fd5b5081356001600160401b0381111561465a57600080fd5b60208301915083602082850101111561467257600080fd5b9250929050565b60008060006040848603121561468e57600080fd5b8335925060208401356001600160401b038111156146ab57600080fd5b6146b786828701614631565b9497909650939450505050565b600080602083850312156146d757600080fd5b82356001600160401b038111156146ed57600080fd5b6146f985828601614631565b90969095509350505050565b60008060006060848603121561471a57600080fd5b61472384614481565b95602085013595506040909401359392505050565b602080825282518282018190526000918401906040840190835b81811015614770578351835260209384019390920191600101614752565b509095945050505050565b80356001600160601b038116811461449857600080fd5b80356001600160801b038116811461449857600080fd5b600080600080600080600080610100898b0312156147c657600080fd5b6147cf89614481565b97506147dd60208a0161449d565b96506147eb60408a016144ac565b95506147f960608a0161477b565b945061480760808a0161477b565b935061481560a08a01614792565b925061482360c08a01614792565b915060e08901356001600160401b0381111561483e57600080fd5b89016060818c03121561485057600080fd5b809150509295985092959890939650565b60008083601f84011261487357600080fd5b5081356001600160401b0381111561488a57600080fd5b6020830191508360208260051b850101111561467257600080fd5b6000806000604084860312156148ba57600080fd5b83356001600160401b038111156148d057600080fd5b6148dc86828701614861565b909790965060209590950135949350505050565b600080600080600060a0868803121561490857600080fd5b61491186614481565b945061491f6020870161449d565b935061492d604087016144ac565b94979396509394606081013594506080013592915050565b602080825282518282018190526000918401906040840190835b818110156147705783516001600160a01b031683526020938401939092019160010161495f565b60006020828403121561499857600080fd5b610d2182614481565b861515815264ffffffffff8616602082015260c0604082015260006149c960c0830187614564565b82810360608401526149db8187614564565b9150508360030b60808301528260030b60a0830152979650505050505050565b60008060208385031215614a0e57600080fd5b82356001600160401b03811115614a2457600080fd5b6146f985828601614861565b6000602082016020835280845180835260408501915060408160051b86010192506020860160005b82811015614aed57603f19878603018452815180511515865264ffffffffff6020820151166020870152604081015160c06040880152614a9b60c0880182614564565b905060608201518782036060890152614ab48282614564565b915050608082015160030b608088015260a082015160030b60a08801528096505050602082019150602084019350600181019050614a58565b50929695505050505050565b600060208284031215614b0b57600080fd5b5035919050565b8051825260018060a01b0360208201511660208301526000604082015160606040850152614b44606085018251614513565b6020810151614b566080860182614513565b506040810151614b6960a0860182614520565b506060810151614b7c60c0860182614520565b50608081015162ffffff1660e085015260a081015163ffffffff1661010085015260c0810151614bb0610120860182614543565b5060e0810151614bc4610140860182614557565b5061010001516101206101608501526129e6610180850182614564565b602081526000610d216020830184614b12565b6001600160a01b0391909116815260200190565b600080600060608486031215614c1d57600080fd5b614c2684614481565b9250614c346020850161449d565b9150614c42604085016144ac565b90509250925092565b6001600160801b038b1681526001600160601b038a166020820152610140810160068a10614c7b57614c7b61452d565b896040830152614c8e606083018a614543565b6001600160a01b038881166080840152871660a083015262ffffff861660c083015264ffffffffff851660e083015264ffffffffff8416610100830152614622610120830184614557565b6000602082016020835280845180835260408501915060408160051b86010192506020860160005b82811015614aed57603f19878603018452614d1d858351614b12565b94506020938401939190910190600101614d01565b600060208284031215614d4457600080fd5b81358015158114610d2157600080fd5b60008060008060008060008060006101008a8c031215614d7357600080fd5b614d7c8a614481565b9850614d8a60208b0161449d565b9750614d9860408b01614481565b9650614da660608b01614792565b9550614db460808b016144ac565b9450614dc260a08b0161477b565b935060c08a01356001600160401b03811115614ddd57600080fd5b614de98c828d01614631565b9094509250614dfc905060e08b01614481565b90509295985092959850929598565b600181811c90821680614e1f57607f821691505b602082108103614e3f57634e487b7160e01b600052602260045260246000fd5b50919050565b634e487b7160e01b600052601160045260246000fd5b600381810b9083900b01637fffffff8113637fffffff1982121715614e8257614e82614e45565b92915050565b634e487b7160e01b600052604160045260246000fd5b601f8211156109cd57806000526020600020601f840160051c81016020851015614ec55750805b601f840160051c820191505b81811015610b125760008155600101614ed1565b600019600383901b1c191660019190911b1790565b81516001600160401b03811115614f1357614f13614e88565b614f2781614f218454614e0b565b84614e9e565b6020601f821160018114614f555760008315614f435750848201515b614f4d8482614ee5565b855550610b12565b600084815260208120601f198516915b82811015614f855787850151825560209485019460019092019101614f65565b5084821015614fa35786840151600019600387901b60f8161c191681555b50505050600190811b01905550565b6001600160401b03831115614fc957614fc9614e88565b614fdd83614fd78354614e0b565b83614e9e565b6000601f84116001811461500b5760008515614ff95750838201355b6150038682614ee5565b845550610b12565b600083815260209020601f19861690835b8281101561503c578685013582556020948501946001909201910161501c565b50868210156150595760001960f88860031b161c19848701351681555b505060018560011b0183555050505050565b80820180821115614e8257614e82614e45565b81810381811115614e8257614e82614e45565b634e487b7160e01b600052603260045260246000fd5b8082028115828204841417614e8257614e82614e45565b6001600160601b038181168382160190811115614e8257614e82614e45565b6001600160801b0381811683821602908116908181146150ff576150ff614e45565b5092915050565b6001600160401b038181168382160190811115614e8257614e82614e45565b60609290921b6001600160601b031916825260c01b6001600160c01b0319166014820152601c0190565b60006001820161516157615161614e45565b5060010190565b82815260408101610d216020830184614543565b6001600160601b038281168282160390811115614e8257614e82614e45565b60006001600160401b0382166002600160401b031981016151be576151be614e45565b60010192915050565b81835281816020850137506000828201602090810191909152601f909101601f19169091010190565b6001600160a01b03851681526001600160801b038416602082015260606040820181905260009061522490830184866151c7565b9695505050505050565b6020815260006129e66020830184866151c7565b60008261525f57634e487b7160e01b600052601260045260246000fd5b500490565b6001600160801b038281168282160390811115614e8257614e82614e45565b6001600160801b0392831681529116602082015260400190565b6000808335601e198436030181126152b457600080fd5b8301803591506001600160401b038211156152ce57600080fd5b60200191503681900382131561467257600080fd5b600081546152f081614e0b565b80855260018216801561530a57600181146153265761535d565b60ff1983166020870152602082151560051b870101935061535d565b84600052602060002060005b838110156153545781546020828a010152600182019150602081019050615332565b87016020019450505b50505092915050565b848152606060208201819052845460009161538c9084016001600160801b038316614513565b61539c608084018260801c614513565b5060018501546153b860a084016001600160601b038316614520565b6153d260c08401606083901c6001600160601b0316614520565b60c081901c62ffffff1660e084015260d881901c63ffffffff1661010084015261540361012084018260f81c614543565b5060028501546001600160a01b0316615420610140840182614557565b5061012061016083015261543b6101808301600387016152e3565b828103604084015261544e8185876151c7565b979650505050505050565b634e487b7160e01b600052603160045260246000fd5b60006020828403121561548157600080fd5b505191905056fec677acc686f4424b864e232e217de479edc357e161509d63e7304bccb2b5253ad8cd130f7e2605268d0b30654b1c8f8bbecbd7fbd2589770379ebceb4709784ba2646970667358221220e61630f2d3f3f45053abb5c905e6b8599625d9deb7fc630b3b26acc47449216164736f6c634300081c0033",
  "linkReferences": {},
  "deployedLinkReferences": {},
  "immutableReferences": {
    "1547": [
      {
        "length": 32,
        "start": 13592
      }
    ]
  },
  "inputSourceName": "project/contracts/Swap2p.sol",
  "buildInfoId": "solc-0_8_28-f8fcd1b29d4bd42d33493009947add5c8c6afe81"
}