{
  "_format": "hh3-artifact-1",
  "contractName": "Swap2p",
  "sourceName": "contracts/Swap2p.sol",
  "abi": [
    {
      "inputs": [
        {
          "internalType": "address",
          "name": "author_",
          "type": "address"
        }
      ],
      "stateMutability": "nonpayable",
      "type": "constructor"
    },
    {
      "inputs": [],
      "name": "AmountOutOfBounds",
      "type": "error"
    },
    {
      "inputs": [],
      "name": "AuthorZero",
      "type": "error"
    },
    {
      "inputs": [],
      "name": "DealNotFound",
      "type": "error"
    },
    {
      "inputs": [],
      "name": "FeeOnTransferTokenNotSupported",
      "type": "error"
    },
    {
      "inputs": [],
      "name": "InsufficientDeposit",
      "type": "error"
    },
    {
      "inputs": [],
      "name": "InsufficientReserve",
      "type": "error"
    },
    {
      "inputs": [],
      "name": "MakerOffline",
      "type": "error"
    },
    {
      "inputs": [],
      "name": "NicknameTaken",
      "type": "error"
    },
    {
      "inputs": [],
      "name": "NotFiatPayer",
      "type": "error"
    },
    {
      "inputs": [],
      "name": "OfferNotFound",
      "type": "error"
    },
    {
      "inputs": [],
      "name": "ReentrancyGuardReentrantCall",
      "type": "error"
    },
    {
      "inputs": [
        {
          "internalType": "address",
          "name": "token",
          "type": "address"
        }
      ],
      "name": "SafeERC20FailedOperation",
      "type": "error"
    },
    {
      "inputs": [],
      "name": "WorsePrice",
      "type": "error"
    },
    {
      "inputs": [],
      "name": "WrongCaller",
      "type": "error"
    },
    {
      "inputs": [],
      "name": "WrongSide",
      "type": "error"
    },
    {
      "inputs": [],
      "name": "WrongState",
      "type": "error"
    },
    {
      "anonymous": false,
      "inputs": [
        {
          "indexed": true,
          "internalType": "bytes32",
          "name": "id",
          "type": "bytes32"
        },
        {
          "indexed": false,
          "internalType": "uint32",
          "name": "index",
          "type": "uint32"
        }
      ],
      "name": "Chat",
      "type": "event"
    },
    {
      "anonymous": false,
      "inputs": [
        {
          "indexed": true,
          "internalType": "bytes32",
          "name": "id",
          "type": "bytes32"
        }
      ],
      "name": "DealAccepted",
      "type": "event"
    },
    {
      "anonymous": false,
      "inputs": [
        {
          "indexed": true,
          "internalType": "bytes32",
          "name": "id",
          "type": "bytes32"
        }
      ],
      "name": "DealCanceled",
      "type": "event"
    },
    {
      "anonymous": false,
      "inputs": [
        {
          "indexed": true,
          "internalType": "bytes32",
          "name": "id",
          "type": "bytes32"
        }
      ],
      "name": "DealDeleted",
      "type": "event"
    },
    {
      "anonymous": false,
      "inputs": [
        {
          "indexed": true,
          "internalType": "bytes32",
          "name": "id",
          "type": "bytes32"
        }
      ],
      "name": "DealPaid",
      "type": "event"
    },
    {
      "anonymous": false,
      "inputs": [
        {
          "indexed": true,
          "internalType": "bytes32",
          "name": "id",
          "type": "bytes32"
        }
      ],
      "name": "DealReleased",
      "type": "event"
    },
    {
      "anonymous": false,
      "inputs": [
        {
          "indexed": true,
          "internalType": "bytes32",
          "name": "id",
          "type": "bytes32"
        }
      ],
      "name": "DealRequested",
      "type": "event"
    },
    {
      "anonymous": false,
      "inputs": [
        {
          "indexed": true,
          "internalType": "address",
          "name": "maker",
          "type": "address"
        },
        {
          "indexed": false,
          "internalType": "bool",
          "name": "online",
          "type": "bool"
        }
      ],
      "name": "MakerOnline",
      "type": "event"
    },
    {
      "anonymous": false,
      "inputs": [
        {
          "indexed": true,
          "internalType": "bytes32",
          "name": "id",
          "type": "bytes32"
        }
      ],
      "name": "OfferDeleted",
      "type": "event"
    },
    {
      "anonymous": false,
      "inputs": [
        {
          "indexed": true,
          "internalType": "bytes32",
          "name": "id",
          "type": "bytes32"
        }
      ],
      "name": "OfferUpsert",
      "type": "event"
    },
    {
      "anonymous": false,
      "inputs": [
        {
          "indexed": true,
          "internalType": "address",
          "name": "taker",
          "type": "address"
        },
        {
          "indexed": true,
          "internalType": "address",
          "name": "partner",
          "type": "address"
        }
      ],
      "name": "PartnerBound",
      "type": "event"
    },
    {
      "inputs": [
        {
          "internalType": "address",
          "name": "",
          "type": "address"
        }
      ],
      "name": "affiliates",
      "outputs": [
        {
          "internalType": "address",
          "name": "",
          "type": "address"
        }
      ],
      "stateMutability": "view",
      "type": "function"
    },
    {
      "inputs": [
        {
          "internalType": "bytes32",
          "name": "id",
          "type": "bytes32"
        },
        {
          "internalType": "bytes",
          "name": "reason",
          "type": "bytes"
        }
      ],
      "name": "cancelDeal",
      "outputs": [],
      "stateMutability": "nonpayable",
      "type": "function"
    },
    {
      "inputs": [
        {
          "internalType": "bytes32",
          "name": "id",
          "type": "bytes32"
        },
        {
          "internalType": "bytes",
          "name": "reason",
          "type": "bytes"
        }
      ],
      "name": "cancelRequest",
      "outputs": [],
      "stateMutability": "nonpayable",
      "type": "function"
    },
    {
      "inputs": [
        {
          "internalType": "bytes32[]",
          "name": "ids",
          "type": "bytes32[]"
        },
        {
          "internalType": "uint256",
          "name": "minAgeHours",
          "type": "uint256"
        }
      ],
      "name": "cleanupDeals",
      "outputs": [],
      "stateMutability": "nonpayable",
      "type": "function"
    },
    {
      "inputs": [
        {
          "internalType": "bytes32",
          "name": "",
          "type": "bytes32"
        }
      ],
      "name": "deals",
      "outputs": [
        {
          "internalType": "uint128",
          "name": "amount",
          "type": "uint128"
        },
        {
          "internalType": "uint96",
          "name": "price",
          "type": "uint96"
        },
        {
          "internalType": "Swap2p.FiatCode",
          "name": "fiat",
          "type": "uint24"
        },
        {
          "internalType": "enum Swap2p.DealState",
          "name": "state",
          "type": "uint8"
        },
        {
          "internalType": "enum Swap2p.Side",
          "name": "side",
          "type": "uint8"
        },
        {
          "internalType": "uint40",
          "name": "tsRequest",
          "type": "uint40"
        },
        {
          "internalType": "uint40",
          "name": "tsLast",
          "type": "uint40"
        },
        {
          "internalType": "address",
          "name": "maker",
          "type": "address"
        },
        {
          "internalType": "address",
          "name": "taker",
          "type": "address"
        },
        {
          "internalType": "address",
          "name": "token",
          "type": "address"
        },
        {
          "internalType": "string",
          "name": "paymentMethod",
          "type": "string"
        }
      ],
      "stateMutability": "view",
      "type": "function"
    },
    {
      "inputs": [
        {
          "internalType": "bytes32",
          "name": "id",
          "type": "bytes32"
        }
      ],
      "name": "getDeal",
      "outputs": [
        {
          "components": [
            {
              "internalType": "bytes32",
              "name": "id",
              "type": "bytes32"
            },
            {
              "components": [
                {
                  "internalType": "uint128",
                  "name": "amount",
                  "type": "uint128"
                },
                {
                  "internalType": "uint96",
                  "name": "price",
                  "type": "uint96"
                },
                {
                  "internalType": "Swap2p.FiatCode",
                  "name": "fiat",
                  "type": "uint24"
                },
                {
                  "internalType": "enum Swap2p.DealState",
                  "name": "state",
                  "type": "uint8"
                },
                {
                  "internalType": "enum Swap2p.Side",
                  "name": "side",
                  "type": "uint8"
                },
                {
                  "internalType": "uint40",
                  "name": "tsRequest",
                  "type": "uint40"
                },
                {
                  "internalType": "uint40",
                  "name": "tsLast",
                  "type": "uint40"
                },
                {
                  "internalType": "address",
                  "name": "maker",
                  "type": "address"
                },
                {
                  "internalType": "address",
                  "name": "taker",
                  "type": "address"
                },
                {
                  "internalType": "address",
                  "name": "token",
                  "type": "address"
                },
                {
                  "internalType": "string",
                  "name": "paymentMethod",
                  "type": "string"
                },
                {
                  "components": [
                    {
                      "internalType": "uint40",
                      "name": "ts",
                      "type": "uint40"
                    },
                    {
                      "internalType": "enum Swap2p.DealState",
                      "name": "state",
                      "type": "uint8"
                    },
                    {
                      "internalType": "bool",
                      "name": "toMaker",
                      "type": "bool"
                    },
                    {
                      "internalType": "bytes",
                      "name": "text",
                      "type": "bytes"
                    }
                  ],
                  "internalType": "struct Swap2p.ChatMessage[]",
                  "name": "chat",
                  "type": "tuple[]"
                }
              ],
              "internalType": "struct Swap2p.Deal",
              "name": "deal",
              "type": "tuple"
            }
          ],
          "internalType": "struct Swap2p.DealInfo",
          "name": "info",
          "type": "tuple"
        }
      ],
      "stateMutability": "view",
      "type": "function"
    },
    {
      "inputs": [
        {
          "internalType": "bytes32",
          "name": "id",
          "type": "bytes32"
        }
      ],
      "name": "getDealChat",
      "outputs": [
        {
          "components": [
            {
              "internalType": "uint40",
              "name": "ts",
              "type": "uint40"
            },
            {
              "internalType": "enum Swap2p.DealState",
              "name": "state",
              "type": "uint8"
            },
            {
              "internalType": "bool",
              "name": "toMaker",
              "type": "bool"
            },
            {
              "internalType": "bytes",
              "name": "text",
              "type": "bytes"
            }
          ],
          "internalType": "struct Swap2p.ChatMessage[]",
          "name": "out",
          "type": "tuple[]"
        }
      ],
      "stateMutability": "view",
      "type": "function"
    },
    {
      "inputs": [
        {
          "internalType": "address",
          "name": "maker",
          "type": "address"
        }
      ],
      "name": "getMakerOfferCount",
      "outputs": [
        {
          "internalType": "uint256",
          "name": "",
          "type": "uint256"
        }
      ],
      "stateMutability": "view",
      "type": "function"
    },
    {
      "inputs": [
        {
          "internalType": "address",
          "name": "maker",
          "type": "address"
        },
        {
          "internalType": "uint256",
          "name": "off",
          "type": "uint256"
        },
        {
          "internalType": "uint256",
          "name": "lim",
          "type": "uint256"
        }
      ],
      "name": "getMakerOfferIds",
      "outputs": [
        {
          "internalType": "bytes32[]",
          "name": "out",
          "type": "bytes32[]"
        }
      ],
      "stateMutability": "view",
      "type": "function"
    },
    {
      "inputs": [
        {
          "internalType": "address",
          "name": "maker",
          "type": "address"
        },
        {
          "internalType": "uint256",
          "name": "off",
          "type": "uint256"
        },
        {
          "internalType": "uint256",
          "name": "lim",
          "type": "uint256"
        }
      ],
      "name": "getMakerOffers",
      "outputs": [
        {
          "components": [
            {
              "internalType": "bytes32",
              "name": "id",
              "type": "bytes32"
            },
            {
              "internalType": "address",
              "name": "maker",
              "type": "address"
            },
            {
              "components": [
                {
                  "internalType": "uint128",
                  "name": "minAmt",
                  "type": "uint128"
                },
                {
                  "internalType": "uint128",
                  "name": "maxAmt",
                  "type": "uint128"
                },
                {
                  "internalType": "uint96",
                  "name": "reserve",
                  "type": "uint96"
                },
                {
                  "internalType": "uint96",
                  "name": "priceFiatPerToken",
                  "type": "uint96"
                },
                {
                  "internalType": "uint32",
                  "name": "ts",
                  "type": "uint32"
                },
                {
                  "internalType": "Swap2p.FiatCode",
                  "name": "fiat",
                  "type": "uint24"
                },
                {
                  "internalType": "enum Swap2p.Side",
                  "name": "side",
                  "type": "uint8"
                },
                {
                  "internalType": "address",
                  "name": "token",
                  "type": "address"
                },
                {
                  "internalType": "address",
                  "name": "maker",
                  "type": "address"
                },
                {
                  "internalType": "string",
                  "name": "paymentMethods",
                  "type": "string"
                },
                {
                  "internalType": "string",
                  "name": "requirements",
                  "type": "string"
                }
              ],
              "internalType": "struct Swap2p.Offer",
              "name": "offer",
              "type": "tuple"
            }
          ],
          "internalType": "struct Swap2p.OfferInfo[]",
          "name": "out",
          "type": "tuple[]"
        }
      ],
      "stateMutability": "view",
      "type": "function"
    },
    {
      "inputs": [
        {
          "internalType": "address[]",
          "name": "accounts",
          "type": "address[]"
        }
      ],
      "name": "getMakerProfiles",
      "outputs": [
        {
          "components": [
            {
              "internalType": "uint40",
              "name": "lastActivity",
              "type": "uint40"
            },
            {
              "internalType": "int32",
              "name": "dealsCancelled",
              "type": "int32"
            },
            {
              "internalType": "int32",
              "name": "dealsCompleted",
              "type": "int32"
            },
            {
              "internalType": "bool",
              "name": "online",
              "type": "bool"
            },
            {
              "internalType": "string",
              "name": "nickname",
              "type": "string"
            }
          ],
          "internalType": "struct Swap2p.MakerProfile[]",
          "name": "profiles",
          "type": "tuple[]"
        }
      ],
      "stateMutability": "view",
      "type": "function"
    },
    {
      "inputs": [
        {
          "internalType": "address",
          "name": "token",
          "type": "address"
        },
        {
          "internalType": "enum Swap2p.Side",
          "name": "s",
          "type": "uint8"
        },
        {
          "internalType": "Swap2p.FiatCode",
          "name": "f",
          "type": "uint24"
        },
        {
          "internalType": "uint256",
          "name": "off",
          "type": "uint256"
        },
        {
          "internalType": "uint256",
          "name": "lim",
          "type": "uint256"
        }
      ],
      "name": "getMarketOfferIds",
      "outputs": [
        {
          "internalType": "bytes32[]",
          "name": "out",
          "type": "bytes32[]"
        }
      ],
      "stateMutability": "view",
      "type": "function"
    },
    {
      "inputs": [
        {
          "internalType": "address",
          "name": "token",
          "type": "address"
        },
        {
          "internalType": "enum Swap2p.Side",
          "name": "s",
          "type": "uint8"
        },
        {
          "internalType": "Swap2p.FiatCode",
          "name": "f",
          "type": "uint24"
        },
        {
          "internalType": "uint256",
          "name": "off",
          "type": "uint256"
        },
        {
          "internalType": "uint256",
          "name": "lim",
          "type": "uint256"
        }
      ],
      "name": "getMarketOffers",
      "outputs": [
        {
          "components": [
            {
              "internalType": "bytes32",
              "name": "id",
              "type": "bytes32"
            },
            {
              "internalType": "address",
              "name": "maker",
              "type": "address"
            },
            {
              "components": [
                {
                  "internalType": "uint128",
                  "name": "minAmt",
                  "type": "uint128"
                },
                {
                  "internalType": "uint128",
                  "name": "maxAmt",
                  "type": "uint128"
                },
                {
                  "internalType": "uint96",
                  "name": "reserve",
                  "type": "uint96"
                },
                {
                  "internalType": "uint96",
                  "name": "priceFiatPerToken",
                  "type": "uint96"
                },
                {
                  "internalType": "uint32",
                  "name": "ts",
                  "type": "uint32"
                },
                {
                  "internalType": "Swap2p.FiatCode",
                  "name": "fiat",
                  "type": "uint24"
                },
                {
                  "internalType": "enum Swap2p.Side",
                  "name": "side",
                  "type": "uint8"
                },
                {
                  "internalType": "address",
                  "name": "token",
                  "type": "address"
                },
                {
                  "internalType": "address",
                  "name": "maker",
                  "type": "address"
                },
                {
                  "internalType": "string",
                  "name": "paymentMethods",
                  "type": "string"
                },
                {
                  "internalType": "string",
                  "name": "requirements",
                  "type": "string"
                }
              ],
              "internalType": "struct Swap2p.Offer",
              "name": "offer",
              "type": "tuple"
            }
          ],
          "internalType": "struct Swap2p.OfferInfo[]",
          "name": "out",
          "type": "tuple[]"
        }
      ],
      "stateMutability": "view",
      "type": "function"
    },
    {
      "inputs": [
        {
          "internalType": "bytes32",
          "name": "id",
          "type": "bytes32"
        }
      ],
      "name": "getOfferById",
      "outputs": [
        {
          "components": [
            {
              "internalType": "bytes32",
              "name": "id",
              "type": "bytes32"
            },
            {
              "internalType": "address",
              "name": "maker",
              "type": "address"
            },
            {
              "components": [
                {
                  "internalType": "uint128",
                  "name": "minAmt",
                  "type": "uint128"
                },
                {
                  "internalType": "uint128",
                  "name": "maxAmt",
                  "type": "uint128"
                },
                {
                  "internalType": "uint96",
                  "name": "reserve",
                  "type": "uint96"
                },
                {
                  "internalType": "uint96",
                  "name": "priceFiatPerToken",
                  "type": "uint96"
                },
                {
                  "internalType": "uint32",
                  "name": "ts",
                  "type": "uint32"
                },
                {
                  "internalType": "Swap2p.FiatCode",
                  "name": "fiat",
                  "type": "uint24"
                },
                {
                  "internalType": "enum Swap2p.Side",
                  "name": "side",
                  "type": "uint8"
                },
                {
                  "internalType": "address",
                  "name": "token",
                  "type": "address"
                },
                {
                  "internalType": "address",
                  "name": "maker",
                  "type": "address"
                },
                {
                  "internalType": "string",
                  "name": "paymentMethods",
                  "type": "string"
                },
                {
                  "internalType": "string",
                  "name": "requirements",
                  "type": "string"
                }
              ],
              "internalType": "struct Swap2p.Offer",
              "name": "offer",
              "type": "tuple"
            }
          ],
          "internalType": "struct Swap2p.OfferInfo",
          "name": "info",
          "type": "tuple"
        }
      ],
      "stateMutability": "view",
      "type": "function"
    },
    {
      "inputs": [
        {
          "internalType": "address",
          "name": "token",
          "type": "address"
        },
        {
          "internalType": "enum Swap2p.Side",
          "name": "s",
          "type": "uint8"
        },
        {
          "internalType": "Swap2p.FiatCode",
          "name": "f",
          "type": "uint24"
        }
      ],
      "name": "getOfferCount",
      "outputs": [
        {
          "internalType": "uint256",
          "name": "",
          "type": "uint256"
        }
      ],
      "stateMutability": "view",
      "type": "function"
    },
    {
      "inputs": [
        {
          "internalType": "address",
          "name": "token",
          "type": "address"
        },
        {
          "internalType": "address",
          "name": "maker",
          "type": "address"
        },
        {
          "internalType": "enum Swap2p.Side",
          "name": "s",
          "type": "uint8"
        },
        {
          "internalType": "Swap2p.FiatCode",
          "name": "f",
          "type": "uint24"
        }
      ],
      "name": "getOfferId",
      "outputs": [
        {
          "internalType": "bytes32",
          "name": "",
          "type": "bytes32"
        }
      ],
      "stateMutability": "view",
      "type": "function"
    },
    {
      "inputs": [
        {
          "internalType": "address",
          "name": "token",
          "type": "address"
        },
        {
          "internalType": "enum Swap2p.Side",
          "name": "s",
          "type": "uint8"
        },
        {
          "internalType": "Swap2p.FiatCode",
          "name": "f",
          "type": "uint24"
        },
        {
          "internalType": "uint256",
          "name": "off",
          "type": "uint256"
        },
        {
          "internalType": "uint256",
          "name": "lim",
          "type": "uint256"
        }
      ],
      "name": "getOfferKeys",
      "outputs": [
        {
          "internalType": "address[]",
          "name": "out",
          "type": "address[]"
        }
      ],
      "stateMutability": "view",
      "type": "function"
    },
    {
      "inputs": [
        {
          "internalType": "address",
          "name": "u",
          "type": "address"
        }
      ],
      "name": "getOpenDealCount",
      "outputs": [
        {
          "internalType": "uint256",
          "name": "",
          "type": "uint256"
        }
      ],
      "stateMutability": "view",
      "type": "function"
    },
    {
      "inputs": [
        {
          "internalType": "address",
          "name": "u",
          "type": "address"
        },
        {
          "internalType": "uint256",
          "name": "off",
          "type": "uint256"
        },
        {
          "internalType": "uint256",
          "name": "lim",
          "type": "uint256"
        }
      ],
      "name": "getOpenDeals",
      "outputs": [
        {
          "internalType": "bytes32[]",
          "name": "out",
          "type": "bytes32[]"
        }
      ],
      "stateMutability": "view",
      "type": "function"
    },
    {
      "inputs": [
        {
          "internalType": "address",
          "name": "u",
          "type": "address"
        },
        {
          "internalType": "uint256",
          "name": "off",
          "type": "uint256"
        },
        {
          "internalType": "uint256",
          "name": "lim",
          "type": "uint256"
        }
      ],
      "name": "getOpenDealsDetailed",
      "outputs": [
        {
          "components": [
            {
              "internalType": "bytes32",
              "name": "id",
              "type": "bytes32"
            },
            {
              "components": [
                {
                  "internalType": "uint128",
                  "name": "amount",
                  "type": "uint128"
                },
                {
                  "internalType": "uint96",
                  "name": "price",
                  "type": "uint96"
                },
                {
                  "internalType": "Swap2p.FiatCode",
                  "name": "fiat",
                  "type": "uint24"
                },
                {
                  "internalType": "enum Swap2p.DealState",
                  "name": "state",
                  "type": "uint8"
                },
                {
                  "internalType": "enum Swap2p.Side",
                  "name": "side",
                  "type": "uint8"
                },
                {
                  "internalType": "uint40",
                  "name": "tsRequest",
                  "type": "uint40"
                },
                {
                  "internalType": "uint40",
                  "name": "tsLast",
                  "type": "uint40"
                },
                {
                  "internalType": "address",
                  "name": "maker",
                  "type": "address"
                },
                {
                  "internalType": "address",
                  "name": "taker",
                  "type": "address"
                },
                {
                  "internalType": "address",
                  "name": "token",
                  "type": "address"
                },
                {
                  "internalType": "string",
                  "name": "paymentMethod",
                  "type": "string"
                },
                {
                  "components": [
                    {
                      "internalType": "uint40",
                      "name": "ts",
                      "type": "uint40"
                    },
                    {
                      "internalType": "enum Swap2p.DealState",
                      "name": "state",
                      "type": "uint8"
                    },
                    {
                      "internalType": "bool",
                      "name": "toMaker",
                      "type": "bool"
                    },
                    {
                      "internalType": "bytes",
                      "name": "text",
                      "type": "bytes"
                    }
                  ],
                  "internalType": "struct Swap2p.ChatMessage[]",
                  "name": "chat",
                  "type": "tuple[]"
                }
              ],
              "internalType": "struct Swap2p.Deal",
              "name": "deal",
              "type": "tuple"
            }
          ],
          "internalType": "struct Swap2p.DealInfo[]",
          "name": "out",
          "type": "tuple[]"
        }
      ],
      "stateMutability": "view",
      "type": "function"
    },
    {
      "inputs": [
        {
          "internalType": "address",
          "name": "u",
          "type": "address"
        }
      ],
      "name": "getRecentDealCount",
      "outputs": [
        {
          "internalType": "uint256",
          "name": "",
          "type": "uint256"
        }
      ],
      "stateMutability": "view",
      "type": "function"
    },
    {
      "inputs": [
        {
          "internalType": "address",
          "name": "u",
          "type": "address"
        },
        {
          "internalType": "uint256",
          "name": "off",
          "type": "uint256"
        },
        {
          "internalType": "uint256",
          "name": "lim",
          "type": "uint256"
        }
      ],
      "name": "getRecentDeals",
      "outputs": [
        {
          "internalType": "bytes32[]",
          "name": "out",
          "type": "bytes32[]"
        }
      ],
      "stateMutability": "view",
      "type": "function"
    },
    {
      "inputs": [
        {
          "internalType": "address",
          "name": "u",
          "type": "address"
        },
        {
          "internalType": "uint256",
          "name": "off",
          "type": "uint256"
        },
        {
          "internalType": "uint256",
          "name": "lim",
          "type": "uint256"
        }
      ],
      "name": "getRecentDealsDetailed",
      "outputs": [
        {
          "components": [
            {
              "internalType": "bytes32",
              "name": "id",
              "type": "bytes32"
            },
            {
              "components": [
                {
                  "internalType": "uint128",
                  "name": "amount",
                  "type": "uint128"
                },
                {
                  "internalType": "uint96",
                  "name": "price",
                  "type": "uint96"
                },
                {
                  "internalType": "Swap2p.FiatCode",
                  "name": "fiat",
                  "type": "uint24"
                },
                {
                  "internalType": "enum Swap2p.DealState",
                  "name": "state",
                  "type": "uint8"
                },
                {
                  "internalType": "enum Swap2p.Side",
                  "name": "side",
                  "type": "uint8"
                },
                {
                  "internalType": "uint40",
                  "name": "tsRequest",
                  "type": "uint40"
                },
                {
                  "internalType": "uint40",
                  "name": "tsLast",
                  "type": "uint40"
                },
                {
                  "internalType": "address",
                  "name": "maker",
                  "type": "address"
                },
                {
                  "internalType": "address",
                  "name": "taker",
                  "type": "address"
                },
                {
                  "internalType": "address",
                  "name": "token",
                  "type": "address"
                },
                {
                  "internalType": "string",
                  "name": "paymentMethod",
                  "type": "string"
                },
                {
                  "components": [
                    {
                      "internalType": "uint40",
                      "name": "ts",
                      "type": "uint40"
                    },
                    {
                      "internalType": "enum Swap2p.DealState",
                      "name": "state",
                      "type": "uint8"
                    },
                    {
                      "internalType": "bool",
                      "name": "toMaker",
                      "type": "bool"
                    },
                    {
                      "internalType": "bytes",
                      "name": "text",
                      "type": "bytes"
                    }
                  ],
                  "internalType": "struct Swap2p.ChatMessage[]",
                  "name": "chat",
                  "type": "tuple[]"
                }
              ],
              "internalType": "struct Swap2p.Deal",
              "name": "deal",
              "type": "tuple"
            }
          ],
          "internalType": "struct Swap2p.DealInfo[]",
          "name": "out",
          "type": "tuple[]"
        }
      ],
      "stateMutability": "view",
      "type": "function"
    },
    {
      "inputs": [
        {
          "internalType": "address",
          "name": "token",
          "type": "address"
        },
        {
          "internalType": "enum Swap2p.Side",
          "name": "s",
          "type": "uint8"
        },
        {
          "internalType": "Swap2p.FiatCode",
          "name": "f",
          "type": "uint24"
        }
      ],
      "name": "listOffers",
      "outputs": [
        {
          "components": [
            {
              "internalType": "bytes32",
              "name": "id",
              "type": "bytes32"
            },
            {
              "internalType": "address",
              "name": "maker",
              "type": "address"
            },
            {
              "components": [
                {
                  "internalType": "uint128",
                  "name": "minAmt",
                  "type": "uint128"
                },
                {
                  "internalType": "uint128",
                  "name": "maxAmt",
                  "type": "uint128"
                },
                {
                  "internalType": "uint96",
                  "name": "reserve",
                  "type": "uint96"
                },
                {
                  "internalType": "uint96",
                  "name": "priceFiatPerToken",
                  "type": "uint96"
                },
                {
                  "internalType": "uint32",
                  "name": "ts",
                  "type": "uint32"
                },
                {
                  "internalType": "Swap2p.FiatCode",
                  "name": "fiat",
                  "type": "uint24"
                },
                {
                  "internalType": "enum Swap2p.Side",
                  "name": "side",
                  "type": "uint8"
                },
                {
                  "internalType": "address",
                  "name": "token",
                  "type": "address"
                },
                {
                  "internalType": "address",
                  "name": "maker",
                  "type": "address"
                },
                {
                  "internalType": "string",
                  "name": "paymentMethods",
                  "type": "string"
                },
                {
                  "internalType": "string",
                  "name": "requirements",
                  "type": "string"
                }
              ],
              "internalType": "struct Swap2p.Offer",
              "name": "offer",
              "type": "tuple"
            }
          ],
          "internalType": "struct Swap2p.OfferInfo[]",
          "name": "out",
          "type": "tuple[]"
        }
      ],
      "stateMutability": "view",
      "type": "function"
    },
    {
      "inputs": [
        {
          "internalType": "address",
          "name": "",
          "type": "address"
        }
      ],
      "name": "makerInfo",
      "outputs": [
        {
          "internalType": "uint40",
          "name": "lastActivity",
          "type": "uint40"
        },
        {
          "internalType": "int32",
          "name": "dealsCancelled",
          "type": "int32"
        },
        {
          "internalType": "int32",
          "name": "dealsCompleted",
          "type": "int32"
        },
        {
          "internalType": "bool",
          "name": "online",
          "type": "bool"
        },
        {
          "internalType": "string",
          "name": "nickname",
          "type": "string"
        }
      ],
      "stateMutability": "view",
      "type": "function"
    },
    {
      "inputs": [
        {
          "internalType": "bytes32",
          "name": "id",
          "type": "bytes32"
        },
        {
          "internalType": "bytes",
          "name": "msg_",
          "type": "bytes"
        }
      ],
      "name": "maker_acceptRequest",
      "outputs": [],
      "stateMutability": "nonpayable",
      "type": "function"
    },
    {
      "inputs": [
        {
          "internalType": "address",
          "name": "token",
          "type": "address"
        },
        {
          "internalType": "enum Swap2p.Side",
          "name": "s",
          "type": "uint8"
        },
        {
          "internalType": "Swap2p.FiatCode",
          "name": "f",
          "type": "uint24"
        }
      ],
      "name": "maker_deleteOffer",
      "outputs": [],
      "stateMutability": "nonpayable",
      "type": "function"
    },
    {
      "inputs": [
        {
          "internalType": "address",
          "name": "token",
          "type": "address"
        },
        {
          "internalType": "enum Swap2p.Side",
          "name": "s",
          "type": "uint8"
        },
        {
          "internalType": "Swap2p.FiatCode",
          "name": "f",
          "type": "uint24"
        },
        {
          "internalType": "uint96",
          "name": "price",
          "type": "uint96"
        },
        {
          "internalType": "uint96",
          "name": "reserve",
          "type": "uint96"
        },
        {
          "internalType": "uint128",
          "name": "minAmt",
          "type": "uint128"
        },
        {
          "internalType": "uint128",
          "name": "maxAmt",
          "type": "uint128"
        },
        {
          "components": [
            {
              "internalType": "string",
              "name": "paymentMethods",
              "type": "string"
            },
            {
              "internalType": "string",
              "name": "requirements",
              "type": "string"
            },
            {
              "internalType": "string",
              "name": "comment",
              "type": "string"
            }
          ],
          "internalType": "struct Swap2p.MakerOfferTexts",
          "name": "texts",
          "type": "tuple"
        }
      ],
      "name": "maker_makeOffer",
      "outputs": [],
      "stateMutability": "nonpayable",
      "type": "function"
    },
    {
      "inputs": [
        {
          "internalType": "bytes32",
          "name": "id",
          "type": "bytes32"
        },
        {
          "internalType": "bytes",
          "name": "msg_",
          "type": "bytes"
        }
      ],
      "name": "markFiatPaid",
      "outputs": [],
      "stateMutability": "nonpayable",
      "type": "function"
    },
    {
      "inputs": [
        {
          "internalType": "address",
          "name": "taker",
          "type": "address"
        }
      ],
      "name": "previewNextDealId",
      "outputs": [
        {
          "internalType": "bytes32",
          "name": "id",
          "type": "bytes32"
        },
        {
          "internalType": "uint64",
          "name": "nonce",
          "type": "uint64"
        }
      ],
      "stateMutability": "view",
      "type": "function"
    },
    {
      "inputs": [
        {
          "internalType": "address",
          "name": "maker",
          "type": "address"
        }
      ],
      "name": "previewNextOfferId",
      "outputs": [
        {
          "internalType": "bytes32",
          "name": "id",
          "type": "bytes32"
        },
        {
          "internalType": "uint64",
          "name": "nonce",
          "type": "uint64"
        }
      ],
      "stateMutability": "view",
      "type": "function"
    },
    {
      "inputs": [
        {
          "internalType": "bytes32",
          "name": "id",
          "type": "bytes32"
        },
        {
          "internalType": "bytes",
          "name": "msg_",
          "type": "bytes"
        }
      ],
      "name": "release",
      "outputs": [],
      "stateMutability": "nonpayable",
      "type": "function"
    },
    {
      "inputs": [
        {
          "internalType": "bytes32",
          "name": "id",
          "type": "bytes32"
        },
        {
          "internalType": "bytes",
          "name": "t",
          "type": "bytes"
        }
      ],
      "name": "sendMessage",
      "outputs": [],
      "stateMutability": "nonpayable",
      "type": "function"
    },
    {
      "inputs": [
        {
          "internalType": "string",
          "name": "nick",
          "type": "string"
        }
      ],
      "name": "setNickname",
      "outputs": [],
      "stateMutability": "nonpayable",
      "type": "function"
    },
    {
      "inputs": [
        {
          "internalType": "bool",
          "name": "on",
          "type": "bool"
        }
      ],
      "name": "setOnline",
      "outputs": [],
      "stateMutability": "nonpayable",
      "type": "function"
    },
    {
      "inputs": [
        {
          "internalType": "address",
          "name": "token",
          "type": "address"
        },
        {
          "internalType": "enum Swap2p.Side",
          "name": "s",
          "type": "uint8"
        },
        {
          "internalType": "address",
          "name": "maker",
          "type": "address"
        },
        {
          "internalType": "uint128",
          "name": "amount",
          "type": "uint128"
        },
        {
          "internalType": "Swap2p.FiatCode",
          "name": "f",
          "type": "uint24"
        },
        {
          "internalType": "uint96",
          "name": "expectedPrice",
          "type": "uint96"
        },
        {
          "internalType": "string",
          "name": "paymentMethod",
          "type": "string"
        },
        {
          "internalType": "bytes",
          "name": "paymentDetails",
          "type": "bytes"
        },
        {
          "internalType": "address",
          "name": "partner",
          "type": "address"
        }
      ],
      "name": "taker_requestOffer",
      "outputs": [],
      "stateMutability": "nonpayable",
      "type": "function"
    }
  ],
  "bytecode": "0x60a0604052348015600f57600080fd5b50604051615f72380380615f72833981016040819052602c916067565b60016000556001600160a01b03811660575760405163f79316e160e01b815260040160405180910390fd5b6001600160a01b03166080526095565b600060208284031215607857600080fd5b81516001600160a01b0381168114608e57600080fd5b9392505050565b608051615ec26100b0600039600061378d0152615ec26000f3fe608060405234801561001057600080fd5b50600436106101ac5760003560e01c806301d563f9146101b1578063167abbdc146101da5780631bc8a466146101fa5780631c5d9faa1461020f57806320ded8531461022257806323c640e71461024257806323d317a914610255578063285289eb146102685780632b9c45cb1461027b5780632f0cd5aa146102b25780632fbe2ce9146102c55780633d4d81de146102e55780633d8dfcce146102f85780633f9951aa1461031c5780634314a8e21461033c57806347437d1c1461034f5780634be974b5146103625780634bfac20c146103825780634f51e2941461039557806351a6fad5146103cb5780635ca3f31b146103eb57806364c1cfa1146103fe5780636d2a0fd01461041157806371a735c714610441578063722fe606146104545780637b05fd1d1461047d57806381cd872a1461049d5780638f658829146104c75780639af8868c146104da578063b0fa390314610503578063bd407c1e14610516578063cb34d04014610529578063ce4b8daf1461053c578063d1dd1c271461054f578063d486b7c414610562578063f05b89fe14610575575b600080fd5b6101c46101bf366004614dfb565b610588565b6040516101d19190615077565b60405180910390f35b6101ed6101e83660046150fe565b6105bd565b6040516101d19190615153565b61020d6102083660046151de565b6106d8565b005b61020d61021d366004615229565b610a78565b61023561023036600461526a565b610c6a565b6040516101d19190615283565b61020d6102503660046151de565b610dcd565b6101ed610263366004614dfb565b610dfc565b61020d610276366004615347565b610efa565b6102a46102893660046153ff565b6001600160a01b03166000908152600b602052604090205490565b6040519081526020016101d1565b61020d6102c036600461545e565b610f15565b6102d86102d33660046150fe565b6110ce565b6040516101d191906154a9565b6101ed6102f3366004614dfb565b611215565b61030b6103063660046153ff565b611323565b6040516101d19594939291906154ea565b61032f61032a366004615524565b6113f2565b6040516101d19190615559565b6101ed61034a366004614dfb565b611658565b61020d61035d3660046151de565b61174b565b61037561037036600461526a565b611b76565b6040516101d191906156fc565b61020d6103903660046151de565b611dd9565b6103be6103a33660046153ff565b6006602052600090815260409020546001600160a01b031681565b6040516101d1919061570f565b6103de6103d936600461526a565b612134565b6040516101d19190615723565b6102a46103f9366004615736565b612472565b61020d61040c3660046151de565b61249c565b61042461041f3660046153ff565b612617565b604080519283526001600160401b039091166020830152016101d1565b61042461044f3660046153ff565b612678565b6102a46104623660046153ff565b6001600160a01b03166000908152600d602052604090205490565b61049061048b3660046150fe565b6126a7565b6040516101d19190615779565b6104b06104ab36600461526a565b6126ee565b6040516101d19b9a999897969594939291906157d2565b6104906104d5366004615736565b612810565b6102a46104e83660046153ff565b6001600160a01b03166000908152600f602052604090205490565b61020d61051136600461587f565b612861565b6101c4610524366004614dfb565b6128d6565b61020d610537366004615736565b612901565b61049061054a366004614dfb565b612ab3565b61020d61055d3660046158a1565b612ae6565b6102a461057036600461598a565b612c37565b61020d6105833660046151de565b612cb7565b606081156105b6576001600160a01b0384166000908152600f602052604090206105b3908484612e48565b90505b9392505050565b60606000600960006105d0898989613304565b81526020810191909152604001600020805490915080851015806105f2575083155b156105fe5750506106cf565b600061060a85876159f4565b90508581108061061957508181115b156106215750805b600061062d8783615a0d565b9050806001600160401b0381111561064757610647615a20565b604051908082528060200260200182016040528015610670578160200160208202803683370190505b50945060005b818110156106c95784610689828a6159f4565b8154811061069957610699615a36565b90600052602060002001548682815181106106b6576106b6615a36565b6020908102919091010152600101610676565b50505050505b95945050505050565b6106e061333a565b336000908152600760209081526040808320805464ffffffffff19164264ffffffffff161790558583526002909152902060038154600160f81b900460ff16600581111561073057610730614e48565b1461074e57604051636f20b45d60e11b815260040160405180910390fd5b600060018083015460ff169081111561076957610769614e48565b148015610783575060028101546001600160a01b03163314155b806107c3575060018181015460ff16818111156107a2576107a2614e48565b1480156107c357506001810154600160581b90046001600160a01b03163314155b156107e15760405163068690bf60e11b815260040160405180910390fd5b81156107f4576107f48484846004613364565b80546001600160f81b0316600160fa1b17815560018101805464ffffffffff60301b1916600160301b4264ffffffffff1602179081905561084590600160581b90046001600160a01b0316856135bd565b600281015461085d906001600160a01b0316856135bd565b60018101546002820154610885916001600160a01b03600160581b9091048116911686613651565b600181810154600160581b90046001600160a01b0316600090815260076020526040902080546009906108c3908490600160481b900460030b615a4c565b825463ffffffff9182166101009390930a92830291909202199091161790555060028101546001600160a01b0316600090815260076020526040902080546001919060099061091d908490600160481b900460030b615a4c565b92506101000a81548163ffffffff021916908360030b63ffffffff160217905550600080600181111561095257610952614e48565b60018084015460ff169081111561096b5761096b614e48565b146109835760028201546001600160a01b0316610999565b6001820154600160581b90046001600160a01b03165b60038301546002840154600185015485549394506109dd936001600160a01b039384169392831692600160581b9092049091169085906001600160801b0316613665565b600382015460028301548354610a09926001600160a01b039081169216906001600160801b03166137be565b600382015460018301548354610a3c926001600160a01b0390811692600160581b900416906001600160801b03166137be565b60405185907f7fd4245b0f72acadc4c87701af2ae8b00ba2adeef4b3e209897df6cef0426bee90600090a25050610a736001600055565b505050565b336000908152600760209081526040808320805464ffffffffff19164264ffffffffff161781558151601f86018490048402810184019092528482529291859085908190840183828082843760009201829052506001870180549596509094909350610ae692509050615a73565b80601f0160208091040260200160405190810160405280929190818152602001828054610b1290615a73565b8015610b5f5780601f10610b3457610100808354040283529160200191610b5f565b820191906000526020600020905b815481529060010190602001808311610b4257829003601f168201915b505050505090508151600003610bba57805115610bb35780516020808301919091206000818152600883526040808220805460ff19169055805193840190528252906001850190610bb09082615b09565b50505b5050505050565b81516020830120815115610bde5780828051906020012003610bde57505050505050565b60008181526008602052604090205460ff1615610c0e57604051637ec9752560e01b815260040160405180910390fd5b6000818152600860205260409020805460ff191660019081179091558401610c37868883615bc1565b50815115610c615781516020808401919091206000908152600890915260409020805460ff191690555b505050505b5050565b606060026000838152602001908152602001600020600501805480602002602001604051908101604052809291908181526020016000905b82821015610dc2576000848152602090819020604080516080810190915260028502909101805464ffffffffff811683529192909190830190600160281b900460ff166005811115610cf657610cf6614e48565b6005811115610d0757610d07614e48565b81528154600160301b900460ff1615156020820152600182018054604090920191610d3190615a73565b80601f0160208091040260200160405190810160405280929190818152602001828054610d5d90615a73565b8015610daa5780601f10610d7f57610100808354040283529160200191610daa565b820191906000526020600020905b815481529060010190602001808311610d8d57829003601f168201915b50505050508152505081526020019060010190610ca2565b505050509050919050565b336000908152600760205260409020805464ffffffffff19164264ffffffffff16179055610a738383836137f1565b6001600160a01b0383166000908152600f60205260409020805460609190808510610e285750506105b6565b6000610e3485876159f4565b905085811080610e4357508181115b15610e4b5750805b610e558682615a0d565b6001600160401b03811115610e6c57610e6c615a20565b604051908082528060200260200182016040528015610e95578160200160208202803683370190505b509350855b81811015610eef57838181548110610eb457610eb4615a36565b9060005260206000200154858883610ecc9190615a0d565b81518110610edc57610edc615a36565b6020908102919091010152600101610e9a565b505050509392505050565b610f0b3389898989898989896137fe565b5050505050505050565b6030811015610f3757604051636f20b45d60e11b815260040160405180910390fd5b6000610f4582610e10615c7a565b90508260005b81811015610c61576000868683818110610f6757610f67615a36565b60209081029290920135600081815260029093526040909220805492935091600160f81b900460ff1690506004816005811115610fa657610fa6614e48565b14158015610fc657506005816005811115610fc357610fc3614e48565b14155b15610fd3575050506110c6565b60018201548690610ff290600160301b900464ffffffffff1642615a0d565b1015611000575050506110c6565b600180830154600280850154600087815260208390526040812081815594850180546001600160f81b031916905591840180546001600160a01b031990811690915560038501805490911690556001600160a01b03600160581b909304831693921691906110716004830182614c4a565b61107f600583016000614c87565b505061108b8286613a2a565b6110958186613a2a565b60405185907f5dfd3d3075c6a14eb1287a8fa566b2a067908e976de63c0f9f4a5246f82a485290600090a250505050505b600101610f4b565b60606000600960006110e1898989613304565b8152602081019190915260400160002080549091508085101580611103575083155b1561110f5750506106cf565b600061111b85876159f4565b90508581108061112a57508181115b156111325750805b600061113e8783615a0d565b9050806001600160401b0381111561115857611158615a20565b604051908082528060200260200182016040528015611181578160200160208202803683370190505b50945060005b818110156106c95760006001818761119f858d6159f4565b815481106111af576111af615a36565b9060005260206000200154815260200190815260200160002090508060030160009054906101000a90046001600160a01b03168783815181106111f4576111f4615a36565b6001600160a01b039092166020928302919091019091015250600101611187565b6001600160a01b0383166000908152600b602052604090208054606091908085101580611240575083155b1561124c5750506105b6565b600061125885876159f4565b90508581108061126757508181115b1561126f5750805b600061127b8783615a0d565b9050806001600160401b0381111561129557611295615a20565b6040519080825280602002602001820160405280156112be578160200160208202803683370190505b50945060005b8181101561131757846112d7828a6159f4565b815481106112e7576112e7615a36565b906000526020600020015486828151811061130457611304615a36565b60209081029190910101526001016112c4565b50505050509392505050565b6007602052600090815260409020805460018201805464ffffffffff831693600160281b8404600390810b94600160481b810490910b93600160681b90910460ff169261136f90615a73565b80601f016020809104026020016040519081016040528092919081815260200182805461139b90615a73565b80156113e85780601f106113bd576101008083540402835291602001916113e8565b820191906000526020600020905b8154815290600101906020018083116113cb57829003601f168201915b5050505050905085565b606081806001600160401b0381111561140d5761140d615a20565b60405190808252806020026020018201604052801561146857816020015b6040805160a081018252600080825260208083018290529282018190526060808301919091526080820152825260001990920191018161142b5790505b50915060005b818110156116505760006007600087878581811061148e5761148e615a36565b90506020020160208101906114a391906153ff565b6001600160a01b03168152602081019190915260400160002080548551919250600160681b900460ff16908590849081106114e0576114e0615a36565b60209081029190910101519015156060909101528054845164ffffffffff9091169085908490811061151457611514615a36565b602090810291909101015164ffffffffff909116905260018101805461153990615a73565b80601f016020809104026020016040519081016040528092919081815260200182805461156590615a73565b80156115b25780601f10611587576101008083540402835291602001916115b2565b820191906000526020600020905b81548152906001019060200180831161159557829003601f168201915b50505050508483815181106115c9576115c9615a36565b60209081029190910101516080015280548451600160281b90910460030b908590849081106115fa576115fa615a36565b602090810291909101810151600392830b91015281548551600160481b90910490910b9085908490811061163057611630615a36565b602090810291909101015160039190910b6040909101525060010161146e565b505092915050565b6001600160a01b0383166000908152600d602052604090208054606091908085106116845750506105b6565b600061169085876159f4565b90508581108061169f57508181115b156116a75750805b6116b18682615a0d565b6001600160401b038111156116c8576116c8615a20565b6040519080825280602002602001820160405280156116f1578160200160208202803683370190505b509350855b81811015610eef5783818154811061171057611710615a36565b90600052602060002001548588836117289190615a0d565b8151811061173857611738615a36565b60209081029190910101526001016116f6565b61175361333a565b336000908152600760209081526040808320805464ffffffffff19164264ffffffffff16179055858352600291829052909120908154600160f81b900460ff1660058111156117a4576117a4614e48565b146117c257604051636f20b45d60e11b815260040160405180910390fd5b6001810154600160581b90046001600160a01b0316330361181c5760005b60018083015460ff16908111156117f9576117f9614e48565b146118175760405163153c8df760e31b815260040160405180910390fd5b611850565b60028101546001600160a01b031633036118375760016117e0565b60405163068690bf60e11b815260040160405180910390fd5b8115611863576118638484846005613364565b80546001600160f81b0316600560f81b1781556001808201805464ffffffffff4216600160301b0264ffffffffff60301b19821681179283905560038501546001600160a01b039081166000908152600460209081526040808320600160581b90970490931682529490945283209293849260ff928316921691909117908111156118f0576118f0614e48565b600181111561190157611901614e48565b8152602080820192909252604090810160009081208554600160e01b900462ffffff168252909252902054905080156119ad57600081815260016020819052604090912090810154600160c01b900463ffffffff16156119ab5782546001820180546001600160801b03909216916000906119869084906001600160601b0316615c91565b92506101000a8154816001600160601b0302191690836001600160601b031602179055505b505b60018201546119cc90600160581b90046001600160a01b0316866135bd565b60028201546119e4906001600160a01b0316866135bd565b600060018084015460ff16908111156119ff576119ff614e48565b03611a745760038201546002808401548454611a3c936001600160a01b0390811693921691611a37916001600160801b031690615cb0565b6137be565b600382015460018301548354611a6f926001600160a01b0390811692600160581b900416906001600160801b03166137be565b611ad9565b600382015460028301548354611aa0926001600160a01b039081169216906001600160801b03166137be565b600382015460018301548354611ad9926001600160a01b0390811692600160581b90041690611a37906001600160801b03166002615cb0565b60018201546002830154611b01916001600160a01b03600160581b9091048116911687613651565b336000908152600760205260409020805460019190600590611b2e908490600160281b900460030b615a4c565b92506101000a81548163ffffffff021916908360030b63ffffffff16021790555084600080516020615e6d83398151915260405160405180910390a25050610a736001600055565b611b7e614ca8565b60008281526001602081905260408220908101549091600160c01b90910463ffffffff169003611bc157604051636df5846d60e01b815260040160405180910390fd5b82825260038101546001600160a01b0316602080840191909152604080516101608101825283546001600160801b038082168352600160801b90910416928101929092526001808401546001600160601b0380821693850193909352600160601b81049092166060840152600160c01b820463ffffffff166080840152600160e01b820462ffffff1660a0840152839160c0840191600160f81b90910460ff1690811115611c7157611c71614e48565b6001811115611c8257611c82614e48565b815260028201546001600160a01b0390811660208301526003830154166040820152600482018054606090920191611cb990615a73565b80601f0160208091040260200160405190810160405280929190818152602001828054611ce590615a73565b8015611d325780601f10611d0757610100808354040283529160200191611d32565b820191906000526020600020905b815481529060010190602001808311611d1557829003601f168201915b50505050508152602001600582018054611d4b90615a73565b80601f0160208091040260200160405190810160405280929190818152602001828054611d7790615a73565b8015611dc45780601f10611d9957610100808354040283529160200191611dc4565b820191906000526020600020905b815481529060010190602001808311611da757829003601f168201915b50505091909252505050604083015250919050565b611de161333a565b336000818152600760209081526040808320805464ffffffffff421664ffffffffff199091161790558683526002909152902060018101549091600160581b9091046001600160a01b031614801590611e47575060028101546001600160a01b03163314155b15611e655760405163068690bf60e11b815260040160405180910390fd5b60018154600160f81b900460ff166005811115611e8457611e84614e48565b14611ea257604051636f20b45d60e11b815260040160405180910390fd5b8115611eb557611eb58484846005613364565b80546001600160f81b0316600560f81b17815560018101805464ffffffffff60301b1916600160301b4264ffffffffff16021790819055611f0690600160581b90046001600160a01b0316856135bd565b6002810154611f1e906001600160a01b0316856135bd565b60038101546001600160a01b039081166000908152600460209081526040808320600180870154600160581b81049096168552925282209192839160ff90911690811115611f6e57611f6e614e48565b6001811115611f7f57611f7f614e48565b8152602080820192909252604090810160009081208554600160e01b900462ffffff1682529092529020549050801561202b57600081815260016020819052604090912090810154600160c01b900463ffffffff16156120295782546001820180546001600160801b03909216916000906120049084906001600160601b0316615c91565b92506101000a8154816001600160601b0302191690836001600160601b031602179055505b505b60008060018085015460ff169081111561204757612047614e48565b1461205c5782546001600160801b0316612072565b8254612072906001600160801b03166002615cb0565b60038401546002850154919250612096916001600160a01b039182169116836137be565b600183015460028401546120be916001600160a01b03600160581b9091048116911688613651565b3360009081526007602052604090208054600191906005906120eb908490600160281b900460030b615a4c565b92506101000a81548163ffffffff021916908360030b63ffffffff16021790555085600080516020615e6d83398151915260405160405180910390a2505050610a736001600055565b61213c614d20565b6000828152600260205260408120908154600160f81b900460ff16600581111561216857612168614e48565b036121865760405163223da47360e21b815260040160405180910390fd5b828252604080516101808101825282546001600160801b0381168252600160801b81046001600160601b03166020830152600160e01b810462ffffff16928201929092529082906060830190600160f81b900460ff1660058111156121ed576121ed614e48565b60058111156121fe576121fe614e48565b815260018281015460209092019160ff169081111561221f5761221f614e48565b600181111561223057612230614e48565b8152600182015464ffffffffff610100820481166020840152600160301b82041660408301526001600160a01b03600160581b9091048116606083015260028301548116608083015260038301541660a082015260048201805460c09092019161229990615a73565b80601f01602080910402602001604051908101604052809291908181526020018280546122c590615a73565b80156123125780601f106122e757610100808354040283529160200191612312565b820191906000526020600020905b8154815290600101906020018083116122f557829003601f168201915b5050505050815260200160058201805480602002602001604051908101604052809291908181526020016000905b82821015612460576000848152602090819020604080516080810190915260028502909101805464ffffffffff811683529192909190830190600160281b900460ff16600581111561239457612394614e48565b60058111156123a5576123a5614e48565b81528154600160301b900460ff16151560208201526001820180546040909201916123cf90615a73565b80601f01602080910402602001604051908101604052809291908181526020018280546123fb90615a73565b80156124485780601f1061241d57610100808354040283529160200191612448565b820191906000526020600020905b81548152906001019060200180831161242b57829003601f168201915b50505050508152505081526020019060010190612340565b50505091525050602083015250919050565b600060096000612483868686613304565b8152602081019190915260400160002054949350505050565b336000908152600760209081526040808320805464ffffffffff19164264ffffffffff16179055858352600291829052909120908154600160f81b900460ff1660058111156124ed576124ed614e48565b1461250b57604051636f20b45d60e11b815260040160405180910390fd5b600060018083015460ff169081111561252657612526614e48565b14801561254757506001810154600160581b90046001600160a01b03163314155b80612580575060018181015460ff168181111561256657612566614e48565b148015612580575060028101546001600160a01b03163314155b1561259e576040516330698c3d60e01b815260040160405180910390fd5b80546001600160f81b0316600360f81b17815560018101805464ffffffffff60301b1916600160301b4264ffffffffff160217905560405184907fb30095b0d687bb11974087f374f985f2ff4f7b4f9900e31d32f699d416e2213b90600090a28115612611576126118484846003613364565b50505050565b6001600160a01b0381166000908152600560205260408120548190612646906001600160401b03166001615cd9565b9050828160405160200161265b929190615cf8565b604051602081830303815290604052805190602001209150915091565b6001600160a01b0381166000908152600360205260408120548190612646906001600160401b03166001615cd9565b60606000600960006126ba898989613304565b81526020019081526020016000209050826000036126d857506106cf565b6126e3818585613b56565b979650505050505050565b6002602081905260009182526040909120805460018201549282015460038301546004840180546001600160801b038516966001600160601b03600160801b8704169662ffffff600160e01b8804169660ff600160f81b9091048116969083169564ffffffffff6101008504811696600160301b8604909116956001600160a01b03600160581b90960486169593841694929093169261278d90615a73565b80601f01602080910402602001604051908101604052809291908181526020018280546127b990615a73565b80156128065780601f106127db57610100808354040283529160200191612806565b820191906000526020600020905b8154815290600101906020018083116127e957829003601f168201915b505050505090508b565b6060600060096000612823878787613304565b815260200190815260200160002090506000818054905090508060000361284b5750506105b6565b61285782600083613b56565b9695505050505050565b33600081815260076020526040908190208054841515600160681b0264ffffffffff60ff60681b011990911664ffffffffff421617179055517fbf7433268f9e84553144e23f130bdb514d559f991d19288c0e6d0ad00440636e906128cb90841515815260200190565b60405180910390a250565b606081156105b6576001600160a01b0384166000908152600d602052604090206105b3908484612e48565b6001600160a01b038316600090815260046020908152604080832033845290915281208184600181111561293757612937614e48565b600181111561294857612948614e48565b81526020808201929092526040908101600090812062ffffff8616825290925290205490508015612a8257600081815260016020819052604090912090810154600160c01b900463ffffffff1615612a165760006129a7868686613304565b90506129b38184613f19565b6129bd3384614012565b600083815260016020819052604082208281559081018290556002810180546001600160a01b0319908116909155600382018054909116905590612a046004830182614c4a565b612a12600583016000614c4a565b5050505b6001600160a01b0385166000908152600460209081526040808320338452909152812090856001811115612a4c57612a4c614e48565b6001811115612a5d57612a5d614e48565b81526020808201929092526040908101600090812062ffffff87168252909252812055505b60405181907f233d1d5c74ac8791f0673668c3df846ed7254243dc50ce621d05653f5c64b58790600090a250505050565b6001600160a01b0383166000908152600b60205260408120606091839003612adb57506105b6565b6106cf818585613b56565b612aee61333a565b336000818152600760205260408120805464ffffffffff19164264ffffffffff16179055612b238d8d8d858e8e8e8e8e61413f565b9050612b2f8b826145f5565b612b3982826145f5565b6001600160a01b0382811660009081526006602052604090205416158015612b6957506001600160a01b03831615155b8015612b875750816001600160a01b0316836001600160a01b031614155b15612be0576001600160a01b0382811660008181526006602052604080822080546001600160a01b0319169488169485179055517f886a0b64a7b66700b649d5a86a5f42688ff2fb3d578fffdbd20d5c0236073e349190a35b8315612bf357612bf38186866001613364565b60405181907f0962211fdd8bae00324df1e7f067e248569f92820b635d0dc5c6f5801f01e8fb90600090a25050612c2a6001600055565b5050505050505050505050565b6001600160a01b038085166000908152600460209081526040808320938716835292905290812081846001811115612c7157612c71614e48565b6001811115612c8257612c82614e48565b815260200190815260200160002060008362ffffff1662ffffff1681526020019081526020016000205490505b949350505050565b612cbf61333a565b336000818152600760209081526040808320805464ffffffffff421664ffffffffff199091161790558683526002909152902060018101549091600160581b9091046001600160a01b031614612d285760405163068690bf60e11b815260040160405180910390fd5b60018154600160f81b900460ff166005811115612d4757612d47614e48565b14612d6557604051636f20b45d60e11b815260040160405180910390fd5b60008060018084015460ff1690811115612d8157612d81614e48565b14612da1578154612d9c906001600160801b03166002615cb0565b612dad565b81546001600160801b03165b6003830154909150612dc9906001600160a01b0316338361465e565b81546001600160f81b0316600160f91b17825560018201805464ffffffffff60301b1916600160301b4264ffffffffff160217905560405185907f92b2020aad33d0e9762dc13240d6871c7d105bf5580e3cdd3b1753c5d850fecf90600090a28215612e3c57612e3c8585856002613364565b5050610a736001600055565b82546060908084101580612e5a575082155b15612e6557506105b6565b6000612e7184866159f4565b905084811080612e8057508181115b15612e885750805b6000855b82811015612f19576000600260008a8481548110612eac57612eac615a36565b90600052602060002001548152602001908152602001600020905060006005811115612eda57612eda614e48565b8154600160f81b900460ff166005811115612ef757612ef7614e48565b03612f025750612f11565b82612f0c81615d22565b935050505b600101612e8c565b50806001600160401b03811115612f3257612f32615a20565b604051908082528060200260200182016040528015612f6b57816020015b612f58614d20565b815260200190600190039081612f505790505b5093506000865b83811015611317576000898281548110612f8e57612f8e615a36565b6000918252602080832090910154808352600290915260408220909250908154600160f81b900460ff166005811115612fc957612fc9614e48565b03612fd55750506132fc565b604080516101808101825282546001600160801b0381168252600160801b81046001600160601b03166020830152600160e01b810462ffffff169282019290925260009183906060830190600160f81b900460ff16600581111561303b5761303b614e48565b600581111561304c5761304c614e48565b815260018281015460209092019160ff169081111561306d5761306d614e48565b600181111561307e5761307e614e48565b8152600182015464ffffffffff610100820481166020840152600160301b82041660408301526001600160a01b03600160581b9091048116606083015260028301548116608083015260038301541660a082015260048201805460c0909201916130e790615a73565b80601f016020809104026020016040519081016040528092919081815260200182805461311390615a73565b80156131605780601f1061313557610100808354040283529160200191613160565b820191906000526020600020905b81548152906001019060200180831161314357829003601f168201915b5050505050815260200160058201805480602002602001604051908101604052809291908181526020016000905b828210156132ae576000848152602090819020604080516080810190915260028502909101805464ffffffffff811683529192909190830190600160281b900460ff1660058111156131e2576131e2614e48565b60058111156131f3576131f3614e48565b81528154600160301b900460ff161515602082015260018201805460409092019161321d90615a73565b80601f016020809104026020016040519081016040528092919081815260200182805461324990615a73565b80156132965780601f1061326b57610100808354040283529160200191613296565b820191906000526020600020905b81548152906001019060200180831161327957829003601f168201915b5050505050815250508152602001906001019061318e565b505050508152505090506040518060400160405280848152602001828152508986815181106132df576132df615a36565b602002602001018190525084806132f590615d22565b9550505050505b600101612f72565b600083838360405160200161331b93929190615d3b565b6040516020818303038152906040528051906020012090509392505050565b60026000540361335d57604051633ee5aeb560e01b815260040160405180910390fd5b6002600055565b60008481526002602052604090206001810154600160581b90046001600160a01b031633148015906133a3575060028101546001600160a01b03163314155b156133c15760405163068690bf60e11b815260040160405180910390fd5b8054600160f81b900460ff1660018160058111156133e1576133e1614e48565b14158015613401575060028160058111156133fe576133fe614e48565b14155b801561341f5750600381600581111561341c5761341c614e48565b14155b1561343d57604051636f20b45d60e11b815260040160405180910390fd5b600282015460408051608081019091524264ffffffffff1681526001600160a01b039091163314908490600580860191906020820190849081111561348457613484614e48565b8152602001841515815260200189898080601f016020809104026020016040519081016040528093929190818152602001838380828437600092018290525093909452505083546001810185559381526020908190208351600290950201805464ffffffffff19811664ffffffffff909616958617825591840151939490939250839165ffffffffffff191617600160281b83600581111561352857613528614e48565b021790555060408201518154901515600160301b0260ff60301b199091161781556060820151600182019061355d9082615b09565b505050600584015460009061357490600190615a0d565b60405163ffffffff8216815290915089907f0aa69bf4e1ee8d115f11a2eb28f4ed7afff601626aac3e1bb0108fb828ff032c9060200160405180910390a2505050505050505050565b6001600160a01b03821660009081526010602090815260408083208484529091528120549003610c66576001600160a01b0382166000908152600f602052604090205461360b9060016159f4565b6001600160a01b0383166000818152601060209081526040808320868452825280832094909455918152600f825291822080546001810182559083529120018190555050565b61365b83826147a8565b610a7382826147a8565b600061271061367e60326001600160801b038516615c7a565b6136889190615d6b565b90506136998684611a378486615d8d565b6001600160a01b03808616600090815260066020526040812054839216908115613708576127106136d56107d06001600160801b038716615c7a565b6136df9190615d6b565b90506001600160801b03811615613708576136fb8983836137be565b6137058184615d8d565b92505b6001600160a01b03808816600090815260066020526040902054168015613778576000612710613743610bb86001600160801b038916615c7a565b61374d9190615d6b565b90506001600160801b03811615613776576137698b83836137be565b6137738186615d8d565b94505b505b6001600160801b038416156137b2576137b28a7f0000000000000000000000000000000000000000000000000000000000000000866137be565b50505050505050505050565b806001600160801b03166000036137d457505050565b610a736001600160a01b038416836001600160801b0384166148d4565b610a738383836000613364565b600061380c898b8a8a614933565b9050600060016000838152602001908152602001600020905060008160010160189054906101000a900463ffffffff1663ffffffff166000149050858260000160006101000a8154816001600160801b0302191690836001600160801b03160217905550848260000160106101000a8154816001600160801b0302191690836001600160801b03160217905550868260010160006101000a8154816001600160601b0302191690836001600160601b031602179055508782600101600c6101000a8154816001600160601b0302191690836001600160601b031602179055508882600101601c6101000a81548162ffffff021916908362ffffff160217905550428260010160186101000a81548163ffffffff021916908363ffffffff1602179055508982600101601f6101000a81548160ff0219169083600181111561395557613955614e48565b02179055506002820180546001600160a01b03808e166001600160a01b031992831617909255600384018054928f16929091169190911790556139988480615dac565b60048401916139a8919083615bc1565b506139b66020850185615dac565b60058401916139c6919083615bc1565b5060006139d48c8c8c613304565b905081156139f0576139e68185614a9b565b6139f08d85614b0a565b60405184907f9b8f1594adb3b8420f8f64c7991ec1a6d7f8e27097a5d85f85bb0c0f9b5ad96290600090a250505050505050505050505050565b6001600160a01b038216600090815260106020908152604080832084845290915281205490819003613a5b57505050565b6000613a68600183615a0d565b6001600160a01b0385166000908152600f60205260408120805492935091613a9290600190615a0d565b9050808314613b01576000828281548110613aaf57613aaf615a36565b9060005260206000200154905080838581548110613acf57613acf615a36565b60009182526020808320909101929092556001600160a01b038916815260108252604080822093825292909152208490555b81805480613b1157613b11615df2565b6000828152602080822083016000199081018390559092019092556001600160a01b039097168152601087526040808220968252959096525050509082209190915550565b82546060908084101580613b68575082155b15613b7357506105b6565b6000613b7f84866159f4565b905084811080613b8e57508181115b15613b965750805b6000855b82811015613c0e576000888281548110613bb657613bb6615a36565b60009182526020808320919091015480835260019182905260408320918201549093509091600160c01b90910463ffffffff169003613bf6575050613c06565b83613c0081615d22565b94505050505b600101613b9a565b50806001600160401b03811115613c2757613c27615a20565b604051908082528060200260200182016040528015613c6057816020015b613c4d614ca8565b815260200190600190039081613c455790505b5093506000865b83811015611317576000898281548110613c8357613c83615a36565b60009182526020808320919091015480835260019182905260408320918201549093509091600160c01b90910463ffffffff169003613cc3575050613f11565b604080516101608101825282546001600160801b038082168352600160801b9091041660208201526001808401546001600160601b0380821694840194909452600160601b81049093166060830152600160c01b830463ffffffff166080830152600160e01b830462ffffff1660a0830152600092849160c0840191600160f81b900460ff1690811115613d5957613d59614e48565b6001811115613d6a57613d6a614e48565b815260028201546001600160a01b0390811660208301526003830154166040820152600482018054606090920191613da190615a73565b80601f0160208091040260200160405190810160405280929190818152602001828054613dcd90615a73565b8015613e1a5780601f10613def57610100808354040283529160200191613e1a565b820191906000526020600020905b815481529060010190602001808311613dfd57829003601f168201915b50505050508152602001600582018054613e3390615a73565b80601f0160208091040260200160405190810160405280929190818152602001828054613e5f90615a73565b8015613eac5780601f10613e8157610100808354040283529160200191613eac565b820191906000526020600020905b815481529060010190602001808311613e8f57829003601f168201915b5050509190925250506040805160608101825286815260038601546001600160a01b031660208201529081018390528b51929350918b915087908110613ef457613ef4615a36565b60200260200101819052508480613f0a90615d22565b9550505050505b600101613c67565b6000828152600a60209081526040808320848452918290528220549091819003613f435750505050565b600084815260096020526040812090613f5d600184615a0d565b8254909150600090613f7190600190615a0d565b9050808214613fcd576000838281548110613f8e57613f8e615a36565b9060005260206000200154905080848481548110613fae57613fae615a36565b6000918252602080832090910192909255918252869052604090208490555b82805480613fdd57613fdd615df2565b600190038181906000526020600020016000905590558460008781526020019081526020016000206000905550505050505050565b6001600160a01b0382166000908152600c602090815260408083208484529091528120549081900361404357505050565b6001600160a01b0383166000908152600b6020526040812090614067600184615a0d565b825490915060009061407b90600190615a0d565b90508082146140ea57600083828154811061409857614098615a36565b90600052602060002001549050808484815481106140b8576140b8615a36565b60009182526020808320909101929092556001600160a01b0389168152600c8252604080822093825292909152208490555b828054806140fa576140fa615df2565b6000828152602080822083016000199081018390559092019092556001600160a01b039097168152600c87526040808220968252959096525050509082209190915550565b6001600160a01b03808a166000908152600460209081526040808320938b1683529290529081208190818b600181111561417b5761417b614e48565b600181111561418c5761418c614e48565b81526020808201929092526040908101600090812062ffffff8a1682528352818120548082526001909352206003810154919250906001600160a01b038b81169116146141ec57604051636df5846d60e01b815260040160405180910390fd5b6001600160a01b038a16600090815260076020526040902054600160681b900460ff1661422c5760405163a1231e1f60e01b815260040160405180910390fd5b60008b600181111561424057614240614e48565b036142825760018101546001600160601b03808816600160601b90920416101561427d57604051630bb46cf960e11b815260040160405180910390fd5b6142ba565b60018101546001600160601b03808816600160601b9092041611156142ba57604051630bb46cf960e11b815260040160405180910390fd5b80546001600160801b0390811690891610806142ea575080546001600160801b03600160801b9091048116908916115b15614308576040516327466a8f60e11b815260040160405180910390fd5b60018101546001600160601b03808a1691161015614339576040516328b35f2160e01b815260040160405180910390fd5b6001810180548991906000906143599084906001600160601b0316615e08565b92506101000a8154816001600160601b0302191690836001600160601b03160217905550600080600181111561439157614391614e48565b8c60018111156143a3576143a3614e48565b146143ae57886143b9565b6143b9896002615cb0565b90506143c68d8b8361465e565b6001600160a01b038a166000908152600560205260408120805482906143f4906001600160401b0316615e27565b91906101000a8154816001600160401b0302191690836001600160401b03160217905590508a8160405160200161442c929190615cf8565b60408051808303601f19018152918152815160209283012060008181526002909352912080546001600160801b031981166001600160801b038e1690811783556001878101546001600160e01b0319909316909117600160601b9092046001600160601b0316600160801b0291909117808355929750909142919083906001600160f81b0316600160f81b8302179055508e8260010160006101000a81548160ff021916908360018111156144e3576144e3614e48565b02179055508d82600101600b6101000a8154816001600160a01b0302191690836001600160a01b031602179055508c8260020160006101000a8154816001600160a01b0302191690836001600160a01b031602179055508a82600001601c6101000a81548162ffffff021916908362ffffff160217905550808260010160016101000a81548164ffffffffff021916908364ffffffffff160217905550808260010160066101000a81548164ffffffffff021916908364ffffffffff1602179055508f8260030160006101000a8154816001600160a01b0302191690836001600160a01b0316021790555088888360040191826145e1929190615bc1565b505050505050509998505050505050505050565b6001600160a01b0382166000908152600d60205260409020546146199060016159f4565b6001600160a01b039092166000818152600e60209081526040808320858452825280832095909555918152600d82529283208054600181018255908452922090910155565b806001600160801b031660000361467457505050565b6040516370a0823160e01b81526000906001600160a01b038516906370a08231906146a390309060040161570f565b602060405180830381865afa1580156146c0573d6000803e3d6000fd5b505050506040513d601f19601f820116820180604052508101906146e49190615e53565b90506147046001600160a01b03851684306001600160801b038616614ba0565b6040516370a0823160e01b81526000906001600160a01b038616906370a082319061473390309060040161570f565b602060405180830381865afa158015614750573d6000803e3d6000fd5b505050506040513d601f19601f820116820180604052508101906147749190615e53565b90506001600160801b03831661478a8383615a0d565b14610bb357604051631033736160e11b815260040160405180910390fd5b6001600160a01b0382166000908152600e60209081526040808320848452909152812054908190036147d957505050565b60006147e6600183615a0d565b6001600160a01b0385166000908152600d6020526040812080549293509161481090600190615a0d565b905080831461487f57600082828154811061482d5761482d615a36565b906000526020600020015490508083858154811061484d5761484d615a36565b60009182526020808320909101929092556001600160a01b0389168152600e8252604080822093825292909152208490555b8180548061488f5761488f615df2565b6000828152602080822083016000199081018390559092019092556001600160a01b039097168152600e87526040808220968252959096525050509082209190915550565b6040516001600160a01b03838116602483015260448201839052610a7391859182169063a9059cbb906064015b604051602081830303815290604052915060e01b6020820180516001600160e01b038381831617835250505050614bd9565b6001600160a01b03808516600090815260046020908152604080832093871683529290529081208184600181111561496d5761496d614e48565b600181111561497e5761497e614e48565b81526020808201929092526040908101600090812062ffffff86168252909252902054905080612caf576001600160a01b0384166000908152600360205260408120805482906149d6906001600160401b0316615e27565b91906101000a8154816001600160401b0302191690836001600160401b03160217905590508481604051602001614a0e929190615cf8565b60408051601f1981840301815291815281516020928301206001600160a01b03808a16600090815260048552838120918a16815293529082209093508391866001811115614a5e57614a5e614e48565b6001811115614a6f57614a6f614e48565b81526020808201929092526040908101600090812062ffffff8816825290925290205550949350505050565b6000828152600a60209081526040808320848452918290529091205415614ac157505050565b600083815260096020526040902054614adb9060016159f4565b600083815260209283526040808220929092559384526009825283208054600181018255908452922090910155565b6001600160a01b0382166000908152600c6020908152604080832084845290915290205415614b37575050565b6001600160a01b0382166000908152600b6020526040902054614b5b9060016159f4565b6001600160a01b039092166000818152600c60209081526040808320858452825280832095909555918152600b82529283208054600181018255908452922090910155565b6040516001600160a01b0384811660248301528381166044830152606482018390526126119186918216906323b872dd90608401614901565b600080602060008451602086016000885af180614bfc576040513d6000823e3d81fd5b50506000513d91508115614c14578060011415614c21565b6001600160a01b0384163b155b156126115783604051635274afe760e01b8152600401614c41919061570f565b60405180910390fd5b508054614c5690615a73565b6000825580601f10614c66575050565b601f016020900490600052602060002090810190614c849190614d98565b50565b5080546000825560020290600052602060002090810190614c849190614db1565b6040805160608101825260008082526020820152908101614d1b6040805161016081018252600080825260208201819052918101829052606081018290526080810182905260a081018290529060c082019081526000602082018190526040820152606080820181905260809091015290565b905290565b604080518082019091526000815260208101614d1b60408051610180810182526000808252602082018190529181018290529060608201908152602001600081526000602082018190526040820181905260608083018290526080830182905260a083019190915260c0820181905260e09091015290565b5b80821115614dad5760008155600101614d99565b5090565b80821115614dad57805466ffffffffffffff191681556000614dd66001830182614c4a565b50600201614db1565b80356001600160a01b0381168114614df657600080fd5b919050565b600080600060608486031215614e1057600080fd5b614e1984614ddf565b95602085013595506040909401359392505050565b6001600160801b03169052565b6001600160601b03169052565b634e487b7160e01b600052602160045260246000fd5b60068110614e6e57614e6e614e48565b9052565b60028110614e6e57614e6e614e48565b6001600160a01b03169052565b6000815180845260005b81811015614eb557602081850181015186830182015201614e99565b506000602082860101526020601f19601f83011685010191505092915050565b600082825180855260208501945060208160051b8301016020850160005b83811015614f6257601f19858403018852815164ffffffffff81511684526020810151614f236020860182614e5e565b506040810151151560408501526060810151905060806060850152614f4b6080850182614e8f565b6020998a0199909450929092019150600101614ef3565b50909695505050505050565b805182526000602082015160406020850152614f8e604085018251614e2e565b6020810151614fa06060860182614e3b565b50604081015162ffffff1660808501526060810151614fc260a0860182614e5e565b506080810151614fd560c0860182614e72565b5060a081015164ffffffffff811660e08601525060c081015164ffffffffff81166101008601525060e0810151615010610120860182614e82565b50610100810151615025610140860182614e82565b5061012081015161503a610160860182614e82565b50610140810151610180808601526150566101c0860182614e8f565b90506101608201519150603f19858203016101a08601526106cf8183614ed5565b6000602082016020835280845180835260408501915060408160051b86010192506020860160005b828110156150d057603f198786030184526150bb858351614f6e565b9450602093840193919091019060010161509f565b50929695505050505050565b803560028110614df657600080fd5b803562ffffff81168114614df657600080fd5b600080600080600060a0868803121561511657600080fd5b61511f86614ddf565b945061512d602087016150dc565b935061513b604087016150eb565b94979396509394606081013594506080013592915050565b602080825282518282018190526000918401906040840190835b8181101561518b57835183526020938401939092019160010161516d565b509095945050505050565b60008083601f8401126151a857600080fd5b5081356001600160401b038111156151bf57600080fd5b6020830191508360208285010111156151d757600080fd5b9250929050565b6000806000604084860312156151f357600080fd5b8335925060208401356001600160401b0381111561521057600080fd5b61521c86828701615196565b9497909650939450505050565b6000806020838503121561523c57600080fd5b82356001600160401b0381111561525257600080fd5b61525e85828601615196565b90969095509350505050565b60006020828403121561527c57600080fd5b5035919050565b6000602082016020835280845180835260408501915060408160051b86010192506020860160005b828110156150d057603f19878603018452815164ffffffffff815116865260208101516152db6020880182614e5e565b5060408101511515604087015260608101519050608060608701526153036080870182614e8f565b95505060209384019391909101906001016152ab565b80356001600160601b0381168114614df657600080fd5b80356001600160801b0381168114614df657600080fd5b600080600080600080600080610100898b03121561536457600080fd5b61536d89614ddf565b975061537b60208a016150dc565b965061538960408a016150eb565b955061539760608a01615319565b94506153a560808a01615319565b93506153b360a08a01615330565b92506153c160c08a01615330565b915060e08901356001600160401b038111156153dc57600080fd5b89016060818c0312156153ee57600080fd5b809150509295985092959890939650565b60006020828403121561541157600080fd5b6105b682614ddf565b60008083601f84011261542c57600080fd5b5081356001600160401b0381111561544357600080fd5b6020830191508360208260051b85010111156151d757600080fd5b60008060006040848603121561547357600080fd5b83356001600160401b0381111561548957600080fd5b6154958682870161541a565b909790965060209590950135949350505050565b602080825282518282018190526000918401906040840190835b8181101561518b5783516001600160a01b03168352602093840193909201916001016154c3565b64ffffffffff861681528460030b60208201528360030b6040820152821515606082015260a0608082015260006126e360a0830184614e8f565b6000806020838503121561553757600080fd5b82356001600160401b0381111561554d57600080fd5b61525e8582860161541a565b6000602082016020835280845180835260408501915060408160051b86010192506020860160005b828110156150d057603f19878603018452815164ffffffffff8151168652602081015160030b6020870152604081015160030b60408701526060810151151560608701526080810151905060a060808701526155e060a0870182614e8f565b9550506020938401939190910190600101615581565b8051825260018060a01b0360208201511660208301526000604082015160606040850152615628606085018251614e2e565b602081015161563a6080860182614e2e565b50604081015161564d60a0860182614e3b565b50606081015161566060c0860182614e3b565b50608081015163ffffffff1660e085015260a081015162ffffff1661010085015260c0810151615694610120860182614e72565b5060e08101516156a8610140860182614e82565b506101008101516156bd610160860182614e82565b506101208101516101606101808601526156db6101c0860182614e8f565b90506101408201519150605f19858203016101a08601526106cf8183614e8f565b6020815260006105b660208301846155f6565b6001600160a01b0391909116815260200190565b6020815260006105b66020830184614f6e565b60008060006060848603121561574b57600080fd5b61575484614ddf565b9250615762602085016150dc565b9150615770604085016150eb565b90509250925092565b6000602082016020835280845180835260408501915060408160051b86010192506020860160005b828110156150d057603f198786030184526157bd8583516155f6565b945060209384019391909101906001016157a1565b6001600160801b038c1681526001600160601b038b16602082015262ffffff8a166040820152615805606082018a614e5e565b6158126080820189614e72565b64ffffffffff871660a082015264ffffffffff861660c082015261583960e0820186614e82565b615847610100820185614e82565b615855610120820184614e82565b610160610140820152600061586e610160830184614e8f565b9d9c50505050505050505050505050565b60006020828403121561589157600080fd5b813580151581146105b657600080fd5b60008060008060008060008060008060006101208c8e0312156158c357600080fd5b6158cc8c614ddf565b9a506158da60208d016150dc565b99506158e860408d01614ddf565b98506158f660608d01615330565b975061590460808d016150eb565b965061591260a08d01615319565b955060c08c01356001600160401b0381111561592d57600080fd5b6159398e828f01615196565b90965094505060e08c01356001600160401b0381111561595857600080fd5b6159648e828f01615196565b909450925061597890506101008d01614ddf565b90509295989b509295989b9093969950565b600080600080608085870312156159a057600080fd5b6159a985614ddf565b93506159b760208601614ddf565b92506159c5604086016150dc565b91506159d3606086016150eb565b905092959194509250565b634e487b7160e01b600052601160045260246000fd5b80820180821115615a0757615a076159de565b92915050565b81810381811115615a0757615a076159de565b634e487b7160e01b600052604160045260246000fd5b634e487b7160e01b600052603260045260246000fd5b600381810b9083900b01637fffffff8113637fffffff1982121715615a0757615a076159de565b600181811c90821680615a8757607f821691505b602082108103615aa757634e487b7160e01b600052602260045260246000fd5b50919050565b601f821115610a7357806000526020600020601f840160051c81016020851015615ad45750805b601f840160051c820191505b81811015610bb35760008155600101615ae0565b600019600383901b1c191660019190911b1790565b81516001600160401b03811115615b2257615b22615a20565b615b3681615b308454615a73565b84615aad565b6020601f821160018114615b645760008315615b525750848201515b615b5c8482615af4565b855550610bb3565b600084815260208120601f198516915b82811015615b945787850151825560209485019460019092019101615b74565b5084821015615bb25786840151600019600387901b60f8161c191681555b50505050600190811b01905550565b6001600160401b03831115615bd857615bd8615a20565b615bec83615be68354615a73565b83615aad565b6000601f841160018114615c1a5760008515615c085750838201355b615c128682615af4565b845550610bb3565b600083815260209020601f19861690835b82811015615c4b5786850135825560209485019460019092019101615c2b565b5086821015615c685760001960f88860031b161c19848701351681555b505060018560011b0183555050505050565b8082028115828204841417615a0757615a076159de565b6001600160601b038181168382160190811115615a0757615a076159de565b6001600160801b038181168382160290811690818114615cd257615cd26159de565b5092915050565b6001600160401b038181168382160190811115615a0757615a076159de565b60609290921b6001600160601b031916825260c01b6001600160c01b0319166014820152601c0190565b600060018201615d3457615d346159de565b5060010190565b6001600160a01b038416815260608101615d586020830185614e72565b62ffffff83166040830152949350505050565b600082615d8857634e487b7160e01b600052601260045260246000fd5b500490565b6001600160801b038281168282160390811115615a0757615a076159de565b6000808335601e19843603018112615dc357600080fd5b8301803591506001600160401b03821115615ddd57600080fd5b6020019150368190038213156151d757600080fd5b634e487b7160e01b600052603160045260246000fd5b6001600160601b038281168282160390811115615a0757615a076159de565b60006001600160401b0382166002600160401b03198101615e4a57615e4a6159de565b60010192915050565b600060208284031215615e6557600080fd5b505191905056fec677acc686f4424b864e232e217de479edc357e161509d63e7304bccb2b5253aa2646970667358221220246cae0153a6d1b686e99088408ac512c6f0f4ded534c6e02cc6cc0413f093a764736f6c634300081c0033",
  "linkReferences": {},
  "deployedLinkReferences": {},
  "immutableReferences": {
    "1559": [
      {
        "length": 32,
        "start": 14221
      }
    ]
  },
  "inputSourceName": "project/contracts/Swap2p.sol",
  "buildInfoId": "solc-0_8_28-b49824a0f7c95531ecff54e02dd76757da55d01e"
}