{
  "_format": "hh3-artifact-1",
  "contractName": "Swap2p",
  "sourceName": "contracts/Swap2p.sol",
  "abi": [
    {
      "inputs": [
        {
          "internalType": "address",
          "name": "author_",
          "type": "address"
        }
      ],
      "stateMutability": "nonpayable",
      "type": "constructor"
    },
    {
      "inputs": [],
      "name": "AmountOutOfBounds",
      "type": "error"
    },
    {
      "inputs": [],
      "name": "AuthorZero",
      "type": "error"
    },
    {
      "inputs": [],
      "name": "DealNotFound",
      "type": "error"
    },
    {
      "inputs": [],
      "name": "FeeOnTransferTokenNotSupported",
      "type": "error"
    },
    {
      "inputs": [],
      "name": "InsufficientDeposit",
      "type": "error"
    },
    {
      "inputs": [],
      "name": "MakerOffline",
      "type": "error"
    },
    {
      "inputs": [],
      "name": "NicknameTaken",
      "type": "error"
    },
    {
      "inputs": [],
      "name": "NotFiatPayer",
      "type": "error"
    },
    {
      "inputs": [],
      "name": "OfferNotFound",
      "type": "error"
    },
    {
      "inputs": [],
      "name": "ReentrancyGuardReentrantCall",
      "type": "error"
    },
    {
      "inputs": [
        {
          "internalType": "address",
          "name": "token",
          "type": "address"
        }
      ],
      "name": "SafeERC20FailedOperation",
      "type": "error"
    },
    {
      "inputs": [],
      "name": "WorsePrice",
      "type": "error"
    },
    {
      "inputs": [],
      "name": "WrongCaller",
      "type": "error"
    },
    {
      "inputs": [],
      "name": "WrongSide",
      "type": "error"
    },
    {
      "inputs": [],
      "name": "WrongState",
      "type": "error"
    },
    {
      "anonymous": false,
      "inputs": [
        {
          "indexed": true,
          "internalType": "bytes32",
          "name": "id",
          "type": "bytes32"
        },
        {
          "indexed": false,
          "internalType": "uint32",
          "name": "index",
          "type": "uint32"
        }
      ],
      "name": "Chat",
      "type": "event"
    },
    {
      "anonymous": false,
      "inputs": [
        {
          "indexed": true,
          "internalType": "bytes32",
          "name": "id",
          "type": "bytes32"
        }
      ],
      "name": "DealAccepted",
      "type": "event"
    },
    {
      "anonymous": false,
      "inputs": [
        {
          "indexed": true,
          "internalType": "bytes32",
          "name": "id",
          "type": "bytes32"
        }
      ],
      "name": "DealCanceled",
      "type": "event"
    },
    {
      "anonymous": false,
      "inputs": [
        {
          "indexed": true,
          "internalType": "bytes32",
          "name": "id",
          "type": "bytes32"
        }
      ],
      "name": "DealDeleted",
      "type": "event"
    },
    {
      "anonymous": false,
      "inputs": [
        {
          "indexed": true,
          "internalType": "bytes32",
          "name": "id",
          "type": "bytes32"
        }
      ],
      "name": "DealPaid",
      "type": "event"
    },
    {
      "anonymous": false,
      "inputs": [
        {
          "indexed": true,
          "internalType": "bytes32",
          "name": "id",
          "type": "bytes32"
        }
      ],
      "name": "DealReleased",
      "type": "event"
    },
    {
      "anonymous": false,
      "inputs": [
        {
          "indexed": true,
          "internalType": "bytes32",
          "name": "id",
          "type": "bytes32"
        }
      ],
      "name": "DealRequested",
      "type": "event"
    },
    {
      "anonymous": false,
      "inputs": [
        {
          "indexed": true,
          "internalType": "address",
          "name": "maker",
          "type": "address"
        },
        {
          "indexed": false,
          "internalType": "bool",
          "name": "online",
          "type": "bool"
        }
      ],
      "name": "MakerOnline",
      "type": "event"
    },
    {
      "anonymous": false,
      "inputs": [
        {
          "indexed": true,
          "internalType": "bytes32",
          "name": "id",
          "type": "bytes32"
        }
      ],
      "name": "OfferDeleted",
      "type": "event"
    },
    {
      "anonymous": false,
      "inputs": [
        {
          "indexed": true,
          "internalType": "bytes32",
          "name": "id",
          "type": "bytes32"
        }
      ],
      "name": "OfferUpsert",
      "type": "event"
    },
    {
      "inputs": [
        {
          "internalType": "address",
          "name": "",
          "type": "address"
        }
      ],
      "name": "affiliates",
      "outputs": [
        {
          "internalType": "address",
          "name": "",
          "type": "address"
        }
      ],
      "stateMutability": "view",
      "type": "function"
    },
    {
      "inputs": [
        {
          "internalType": "bytes32",
          "name": "id",
          "type": "bytes32"
        },
        {
          "internalType": "bytes",
          "name": "reason",
          "type": "bytes"
        }
      ],
      "name": "cancelDeal",
      "outputs": [],
      "stateMutability": "nonpayable",
      "type": "function"
    },
    {
      "inputs": [
        {
          "internalType": "bytes32",
          "name": "id",
          "type": "bytes32"
        },
        {
          "internalType": "bytes",
          "name": "reason",
          "type": "bytes"
        }
      ],
      "name": "cancelRequest",
      "outputs": [],
      "stateMutability": "nonpayable",
      "type": "function"
    },
    {
      "inputs": [
        {
          "internalType": "bytes32[]",
          "name": "ids",
          "type": "bytes32[]"
        },
        {
          "internalType": "uint256",
          "name": "minAgeHours",
          "type": "uint256"
        }
      ],
      "name": "cleanupDeals",
      "outputs": [],
      "stateMutability": "nonpayable",
      "type": "function"
    },
    {
      "inputs": [
        {
          "internalType": "bytes32",
          "name": "",
          "type": "bytes32"
        }
      ],
      "name": "deals",
      "outputs": [
        {
          "internalType": "uint128",
          "name": "amount",
          "type": "uint128"
        },
        {
          "internalType": "uint96",
          "name": "price",
          "type": "uint96"
        },
        {
          "internalType": "Swap2p.FiatCode",
          "name": "fiat",
          "type": "uint16"
        },
        {
          "internalType": "enum Swap2p.DealState",
          "name": "state",
          "type": "uint8"
        },
        {
          "internalType": "enum Swap2p.Side",
          "name": "side",
          "type": "uint8"
        },
        {
          "internalType": "uint40",
          "name": "tsRequest",
          "type": "uint40"
        },
        {
          "internalType": "uint40",
          "name": "tsLast",
          "type": "uint40"
        },
        {
          "internalType": "address",
          "name": "maker",
          "type": "address"
        },
        {
          "internalType": "address",
          "name": "taker",
          "type": "address"
        },
        {
          "internalType": "address",
          "name": "token",
          "type": "address"
        },
        {
          "internalType": "string",
          "name": "paymentMethod",
          "type": "string"
        }
      ],
      "stateMutability": "view",
      "type": "function"
    },
    {
      "inputs": [
        {
          "internalType": "bytes32",
          "name": "id",
          "type": "bytes32"
        }
      ],
      "name": "getDeal",
      "outputs": [
        {
          "components": [
            {
              "internalType": "bytes32",
              "name": "id",
              "type": "bytes32"
            },
            {
              "components": [
                {
                  "internalType": "uint128",
                  "name": "amount",
                  "type": "uint128"
                },
                {
                  "internalType": "uint96",
                  "name": "price",
                  "type": "uint96"
                },
                {
                  "internalType": "Swap2p.FiatCode",
                  "name": "fiat",
                  "type": "uint16"
                },
                {
                  "internalType": "enum Swap2p.DealState",
                  "name": "state",
                  "type": "uint8"
                },
                {
                  "internalType": "enum Swap2p.Side",
                  "name": "side",
                  "type": "uint8"
                },
                {
                  "internalType": "uint40",
                  "name": "tsRequest",
                  "type": "uint40"
                },
                {
                  "internalType": "uint40",
                  "name": "tsLast",
                  "type": "uint40"
                },
                {
                  "internalType": "address",
                  "name": "maker",
                  "type": "address"
                },
                {
                  "internalType": "address",
                  "name": "taker",
                  "type": "address"
                },
                {
                  "internalType": "address",
                  "name": "token",
                  "type": "address"
                },
                {
                  "internalType": "string",
                  "name": "paymentMethod",
                  "type": "string"
                },
                {
                  "components": [
                    {
                      "internalType": "uint40",
                      "name": "ts",
                      "type": "uint40"
                    },
                    {
                      "internalType": "enum Swap2p.DealState",
                      "name": "state",
                      "type": "uint8"
                    },
                    {
                      "internalType": "bool",
                      "name": "toMaker",
                      "type": "bool"
                    },
                    {
                      "internalType": "bytes",
                      "name": "text",
                      "type": "bytes"
                    }
                  ],
                  "internalType": "struct Swap2p.ChatMessage[]",
                  "name": "chat",
                  "type": "tuple[]"
                }
              ],
              "internalType": "struct Swap2p.Deal",
              "name": "deal",
              "type": "tuple"
            }
          ],
          "internalType": "struct Swap2p.DealInfo",
          "name": "info",
          "type": "tuple"
        }
      ],
      "stateMutability": "view",
      "type": "function"
    },
    {
      "inputs": [
        {
          "internalType": "bytes32",
          "name": "id",
          "type": "bytes32"
        }
      ],
      "name": "getDealChat",
      "outputs": [
        {
          "components": [
            {
              "internalType": "uint40",
              "name": "ts",
              "type": "uint40"
            },
            {
              "internalType": "enum Swap2p.DealState",
              "name": "state",
              "type": "uint8"
            },
            {
              "internalType": "bool",
              "name": "toMaker",
              "type": "bool"
            },
            {
              "internalType": "bytes",
              "name": "text",
              "type": "bytes"
            }
          ],
          "internalType": "struct Swap2p.ChatMessage[]",
          "name": "out",
          "type": "tuple[]"
        }
      ],
      "stateMutability": "view",
      "type": "function"
    },
    {
      "inputs": [
        {
          "internalType": "address",
          "name": "maker",
          "type": "address"
        }
      ],
      "name": "getMakerOfferCount",
      "outputs": [
        {
          "internalType": "uint256",
          "name": "",
          "type": "uint256"
        }
      ],
      "stateMutability": "view",
      "type": "function"
    },
    {
      "inputs": [
        {
          "internalType": "address",
          "name": "maker",
          "type": "address"
        },
        {
          "internalType": "uint256",
          "name": "off",
          "type": "uint256"
        },
        {
          "internalType": "uint256",
          "name": "lim",
          "type": "uint256"
        }
      ],
      "name": "getMakerOfferIds",
      "outputs": [
        {
          "internalType": "bytes32[]",
          "name": "out",
          "type": "bytes32[]"
        }
      ],
      "stateMutability": "view",
      "type": "function"
    },
    {
      "inputs": [
        {
          "internalType": "address",
          "name": "maker",
          "type": "address"
        },
        {
          "internalType": "uint256",
          "name": "off",
          "type": "uint256"
        },
        {
          "internalType": "uint256",
          "name": "lim",
          "type": "uint256"
        }
      ],
      "name": "getMakerOffers",
      "outputs": [
        {
          "components": [
            {
              "internalType": "bytes32",
              "name": "id",
              "type": "bytes32"
            },
            {
              "internalType": "address",
              "name": "maker",
              "type": "address"
            },
            {
              "components": [
                {
                  "internalType": "uint128",
                  "name": "minAmt",
                  "type": "uint128"
                },
                {
                  "internalType": "uint128",
                  "name": "maxAmt",
                  "type": "uint128"
                },
                {
                  "internalType": "uint96",
                  "name": "priceFiatPerToken",
                  "type": "uint96"
                },
                {
                  "internalType": "uint40",
                  "name": "ts",
                  "type": "uint40"
                },
                {
                  "internalType": "Swap2p.FiatCode",
                  "name": "fiat",
                  "type": "uint16"
                },
                {
                  "internalType": "enum Swap2p.Side",
                  "name": "side",
                  "type": "uint8"
                },
                {
                  "internalType": "address",
                  "name": "token",
                  "type": "address"
                },
                {
                  "internalType": "address",
                  "name": "maker",
                  "type": "address"
                },
                {
                  "internalType": "string",
                  "name": "paymentMethods",
                  "type": "string"
                },
                {
                  "internalType": "string",
                  "name": "requirements",
                  "type": "string"
                }
              ],
              "internalType": "struct Swap2p.Offer",
              "name": "offer",
              "type": "tuple"
            }
          ],
          "internalType": "struct Swap2p.OfferInfo[]",
          "name": "out",
          "type": "tuple[]"
        }
      ],
      "stateMutability": "view",
      "type": "function"
    },
    {
      "inputs": [
        {
          "internalType": "address[]",
          "name": "accounts",
          "type": "address[]"
        }
      ],
      "name": "getMakerProfiles",
      "outputs": [
        {
          "components": [
            {
              "internalType": "uint40",
              "name": "lastActivity",
              "type": "uint40"
            },
            {
              "internalType": "int32",
              "name": "dealsCancelled",
              "type": "int32"
            },
            {
              "internalType": "int32",
              "name": "dealsCompleted",
              "type": "int32"
            },
            {
              "internalType": "bool",
              "name": "online",
              "type": "bool"
            },
            {
              "internalType": "string",
              "name": "nickname",
              "type": "string"
            },
            {
              "internalType": "string",
              "name": "chatPublicKey",
              "type": "string"
            }
          ],
          "internalType": "struct Swap2p.MakerProfile[]",
          "name": "profiles",
          "type": "tuple[]"
        }
      ],
      "stateMutability": "view",
      "type": "function"
    },
    {
      "inputs": [
        {
          "internalType": "address",
          "name": "token",
          "type": "address"
        },
        {
          "internalType": "enum Swap2p.Side",
          "name": "s",
          "type": "uint8"
        },
        {
          "internalType": "Swap2p.FiatCode",
          "name": "f",
          "type": "uint16"
        },
        {
          "internalType": "uint256",
          "name": "off",
          "type": "uint256"
        },
        {
          "internalType": "uint256",
          "name": "lim",
          "type": "uint256"
        }
      ],
      "name": "getMarketOfferIds",
      "outputs": [
        {
          "internalType": "bytes32[]",
          "name": "out",
          "type": "bytes32[]"
        }
      ],
      "stateMutability": "view",
      "type": "function"
    },
    {
      "inputs": [
        {
          "internalType": "address",
          "name": "token",
          "type": "address"
        },
        {
          "internalType": "enum Swap2p.Side",
          "name": "s",
          "type": "uint8"
        },
        {
          "internalType": "Swap2p.FiatCode",
          "name": "f",
          "type": "uint16"
        },
        {
          "internalType": "uint256",
          "name": "off",
          "type": "uint256"
        },
        {
          "internalType": "uint256",
          "name": "lim",
          "type": "uint256"
        }
      ],
      "name": "getMarketOffers",
      "outputs": [
        {
          "components": [
            {
              "internalType": "bytes32",
              "name": "id",
              "type": "bytes32"
            },
            {
              "internalType": "address",
              "name": "maker",
              "type": "address"
            },
            {
              "components": [
                {
                  "internalType": "uint128",
                  "name": "minAmt",
                  "type": "uint128"
                },
                {
                  "internalType": "uint128",
                  "name": "maxAmt",
                  "type": "uint128"
                },
                {
                  "internalType": "uint96",
                  "name": "priceFiatPerToken",
                  "type": "uint96"
                },
                {
                  "internalType": "uint40",
                  "name": "ts",
                  "type": "uint40"
                },
                {
                  "internalType": "Swap2p.FiatCode",
                  "name": "fiat",
                  "type": "uint16"
                },
                {
                  "internalType": "enum Swap2p.Side",
                  "name": "side",
                  "type": "uint8"
                },
                {
                  "internalType": "address",
                  "name": "token",
                  "type": "address"
                },
                {
                  "internalType": "address",
                  "name": "maker",
                  "type": "address"
                },
                {
                  "internalType": "string",
                  "name": "paymentMethods",
                  "type": "string"
                },
                {
                  "internalType": "string",
                  "name": "requirements",
                  "type": "string"
                }
              ],
              "internalType": "struct Swap2p.Offer",
              "name": "offer",
              "type": "tuple"
            }
          ],
          "internalType": "struct Swap2p.OfferInfo[]",
          "name": "out",
          "type": "tuple[]"
        }
      ],
      "stateMutability": "view",
      "type": "function"
    },
    {
      "inputs": [
        {
          "internalType": "bytes32",
          "name": "id",
          "type": "bytes32"
        }
      ],
      "name": "getOfferById",
      "outputs": [
        {
          "components": [
            {
              "internalType": "bytes32",
              "name": "id",
              "type": "bytes32"
            },
            {
              "internalType": "address",
              "name": "maker",
              "type": "address"
            },
            {
              "components": [
                {
                  "internalType": "uint128",
                  "name": "minAmt",
                  "type": "uint128"
                },
                {
                  "internalType": "uint128",
                  "name": "maxAmt",
                  "type": "uint128"
                },
                {
                  "internalType": "uint96",
                  "name": "priceFiatPerToken",
                  "type": "uint96"
                },
                {
                  "internalType": "uint40",
                  "name": "ts",
                  "type": "uint40"
                },
                {
                  "internalType": "Swap2p.FiatCode",
                  "name": "fiat",
                  "type": "uint16"
                },
                {
                  "internalType": "enum Swap2p.Side",
                  "name": "side",
                  "type": "uint8"
                },
                {
                  "internalType": "address",
                  "name": "token",
                  "type": "address"
                },
                {
                  "internalType": "address",
                  "name": "maker",
                  "type": "address"
                },
                {
                  "internalType": "string",
                  "name": "paymentMethods",
                  "type": "string"
                },
                {
                  "internalType": "string",
                  "name": "requirements",
                  "type": "string"
                }
              ],
              "internalType": "struct Swap2p.Offer",
              "name": "offer",
              "type": "tuple"
            }
          ],
          "internalType": "struct Swap2p.OfferInfo",
          "name": "info",
          "type": "tuple"
        }
      ],
      "stateMutability": "view",
      "type": "function"
    },
    {
      "inputs": [
        {
          "internalType": "address",
          "name": "token",
          "type": "address"
        },
        {
          "internalType": "enum Swap2p.Side",
          "name": "s",
          "type": "uint8"
        },
        {
          "internalType": "Swap2p.FiatCode",
          "name": "f",
          "type": "uint16"
        }
      ],
      "name": "getOfferCount",
      "outputs": [
        {
          "internalType": "uint256",
          "name": "",
          "type": "uint256"
        }
      ],
      "stateMutability": "view",
      "type": "function"
    },
    {
      "inputs": [
        {
          "internalType": "address",
          "name": "token",
          "type": "address"
        },
        {
          "internalType": "address",
          "name": "maker",
          "type": "address"
        },
        {
          "internalType": "enum Swap2p.Side",
          "name": "s",
          "type": "uint8"
        },
        {
          "internalType": "Swap2p.FiatCode",
          "name": "f",
          "type": "uint16"
        }
      ],
      "name": "getOfferId",
      "outputs": [
        {
          "internalType": "bytes32",
          "name": "",
          "type": "bytes32"
        }
      ],
      "stateMutability": "view",
      "type": "function"
    },
    {
      "inputs": [
        {
          "internalType": "address",
          "name": "token",
          "type": "address"
        },
        {
          "internalType": "enum Swap2p.Side",
          "name": "s",
          "type": "uint8"
        },
        {
          "internalType": "Swap2p.FiatCode",
          "name": "f",
          "type": "uint16"
        },
        {
          "internalType": "uint256",
          "name": "off",
          "type": "uint256"
        },
        {
          "internalType": "uint256",
          "name": "lim",
          "type": "uint256"
        }
      ],
      "name": "getOfferKeys",
      "outputs": [
        {
          "internalType": "address[]",
          "name": "out",
          "type": "address[]"
        }
      ],
      "stateMutability": "view",
      "type": "function"
    },
    {
      "inputs": [
        {
          "internalType": "address",
          "name": "u",
          "type": "address"
        }
      ],
      "name": "getOpenDealCount",
      "outputs": [
        {
          "internalType": "uint256",
          "name": "",
          "type": "uint256"
        }
      ],
      "stateMutability": "view",
      "type": "function"
    },
    {
      "inputs": [
        {
          "internalType": "address",
          "name": "u",
          "type": "address"
        },
        {
          "internalType": "uint256",
          "name": "off",
          "type": "uint256"
        },
        {
          "internalType": "uint256",
          "name": "lim",
          "type": "uint256"
        }
      ],
      "name": "getOpenDeals",
      "outputs": [
        {
          "internalType": "bytes32[]",
          "name": "out",
          "type": "bytes32[]"
        }
      ],
      "stateMutability": "view",
      "type": "function"
    },
    {
      "inputs": [
        {
          "internalType": "address",
          "name": "u",
          "type": "address"
        },
        {
          "internalType": "uint256",
          "name": "off",
          "type": "uint256"
        },
        {
          "internalType": "uint256",
          "name": "lim",
          "type": "uint256"
        }
      ],
      "name": "getOpenDealsDetailed",
      "outputs": [
        {
          "components": [
            {
              "internalType": "bytes32",
              "name": "id",
              "type": "bytes32"
            },
            {
              "components": [
                {
                  "internalType": "uint128",
                  "name": "amount",
                  "type": "uint128"
                },
                {
                  "internalType": "uint96",
                  "name": "price",
                  "type": "uint96"
                },
                {
                  "internalType": "Swap2p.FiatCode",
                  "name": "fiat",
                  "type": "uint16"
                },
                {
                  "internalType": "enum Swap2p.DealState",
                  "name": "state",
                  "type": "uint8"
                },
                {
                  "internalType": "enum Swap2p.Side",
                  "name": "side",
                  "type": "uint8"
                },
                {
                  "internalType": "uint40",
                  "name": "tsRequest",
                  "type": "uint40"
                },
                {
                  "internalType": "uint40",
                  "name": "tsLast",
                  "type": "uint40"
                },
                {
                  "internalType": "address",
                  "name": "maker",
                  "type": "address"
                },
                {
                  "internalType": "address",
                  "name": "taker",
                  "type": "address"
                },
                {
                  "internalType": "address",
                  "name": "token",
                  "type": "address"
                },
                {
                  "internalType": "string",
                  "name": "paymentMethod",
                  "type": "string"
                },
                {
                  "components": [
                    {
                      "internalType": "uint40",
                      "name": "ts",
                      "type": "uint40"
                    },
                    {
                      "internalType": "enum Swap2p.DealState",
                      "name": "state",
                      "type": "uint8"
                    },
                    {
                      "internalType": "bool",
                      "name": "toMaker",
                      "type": "bool"
                    },
                    {
                      "internalType": "bytes",
                      "name": "text",
                      "type": "bytes"
                    }
                  ],
                  "internalType": "struct Swap2p.ChatMessage[]",
                  "name": "chat",
                  "type": "tuple[]"
                }
              ],
              "internalType": "struct Swap2p.Deal",
              "name": "deal",
              "type": "tuple"
            }
          ],
          "internalType": "struct Swap2p.DealInfo[]",
          "name": "out",
          "type": "tuple[]"
        }
      ],
      "stateMutability": "view",
      "type": "function"
    },
    {
      "inputs": [
        {
          "internalType": "address",
          "name": "u",
          "type": "address"
        }
      ],
      "name": "getRecentDealCount",
      "outputs": [
        {
          "internalType": "uint256",
          "name": "",
          "type": "uint256"
        }
      ],
      "stateMutability": "view",
      "type": "function"
    },
    {
      "inputs": [
        {
          "internalType": "address",
          "name": "u",
          "type": "address"
        },
        {
          "internalType": "uint256",
          "name": "off",
          "type": "uint256"
        },
        {
          "internalType": "uint256",
          "name": "lim",
          "type": "uint256"
        }
      ],
      "name": "getRecentDeals",
      "outputs": [
        {
          "internalType": "bytes32[]",
          "name": "out",
          "type": "bytes32[]"
        }
      ],
      "stateMutability": "view",
      "type": "function"
    },
    {
      "inputs": [
        {
          "internalType": "address",
          "name": "u",
          "type": "address"
        },
        {
          "internalType": "uint256",
          "name": "off",
          "type": "uint256"
        },
        {
          "internalType": "uint256",
          "name": "lim",
          "type": "uint256"
        }
      ],
      "name": "getRecentDealsDetailed",
      "outputs": [
        {
          "components": [
            {
              "internalType": "bytes32",
              "name": "id",
              "type": "bytes32"
            },
            {
              "components": [
                {
                  "internalType": "uint128",
                  "name": "amount",
                  "type": "uint128"
                },
                {
                  "internalType": "uint96",
                  "name": "price",
                  "type": "uint96"
                },
                {
                  "internalType": "Swap2p.FiatCode",
                  "name": "fiat",
                  "type": "uint16"
                },
                {
                  "internalType": "enum Swap2p.DealState",
                  "name": "state",
                  "type": "uint8"
                },
                {
                  "internalType": "enum Swap2p.Side",
                  "name": "side",
                  "type": "uint8"
                },
                {
                  "internalType": "uint40",
                  "name": "tsRequest",
                  "type": "uint40"
                },
                {
                  "internalType": "uint40",
                  "name": "tsLast",
                  "type": "uint40"
                },
                {
                  "internalType": "address",
                  "name": "maker",
                  "type": "address"
                },
                {
                  "internalType": "address",
                  "name": "taker",
                  "type": "address"
                },
                {
                  "internalType": "address",
                  "name": "token",
                  "type": "address"
                },
                {
                  "internalType": "string",
                  "name": "paymentMethod",
                  "type": "string"
                },
                {
                  "components": [
                    {
                      "internalType": "uint40",
                      "name": "ts",
                      "type": "uint40"
                    },
                    {
                      "internalType": "enum Swap2p.DealState",
                      "name": "state",
                      "type": "uint8"
                    },
                    {
                      "internalType": "bool",
                      "name": "toMaker",
                      "type": "bool"
                    },
                    {
                      "internalType": "bytes",
                      "name": "text",
                      "type": "bytes"
                    }
                  ],
                  "internalType": "struct Swap2p.ChatMessage[]",
                  "name": "chat",
                  "type": "tuple[]"
                }
              ],
              "internalType": "struct Swap2p.Deal",
              "name": "deal",
              "type": "tuple"
            }
          ],
          "internalType": "struct Swap2p.DealInfo[]",
          "name": "out",
          "type": "tuple[]"
        }
      ],
      "stateMutability": "view",
      "type": "function"
    },
    {
      "inputs": [
        {
          "internalType": "address",
          "name": "token",
          "type": "address"
        },
        {
          "internalType": "enum Swap2p.Side",
          "name": "s",
          "type": "uint8"
        },
        {
          "internalType": "Swap2p.FiatCode",
          "name": "f",
          "type": "uint16"
        }
      ],
      "name": "listOffers",
      "outputs": [
        {
          "components": [
            {
              "internalType": "bytes32",
              "name": "id",
              "type": "bytes32"
            },
            {
              "internalType": "address",
              "name": "maker",
              "type": "address"
            },
            {
              "components": [
                {
                  "internalType": "uint128",
                  "name": "minAmt",
                  "type": "uint128"
                },
                {
                  "internalType": "uint128",
                  "name": "maxAmt",
                  "type": "uint128"
                },
                {
                  "internalType": "uint96",
                  "name": "priceFiatPerToken",
                  "type": "uint96"
                },
                {
                  "internalType": "uint40",
                  "name": "ts",
                  "type": "uint40"
                },
                {
                  "internalType": "Swap2p.FiatCode",
                  "name": "fiat",
                  "type": "uint16"
                },
                {
                  "internalType": "enum Swap2p.Side",
                  "name": "side",
                  "type": "uint8"
                },
                {
                  "internalType": "address",
                  "name": "token",
                  "type": "address"
                },
                {
                  "internalType": "address",
                  "name": "maker",
                  "type": "address"
                },
                {
                  "internalType": "string",
                  "name": "paymentMethods",
                  "type": "string"
                },
                {
                  "internalType": "string",
                  "name": "requirements",
                  "type": "string"
                }
              ],
              "internalType": "struct Swap2p.Offer",
              "name": "offer",
              "type": "tuple"
            }
          ],
          "internalType": "struct Swap2p.OfferInfo[]",
          "name": "out",
          "type": "tuple[]"
        }
      ],
      "stateMutability": "view",
      "type": "function"
    },
    {
      "inputs": [
        {
          "internalType": "address",
          "name": "",
          "type": "address"
        }
      ],
      "name": "makerInfo",
      "outputs": [
        {
          "internalType": "uint40",
          "name": "lastActivity",
          "type": "uint40"
        },
        {
          "internalType": "int32",
          "name": "dealsCancelled",
          "type": "int32"
        },
        {
          "internalType": "int32",
          "name": "dealsCompleted",
          "type": "int32"
        },
        {
          "internalType": "bool",
          "name": "online",
          "type": "bool"
        },
        {
          "internalType": "string",
          "name": "nickname",
          "type": "string"
        },
        {
          "internalType": "string",
          "name": "chatPublicKey",
          "type": "string"
        }
      ],
      "stateMutability": "view",
      "type": "function"
    },
    {
      "inputs": [
        {
          "internalType": "bytes32",
          "name": "id",
          "type": "bytes32"
        },
        {
          "internalType": "bytes",
          "name": "msg_",
          "type": "bytes"
        }
      ],
      "name": "maker_acceptRequest",
      "outputs": [],
      "stateMutability": "nonpayable",
      "type": "function"
    },
    {
      "inputs": [
        {
          "internalType": "address",
          "name": "token",
          "type": "address"
        },
        {
          "internalType": "enum Swap2p.Side",
          "name": "s",
          "type": "uint8"
        },
        {
          "internalType": "Swap2p.FiatCode",
          "name": "f",
          "type": "uint16"
        }
      ],
      "name": "maker_deleteOffer",
      "outputs": [],
      "stateMutability": "nonpayable",
      "type": "function"
    },
    {
      "inputs": [
        {
          "internalType": "address",
          "name": "token",
          "type": "address"
        },
        {
          "internalType": "enum Swap2p.Side",
          "name": "s",
          "type": "uint8"
        },
        {
          "internalType": "Swap2p.FiatCode",
          "name": "f",
          "type": "uint16"
        },
        {
          "internalType": "uint96",
          "name": "price",
          "type": "uint96"
        },
        {
          "internalType": "uint128",
          "name": "minAmt",
          "type": "uint128"
        },
        {
          "internalType": "uint128",
          "name": "maxAmt",
          "type": "uint128"
        },
        {
          "internalType": "string",
          "name": "paymentMethods",
          "type": "string"
        },
        {
          "internalType": "string",
          "name": "requirements",
          "type": "string"
        },
        {
          "internalType": "address",
          "name": "partner",
          "type": "address"
        }
      ],
      "name": "maker_makeOffer",
      "outputs": [],
      "stateMutability": "nonpayable",
      "type": "function"
    },
    {
      "inputs": [
        {
          "internalType": "bytes32",
          "name": "id",
          "type": "bytes32"
        },
        {
          "internalType": "bytes",
          "name": "msg_",
          "type": "bytes"
        }
      ],
      "name": "markFiatPaid",
      "outputs": [],
      "stateMutability": "nonpayable",
      "type": "function"
    },
    {
      "inputs": [
        {
          "internalType": "address",
          "name": "taker",
          "type": "address"
        }
      ],
      "name": "previewNextDealId",
      "outputs": [
        {
          "internalType": "bytes32",
          "name": "id",
          "type": "bytes32"
        },
        {
          "internalType": "uint64",
          "name": "nonce",
          "type": "uint64"
        }
      ],
      "stateMutability": "view",
      "type": "function"
    },
    {
      "inputs": [
        {
          "internalType": "address",
          "name": "maker",
          "type": "address"
        }
      ],
      "name": "previewNextOfferId",
      "outputs": [
        {
          "internalType": "bytes32",
          "name": "id",
          "type": "bytes32"
        },
        {
          "internalType": "uint64",
          "name": "nonce",
          "type": "uint64"
        }
      ],
      "stateMutability": "view",
      "type": "function"
    },
    {
      "inputs": [
        {
          "internalType": "bytes32",
          "name": "id",
          "type": "bytes32"
        },
        {
          "internalType": "bytes",
          "name": "msg_",
          "type": "bytes"
        }
      ],
      "name": "release",
      "outputs": [],
      "stateMutability": "nonpayable",
      "type": "function"
    },
    {
      "inputs": [
        {
          "internalType": "bytes32",
          "name": "id",
          "type": "bytes32"
        },
        {
          "internalType": "bytes",
          "name": "t",
          "type": "bytes"
        }
      ],
      "name": "sendMessage",
      "outputs": [],
      "stateMutability": "nonpayable",
      "type": "function"
    },
    {
      "inputs": [
        {
          "internalType": "string",
          "name": "key",
          "type": "string"
        }
      ],
      "name": "setChatPublicKey",
      "outputs": [],
      "stateMutability": "nonpayable",
      "type": "function"
    },
    {
      "inputs": [
        {
          "internalType": "string",
          "name": "nick",
          "type": "string"
        }
      ],
      "name": "setNickname",
      "outputs": [],
      "stateMutability": "nonpayable",
      "type": "function"
    },
    {
      "inputs": [
        {
          "internalType": "bool",
          "name": "on",
          "type": "bool"
        }
      ],
      "name": "setOnline",
      "outputs": [],
      "stateMutability": "nonpayable",
      "type": "function"
    },
    {
      "inputs": [
        {
          "internalType": "address",
          "name": "token",
          "type": "address"
        },
        {
          "internalType": "enum Swap2p.Side",
          "name": "s",
          "type": "uint8"
        },
        {
          "internalType": "address",
          "name": "maker",
          "type": "address"
        },
        {
          "internalType": "uint128",
          "name": "amount",
          "type": "uint128"
        },
        {
          "internalType": "Swap2p.FiatCode",
          "name": "f",
          "type": "uint16"
        },
        {
          "internalType": "uint96",
          "name": "expectedPrice",
          "type": "uint96"
        },
        {
          "internalType": "string",
          "name": "paymentMethod",
          "type": "string"
        },
        {
          "internalType": "bytes",
          "name": "paymentDetails",
          "type": "bytes"
        },
        {
          "internalType": "address",
          "name": "partner",
          "type": "address"
        }
      ],
      "name": "taker_requestOffer",
      "outputs": [],
      "stateMutability": "nonpayable",
      "type": "function"
    }
  ],
  "bytecode": "0x60a0604052348015600f57600080fd5b50604051615cd5380380615cd5833981016040819052602c916067565b60016000556001600160a01b03811660575760405163f79316e160e01b815260040160405180910390fd5b6001600160a01b03166080526095565b600060208284031215607857600080fd5b81516001600160a01b0381168114608e57600080fd5b9392505050565b608051615c256100b060003960006136410152615c256000f3fe608060405234801561001057600080fd5b50600436106101b75760003560e01c806301d563f9146101bc5780631bc8a466146101e55780631c5d9faa146101fa57806320ded8531461020d57806323c640e71461022d57806323d317a91461024057806326fd99d7146102605780632b9c45cb146102805780632f0cd5aa146102b75780633b959fb1146102ca5780633d4d81de146102dd5780633d8dfcce146102f05780633ed152f5146103155780633f9951aa146103285780634314a8e21461034857806344cb55561461035b57806347437d1c1461037b57806347cdcec41461038e5780634be974b5146103a15780634bfac20c146103c15780634f51e294146103d457806351a6fad51461040a57806364c1cfa11461042a5780636cd366ec1461043d5780636ced9975146104505780636d2a0fd01461046357806371a735c714610493578063722fe606146104a657806381cd872a146104cf57806390bd9002146104f95780639af8868c1461050c578063b0fa390314610535578063bd407c1e14610548578063c31821c71461055b578063ce4b8daf1461056e578063ef0745a414610581578063f05b89fe14610594575b600080fd5b6101cf6101ca366004614c12565b6105a7565b6040516101dc9190614e82565b60405180910390f35b6101f86101f3366004614f2f565b6105dc565b005b6101f8610208366004614f7a565b610982565b61022061021b366004614fbb565b610b74565b6040516101dc9190614fd4565b6101f861023b366004614f2f565b610cd7565b61025361024e366004614c12565b610d0a565b6040516101dc919061506a565b61027361026e3660046150ce565b610e08565b6040516101dc9190615123565b6102a961028e366004615164565b6001600160a01b03166000908152600b602052604090205490565b6040519081526020016101dc565b6101f86102c53660046151c3565b610f5e565b6102a96102d836600461520e565b611117565b6102536102eb366004614c12565b611195565b6103036102fe366004615164565b6112a3565b6040516101dc96959493929190615262565b6101f8610323366004614f7a565b611400565b61033b6103363660046152bb565b611432565b6040516101dc91906152f0565b610253610356366004614c12565b61174e565b61036e6103693660046153a7565b611841565b6040516101dc91906154dd565b6101f8610389366004614f2f565b611892565b6101f861039c366004615564565b611ba4565b6103b46103af366004614fbb565b611c7d565b6040516101dc919061564d565b6101f86103cf366004614f2f565b611ed1565b6103fd6103e2366004615164565b6006602052600090815260409020546001600160a01b031681565b6040516101dc9190615660565b61041d610418366004614fbb565b61211a565b6040516101dc9190615674565b6101f8610438366004614f2f565b612457565b61036e61044b3660046150ce565b6125d4565b61025361045e3660046150ce565b61261b565b610476610471366004615164565b612727565b604080519283526001600160401b039091166020830152016101dc565b6104766104a1366004615164565b612788565b6102a96104b4366004615164565b6001600160a01b03166000908152600d602052604090205490565b6104e26104dd366004614fbb565b6127b7565b6040516101dc9b9a99989796959493929190615687565b6102a96105073660046153a7565b6128d9565b6102a961051a366004615164565b6001600160a01b03166000908152600f602052604090205490565b6101f8610543366004615733565b612903565b6101cf610556366004614c12565b612978565b6101f86105693660046153a7565b6129a3565b61036e61057c366004614c12565b612b57565b6101f861058f366004615755565b612b8a565b6101f86105a2366004614f2f565b612ba6565b606081156105d5576001600160a01b0384166000908152600f602052604090206105d2908484612d33565b90505b9392505050565b6105e46131ee565b336000908152600760209081526040808320805464ffffffffff19164264ffffffffff161790558583526002909152902060038154600160f01b900460ff16600581111561063457610634614c52565b1461065257604051636f20b45d60e11b815260040160405180910390fd5b60008154600160f81b900460ff16600181111561067157610671614c52565b14801561068b575060028101546001600160a01b03163314155b806106d1575060018154600160f81b900460ff1660018111156106b0576106b0614c52565b1480156106d157506001810154600160501b90046001600160a01b03163314155b156106ef5760405163068690bf60e11b815260040160405180910390fd5b6106fc8484846004613218565b805460ff60f01b1916600160f21b17815560018101805464ffffffffff60281b1916600160281b4264ffffffffff1602179081905561074b90600160501b90046001600160a01b031685613471565b6002810154610763906001600160a01b031685613471565b6001810154600282015461078b916001600160a01b03600160501b9091048116911686613505565b600181810154600160501b90046001600160a01b0316600090815260076020526040902080546009906107c9908490600160481b900460030b6157dc565b825463ffffffff9182166101009390930a92830291909202199091161790555060028101546001600160a01b03166000908152600760205260409020805460019190600990610823908490600160481b900460030b6157dc565b92506101000a81548163ffffffff021916908360030b63ffffffff160217905550600080600181111561085857610858614c52565b8254600160f81b900460ff16600181111561087557610875614c52565b1461088d5760028201546001600160a01b03166108a3565b6001820154600160501b90046001600160a01b03165b60038301546002840154600185015485549394506108e7936001600160a01b039384169392831692600160501b9092049091169085906001600160801b0316613519565b600382015460028301548354610913926001600160a01b039081169216906001600160801b0316613672565b600382015460018301548354610946926001600160a01b0390811692600160501b900416906001600160801b0316613672565b60405185907f7fd4245b0f72acadc4c87701af2ae8b00ba2adeef4b3e209897df6cef0426bee90600090a2505061097d6001600055565b505050565b336000908152600760209081526040808320805464ffffffffff19164264ffffffffff161781558151601f860184900484028101840190925284825292918590859081908401838280828437600092018290525060018701805495965090949093506109f092509050615809565b80601f0160208091040260200160405190810160405280929190818152602001828054610a1c90615809565b8015610a695780601f10610a3e57610100808354040283529160200191610a69565b820191906000526020600020905b815481529060010190602001808311610a4c57829003601f168201915b505050505090508151600003610ac457805115610abd5780516020808301919091206000818152600883526040808220805460ff19169055805193840190528252906001850190610aba90826158b5565b50505b5050505050565b81516020830120815115610ae85780828051906020012003610ae857505050505050565b60008181526008602052604090205460ff1615610b1857604051637ec9752560e01b815260040160405180910390fd5b6000818152600860205260409020805460ff191660019081179091558401610b4186888361596d565b50815115610b6b5781516020808401919091206000908152600890915260409020805460ff191690555b505050505b5050565b606060026000838152602001908152602001600020600501805480602002602001604051908101604052809291908181526020016000905b82821015610ccc576000848152602090819020604080516080810190915260028502909101805464ffffffffff811683529192909190830190600160281b900460ff166005811115610c0057610c00614c52565b6005811115610c1157610c11614c52565b81528154600160301b900460ff1615156020820152600182018054604090920191610c3b90615809565b80601f0160208091040260200160405190810160405280929190818152602001828054610c6790615809565b8015610cb45780601f10610c8957610100808354040283529160200191610cb4565b820191906000526020600020905b815481529060010190602001808311610c9757829003601f168201915b50505050508152505081526020019060010190610bac565b505050509050919050565b336000908152600760205260408120805464ffffffffff19164264ffffffffff1617905561097d90849084908490613218565b6001600160a01b0383166000908152600f60205260409020805460609190808510610d365750506105d5565b6000610d428587615a26565b905085811080610d5157508181115b15610d595750805b610d638682615a39565b6001600160401b03811115610d7a57610d7a615843565b604051908082528060200260200182016040528015610da3578160200160208202803683370190505b509350855b81811015610dfd57838181548110610dc257610dc2615a4c565b9060005260206000200154858883610dda9190615a39565b81518110610dea57610dea615a4c565b6020908102919091010152600101610da8565b505050509392505050565b6060600060096000610e1b8989896136a5565b8152602081019190915260400160002080549091508085101580610e3d575083155b15610e49575050610f55565b6000610e558587615a26565b905085811080610e6457508181115b15610e6c5750805b6000610e788783615a39565b9050806001600160401b03811115610e9257610e92615843565b604051908082528060200260200182016040528015610ebb578160200160208202803683370190505b50945060005b81811015610f4f57600060018187610ed9858d615a26565b81548110610ee957610ee9615a4c565b9060005260206000200154815260200190815260200160002090508060030160009054906101000a90046001600160a01b0316878381518110610f2e57610f2e615a4c565b6001600160a01b039092166020928302919091019091015250600101610ec1565b50505050505b95945050505050565b6030811015610f8057604051636f20b45d60e11b815260040160405180910390fd5b6000610f8e82610e10615a62565b90508260005b81811015610b6b576000868683818110610fb057610fb0615a4c565b60209081029290920135600081815260029093526040909220805492935091600160f01b900460ff1690506004816005811115610fef57610fef614c52565b1415801561100f5750600581600581111561100c5761100c614c52565b14155b1561101c5750505061110f565b6001820154869061103b90600160281b900464ffffffffff1642615a39565b10156110495750505061110f565b600180830154600280850154600087815260208390526040812081815594850180546001600160f01b031916905591840180546001600160a01b031990811690915560038501805490911690556001600160a01b03600160501b909304831693921691906110ba6004830182614a68565b6110c8600583016000614aa5565b50506110d482866136db565b6110de81866136db565b60405185907f5dfd3d3075c6a14eb1287a8fa566b2a067908e976de63c0f9f4a5246f82a485290600090a250505050505b600101610f94565b6001600160a01b03808516600090815260046020908152604080832093871683529290529081208184600181111561115157611151614c52565b600181111561116257611162614c52565b815260200190815260200160002060008361ffff1661ffff1681526020019081526020016000205490505b949350505050565b6001600160a01b0383166000908152600b6020526040902080546060919080851015806111c0575083155b156111cc5750506105d5565b60006111d88587615a26565b9050858110806111e757508181115b156111ef5750805b60006111fb8783615a39565b9050806001600160401b0381111561121557611215615843565b60405190808252806020026020018201604052801561123e578160200160208202803683370190505b50945060005b818110156112975784611257828a615a26565b8154811061126757611267615a4c565b906000526020600020015486828151811061128457611284615a4c565b6020908102919091010152600101611244565b50505050509392505050565b6007602052600090815260409020805460018201805464ffffffffff831693600160281b8404600390810b94600160481b810490910b93600160681b90910460ff16926112ef90615809565b80601f016020809104026020016040519081016040528092919081815260200182805461131b90615809565b80156113685780601f1061133d57610100808354040283529160200191611368565b820191906000526020600020905b81548152906001019060200180831161134b57829003601f168201915b50505050509080600201805461137d90615809565b80601f01602080910402602001604051908101604052809291908181526020018280546113a990615809565b80156113f65780601f106113cb576101008083540402835291602001916113f6565b820191906000526020600020905b8154815290600101906020018083116113d957829003601f168201915b5050505050905086565b336000908152600760205260409020805464ffffffffff19164264ffffffffff1617815560020161097d82848361596d565b606081806001600160401b0381111561144d5761144d615843565b6040519080825280602002602001820160405280156114af57816020015b6040805160c081018252600080825260208083018290529282018190526060808301919091526080820181905260a0820152825260001990920191018161146b5790505b50915060005b81811015611746576000600760008787858181106114d5576114d5615a4c565b90506020020160208101906114ea9190615164565b6001600160a01b03168152602081019190915260400160002080548551919250600160681b900460ff169085908490811061152757611527615a4c565b60209081029190910101519015156060909101528054845164ffffffffff9091169085908490811061155b5761155b615a4c565b602090810291909101015164ffffffffff909116905260018101805461158090615809565b80601f01602080910402602001604051908101604052809291908181526020018280546115ac90615809565b80156115f95780601f106115ce576101008083540402835291602001916115f9565b820191906000526020600020905b8154815290600101906020018083116115dc57829003601f168201915b505050505084838151811061161057611610615a4c565b60209081029190910101516080015280548451600160281b90910460030b9085908490811061164157611641615a4c565b602090810291909101810151600392830b91015281548551600160481b90910490910b9085908490811061167757611677615a4c565b60200260200101516040019060030b908160030b8152505080600201805461169e90615809565b80601f01602080910402602001604051908101604052809291908181526020018280546116ca90615809565b80156117175780601f106116ec57610100808354040283529160200191611717565b820191906000526020600020905b8154815290600101906020018083116116fa57829003601f168201915b505050505084838151811061172e5761172e615a4c565b602090810291909101015160a00152506001016114b5565b505092915050565b6001600160a01b0383166000908152600d6020526040902080546060919080851061177a5750506105d5565b60006117868587615a26565b90508581108061179557508181115b1561179d5750805b6117a78682615a39565b6001600160401b038111156117be576117be615843565b6040519080825280602002602001820160405280156117e7578160200160208202803683370190505b509350855b81811015610dfd5783818154811061180657611806615a4c565b906000526020600020015485888361181e9190615a39565b8151811061182e5761182e615a4c565b60209081029190910101526001016117ec565b60606000600960006118548787876136a5565b815260200190815260200160002090506000818054905090508060000361187c5750506105d5565b61188882600083613807565b9695505050505050565b61189a6131ee565b336000908152600760209081526040808320805464ffffffffff19164264ffffffffff16179055858352600291829052909120908154600160f01b900460ff1660058111156118eb576118eb614c52565b1461190957604051636f20b45d60e11b815260040160405180910390fd5b6001810154600160501b90046001600160a01b031633036119675760005b8154600160f81b900460ff16600181111561194457611944614c52565b146119625760405163153c8df760e31b815260040160405180910390fd5b61199b565b60028101546001600160a01b03163303611982576001611927565b60405163068690bf60e11b815260040160405180910390fd5b6119a88484846005613218565b805460ff60f01b1916600560f01b17815560018101805464ffffffffff60281b1916600160281b4264ffffffffff160217908190556119f790600160501b90046001600160a01b031685613471565b6002810154611a0f906001600160a01b031685613471565b60008154600160f81b900460ff166001811115611a2e57611a2e614c52565b03611aa35760038101546002808301548354611a6b936001600160a01b0390811693921691611a66916001600160801b031690615a79565b613672565b600381015460018201548254611a9e926001600160a01b0390811692600160501b900416906001600160801b0316613672565b611b08565b600381015460028201548254611acf926001600160a01b039081169216906001600160801b0316613672565b600381015460018201548254611b08926001600160a01b0390811692600160501b90041690611a66906001600160801b03166002615a79565b60018101546002820154611b30916001600160a01b03600160501b9091048116911686613505565b336000908152600760205260409020805460019190600590611b5d908490600160281b900460030b6157dc565b92506101000a81548163ffffffff021916908360030b63ffffffff16021790555083600080516020615bd083398151915260405160405180910390a25061097d6001600055565b611bac6131ee565b336000818152600760205260409020805464ffffffffff19164264ffffffffff161790556001600160a01b038a168103611bf95760405163068690bf60e11b815260040160405180910390fd5b6000611c0c8d8d8d858e8e8e8e8e613bbc565b9050611c188b82613fd2565b611c228282613fd2565b611c2c828461403b565b611c398186866001613218565b60405181907f0962211fdd8bae00324df1e7f067e248569f92820b635d0dc5c6f5801f01e8fb90600090a25050611c706001600055565b5050505050505050505050565b611c85614ac6565b60008281526001602081905260408220908101549091600160601b90910464ffffffffff169003611cc957604051636df5846d60e01b815260040160405180910390fd5b82825260038101546001600160a01b0316602080840191909152604080516101408101825283546001600160801b038082168352600160801b90910416928101929092526001808401546001600160601b03811692840192909252600160601b820464ffffffffff166060840152600160881b820461ffff166080840152839160a0840191600160981b90910460ff1690811115611d6957611d69614c52565b6001811115611d7a57611d7a614c52565b815260028201546001600160a01b0390811660208301526003830154166040820152600482018054606090920191611db190615809565b80601f0160208091040260200160405190810160405280929190818152602001828054611ddd90615809565b8015611e2a5780601f10611dff57610100808354040283529160200191611e2a565b820191906000526020600020905b815481529060010190602001808311611e0d57829003601f168201915b50505050508152602001600582018054611e4390615809565b80601f0160208091040260200160405190810160405280929190818152602001828054611e6f90615809565b8015611ebc5780601f10611e9157610100808354040283529160200191611ebc565b820191906000526020600020905b815481529060010190602001808311611e9f57829003601f168201915b50505091909252505050604083015250919050565b611ed96131ee565b336000818152600760209081526040808320805464ffffffffff421664ffffffffff199091161790558683526002909152902060018101549091600160501b9091046001600160a01b031614801590611f3f575060028101546001600160a01b03163314155b15611f5d5760405163068690bf60e11b815260040160405180910390fd5b60018154600160f01b900460ff166005811115611f7c57611f7c614c52565b14611f9a57604051636f20b45d60e11b815260040160405180910390fd5b611fa78484846005613218565b805460ff60f01b1916600560f01b17815560018101805464ffffffffff60281b1916600160281b4264ffffffffff16021790819055611ff690600160501b90046001600160a01b031685613471565b600281015461200e906001600160a01b031685613471565b6000808254600160f81b900460ff16600181111561202e5761202e614c52565b146120435781546001600160801b0316612059565b8154612059906001600160801b03166002615a79565b6003830154600284015491925061207d916001600160a01b03918216911683613672565b600182015460028301546120a5916001600160a01b03600160501b9091048116911687613505565b3360009081526007602052604090208054600191906005906120d2908490600160281b900460030b6157dc565b92506101000a81548163ffffffff021916908360030b63ffffffff16021790555084600080516020615bd083398151915260405160405180910390a2505061097d6001600055565b612122614b37565b6000828152600260205260408120908154600160f01b900460ff16600581111561214e5761214e614c52565b0361216c5760405163223da47360e21b815260040160405180910390fd5b828252604080516101808101825282546001600160801b0381168252600160801b81046001600160601b03166020830152600160e01b810461ffff16928201929092529082906060830190600160f01b900460ff1660058111156121d2576121d2614c52565b60058111156121e3576121e3614c52565b81528154602090910190600160f81b900460ff16600181111561220857612208614c52565b600181111561221957612219614c52565b8152600182015464ffffffffff8082166020840152600160281b82041660408301526001600160a01b03600160501b9091048116606083015260028301548116608083015260038301541660a082015260048201805460c09092019161227e90615809565b80601f01602080910402602001604051908101604052809291908181526020018280546122aa90615809565b80156122f75780601f106122cc576101008083540402835291602001916122f7565b820191906000526020600020905b8154815290600101906020018083116122da57829003601f168201915b5050505050815260200160058201805480602002602001604051908101604052809291908181526020016000905b82821015612445576000848152602090819020604080516080810190915260028502909101805464ffffffffff811683529192909190830190600160281b900460ff16600581111561237957612379614c52565b600581111561238a5761238a614c52565b81528154600160301b900460ff16151560208201526001820180546040909201916123b490615809565b80601f01602080910402602001604051908101604052809291908181526020018280546123e090615809565b801561242d5780601f106124025761010080835404028352916020019161242d565b820191906000526020600020905b81548152906001019060200180831161241057829003601f168201915b50505050508152505081526020019060010190612325565b50505091525050602083015250919050565b336000908152600760209081526040808320805464ffffffffff19164264ffffffffff16179055858352600291829052909120908154600160f01b900460ff1660058111156124a8576124a8614c52565b146124c657604051636f20b45d60e11b815260040160405180910390fd5b60008154600160f81b900460ff1660018111156124e5576124e5614c52565b14801561250657506001810154600160501b90046001600160a01b03163314155b80612545575060018154600160f81b900460ff16600181111561252b5761252b614c52565b148015612545575060028101546001600160a01b03163314155b15612563576040516330698c3d60e01b815260040160405180910390fd5b805460ff60f01b1916600360f01b17815560018101805464ffffffffff60281b1916600160281b4264ffffffffff160217905560405184907fb30095b0d687bb11974087f374f985f2ff4f7b4f9900e31d32f699d416e2213b90600090a26125ce8484846003613218565b50505050565b60606000600960006125e78989896136a5565b81526020019081526020016000209050826000036126055750610f55565b612610818585613807565b979650505050505050565b606060006009600061262e8989896136a5565b8152602081019190915260400160002080549091508085101580612650575083155b1561265c575050610f55565b60006126688587615a26565b90508581108061267757508181115b1561267f5750805b600061268b8783615a39565b9050806001600160401b038111156126a5576126a5615843565b6040519080825280602002602001820160405280156126ce578160200160208202803683370190505b50945060005b81811015610f4f57846126e7828a615a26565b815481106126f7576126f7615a4c565b906000526020600020015486828151811061271457612714615a4c565b60209081029190910101526001016126d4565b6001600160a01b0381166000908152600560205260408120548190612756906001600160401b03166001615aa2565b9050828160405160200161276b929190615ac1565b604051602081830303815290604052805190602001209150915091565b6001600160a01b0381166000908152600360205260408120548190612756906001600160401b03166001615aa2565b6002602081905260009182526040909120805460018201549282015460038301546004840180546001600160801b038516966001600160601b03600160801b8704169661ffff600160e01b8804169660ff600160f01b8204811697600160f81b909204169564ffffffffff80851696600160281b8604909116956001600160a01b03600160501b90960486169593841694929093169261285690615809565b80601f016020809104026020016040519081016040528092919081815260200182805461288290615809565b80156128cf5780601f106128a4576101008083540402835291602001916128cf565b820191906000526020600020905b8154815290600101906020018083116128b257829003601f168201915b505050505090508b565b6000600960006128ea8686866136a5565b8152602081019190915260400160002054949350505050565b33600081815260076020526040908190208054841515600160681b0264ffffffffff60ff60681b011990911664ffffffffff421617179055517fbf7433268f9e84553144e23f130bdb514d559f991d19288c0e6d0ad00440636e9061296d90841515815260200190565b60405180910390a250565b606081156105d5576001600160a01b0384166000908152600d602052604090206105d2908484612d33565b6001600160a01b03831660009081526004602090815260408083203384529091528120818460018111156129d9576129d9614c52565b60018111156129ea576129ea614c52565b81526020808201929092526040908101600090812061ffff8616825290925290205490508015612b2657600081815260016020819052604090912090810154600160601b900464ffffffffff1615612abb576000612a498686866136a5565b9050612a5581846140bc565b612a5f33846141b5565b6000838152600160208190526040822082815590810180546001600160a01b031990811690915560028201805482169055600382018054909116905590612aa96004830182614a68565b612ab7600583016000614a68565b5050505b6001600160a01b0385166000908152600460209081526040808320338452909152812090856001811115612af157612af1614c52565b6001811115612b0257612b02614c52565b81526020808201929092526040908101600090812061ffff87168252909252812055505b60405181907f233d1d5c74ac8791f0673668c3df846ed7254243dc50ce621d05653f5c64b58790600090a250505050565b6001600160a01b0383166000908152600b60205260408120606091839003612b7f57506105d5565b610f55818585613807565b612b9c8b8b8b8b8b8b8b8b8b8b6142e2565b611c70338261403b565b612bae6131ee565b336000818152600760209081526040808320805464ffffffffff421664ffffffffff199091161790558683526002909152902060018101549091600160501b9091046001600160a01b031614612c175760405163068690bf60e11b815260040160405180910390fd5b60018154600160f01b900460ff166005811115612c3657612c36614c52565b14612c5457604051636f20b45d60e11b815260040160405180910390fd5b6000808254600160f81b900460ff166001811115612c7457612c74614c52565b14612c94578154612c8f906001600160801b03166002615a79565b612ca0565b81546001600160801b03165b6003830154909150612cbc906001600160a01b0316338361447e565b815460ff60f01b1916600160f11b17825560018201805464ffffffffff60281b1916600160281b4264ffffffffff160217905560405185907f92b2020aad33d0e9762dc13240d6871c7d105bf5580e3cdd3b1753c5d850fecf90600090a2612d278585856002613218565b505061097d6001600055565b82546060908084101580612d45575082155b15612d5057506105d5565b6000612d5c8486615a26565b905084811080612d6b57508181115b15612d735750805b6000855b82811015612e04576000600260008a8481548110612d9757612d97615a4c565b90600052602060002001548152602001908152602001600020905060006005811115612dc557612dc5614c52565b8154600160f01b900460ff166005811115612de257612de2614c52565b03612ded5750612dfc565b82612df781615aeb565b935050505b600101612d77565b50806001600160401b03811115612e1d57612e1d615843565b604051908082528060200260200182016040528015612e5657816020015b612e43614b37565b815260200190600190039081612e3b5790505b5093506000865b83811015611297576000898281548110612e7957612e79615a4c565b6000918252602080832090910154808352600290915260408220909250908154600160f01b900460ff166005811115612eb457612eb4614c52565b03612ec05750506131e6565b604080516101808101825282546001600160801b0381168252600160801b81046001600160601b03166020830152600160e01b810461ffff169282019290925260009183906060830190600160f01b900460ff166005811115612f2557612f25614c52565b6005811115612f3657612f36614c52565b81528154602090910190600160f81b900460ff166001811115612f5b57612f5b614c52565b6001811115612f6c57612f6c614c52565b8152600182015464ffffffffff8082166020840152600160281b82041660408301526001600160a01b03600160501b9091048116606083015260028301548116608083015260038301541660a082015260048201805460c090920191612fd190615809565b80601f0160208091040260200160405190810160405280929190818152602001828054612ffd90615809565b801561304a5780601f1061301f5761010080835404028352916020019161304a565b820191906000526020600020905b81548152906001019060200180831161302d57829003601f168201915b5050505050815260200160058201805480602002602001604051908101604052809291908181526020016000905b82821015613198576000848152602090819020604080516080810190915260028502909101805464ffffffffff811683529192909190830190600160281b900460ff1660058111156130cc576130cc614c52565b60058111156130dd576130dd614c52565b81528154600160301b900460ff161515602082015260018201805460409092019161310790615809565b80601f016020809104026020016040519081016040528092919081815260200182805461313390615809565b80156131805780601f1061315557610100808354040283529160200191613180565b820191906000526020600020905b81548152906001019060200180831161316357829003601f168201915b50505050508152505081526020019060010190613078565b505050508152505090506040518060400160405280848152602001828152508986815181106131c9576131c9615a4c565b602002602001018190525084806131df90615aeb565b9550505050505b600101612e5d565b60026000540361321157604051633ee5aeb560e01b815260040160405180910390fd5b6002600055565b60008481526002602052604090206001810154600160501b90046001600160a01b03163314801590613257575060028101546001600160a01b03163314155b156132755760405163068690bf60e11b815260040160405180910390fd5b8054600160f01b900460ff16600181600581111561329557613295614c52565b141580156132b5575060028160058111156132b2576132b2614c52565b14155b80156132d3575060038160058111156132d0576132d0614c52565b14155b156132f157604051636f20b45d60e11b815260040160405180910390fd5b600282015460408051608081019091524264ffffffffff1681526001600160a01b039091163314908490600580860191906020820190849081111561333857613338614c52565b8152602001841515815260200189898080601f016020809104026020016040519081016040528093929190818152602001838380828437600092018290525093909452505083546001810185559381526020908190208351600290950201805464ffffffffff19811664ffffffffff909616958617825591840151939490939250839165ffffffffffff191617600160281b8360058111156133dc576133dc614c52565b021790555060408201518154901515600160301b0260ff60301b199091161781556060820151600182019061341190826158b5565b505050600584015460009061342890600190615a39565b60405163ffffffff8216815290915089907f0aa69bf4e1ee8d115f11a2eb28f4ed7afff601626aac3e1bb0108fb828ff032c9060200160405180910390a2505050505050505050565b6001600160a01b03821660009081526010602090815260408083208484529091528120549003610b70576001600160a01b0382166000908152600f60205260409020546134bf906001615a26565b6001600160a01b0383166000818152601060209081526040808320868452825280832094909455918152600f825291822080546001810182559083529120018190555050565b61350f83826145c8565b61097d82826145c8565b600061271061353260326001600160801b038516615a62565b61353c9190615b04565b905061354d8684611a668486615b26565b6001600160a01b038086166000908152600660205260408120548392169081156135bc576127106135896107d06001600160801b038716615a62565b6135939190615b04565b90506001600160801b038116156135bc576135af898383613672565b6135b98184615b26565b92505b6001600160a01b0380881660009081526006602052604090205416801561362c5760006127106135f7610bb86001600160801b038916615a62565b6136019190615b04565b90506001600160801b0381161561362a5761361d8b8383613672565b6136278186615b26565b94505b505b6001600160801b03841615613666576136668a7f000000000000000000000000000000000000000000000000000000000000000086613672565b50505050505050505050565b806001600160801b031660000361368857505050565b61097d6001600160a01b038416836001600160801b0384166146f4565b60008383836040516020016136bc93929190615b45565b6040516020818303038152906040528051906020012090509392505050565b6001600160a01b03821660009081526010602090815260408083208484529091528120549081900361370c57505050565b6000613719600183615a39565b6001600160a01b0385166000908152600f6020526040812080549293509161374390600190615a39565b90508083146137b257600082828154811061376057613760615a4c565b906000526020600020015490508083858154811061378057613780615a4c565b60009182526020808320909101929092556001600160a01b038916815260108252604080822093825292909152208490555b818054806137c2576137c2615b74565b6000828152602080822083016000199081018390559092019092556001600160a01b039097168152601087526040808220968252959096525050509082209190915550565b82546060908084101580613819575082155b1561382457506105d5565b60006138308486615a26565b90508481108061383f57508181115b156138475750805b6000855b828110156138c057600088828154811061386757613867615a4c565b60009182526020808320919091015480835260019182905260408320918201549093509091600160601b90910464ffffffffff1690036138a85750506138b8565b836138b281615aeb565b94505050505b60010161384b565b50806001600160401b038111156138d9576138d9615843565b60405190808252806020026020018201604052801561391257816020015b6138ff614ac6565b8152602001906001900390816138f75790505b5093506000865b8381101561129757600089828154811061393557613935615a4c565b60009182526020808320919091015480835260019182905260408320918201549093509091600160601b90910464ffffffffff169003613976575050613bb4565b604080516101408101825282546001600160801b038082168352600160801b9091041660208201526001808401546001600160601b03811693830193909352600160601b830464ffffffffff166060830152600160881b830461ffff166080830152600092849160a0840191600160981b900460ff16908111156139fc576139fc614c52565b6001811115613a0d57613a0d614c52565b815260028201546001600160a01b0390811660208301526003830154166040820152600482018054606090920191613a4490615809565b80601f0160208091040260200160405190810160405280929190818152602001828054613a7090615809565b8015613abd5780601f10613a9257610100808354040283529160200191613abd565b820191906000526020600020905b815481529060010190602001808311613aa057829003601f168201915b50505050508152602001600582018054613ad690615809565b80601f0160208091040260200160405190810160405280929190818152602001828054613b0290615809565b8015613b4f5780601f10613b2457610100808354040283529160200191613b4f565b820191906000526020600020905b815481529060010190602001808311613b3257829003601f168201915b5050509190925250506040805160608101825286815260038601546001600160a01b031660208201529081018390528b51929350918b915087908110613b9757613b97615a4c565b60200260200101819052508480613bad90615aeb565b9550505050505b600101613919565b6001600160a01b03808a166000908152600460209081526040808320938b1683529290529081208190818b6001811115613bf857613bf8614c52565b6001811115613c0957613c09614c52565b81526020808201929092526040908101600090812061ffff8a1682528352818120548082526001909352206003810154919250906001600160a01b038b8116911614613c6857604051636df5846d60e01b815260040160405180910390fd5b6001600160a01b038a16600090815260076020526040902054600160681b900460ff16613ca85760405163a1231e1f60e01b815260040160405180910390fd5b60008b6001811115613cbc57613cbc614c52565b03613cf75760018101546001600160601b0380881691161015613cf257604051630bb46cf960e11b815260040160405180910390fd5b613d28565b60018101546001600160601b0380881691161115613d2857604051630bb46cf960e11b815260040160405180910390fd5b80546001600160801b039081169089161080613d58575080546001600160801b03600160801b9091048116908916115b15613d76576040516327466a8f60e11b815260040160405180910390fd5b6000808c6001811115613d8b57613d8b614c52565b14613d965788613da1565b613da1896002615a79565b9050613dae8d8b8361447e565b6001600160a01b038a16600090815260056020526040812080548290613ddc906001600160401b0316615b8a565b91906101000a8154816001600160401b0302191690836001600160401b03160217905590508a81604051602001613e14929190615ac1565b60408051601f19818403018152918152815160209283012060008181526002909352912080546001600160801b038d166001600160801b0319821681178355600187810154600160801b6001600160601b03909116026001600160e01b0319909316909117919091178083559297509091429190839060ff60f01b1916600160f01b83021790555081548f9083906001600160f81b0316600160f81b836001811115613ec257613ec2614c52565b02179055508d82600101600a6101000a8154816001600160a01b0302191690836001600160a01b031602179055508c8260020160006101000a8154816001600160a01b0302191690836001600160a01b031602179055508a82600001601c6101000a81548161ffff021916908361ffff160217905550808260010160006101000a81548164ffffffffff021916908364ffffffffff160217905550808260010160056101000a81548164ffffffffff021916908364ffffffffff1602179055508f8260030160006101000a8154816001600160a01b0302191690836001600160a01b031602179055508888836004019182613fbe92919061596d565b505050505050509998505050505050505050565b6001600160a01b0382166000908152600d6020526040902054613ff6906001615a26565b6001600160a01b039092166000818152600e60209081526040808320858452825280832095909555918152600d82529283208054600181018255908452922090910155565b6001600160a01b038116158015906140655750816001600160a01b0316816001600160a01b031614155b801561408957506001600160a01b0382811660009081526006602052604090205416155b15610b70576001600160a01b03918216600090815260066020526040902080546001600160a01b03191691909216179055565b6000828152600a602090815260408083208484529182905282205490918190036140e65750505050565b600084815260096020526040812090614100600184615a39565b825490915060009061411490600190615a39565b905080821461417057600083828154811061413157614131615a4c565b906000526020600020015490508084848154811061415157614151615a4c565b6000918252602080832090910192909255918252869052604090208490555b8280548061418057614180615b74565b600190038181906000526020600020016000905590558460008781526020019081526020016000206000905550505050505050565b6001600160a01b0382166000908152600c60209081526040808320848452909152812054908190036141e657505050565b6001600160a01b0383166000908152600b602052604081209061420a600184615a39565b825490915060009061421e90600190615a39565b905080821461428d57600083828154811061423b5761423b615a4c565b906000526020600020015490508084848154811061425b5761425b615a4c565b60009182526020808320909101929092556001600160a01b0389168152600c8252604080822093825292909152208490555b8280548061429d5761429d615b74565b6000828152602080822083016000199081018390559092019092556001600160a01b039097168152600c87526040808220968252959096525050509082209190915550565b60006142f08b338c8c614753565b60008181526001602081905260409091209081015491925090600160601b900464ffffffffff161580156143a2576001808301805461ffff8e16600160881b0261ffff60881b198216811783558f9360ff60981b1990911662ffffff60881b199092169190911790600160981b90849081111561436f5761436f614c52565b02179055506002820180546001600160a01b038f166001600160a01b031991821617909155600383018054909116331790555b6001600160801b03888116600160801b02908a161782556001820180546001600160601b038c166001600160601b0319909116179055600482016143e787898361596d565b50600582016143f785878361596d565b5060018201805464ffffffffff60601b1916600160601b4264ffffffffff160217905560006144278e8e8e6136a5565b905081156144435761443981856148b9565b6144433385614928565b60405184907f9b8f1594adb3b8420f8f64c7991ec1a6d7f8e27097a5d85f85bb0c0f9b5ad96290600090a25050505050505050505050505050565b806001600160801b031660000361449457505050565b6040516370a0823160e01b81526000906001600160a01b038516906370a08231906144c3903090600401615660565b602060405180830381865afa1580156144e0573d6000803e3d6000fd5b505050506040513d601f19601f820116820180604052508101906145049190615bb6565b90506145246001600160a01b03851684306001600160801b0386166149be565b6040516370a0823160e01b81526000906001600160a01b038616906370a0823190614553903090600401615660565b602060405180830381865afa158015614570573d6000803e3d6000fd5b505050506040513d601f19601f820116820180604052508101906145949190615bb6565b90506001600160801b0383166145aa8383615a39565b14610abd57604051631033736160e11b815260040160405180910390fd5b6001600160a01b0382166000908152600e60209081526040808320848452909152812054908190036145f957505050565b6000614606600183615a39565b6001600160a01b0385166000908152600d6020526040812080549293509161463090600190615a39565b905080831461469f57600082828154811061464d5761464d615a4c565b906000526020600020015490508083858154811061466d5761466d615a4c565b60009182526020808320909101929092556001600160a01b0389168152600e8252604080822093825292909152208490555b818054806146af576146af615b74565b6000828152602080822083016000199081018390559092019092556001600160a01b039097168152600e87526040808220968252959096525050509082209190915550565b6040516001600160a01b0383811660248301526044820183905261097d91859182169063a9059cbb906064015b604051602081830303815290604052915060e01b6020820180516001600160e01b0383818316178352505050506149f7565b6001600160a01b03808516600090815260046020908152604080832093871683529290529081208184600181111561478d5761478d614c52565b600181111561479e5761479e614c52565b81526020808201929092526040908101600090812061ffff8616825290925290205490508061118d576001600160a01b0384166000908152600360205260408120805482906147f5906001600160401b0316615b8a565b91906101000a8154816001600160401b0302191690836001600160401b0316021790559050848160405160200161482d929190615ac1565b60408051601f1981840301815291815281516020928301206001600160a01b03808a16600090815260048552838120918a1681529352908220909350839186600181111561487d5761487d614c52565b600181111561488e5761488e614c52565b81526020808201929092526040908101600090812061ffff8816825290925290205550949350505050565b6000828152600a602090815260408083208484529182905290912054156148df57505050565b6000838152600960205260409020546148f9906001615a26565b600083815260209283526040808220929092559384526009825283208054600181018255908452922090910155565b6001600160a01b0382166000908152600c6020908152604080832084845290915290205415614955575050565b6001600160a01b0382166000908152600b6020526040902054614979906001615a26565b6001600160a01b039092166000818152600c60209081526040808320858452825280832095909555918152600b82529283208054600181018255908452922090910155565b6040516001600160a01b0384811660248301528381166044830152606482018390526125ce9186918216906323b872dd90608401614721565b600080602060008451602086016000885af180614a1a576040513d6000823e3d81fd5b50506000513d91508115614a32578060011415614a3f565b6001600160a01b0384163b155b156125ce5783604051635274afe760e01b8152600401614a5f9190615660565b60405180910390fd5b508054614a7490615809565b6000825580601f10614a84575050565b601f016020900490600052602060002090810190614aa29190614baf565b50565b5080546000825560020290600052602060002090810190614aa29190614bc8565b6040805160608101825260008082526020820152908101614b32604080516101408101825260008082526020820181905291810182905260608101829052608081018290529060a082019081526000602082018190526040820152606080820181905260809091015290565b905290565b604080518082019091526000815260208101614b3260408051610180810182526000808252602082018190529181018290529060608201908152602001600081526000602082018190526040820181905260608083018290526080830182905260a083019190915260c0820181905260e09091015290565b5b80821115614bc45760008155600101614bb0565b5090565b80821115614bc457805466ffffffffffffff191681556000614bed6001830182614a68565b50600201614bc8565b80356001600160a01b0381168114614c0d57600080fd5b919050565b600080600060608486031215614c2757600080fd5b614c3084614bf6565b95602085013595506040909401359392505050565b6001600160801b03169052565b634e487b7160e01b600052602160045260246000fd5b60068110614c7857614c78614c52565b9052565b60028110614c7857614c78614c52565b6001600160a01b03169052565b6000815180845260005b81811015614cbf57602081850181015186830182015201614ca3565b506000602082860101526020601f19601f83011685010191505092915050565b600082825180855260208501945060208160051b8301016020850160005b83811015614d6c57601f19858403018852815164ffffffffff81511684526020810151614d2d6020860182614c68565b506040810151151560408501526060810151905060806060850152614d556080850182614c99565b6020998a0199909450929092019150600101614cfd565b50909695505050505050565b805182526000602082015160406020850152614d98604085018251614c45565b60208101516001600160601b0316606085810191909152604082015161ffff166080860152810151614dcd60a0860182614c68565b506080810151614de060c0860182614c7c565b5060a081015164ffffffffff811660e08601525060c081015164ffffffffff81166101008601525060e0810151614e1b610120860182614c8c565b50610100810151614e30610140860182614c8c565b50610120810151614e45610160860182614c8c565b5061014081015161018080860152614e616101c0860182614c99565b90506101608201519150603f19858203016101a0860152610f558183614cdf565b6000602082016020835280845180835260408501915060408160051b86010192506020860160005b82811015614edb57603f19878603018452614ec6858351614d78565b94506020938401939190910190600101614eaa565b50929695505050505050565b60008083601f840112614ef957600080fd5b5081356001600160401b03811115614f1057600080fd5b602083019150836020828501011115614f2857600080fd5b9250929050565b600080600060408486031215614f4457600080fd5b8335925060208401356001600160401b03811115614f6157600080fd5b614f6d86828701614ee7565b9497909650939450505050565b60008060208385031215614f8d57600080fd5b82356001600160401b03811115614fa357600080fd5b614faf85828601614ee7565b90969095509350505050565b600060208284031215614fcd57600080fd5b5035919050565b6000602082016020835280845180835260408501915060408160051b86010192506020860160005b82811015614edb57603f19878603018452815164ffffffffff8151168652602081015161502c6020880182614c68565b5060408101511515604087015260608101519050608060608701526150546080870182614c99565b9550506020938401939190910190600101614ffc565b602080825282518282018190526000918401906040840190835b818110156150a2578351835260209384019390920191600101615084565b509095945050505050565b803560028110614c0d57600080fd5b803561ffff81168114614c0d57600080fd5b600080600080600060a086880312156150e657600080fd5b6150ef86614bf6565b94506150fd602087016150ad565b935061510b604087016150bc565b94979396509394606081013594506080013592915050565b602080825282518282018190526000918401906040840190835b818110156150a25783516001600160a01b031683526020938401939092019160010161513d565b60006020828403121561517657600080fd5b6105d582614bf6565b60008083601f84011261519157600080fd5b5081356001600160401b038111156151a857600080fd5b6020830191508360208260051b8501011115614f2857600080fd5b6000806000604084860312156151d857600080fd5b83356001600160401b038111156151ee57600080fd5b6151fa8682870161517f565b909790965060209590950135949350505050565b6000806000806080858703121561522457600080fd5b61522d85614bf6565b935061523b60208601614bf6565b9250615249604086016150ad565b9150615257606086016150bc565b905092959194509250565b64ffffffffff871681528560030b60208201528460030b6040820152831515606082015260c06080820152600061529c60c0830185614c99565b82810360a08401526152ae8185614c99565b9998505050505050505050565b600080602083850312156152ce57600080fd5b82356001600160401b038111156152e457600080fd5b614faf8582860161517f565b6000602082016020835280845180835260408501915060408160051b86010192506020860160005b82811015614edb57603f19878603018452815164ffffffffff8151168652602081015160030b6020870152604081015160030b6040870152606081015115156060870152608081015160c0608088015261537560c0880182614c99565b905060a0820151915086810360a08801526153908183614c99565b965050506020938401939190910190600101615318565b6000806000606084860312156153bc57600080fd5b6153c584614bf6565b92506153d3602085016150ad565b91506153e1604085016150bc565b90509250925092565b8051825260018060a01b036020820151166020830152600060408201516060604085015261541c606085018251614c45565b602081015161542e6080860182614c45565b5060408101516001600160601b031660a085810191909152606082015164ffffffffff1660c0860152608082015161ffff1660e0860152810151615476610100860182614c7c565b5060c081015161548a610120860182614c8c565b5060e081015161549e610140860182614c8c565b506101008101516101406101608601526154bc6101a0860182614c99565b90506101208201519150605f1985820301610180860152610f558183614c99565b6000602082016020835280845180835260408501915060408160051b86010192506020860160005b82811015614edb57603f198786030184526155218583516153ea565b94506020938401939190910190600101615505565b80356001600160801b0381168114614c0d57600080fd5b80356001600160601b0381168114614c0d57600080fd5b60008060008060008060008060008060006101208c8e03121561558657600080fd5b61558f8c614bf6565b9a5061559d60208d016150ad565b99506155ab60408d01614bf6565b98506155b960608d01615536565b97506155c760808d016150bc565b96506155d560a08d0161554d565b955060c08c01356001600160401b038111156155f057600080fd5b6155fc8e828f01614ee7565b90965094505060e08c01356001600160401b0381111561561b57600080fd5b6156278e828f01614ee7565b909450925061563b90506101008d01614bf6565b90509295989b509295989b9093969950565b6020815260006105d560208301846153ea565b6001600160a01b0391909116815260200190565b6020815260006105d56020830184614d78565b6001600160801b038c1681526001600160601b038b16602082015261ffff8a1660408201526156b9606082018a614c68565b6156c66080820189614c7c565b64ffffffffff871660a082015264ffffffffff861660c08201526156ed60e0820186614c8c565b6156fb610100820185614c8c565b615709610120820184614c8c565b6101606101408201526000615722610160830184614c99565b9d9c50505050505050505050505050565b60006020828403121561574557600080fd5b813580151581146105d557600080fd5b60008060008060008060008060008060006101208c8e03121561577757600080fd5b6157808c614bf6565b9a5061578e60208d016150ad565b995061579c60408d016150bc565b98506157aa60608d0161554d565b97506157b860808d01615536565b96506155d560a08d01615536565b634e487b7160e01b600052601160045260246000fd5b600381810b9083900b01637fffffff8113637fffffff1982121715615803576158036157c6565b92915050565b600181811c9082168061581d57607f821691505b60208210810361583d57634e487b7160e01b600052602260045260246000fd5b50919050565b634e487b7160e01b600052604160045260246000fd5b601f82111561097d57806000526020600020601f840160051c810160208510156158805750805b601f840160051c820191505b81811015610abd576000815560010161588c565b600019600383901b1c191660019190911b1790565b81516001600160401b038111156158ce576158ce615843565b6158e2816158dc8454615809565b84615859565b6020601f82116001811461591057600083156158fe5750848201515b61590884826158a0565b855550610abd565b600084815260208120601f198516915b828110156159405787850151825560209485019460019092019101615920565b508482101561595e5786840151600019600387901b60f8161c191681555b50505050600190811b01905550565b6001600160401b0383111561598457615984615843565b615998836159928354615809565b83615859565b6000601f8411600181146159c657600085156159b45750838201355b6159be86826158a0565b845550610abd565b600083815260209020601f19861690835b828110156159f757868501358255602094850194600190920191016159d7565b5086821015615a145760001960f88860031b161c19848701351681555b505060018560011b0183555050505050565b80820180821115615803576158036157c6565b81810381811115615803576158036157c6565b634e487b7160e01b600052603260045260246000fd5b8082028115828204841417615803576158036157c6565b6001600160801b038181168382160290811690818114615a9b57615a9b6157c6565b5092915050565b6001600160401b038181168382160190811115615803576158036157c6565b60609290921b6001600160601b031916825260c01b6001600160c01b0319166014820152601c0190565b600060018201615afd57615afd6157c6565b5060010190565b600082615b2157634e487b7160e01b600052601260045260246000fd5b500490565b6001600160801b038281168282160390811115615803576158036157c6565b6001600160a01b038416815260608101615b626020830185614c7c565b61ffff83166040830152949350505050565b634e487b7160e01b600052603160045260246000fd5b60006001600160401b0382166002600160401b03198101615bad57615bad6157c6565b60010192915050565b600060208284031215615bc857600080fd5b505191905056fec677acc686f4424b864e232e217de479edc357e161509d63e7304bccb2b5253aa2646970667358221220065c5dc7d6a93399fe80be0ac316496e72e9161536bab39a65c7e32bd16e219b64736f6c634300081c0033",
  "linkReferences": {},
  "deployedLinkReferences": {},
  "immutableReferences": {
    "1552": [
      {
        "length": 32,
        "start": 13889
      }
    ]
  },
  "inputSourceName": "project/contracts/Swap2p.sol",
  "buildInfoId": "solc-0_8_28-45683c90d04c804ff214eb76fe09ffca77762237"
}