{
  "_format": "hh3-artifact-1",
  "contractName": "Swap2p",
  "sourceName": "contracts/Swap2p.sol",
  "abi": [
    {
      "inputs": [
        {
          "internalType": "address",
          "name": "author_",
          "type": "address"
        }
      ],
      "stateMutability": "nonpayable",
      "type": "constructor"
    },
    {
      "inputs": [],
      "name": "AmountOutOfBounds",
      "type": "error"
    },
    {
      "inputs": [],
      "name": "AuthorZero",
      "type": "error"
    },
    {
      "inputs": [],
      "name": "DealNotFound",
      "type": "error"
    },
    {
      "inputs": [],
      "name": "FeeOnTransferTokenNotSupported",
      "type": "error"
    },
    {
      "inputs": [],
      "name": "InsufficientDeposit",
      "type": "error"
    },
    {
      "inputs": [],
      "name": "MakerOffline",
      "type": "error"
    },
    {
      "inputs": [],
      "name": "NicknameTaken",
      "type": "error"
    },
    {
      "inputs": [],
      "name": "NotFiatPayer",
      "type": "error"
    },
    {
      "inputs": [],
      "name": "OfferNotFound",
      "type": "error"
    },
    {
      "inputs": [],
      "name": "ReentrancyGuardReentrantCall",
      "type": "error"
    },
    {
      "inputs": [
        {
          "internalType": "address",
          "name": "token",
          "type": "address"
        }
      ],
      "name": "SafeERC20FailedOperation",
      "type": "error"
    },
    {
      "inputs": [],
      "name": "WorsePrice",
      "type": "error"
    },
    {
      "inputs": [],
      "name": "WrongCaller",
      "type": "error"
    },
    {
      "inputs": [],
      "name": "WrongSide",
      "type": "error"
    },
    {
      "inputs": [],
      "name": "WrongState",
      "type": "error"
    },
    {
      "anonymous": false,
      "inputs": [
        {
          "indexed": true,
          "internalType": "bytes32",
          "name": "id",
          "type": "bytes32"
        },
        {
          "indexed": true,
          "internalType": "address",
          "name": "from",
          "type": "address"
        },
        {
          "indexed": true,
          "internalType": "address",
          "name": "to",
          "type": "address"
        },
        {
          "indexed": false,
          "internalType": "uint32",
          "name": "index",
          "type": "uint32"
        }
      ],
      "name": "Chat",
      "type": "event"
    },
    {
      "anonymous": false,
      "inputs": [
        {
          "indexed": true,
          "internalType": "bytes32",
          "name": "id",
          "type": "bytes32"
        },
        {
          "indexed": false,
          "internalType": "enum Swap2p.DealState",
          "name": "state",
          "type": "uint8"
        },
        {
          "indexed": true,
          "internalType": "address",
          "name": "maker",
          "type": "address"
        },
        {
          "indexed": true,
          "internalType": "address",
          "name": "taker",
          "type": "address"
        }
      ],
      "name": "DealUpdated",
      "type": "event"
    },
    {
      "anonymous": false,
      "inputs": [
        {
          "indexed": true,
          "internalType": "address",
          "name": "maker",
          "type": "address"
        },
        {
          "indexed": false,
          "internalType": "bool",
          "name": "online",
          "type": "bool"
        }
      ],
      "name": "MakerOnline",
      "type": "event"
    },
    {
      "anonymous": false,
      "inputs": [
        {
          "indexed": true,
          "internalType": "bytes32",
          "name": "id",
          "type": "bytes32"
        },
        {
          "indexed": true,
          "internalType": "address",
          "name": "maker",
          "type": "address"
        }
      ],
      "name": "OfferDeleted",
      "type": "event"
    },
    {
      "anonymous": false,
      "inputs": [
        {
          "indexed": true,
          "internalType": "bytes32",
          "name": "id",
          "type": "bytes32"
        },
        {
          "indexed": true,
          "internalType": "address",
          "name": "maker",
          "type": "address"
        }
      ],
      "name": "OfferUpsert",
      "type": "event"
    },
    {
      "inputs": [
        {
          "internalType": "address",
          "name": "",
          "type": "address"
        }
      ],
      "name": "affiliates",
      "outputs": [
        {
          "internalType": "address",
          "name": "",
          "type": "address"
        }
      ],
      "stateMutability": "view",
      "type": "function"
    },
    {
      "inputs": [
        {
          "internalType": "bytes32",
          "name": "id",
          "type": "bytes32"
        },
        {
          "internalType": "bytes",
          "name": "reason",
          "type": "bytes"
        }
      ],
      "name": "cancelDeal",
      "outputs": [],
      "stateMutability": "nonpayable",
      "type": "function"
    },
    {
      "inputs": [
        {
          "internalType": "bytes32",
          "name": "id",
          "type": "bytes32"
        },
        {
          "internalType": "bytes",
          "name": "reason",
          "type": "bytes"
        }
      ],
      "name": "cancelRequest",
      "outputs": [],
      "stateMutability": "nonpayable",
      "type": "function"
    },
    {
      "inputs": [
        {
          "internalType": "bytes32",
          "name": "",
          "type": "bytes32"
        }
      ],
      "name": "deals",
      "outputs": [
        {
          "internalType": "uint128",
          "name": "amount",
          "type": "uint128"
        },
        {
          "internalType": "uint96",
          "name": "price",
          "type": "uint96"
        },
        {
          "internalType": "Swap2p.FiatCode",
          "name": "fiat",
          "type": "uint16"
        },
        {
          "internalType": "enum Swap2p.DealState",
          "name": "state",
          "type": "uint8"
        },
        {
          "internalType": "enum Swap2p.Side",
          "name": "side",
          "type": "uint8"
        },
        {
          "internalType": "uint40",
          "name": "tsRequest",
          "type": "uint40"
        },
        {
          "internalType": "uint40",
          "name": "tsLast",
          "type": "uint40"
        },
        {
          "internalType": "address",
          "name": "maker",
          "type": "address"
        },
        {
          "internalType": "address",
          "name": "taker",
          "type": "address"
        },
        {
          "internalType": "address",
          "name": "token",
          "type": "address"
        },
        {
          "internalType": "string",
          "name": "paymentMethod",
          "type": "string"
        }
      ],
      "stateMutability": "view",
      "type": "function"
    },
    {
      "inputs": [
        {
          "internalType": "bytes32",
          "name": "id",
          "type": "bytes32"
        }
      ],
      "name": "getDealChatLength",
      "outputs": [
        {
          "internalType": "uint256",
          "name": "",
          "type": "uint256"
        }
      ],
      "stateMutability": "view",
      "type": "function"
    },
    {
      "inputs": [
        {
          "internalType": "bytes32",
          "name": "id",
          "type": "bytes32"
        },
        {
          "internalType": "uint256",
          "name": "off",
          "type": "uint256"
        },
        {
          "internalType": "uint256",
          "name": "lim",
          "type": "uint256"
        }
      ],
      "name": "getDealChatSlice",
      "outputs": [
        {
          "components": [
            {
              "internalType": "uint40",
              "name": "ts",
              "type": "uint40"
            },
            {
              "internalType": "enum Swap2p.DealState",
              "name": "state",
              "type": "uint8"
            },
            {
              "internalType": "bool",
              "name": "toMaker",
              "type": "bool"
            },
            {
              "internalType": "bytes",
              "name": "text",
              "type": "bytes"
            }
          ],
          "internalType": "struct Swap2p.ChatMessage[]",
          "name": "out",
          "type": "tuple[]"
        }
      ],
      "stateMutability": "view",
      "type": "function"
    },
    {
      "inputs": [
        {
          "internalType": "address",
          "name": "maker",
          "type": "address"
        }
      ],
      "name": "getMakerOfferCount",
      "outputs": [
        {
          "internalType": "uint256",
          "name": "",
          "type": "uint256"
        }
      ],
      "stateMutability": "view",
      "type": "function"
    },
    {
      "inputs": [
        {
          "internalType": "address",
          "name": "maker",
          "type": "address"
        },
        {
          "internalType": "uint256",
          "name": "off",
          "type": "uint256"
        },
        {
          "internalType": "uint256",
          "name": "lim",
          "type": "uint256"
        }
      ],
      "name": "getMakerOfferIds",
      "outputs": [
        {
          "internalType": "bytes32[]",
          "name": "out",
          "type": "bytes32[]"
        }
      ],
      "stateMutability": "view",
      "type": "function"
    },
    {
      "inputs": [
        {
          "internalType": "address",
          "name": "maker",
          "type": "address"
        },
        {
          "internalType": "uint256",
          "name": "off",
          "type": "uint256"
        },
        {
          "internalType": "uint256",
          "name": "lim",
          "type": "uint256"
        }
      ],
      "name": "getMakerOffers",
      "outputs": [
        {
          "components": [
            {
              "internalType": "bytes32",
              "name": "id",
              "type": "bytes32"
            },
            {
              "internalType": "address",
              "name": "maker",
              "type": "address"
            },
            {
              "components": [
                {
                  "internalType": "uint128",
                  "name": "minAmt",
                  "type": "uint128"
                },
                {
                  "internalType": "uint128",
                  "name": "maxAmt",
                  "type": "uint128"
                },
                {
                  "internalType": "uint96",
                  "name": "priceFiatPerToken",
                  "type": "uint96"
                },
                {
                  "internalType": "uint40",
                  "name": "ts",
                  "type": "uint40"
                },
                {
                  "internalType": "Swap2p.FiatCode",
                  "name": "fiat",
                  "type": "uint16"
                },
                {
                  "internalType": "enum Swap2p.Side",
                  "name": "side",
                  "type": "uint8"
                },
                {
                  "internalType": "address",
                  "name": "token",
                  "type": "address"
                },
                {
                  "internalType": "address",
                  "name": "maker",
                  "type": "address"
                },
                {
                  "internalType": "string",
                  "name": "paymentMethods",
                  "type": "string"
                },
                {
                  "internalType": "string",
                  "name": "requirements",
                  "type": "string"
                }
              ],
              "internalType": "struct Swap2p.Offer",
              "name": "offer",
              "type": "tuple"
            }
          ],
          "internalType": "struct Swap2p.OfferInfo[]",
          "name": "out",
          "type": "tuple[]"
        }
      ],
      "stateMutability": "view",
      "type": "function"
    },
    {
      "inputs": [
        {
          "internalType": "address[]",
          "name": "accounts",
          "type": "address[]"
        }
      ],
      "name": "getMakerProfiles",
      "outputs": [
        {
          "components": [
            {
              "internalType": "int32",
              "name": "dealsCancelled",
              "type": "int32"
            },
            {
              "internalType": "int32",
              "name": "dealsCompleted",
              "type": "int32"
            },
            {
              "internalType": "bool",
              "name": "online",
              "type": "bool"
            },
            {
              "internalType": "bytes32",
              "name": "nickname",
              "type": "bytes32"
            },
            {
              "internalType": "bytes32",
              "name": "chatPublicKey",
              "type": "bytes32"
            }
          ],
          "internalType": "struct Swap2p.MakerProfile[]",
          "name": "profiles",
          "type": "tuple[]"
        }
      ],
      "stateMutability": "view",
      "type": "function"
    },
    {
      "inputs": [
        {
          "internalType": "address",
          "name": "token",
          "type": "address"
        },
        {
          "internalType": "enum Swap2p.Side",
          "name": "s",
          "type": "uint8"
        },
        {
          "internalType": "Swap2p.FiatCode",
          "name": "f",
          "type": "uint16"
        },
        {
          "internalType": "uint256",
          "name": "off",
          "type": "uint256"
        },
        {
          "internalType": "uint256",
          "name": "lim",
          "type": "uint256"
        }
      ],
      "name": "getMarketOffers",
      "outputs": [
        {
          "components": [
            {
              "internalType": "bytes32",
              "name": "id",
              "type": "bytes32"
            },
            {
              "internalType": "address",
              "name": "maker",
              "type": "address"
            },
            {
              "components": [
                {
                  "internalType": "uint128",
                  "name": "minAmt",
                  "type": "uint128"
                },
                {
                  "internalType": "uint128",
                  "name": "maxAmt",
                  "type": "uint128"
                },
                {
                  "internalType": "uint96",
                  "name": "priceFiatPerToken",
                  "type": "uint96"
                },
                {
                  "internalType": "uint40",
                  "name": "ts",
                  "type": "uint40"
                },
                {
                  "internalType": "Swap2p.FiatCode",
                  "name": "fiat",
                  "type": "uint16"
                },
                {
                  "internalType": "enum Swap2p.Side",
                  "name": "side",
                  "type": "uint8"
                },
                {
                  "internalType": "address",
                  "name": "token",
                  "type": "address"
                },
                {
                  "internalType": "address",
                  "name": "maker",
                  "type": "address"
                },
                {
                  "internalType": "string",
                  "name": "paymentMethods",
                  "type": "string"
                },
                {
                  "internalType": "string",
                  "name": "requirements",
                  "type": "string"
                }
              ],
              "internalType": "struct Swap2p.Offer",
              "name": "offer",
              "type": "tuple"
            }
          ],
          "internalType": "struct Swap2p.OfferInfo[]",
          "name": "out",
          "type": "tuple[]"
        }
      ],
      "stateMutability": "view",
      "type": "function"
    },
    {
      "inputs": [
        {
          "internalType": "address",
          "name": "token",
          "type": "address"
        },
        {
          "internalType": "enum Swap2p.Side",
          "name": "s",
          "type": "uint8"
        },
        {
          "internalType": "Swap2p.FiatCode",
          "name": "f",
          "type": "uint16"
        }
      ],
      "name": "getOfferCount",
      "outputs": [
        {
          "internalType": "uint256",
          "name": "",
          "type": "uint256"
        }
      ],
      "stateMutability": "view",
      "type": "function"
    },
    {
      "inputs": [
        {
          "internalType": "address",
          "name": "token",
          "type": "address"
        },
        {
          "internalType": "address",
          "name": "maker",
          "type": "address"
        },
        {
          "internalType": "enum Swap2p.Side",
          "name": "s",
          "type": "uint8"
        },
        {
          "internalType": "Swap2p.FiatCode",
          "name": "f",
          "type": "uint16"
        }
      ],
      "name": "getOfferId",
      "outputs": [
        {
          "internalType": "bytes32",
          "name": "",
          "type": "bytes32"
        }
      ],
      "stateMutability": "view",
      "type": "function"
    },
    {
      "inputs": [
        {
          "internalType": "address",
          "name": "u",
          "type": "address"
        }
      ],
      "name": "getOpenDealCount",
      "outputs": [
        {
          "internalType": "uint256",
          "name": "",
          "type": "uint256"
        }
      ],
      "stateMutability": "view",
      "type": "function"
    },
    {
      "inputs": [
        {
          "internalType": "address",
          "name": "u",
          "type": "address"
        },
        {
          "internalType": "uint256",
          "name": "off",
          "type": "uint256"
        },
        {
          "internalType": "uint256",
          "name": "lim",
          "type": "uint256"
        }
      ],
      "name": "getOpenDeals",
      "outputs": [
        {
          "internalType": "bytes32[]",
          "name": "out",
          "type": "bytes32[]"
        }
      ],
      "stateMutability": "view",
      "type": "function"
    },
    {
      "inputs": [
        {
          "internalType": "address",
          "name": "u",
          "type": "address"
        },
        {
          "internalType": "uint256",
          "name": "off",
          "type": "uint256"
        },
        {
          "internalType": "uint256",
          "name": "lim",
          "type": "uint256"
        }
      ],
      "name": "getOpenDealsDetailed",
      "outputs": [
        {
          "components": [
            {
              "internalType": "bytes32",
              "name": "id",
              "type": "bytes32"
            },
            {
              "components": [
                {
                  "internalType": "uint128",
                  "name": "amount",
                  "type": "uint128"
                },
                {
                  "internalType": "uint96",
                  "name": "price",
                  "type": "uint96"
                },
                {
                  "internalType": "Swap2p.FiatCode",
                  "name": "fiat",
                  "type": "uint16"
                },
                {
                  "internalType": "enum Swap2p.DealState",
                  "name": "state",
                  "type": "uint8"
                },
                {
                  "internalType": "enum Swap2p.Side",
                  "name": "side",
                  "type": "uint8"
                },
                {
                  "internalType": "uint40",
                  "name": "tsRequest",
                  "type": "uint40"
                },
                {
                  "internalType": "uint40",
                  "name": "tsLast",
                  "type": "uint40"
                },
                {
                  "internalType": "address",
                  "name": "maker",
                  "type": "address"
                },
                {
                  "internalType": "address",
                  "name": "taker",
                  "type": "address"
                },
                {
                  "internalType": "address",
                  "name": "token",
                  "type": "address"
                },
                {
                  "internalType": "string",
                  "name": "paymentMethod",
                  "type": "string"
                },
                {
                  "components": [
                    {
                      "internalType": "uint40",
                      "name": "ts",
                      "type": "uint40"
                    },
                    {
                      "internalType": "enum Swap2p.DealState",
                      "name": "state",
                      "type": "uint8"
                    },
                    {
                      "internalType": "bool",
                      "name": "toMaker",
                      "type": "bool"
                    },
                    {
                      "internalType": "bytes",
                      "name": "text",
                      "type": "bytes"
                    }
                  ],
                  "internalType": "struct Swap2p.ChatMessage[]",
                  "name": "chat",
                  "type": "tuple[]"
                }
              ],
              "internalType": "struct Swap2p.Deal",
              "name": "deal",
              "type": "tuple"
            }
          ],
          "internalType": "struct Swap2p.DealInfo[]",
          "name": "out",
          "type": "tuple[]"
        }
      ],
      "stateMutability": "view",
      "type": "function"
    },
    {
      "inputs": [
        {
          "internalType": "address",
          "name": "u",
          "type": "address"
        }
      ],
      "name": "getRecentDealCount",
      "outputs": [
        {
          "internalType": "uint256",
          "name": "",
          "type": "uint256"
        }
      ],
      "stateMutability": "view",
      "type": "function"
    },
    {
      "inputs": [
        {
          "internalType": "address",
          "name": "u",
          "type": "address"
        },
        {
          "internalType": "uint256",
          "name": "off",
          "type": "uint256"
        },
        {
          "internalType": "uint256",
          "name": "lim",
          "type": "uint256"
        }
      ],
      "name": "getRecentDealsDetailed",
      "outputs": [
        {
          "components": [
            {
              "internalType": "bytes32",
              "name": "id",
              "type": "bytes32"
            },
            {
              "components": [
                {
                  "internalType": "uint128",
                  "name": "amount",
                  "type": "uint128"
                },
                {
                  "internalType": "uint96",
                  "name": "price",
                  "type": "uint96"
                },
                {
                  "internalType": "Swap2p.FiatCode",
                  "name": "fiat",
                  "type": "uint16"
                },
                {
                  "internalType": "enum Swap2p.DealState",
                  "name": "state",
                  "type": "uint8"
                },
                {
                  "internalType": "enum Swap2p.Side",
                  "name": "side",
                  "type": "uint8"
                },
                {
                  "internalType": "uint40",
                  "name": "tsRequest",
                  "type": "uint40"
                },
                {
                  "internalType": "uint40",
                  "name": "tsLast",
                  "type": "uint40"
                },
                {
                  "internalType": "address",
                  "name": "maker",
                  "type": "address"
                },
                {
                  "internalType": "address",
                  "name": "taker",
                  "type": "address"
                },
                {
                  "internalType": "address",
                  "name": "token",
                  "type": "address"
                },
                {
                  "internalType": "string",
                  "name": "paymentMethod",
                  "type": "string"
                },
                {
                  "components": [
                    {
                      "internalType": "uint40",
                      "name": "ts",
                      "type": "uint40"
                    },
                    {
                      "internalType": "enum Swap2p.DealState",
                      "name": "state",
                      "type": "uint8"
                    },
                    {
                      "internalType": "bool",
                      "name": "toMaker",
                      "type": "bool"
                    },
                    {
                      "internalType": "bytes",
                      "name": "text",
                      "type": "bytes"
                    }
                  ],
                  "internalType": "struct Swap2p.ChatMessage[]",
                  "name": "chat",
                  "type": "tuple[]"
                }
              ],
              "internalType": "struct Swap2p.Deal",
              "name": "deal",
              "type": "tuple"
            }
          ],
          "internalType": "struct Swap2p.DealInfo[]",
          "name": "out",
          "type": "tuple[]"
        }
      ],
      "stateMutability": "view",
      "type": "function"
    },
    {
      "inputs": [
        {
          "internalType": "address",
          "name": "",
          "type": "address"
        }
      ],
      "name": "makerInfo",
      "outputs": [
        {
          "internalType": "int32",
          "name": "dealsCancelled",
          "type": "int32"
        },
        {
          "internalType": "int32",
          "name": "dealsCompleted",
          "type": "int32"
        },
        {
          "internalType": "bool",
          "name": "online",
          "type": "bool"
        },
        {
          "internalType": "bytes32",
          "name": "nickname",
          "type": "bytes32"
        },
        {
          "internalType": "bytes32",
          "name": "chatPublicKey",
          "type": "bytes32"
        }
      ],
      "stateMutability": "view",
      "type": "function"
    },
    {
      "inputs": [
        {
          "internalType": "bytes32",
          "name": "id",
          "type": "bytes32"
        },
        {
          "internalType": "bytes",
          "name": "msg_",
          "type": "bytes"
        }
      ],
      "name": "maker_acceptRequest",
      "outputs": [],
      "stateMutability": "nonpayable",
      "type": "function"
    },
    {
      "inputs": [
        {
          "internalType": "address",
          "name": "token",
          "type": "address"
        },
        {
          "internalType": "enum Swap2p.Side",
          "name": "s",
          "type": "uint8"
        },
        {
          "internalType": "Swap2p.FiatCode",
          "name": "f",
          "type": "uint16"
        }
      ],
      "name": "maker_deleteOffer",
      "outputs": [],
      "stateMutability": "nonpayable",
      "type": "function"
    },
    {
      "inputs": [
        {
          "internalType": "address",
          "name": "token",
          "type": "address"
        },
        {
          "internalType": "enum Swap2p.Side",
          "name": "s",
          "type": "uint8"
        },
        {
          "internalType": "Swap2p.FiatCode",
          "name": "f",
          "type": "uint16"
        },
        {
          "internalType": "uint96",
          "name": "price",
          "type": "uint96"
        },
        {
          "internalType": "uint128",
          "name": "minAmt",
          "type": "uint128"
        },
        {
          "internalType": "uint128",
          "name": "maxAmt",
          "type": "uint128"
        },
        {
          "internalType": "string",
          "name": "paymentMethods",
          "type": "string"
        },
        {
          "internalType": "string",
          "name": "requirements",
          "type": "string"
        },
        {
          "internalType": "address",
          "name": "partner",
          "type": "address"
        }
      ],
      "name": "maker_makeOffer",
      "outputs": [],
      "stateMutability": "nonpayable",
      "type": "function"
    },
    {
      "inputs": [
        {
          "internalType": "bytes32",
          "name": "id",
          "type": "bytes32"
        },
        {
          "internalType": "bytes",
          "name": "msg_",
          "type": "bytes"
        }
      ],
      "name": "markFiatPaid",
      "outputs": [],
      "stateMutability": "nonpayable",
      "type": "function"
    },
    {
      "inputs": [
        {
          "internalType": "bytes32",
          "name": "",
          "type": "bytes32"
        }
      ],
      "name": "nicknameTaken",
      "outputs": [
        {
          "internalType": "bool",
          "name": "",
          "type": "bool"
        }
      ],
      "stateMutability": "view",
      "type": "function"
    },
    {
      "inputs": [
        {
          "internalType": "bytes32",
          "name": "",
          "type": "bytes32"
        }
      ],
      "name": "offers",
      "outputs": [
        {
          "internalType": "uint128",
          "name": "minAmt",
          "type": "uint128"
        },
        {
          "internalType": "uint128",
          "name": "maxAmt",
          "type": "uint128"
        },
        {
          "internalType": "uint96",
          "name": "priceFiatPerToken",
          "type": "uint96"
        },
        {
          "internalType": "uint40",
          "name": "ts",
          "type": "uint40"
        },
        {
          "internalType": "Swap2p.FiatCode",
          "name": "fiat",
          "type": "uint16"
        },
        {
          "internalType": "enum Swap2p.Side",
          "name": "side",
          "type": "uint8"
        },
        {
          "internalType": "address",
          "name": "token",
          "type": "address"
        },
        {
          "internalType": "address",
          "name": "maker",
          "type": "address"
        },
        {
          "internalType": "string",
          "name": "paymentMethods",
          "type": "string"
        },
        {
          "internalType": "string",
          "name": "requirements",
          "type": "string"
        }
      ],
      "stateMutability": "view",
      "type": "function"
    },
    {
      "inputs": [
        {
          "internalType": "address",
          "name": "taker",
          "type": "address"
        }
      ],
      "name": "previewNextDealId",
      "outputs": [
        {
          "internalType": "bytes32",
          "name": "id",
          "type": "bytes32"
        },
        {
          "internalType": "uint64",
          "name": "nonce",
          "type": "uint64"
        }
      ],
      "stateMutability": "view",
      "type": "function"
    },
    {
      "inputs": [
        {
          "internalType": "address",
          "name": "maker",
          "type": "address"
        }
      ],
      "name": "previewNextOfferId",
      "outputs": [
        {
          "internalType": "bytes32",
          "name": "id",
          "type": "bytes32"
        },
        {
          "internalType": "uint64",
          "name": "nonce",
          "type": "uint64"
        }
      ],
      "stateMutability": "view",
      "type": "function"
    },
    {
      "inputs": [
        {
          "internalType": "bytes32",
          "name": "id",
          "type": "bytes32"
        },
        {
          "internalType": "bytes",
          "name": "msg_",
          "type": "bytes"
        }
      ],
      "name": "release",
      "outputs": [],
      "stateMutability": "nonpayable",
      "type": "function"
    },
    {
      "inputs": [
        {
          "internalType": "bytes32",
          "name": "id",
          "type": "bytes32"
        },
        {
          "internalType": "bytes",
          "name": "t",
          "type": "bytes"
        }
      ],
      "name": "sendMessage",
      "outputs": [],
      "stateMutability": "nonpayable",
      "type": "function"
    },
    {
      "inputs": [
        {
          "internalType": "bytes32",
          "name": "key",
          "type": "bytes32"
        }
      ],
      "name": "setChatPublicKey",
      "outputs": [],
      "stateMutability": "nonpayable",
      "type": "function"
    },
    {
      "inputs": [
        {
          "internalType": "bytes32",
          "name": "nick",
          "type": "bytes32"
        }
      ],
      "name": "setNickname",
      "outputs": [],
      "stateMutability": "nonpayable",
      "type": "function"
    },
    {
      "inputs": [
        {
          "internalType": "bool",
          "name": "on",
          "type": "bool"
        }
      ],
      "name": "setOnline",
      "outputs": [],
      "stateMutability": "nonpayable",
      "type": "function"
    },
    {
      "inputs": [
        {
          "internalType": "address",
          "name": "token",
          "type": "address"
        },
        {
          "internalType": "enum Swap2p.Side",
          "name": "s",
          "type": "uint8"
        },
        {
          "internalType": "address",
          "name": "maker",
          "type": "address"
        },
        {
          "internalType": "uint128",
          "name": "amount",
          "type": "uint128"
        },
        {
          "internalType": "Swap2p.FiatCode",
          "name": "f",
          "type": "uint16"
        },
        {
          "internalType": "uint96",
          "name": "expectedPrice",
          "type": "uint96"
        },
        {
          "internalType": "string",
          "name": "paymentMethod",
          "type": "string"
        },
        {
          "internalType": "bytes",
          "name": "paymentDetails",
          "type": "bytes"
        },
        {
          "internalType": "address",
          "name": "partner",
          "type": "address"
        }
      ],
      "name": "taker_requestOffer",
      "outputs": [],
      "stateMutability": "nonpayable",
      "type": "function"
    }
  ],
  "bytecode": "0x60a0604052348015600f57600080fd5b50604051614ab1380380614ab1833981016040819052602c916067565b60016000556001600160a01b03811660575760405163f79316e160e01b815260040160405180910390fd5b6001600160a01b03166080526095565b600060208284031215607857600080fd5b81516001600160a01b0381168114608e57600080fd5b9392505050565b608051614a016100b060003960006126d10152614a016000f3fe608060405234801561001057600080fd5b506004361061018b5760003560e01c806301d563f9146101905780631ae8ab81146101b95780631bc8a466146101ce57806323c640e7146101e15780632b9c45cb146101f45780633b959fb11461022b5780633d4d81de1461023e5780633d8dfcce1461025e5780633f9951aa146102dd5780634314a8e2146102fd57806347437d1c14610310578063474d3ff01461032357806347cdcec41461034c578063495b0bad1461035f5780634bfac20c146103925780634f51e294146103a55780636197c008146103db57806364c1cfa1146103fe5780636cd366ec146104115780636d2a0fd01461043157806371a735c714610461578063722fe6061461047457806381cd872a1461049d5780638b0cd57d146104c757806390bd9002146104e75780639af8868c146104fa578063b0fa390314610523578063b708e30814610536578063bd407c1e14610559578063c31821c71461056c578063ce4b8daf1461057f578063ef0745a414610592578063f05b89fe146105a5575b600080fd5b6101a361019e366004613aca565b6105b8565b6040516101b09190613c30565b60405180910390f35b6101cc6101c7366004613d98565b6105ed565b005b6101cc6101dc366004613df9565b6106aa565b6101cc6101ef366004613df9565b610984565b61021d610202366004613e44565b6001600160a01b03166000908152600b602052604090205490565b6040519081526020016101b0565b61021d610239366004613e80565b610991565b61025161024c366004613aca565b610a0f565b6040516101b09190613ed4565b6102a661026c366004613e44565b600760205260009081526040902080546001820154600290920154600382810b93600160201b840490910b92600160401b900460ff169185565b6040516101b0959493929190600395860b81529390940b602084015290151560408301526060820152608081019190915260a00190565b6102f06102eb366004613f17565b610b1d565b6040516101b09190613f8c565b61025161030b366004613aca565b610c5d565b6101cc61031e366004613df9565b610d5b565b610336610331366004613d98565b610fd2565b6040516101b09a99989796959493929190613ffc565b6101cc61035a3660046140ca565b61116d565b61038261036d366004613d98565b60086020526000908152604090205460ff1681565b60405190151581526020016101b0565b6101cc6103a0366004613df9565b611250565b6103ce6103b3366004613e44565b6006602052600090815260409020546001600160a01b031681565b6040516101b091906141b3565b61021d6103e9366004613d98565b60009081526002602052604090206005015490565b6101cc61040c366004613df9565b611436565b61042461041f3660046141c7565b6115aa565b6040516101b0919061421c565b61044461043f366004613e44565b6115f3565b604080519283526001600160401b039091166020830152016101b0565b61044461046f366004613e44565b611654565b61021d610482366004613e44565b6001600160a01b03166000908152600d602052604090205490565b6104b06104ab366004613d98565b611683565b6040516101b09b9a99989796959493929190614361565b6104da6104d53660046143fc565b6117a5565b6040516101b09190614428565b61021d6104f53660046144be565b6119c6565b61021d610508366004613e44565b6001600160a01b03166000908152600f602052604090205490565b6101cc610531366004614501565b6119f0565b6101cc610544366004613d98565b33600090815260076020526040902060020155565b6101a3610567366004613aca565b611a55565b6101cc61057a3660046144be565b611a80565b61042461058d366004613aca565b611c36565b6101cc6105a0366004614523565b611c69565b6101cc6105b3366004613df9565b611c85565b606081156105e6576001600160a01b0384166000908152600f602052604090206105e3908484611e09565b90505b9392505050565b33600090815260076020526040902060018101548261062d578015610628576000818152600860205260408120805460ff1916905560018301555b505050565b82810361063957505050565b60008381526008602052604090205460ff161561066957604051637ec9752560e01b815260040160405180910390fd5b6000838152600860205260409020805460ff1916600190811790915582018390558015610628576000908152600860205260409020805460ff191690555050565b6106b261224d565b600083815260026020526040902060038154600160f01b900460ff1660058111156106df576106df613b0a565b146106fd57604051636f20b45d60e11b815260040160405180910390fd5b6001810154600282015460038301548354600160501b9093046001600160a01b039081169392811692911690600160f81b900460ff16600081600181111561074757610747613b0a565b14801561075d5750336001600160a01b03841614155b8061078d5750600181600181111561077757610777613b0a565b14801561078d5750336001600160a01b03851614155b156107ab5760405163068690bf60e11b815260040160405180910390fd5b6107b88888886004612277565b845460ff60f01b1916600160f21b17855560018501805464ffffffffff60281b1916600160281b4264ffffffffff16021790556107f58489612500565b6107ff8389612500565b61080a84848a612595565b6001600160a01b0384166000908152600760205260409020805460019190600490610840908490600160201b900460030b6145aa565b825463ffffffff9182166101009390930a9283029190920219909116179055506001600160a01b0383166000908152600760205260409020805460019190600490610896908490600160201b900460030b6145aa565b92506101000a81548163ffffffff021916908360030b63ffffffff16021790555060008060018111156108cb576108cb613b0a565b8260018111156108dd576108dd613b0a565b146108e857836108ea565b845b86549091506109099084908690889085906001600160801b03166125a9565b855461092190849086906001600160801b0316612702565b855461093990849087906001600160801b0316612702565b836001600160a01b0316856001600160a01b03168a6000805160206149ac833981519152600460405161096c91906145d7565b60405180910390a45050505050506106286001600055565b6106288383836000612277565b6001600160a01b0380851660009081526004602090815260408083209387168352929052908120818460018111156109cb576109cb613b0a565b60018111156109dc576109dc613b0a565b815260200190815260200160002060008361ffff1661ffff1681526020019081526020016000205490505b949350505050565b6001600160a01b0383166000908152600b602052604090208054606091908085101580610a3a575083155b15610a465750506105e6565b6000610a5285876145e5565b905085811080610a6157508181115b15610a695750805b6000610a7587836145f8565b9050806001600160401b03811115610a8f57610a8f61460b565b604051908082528060200260200182016040528015610ab8578160200160208202803683370190505b50945060005b81811015610b115784610ad1828a6145e5565b81548110610ae157610ae1614621565b9060005260206000200154868281518110610afe57610afe614621565b6020908102919091010152600101610abe565b50505050509392505050565b606081806001600160401b03811115610b3857610b3861460b565b604051908082528060200260200182016040528015610b9157816020015b6040805160a081018252600080825260208083018290529282018190526060820181905260808201528252600019909201910181610b565790505b50915060005b81811015610c555760076000868684818110610bb557610bb5614621565b9050602002016020810190610bca9190613e44565b6001600160a01b031681526020808201929092526040908101600020815160a0810183528154600381810b8352600160201b8204900b94820194909452600160401b90930460ff16151591830191909152600181015460608301526002015460808201528351849083908110610c4257610c42614621565b6020908102919091010152600101610b97565b505092915050565b6001600160a01b0383166000908152600d60205260409020805460609190808510610c895750506105e6565b6000610c9585876145e5565b905085811080610ca457508181115b15610cac5750805b610cb686826145f8565b6001600160401b03811115610ccd57610ccd61460b565b604051908082528060200260200182016040528015610cf6578160200160208202803683370190505b509350855b81811015610d5057838181548110610d1557610d15614621565b9060005260206000200154858883610d2d91906145f8565b81518110610d3d57610d3d614621565b6020908102919091010152600101610cfb565b505050509392505050565b610d6361224d565b6000838152600260208190526040909120908154600160f01b900460ff166005811115610d9257610d92613b0a565b14610db057604051636f20b45d60e11b815260040160405180910390fd5b6001810154600282015460038301548354600160501b9093046001600160a01b039081169392811692911690600160f81b900460ff1633849003610e265760005b816001811115610e0357610e03613b0a565b14610e215760405163153c8df760e31b815260040160405180910390fd5b610e56565b6001600160a01b0383163303610e3d576001610df1565b60405163068690bf60e11b815260040160405180910390fd5b610e638888886005612277565b845460ff60f01b1916600560f01b17855560018501805464ffffffffff60281b1916600160281b4264ffffffffff1602179055610ea08489612500565b610eaa8389612500565b6000816001811115610ebe57610ebe613b0a565b03610f03578454610ee69083908590610ee1906001600160801b03166002614637565b612702565b8454610efe90839086906001600160801b0316612702565b610f39565b8454610f1b90839085906001600160801b0316612702565b8454610f399083908690610ee1906001600160801b03166002614637565b610f4484848a612595565b336000908152600760205260408120805460019290610f6790849060030b6145aa565b92506101000a81548163ffffffff021916908360030b63ffffffff160217905550826001600160a01b0316846001600160a01b0316896000805160206149ac8339815191526005604051610fbb91906145d7565b60405180910390a450505050506106286001600055565b6001602081905260009182526040909120805491810154600282015460038301546004840180546001600160801b0380881697600160801b900416956001600160601b03861695600160601b810464ffffffffff1695600160881b820461ffff1695600160981b90920460ff16946001600160a01b03918216949190921692919061105c90614660565b80601f016020809104026020016040519081016040528092919081815260200182805461108890614660565b80156110d55780601f106110aa576101008083540402835291602001916110d5565b820191906000526020600020905b8154815290600101906020018083116110b857829003601f168201915b5050505050908060050180546110ea90614660565b80601f016020809104026020016040519081016040528092919081815260200182805461111690614660565b80156111635780601f1061113857610100808354040283529160200191611163565b820191906000526020600020905b81548152906001019060200180831161114657829003601f168201915b505050505090508a565b61117561224d565b336001600160a01b038a16810361119f5760405163068690bf60e11b815260040160405180910390fd5b60006111b28d8d8d858e8e8e8e8e612735565b90506111be8b82612b4b565b6111c88282612b4b565b6111d28284612bb4565b60008181526002602052604090206111ed8287876001612277565b60028101546001808301546040516001600160a01b0393841693600160501b9092049091169185916000805160206149ac8339815191529161122e916145d7565b60405180910390a45050506112436001600055565b5050505050505050505050565b61125861224d565b6000838152600260208190526040909120600181015491810154600382015482549293600160501b90046001600160a01b039081169392811692911690600160f81b900460ff163384148015906112b85750336001600160a01b03841614155b156112d65760405163068690bf60e11b815260040160405180910390fd5b60018554600160f01b900460ff1660058111156112f5576112f5613b0a565b1461131357604051636f20b45d60e11b815260040160405180910390fd5b6113208888886005612277565b845460ff60f01b1916600560f01b17855560018501805464ffffffffff60281b1916600160281b4264ffffffffff160217905561135d8489612500565b6113678389612500565b60008082600181111561137c5761137c613b0a565b146113915785546001600160801b03166113a7565b85546113a7906001600160801b03166002614637565b90506113b4838583612702565b6113bf85858b612595565b3360009081526007602052604081208054600192906113e290849060030b6145aa565b92506101000a81548163ffffffff021916908360030b63ffffffff160217905550836001600160a01b0316856001600160a01b03168a6000805160206149ac833981519152600560405161096c91906145d7565b6000838152600260208190526040909120908154600160f01b900460ff16600581111561146557611465613b0a565b1461148357604051636f20b45d60e11b815260040160405180910390fd5b600181015460028201548254600160501b9092046001600160a01b0390811692911690600160f81b900460ff1660008160018111156114c4576114c4613b0a565b1480156114da5750336001600160a01b03841614155b8061150a575060018160018111156114f4576114f4613b0a565b14801561150a5750336001600160a01b03831614155b15611528576040516330698c3d60e01b815260040160405180910390fd5b835460ff60f01b1916600360f01b17845560018401805464ffffffffff60281b1916600160281b4264ffffffffff16021790556040516001600160a01b03838116919085169089906000805160206149ac8339815191529061158c906003906145d7565b60405180910390a46115a18787876003612277565b50505050505050565b60606000600960006115bd898989612c35565b81526020019081526020016000209050826000036115db57506115ea565b6115e6818585612c6b565b9150505b95945050505050565b6001600160a01b0381166000908152600560205260408120548190611622906001600160401b0316600161469a565b905082816040516020016116379291906146b9565b604051602081830303815290604052805190602001209150915091565b6001600160a01b0381166000908152600360205260408120548190611622906001600160401b0316600161469a565b6002602081905260009182526040909120805460018201549282015460038301546004840180546001600160801b038516966001600160601b03600160801b8704169661ffff600160e01b8804169660ff600160f01b8204811697600160f81b909204169564ffffffffff80851696600160281b8604909116956001600160a01b03600160501b90960486169593841694929093169261172290614660565b80601f016020809104026020016040519081016040528092919081815260200182805461174e90614660565b801561179b5780601f106117705761010080835404028352916020019161179b565b820191906000526020600020905b81548152906001019060200180831161177e57829003601f168201915b505050505090508b565b600083815260026020526040902060050180546060919080851015806117c9575083155b156117d55750506105e6565b60006117e185876145e5565b9050858110806117f057508181115b156117f85750805b600061180487836145f8565b9050806001600160401b0381111561181e5761181e61460b565b60405190808252806020026020018201604052801561186f57816020015b604080516080810182526000808252602080830182905292820152606080820152825260001990920191018161183c5790505b50945060005b81811015610b115784611888828a6145e5565b8154811061189857611898614621565b60009182526020918290206040805160808101909152600290920201805464ffffffffff81168352919290919083019060ff600160281b9091041660058111156118e4576118e4613b0a565b60058111156118f5576118f5613b0a565b81528154600160301b900460ff161515602082015260018201805460409092019161191f90614660565b80601f016020809104026020016040519081016040528092919081815260200182805461194b90614660565b80156119985780601f1061196d57610100808354040283529160200191611998565b820191906000526020600020905b81548152906001019060200180831161197b57829003601f168201915b5050505050815250508682815181106119b3576119b3614621565b6020908102919091010152600101611875565b6000600960006119d7868686612c35565b8152602081019190915260400160002054949350505050565b33600081815260076020526040908190208054841515600160401b0260ff60401b19909116179055517fbf7433268f9e84553144e23f130bdb514d559f991d19288c0e6d0ad00440636e90611a4a90841515815260200190565b60405180910390a250565b606081156105e6576001600160a01b0384166000908152600d602052604090206105e3908484611e09565b6001600160a01b0383166000908152600460209081526040808320338452909152812081846001811115611ab657611ab6613b0a565b6001811115611ac757611ac7613b0a565b81526020808201929092526040908101600090812061ffff8616825290925290205490508015611c0357600081815260016020819052604090912090810154600160601b900464ffffffffff1615611b98576000611b26868686612c35565b9050611b328184612fb4565b611b3c33846130ad565b6000838152600160208190526040822082815590810180546001600160a01b031990811690915560028201805482169055600382018054909116905590611b86600483018261396f565b611b9460058301600061396f565b5050505b6001600160a01b0385166000908152600460209081526040808320338452909152812090856001811115611bce57611bce613b0a565b6001811115611bdf57611bdf613b0a565b81526020808201929092526040908101600090812061ffff87168252909252812055505b604051339082907fd034e926f773a0c87edbfa278bc873a1c38db139e706540f2decb2e16863e21a90600090a350505050565b6001600160a01b0383166000908152600b60205260408120606091839003611c5e57506105e6565b6115ea818585612c6b565b611c7b8b8b8b8b8b8b8b8b8b8b6131da565b6112433382612bb4565b611c8d61224d565b600083815260026020819052604090912060018101549181015490916001600160a01b03600160501b90910481169116338214611cdd5760405163068690bf60e11b815260040160405180910390fd5b60018354600160f01b900460ff166005811115611cfc57611cfc613b0a565b14611d1a57604051636f20b45d60e11b815260040160405180910390fd5b6000808454600160f81b900460ff166001811115611d3a57611d3a613b0a565b14611d5a578354611d55906001600160801b03166002614637565b611d66565b83546001600160801b03165b6003850154909150611d82906001600160a01b03168483613378565b835460ff60f01b1916600160f11b17845560018401805464ffffffffff60281b1916600160281b4264ffffffffff16021790556040516001600160a01b03838116919085169089906000805160206149ac83398151915290611de6906002906145d7565b60405180910390a4611dfb8787876002612277565b505050506106286001600055565b82546060908084101580611e1b575082155b15611e2657506105e6565b6000611e3284866145e5565b905084811080611e4157508181115b15611e495750805b6000611e5586836145f8565b9050806001600160401b03811115611e6f57611e6f61460b565b604051908082528060200260200182016040528015611ea857816020015b611e956139ac565b815260200190600190039081611e8d5790505b5093506000865b83811015612240576000898281548110611ecb57611ecb614621565b6000918252602080832090910154808352600290915260408220909250908154600160f01b900460ff166005811115611f0657611f06613b0a565b03611f12575050612238565b604080516101808101825282546001600160801b0381168252600160801b81046001600160601b03166020830152600160e01b810461ffff169282019290925260009183906060830190600160f01b900460ff166005811115611f7757611f77613b0a565b6005811115611f8857611f88613b0a565b81528154602090910190600160f81b900460ff166001811115611fad57611fad613b0a565b6001811115611fbe57611fbe613b0a565b8152600182015464ffffffffff8082166020840152600160281b82041660408301526001600160a01b03600160501b9091048116606083015260028301548116608083015260038301541660a082015260048201805460c09092019161202390614660565b80601f016020809104026020016040519081016040528092919081815260200182805461204f90614660565b801561209c5780601f106120715761010080835404028352916020019161209c565b820191906000526020600020905b81548152906001019060200180831161207f57829003601f168201915b5050505050815260200160058201805480602002602001604051908101604052809291908181526020016000905b828210156121ea576000848152602090819020604080516080810190915260028502909101805464ffffffffff811683529192909190830190600160281b900460ff16600581111561211e5761211e613b0a565b600581111561212f5761212f613b0a565b81528154600160301b900460ff161515602082015260018201805460409092019161215990614660565b80601f016020809104026020016040519081016040528092919081815260200182805461218590614660565b80156121d25780601f106121a7576101008083540402835291602001916121d2565b820191906000526020600020905b8154815290600101906020018083116121b557829003601f168201915b505050505081525050815260200190600101906120ca565b5050505081525050905060405180604001604052808481526020018281525089868151811061221b5761221b614621565b60200260200101819052508480612231906146e3565b9550505050505b600101611eaf565b5084525050509392505050565b60026000540361227057604051633ee5aeb560e01b815260040160405180910390fd5b6002600055565b600084815260026020819052604090912060018101549181015490916001600160a01b03600160501b909104811691163382148015906122c05750336001600160a01b03821614155b156122de5760405163068690bf60e11b815260040160405180910390fd5b8254600160f01b900460ff1660018160058111156122fe576122fe613b0a565b1415801561231e5750600281600581111561231b5761231b613b0a565b14155b801561233c5750600381600581111561233957612339613b0a565b14155b1561235a57604051636f20b45d60e11b815260040160405180910390fd5b6000826001600160a01b0316336001600160a01b031614905060008690508560050160405180608001604052804264ffffffffff1681526020018360058111156123a6576123a6613b0a565b815260200184151581526020018b8b8080601f016020809104026020016040519081016040528093929190818152602001838380828437600092018290525093909452505083546001810185559381526020908190208351600290950201805464ffffffffff19811664ffffffffff909616958617825591840151939490939250839165ffffffffffff191617600160281b83600581111561244a5761244a613b0a565b021790555060408201518154901515600160301b0260ff60301b199091161781556060820151600182019061247f9082614758565b5050506005860154600090612496906001906145f8565b90506000836124a557856124a7565b865b60405163ffffffff841681529091506001600160a01b0382169033908e907f8881ad3af510f47be7b5b01ded7d660ce9fc4e822abbc3cb101005230a171cfb9060200160405180910390a4505050505050505050505050565b6001600160a01b03821660009081526010602090815260408083208484529091528120549003612591576001600160a01b0382166000908152600f602052604090205461254e9060016145e5565b6001600160a01b0383166000818152601060209081526040808320868452825280832094909455918152600f825291822080546001810182559083529120018190555b5050565b61259f83826134c9565b61062882826134c9565b60006127106125c260326001600160801b038516614810565b6125cc9190614827565b90506125dd8684610ee18486614849565b6001600160a01b0380861660009081526006602052604081205483921690811561264c576127106126196107d06001600160801b038716614810565b6126239190614827565b90506001600160801b0381161561264c5761263f898383612702565b6126498184614849565b92505b6001600160a01b038088166000908152600660205260409020541680156126bc576000612710612687610bb86001600160801b038916614810565b6126919190614827565b90506001600160801b038116156126ba576126ad8b8383612702565b6126b78186614849565b94505b505b6001600160801b038416156126f6576126f68a7f000000000000000000000000000000000000000000000000000000000000000086612702565b50505050505050505050565b806001600160801b031660000361271857505050565b6106286001600160a01b038416836001600160801b0384166135f5565b6001600160a01b03808a166000908152600460209081526040808320938b1683529290529081208190818b600181111561277157612771613b0a565b600181111561278257612782613b0a565b81526020808201929092526040908101600090812061ffff8a1682528352818120548082526001909352206003810154919250906001600160a01b038b81169116146127e157604051636df5846d60e01b815260040160405180910390fd5b6001600160a01b038a16600090815260076020526040902054600160401b900460ff166128215760405163a1231e1f60e01b815260040160405180910390fd5b60008b600181111561283557612835613b0a565b036128705760018101546001600160601b038088169116101561286b57604051630bb46cf960e11b815260040160405180910390fd5b6128a1565b60018101546001600160601b03808816911611156128a157604051630bb46cf960e11b815260040160405180910390fd5b80546001600160801b0390811690891610806128d1575080546001600160801b03600160801b9091048116908916115b156128ef576040516327466a8f60e11b815260040160405180910390fd5b6000808c600181111561290457612904613b0a565b1461290f578861291a565b61291a896002614637565b90506129278d8b83613378565b6001600160a01b038a16600090815260056020526040812080548290612955906001600160401b0316614868565b91906101000a8154816001600160401b0302191690836001600160401b03160217905590508a8160405160200161298d9291906146b9565b60408051601f19818403018152918152815160209283012060008181526002909352912080546001600160801b038d166001600160801b0319821681178355600187810154600160801b6001600160601b03909116026001600160e01b0319909316909117919091178083559297509091429190839060ff60f01b1916600160f01b83021790555081548f9083906001600160f81b0316600160f81b836001811115612a3b57612a3b613b0a565b02179055508d82600101600a6101000a8154816001600160a01b0302191690836001600160a01b031602179055508c8260020160006101000a8154816001600160a01b0302191690836001600160a01b031602179055508a82600001601c6101000a81548161ffff021916908361ffff160217905550808260010160006101000a81548164ffffffffff021916908364ffffffffff160217905550808260010160056101000a81548164ffffffffff021916908364ffffffffff1602179055508f8260030160006101000a8154816001600160a01b0302191690836001600160a01b031602179055508888836004019182612b37929190614894565b505050505050509998505050505050505050565b6001600160a01b0382166000908152600d6020526040902054612b6f9060016145e5565b6001600160a01b039092166000818152600e60209081526040808320858452825280832095909555918152600d82529283208054600181018255908452922090910155565b6001600160a01b03811615801590612bde5750816001600160a01b0316816001600160a01b031614155b8015612c0257506001600160a01b0382811660009081526006602052604090205416155b15612591576001600160a01b03918216600090815260066020526040902080546001600160a01b03191691909216179055565b6000838383604051602001612c4c9392919061494d565b6040516020818303038152906040528051906020012090509392505050565b82546060908084101580612c7d575082155b15612c8857506105e6565b6000612c9484866145e5565b905084811080612ca357508181115b15612cab5750805b6000612cb786836145f8565b9050806001600160401b03811115612cd157612cd161460b565b604051908082528060200260200182016040528015612d0a57816020015b612cf7613a29565b815260200190600190039081612cef5790505b5093506000865b83811015612240576000898281548110612d2d57612d2d614621565b60009182526020808320919091015480835260019182905260408320918201549093509091600160601b90910464ffffffffff169003612d6e575050612fac565b604080516101408101825282546001600160801b038082168352600160801b9091041660208201526001808401546001600160601b03811693830193909352600160601b830464ffffffffff166060830152600160881b830461ffff166080830152600092849160a0840191600160981b900460ff1690811115612df457612df4613b0a565b6001811115612e0557612e05613b0a565b815260028201546001600160a01b0390811660208301526003830154166040820152600482018054606090920191612e3c90614660565b80601f0160208091040260200160405190810160405280929190818152602001828054612e6890614660565b8015612eb55780601f10612e8a57610100808354040283529160200191612eb5565b820191906000526020600020905b815481529060010190602001808311612e9857829003601f168201915b50505050508152602001600582018054612ece90614660565b80601f0160208091040260200160405190810160405280929190818152602001828054612efa90614660565b8015612f475780601f10612f1c57610100808354040283529160200191612f47565b820191906000526020600020905b815481529060010190602001808311612f2a57829003601f168201915b5050509190925250506040805160608101825286815260038601546001600160a01b031660208201529081018390528b51929350918b915087908110612f8f57612f8f614621565b60200260200101819052508480612fa5906146e3565b9550505050505b600101612d11565b6000828152600a60209081526040808320848452918290528220549091819003612fde5750505050565b600084815260096020526040812090612ff86001846145f8565b825490915060009061300c906001906145f8565b905080821461306857600083828154811061302957613029614621565b906000526020600020015490508084848154811061304957613049614621565b6000918252602080832090910192909255918252869052604090208490555b828054806130785761307861497c565b600190038181906000526020600020016000905590558460008781526020019081526020016000206000905550505050505050565b6001600160a01b0382166000908152600c60209081526040808320848452909152812054908190036130de57505050565b6001600160a01b0383166000908152600b60205260408120906131026001846145f8565b8254909150600090613116906001906145f8565b905080821461318557600083828154811061313357613133614621565b906000526020600020015490508084848154811061315357613153614621565b60009182526020808320909101929092556001600160a01b0389168152600c8252604080822093825292909152208490555b828054806131955761319561497c565b6000828152602080822083016000199081018390559092019092556001600160a01b039097168152600c87526040808220968252959096525050509082209190915550565b60006131e88b338c8c613654565b60008181526001602081905260409091209081015491925090600160601b900464ffffffffff1615801561329a576001808301805461ffff8e16600160881b0261ffff60881b198216811783558f9360ff60981b1990911662ffffff60881b199092169190911790600160981b90849081111561326757613267613b0a565b02179055506002820180546001600160a01b038f166001600160a01b031991821617909155600383018054909116331790555b6001600160801b03888116600160801b02908a161782556001820180546001600160601b038c166001600160601b0319909116179055600482016132df878983614894565b50600582016132ef858783614894565b5060018201805464ffffffffff60601b1916600160601b4264ffffffffff1602179055600061331f8e8e8e612c35565b9050811561333b5761333181856137ba565b61333b3385613829565b604051339085907f4a0f066f959faaaee735f67f0fb4dc5e1507bb5920edaec3bb18fd182a4dbca390600090a35050505050505050505050505050565b806001600160801b031660000361338e57505050565b6040516370a0823160e01b81526000906001600160a01b038516906370a08231906133bd9030906004016141b3565b602060405180830381865afa1580156133da573d6000803e3d6000fd5b505050506040513d601f19601f820116820180604052508101906133fe9190614992565b905061341e6001600160a01b03851684306001600160801b0386166138bf565b6040516370a0823160e01b81526000906001600160a01b038616906370a082319061344d9030906004016141b3565b602060405180830381865afa15801561346a573d6000803e3d6000fd5b505050506040513d601f19601f8201168201806040525081019061348e9190614992565b90506001600160801b0383166134a483836145f8565b146134c257604051631033736160e11b815260040160405180910390fd5b5050505050565b6001600160a01b0382166000908152600e60209081526040808320848452909152812054908190036134fa57505050565b60006135076001836145f8565b6001600160a01b0385166000908152600d60205260408120805492935091613531906001906145f8565b90508083146135a057600082828154811061354e5761354e614621565b906000526020600020015490508083858154811061356e5761356e614621565b60009182526020808320909101929092556001600160a01b0389168152600e8252604080822093825292909152208490555b818054806135b0576135b061497c565b6000828152602080822083016000199081018390559092019092556001600160a01b039097168152600e87526040808220968252959096525050509082209190915550565b6040516001600160a01b0383811660248301526044820183905261062891859182169063a9059cbb906064015b604051602081830303815290604052915060e01b6020820180516001600160e01b0383818316178352505050506138fe565b6001600160a01b03808516600090815260046020908152604080832093871683529290529081208184600181111561368e5761368e613b0a565b600181111561369f5761369f613b0a565b81526020808201929092526040908101600090812061ffff86168252909252902054905080610a07576001600160a01b0384166000908152600360205260408120805482906136f6906001600160401b0316614868565b91906101000a8154816001600160401b0302191690836001600160401b0316021790559050848160405160200161372e9291906146b9565b60408051601f1981840301815291815281516020928301206001600160a01b03808a16600090815260048552838120918a1681529352908220909350839186600181111561377e5761377e613b0a565b600181111561378f5761378f613b0a565b81526020808201929092526040908101600090812061ffff8816825290925290205550949350505050565b6000828152600a602090815260408083208484529182905290912054156137e057505050565b6000838152600960205260409020546137fa9060016145e5565b600083815260209283526040808220929092559384526009825283208054600181018255908452922090910155565b6001600160a01b0382166000908152600c6020908152604080832084845290915290205415613856575050565b6001600160a01b0382166000908152600b602052604090205461387a9060016145e5565b6001600160a01b039092166000818152600c60209081526040808320858452825280832095909555918152600b82529283208054600181018255908452922090910155565b6040516001600160a01b0384811660248301528381166044830152606482018390526138f89186918216906323b872dd90608401613622565b50505050565b600080602060008451602086016000885af180613921576040513d6000823e3d81fd5b50506000513d91508115613939578060011415613946565b6001600160a01b0384163b155b156138f85783604051635274afe760e01b815260040161396691906141b3565b60405180910390fd5b50805461397b90614660565b6000825580601f1061398b575050565b601f0160209004906000526020600020908101906139a99190613a95565b50565b604080518082019091526000815260208101613a2460408051610180810182526000808252602082018190529181018290529060608201908152602001600081526000602082018190526040820181905260608083018290526080830182905260a083019190915260c0820181905260e09091015290565b905290565b6040805160608101825260008082526020820152908101613a24604080516101408101825260008082526020820181905291810182905260608101829052608081018290529060a082019081526000602082018190526040820152606080820181905260809091015290565b5b80821115613aaa5760008155600101613a96565b5090565b80356001600160a01b0381168114613ac557600080fd5b919050565b600080600060608486031215613adf57600080fd5b613ae884613aae565b95602085013595506040909401359392505050565b6001600160801b03169052565b634e487b7160e01b600052602160045260246000fd5b60068110613b3057613b30613b0a565b9052565b60028110613b3057613b30613b0a565b6001600160a01b03169052565b6000815180845260005b81811015613b7757602081850181015186830182015201613b5b565b506000602082860101526020601f19601f83011685010191505092915050565b600082825180855260208501945060208160051b8301016020850160005b83811015613c2457601f19858403018852815164ffffffffff81511684526020810151613be56020860182613b20565b506040810151151560408501526060810151905060806060850152613c0d6080850182613b51565b6020998a0199909450929092019150600101613bb5565b50909695505050505050565b6000602082016020835280845180835260408501915060408160051b86010192506020860160005b82811015613d8c57603f198786030184528151805186526020810151905060406020870152613c8b604087018251613afd565b60208101516001600160601b0316606087810191909152604082015161ffff166080880152810151613cc060a0880182613b20565b506080810151613cd360c0880182613b34565b5060a081015164ffffffffff811660e08801525060c081015164ffffffffff81166101008801525060e0810151613d0e610120880182613b44565b50610100810151613d23610140880182613b44565b50610120810151613d38610160880182613b44565b5061014081015161018080880152613d546101c0880182613b51565b90506101608201519150603f19878203016101a0880152613d758183613b97565b965050506020938401939190910190600101613c58565b50929695505050505050565b600060208284031215613daa57600080fd5b5035919050565b60008083601f840112613dc357600080fd5b5081356001600160401b03811115613dda57600080fd5b602083019150836020828501011115613df257600080fd5b9250929050565b600080600060408486031215613e0e57600080fd5b8335925060208401356001600160401b03811115613e2b57600080fd5b613e3786828701613db1565b9497909650939450505050565b600060208284031215613e5657600080fd5b6105e682613aae565b803560028110613ac557600080fd5b803561ffff81168114613ac557600080fd5b60008060008060808587031215613e9657600080fd5b613e9f85613aae565b9350613ead60208601613aae565b9250613ebb60408601613e5f565b9150613ec960608601613e6e565b905092959194509250565b602080825282518282018190526000918401906040840190835b81811015613f0c578351835260209384019390920191600101613eee565b509095945050505050565b60008060208385031215613f2a57600080fd5b82356001600160401b03811115613f4057600080fd5b8301601f81018513613f5157600080fd5b80356001600160401b03811115613f6757600080fd5b8560208260051b8401011115613f7c57600080fd5b6020919091019590945092505050565b602080825282518282018190526000918401906040840190835b81811015613f0c578351805160030b8452602081015160030b602085015260408101511515604085015260608101516060850152608081015160808501525060a083019250602084019350600181019050613fa6565b6001600160801b038b811682528a1660208201526001600160601b038916604082015264ffffffffff8816606082015261ffff8716608082015261404360a0820187613b34565b6001600160a01b03851660c082015261405f60e0820185613b44565b6101406101008201526000614078610140830185613b51565b82810361012084015261408b8185613b51565b9d9c50505050505050505050505050565b80356001600160801b0381168114613ac557600080fd5b80356001600160601b0381168114613ac557600080fd5b60008060008060008060008060008060006101208c8e0312156140ec57600080fd5b6140f58c613aae565b9a5061410360208d01613e5f565b995061411160408d01613aae565b985061411f60608d0161409c565b975061412d60808d01613e6e565b965061413b60a08d016140b3565b955060c08c01356001600160401b0381111561415657600080fd5b6141628e828f01613db1565b90965094505060e08c01356001600160401b0381111561418157600080fd5b61418d8e828f01613db1565b90945092506141a190506101008d01613aae565b90509295989b509295989b9093969950565b6001600160a01b0391909116815260200190565b600080600080600060a086880312156141df57600080fd5b6141e886613aae565b94506141f660208701613e5f565b935061420460408701613e6e565b94979396509394606081013594506080013592915050565b6000602082016020835280845180835260408501915060408160051b86010192506020860160005b82811015613d8c57603f1987860301845281518051865260018060a01b0360208201511660208701526040810151905060606040870152614289606087018251613afd565b602081015161429b6080880182613afd565b5060408101516001600160601b031660a087810191909152606082015164ffffffffff1660c0880152608082015161ffff1660e08801528101516142e3610100880182613b34565b5060c08101516142f7610120880182613b44565b5060e081015161430b610140880182613b44565b506101008101516101406101608801526143296101a0880182613b51565b90506101208201519150605f198782030161018088015261434a8183613b51565b965050506020938401939190910190600101614244565b6001600160801b038c1681526001600160601b038b16602082015261ffff8a166040820152614393606082018a613b20565b6143a06080820189613b34565b64ffffffffff871660a082015264ffffffffff861660c08201526143c760e0820186613b44565b6143d5610100820185613b44565b6143e3610120820184613b44565b610160610140820152600061408b610160830184613b51565b60008060006060848603121561441157600080fd5b505081359360208301359350604090920135919050565b6000602082016020835280845180835260408501915060408160051b86010192506020860160005b82811015613d8c57603f19878603018452815164ffffffffff815116865260208101516144806020880182613b20565b5060408101511515604087015260608101519050608060608701526144a86080870182613b51565b9550506020938401939190910190600101614450565b6000806000606084860312156144d357600080fd5b6144dc84613aae565b92506144ea60208501613e5f565b91506144f860408501613e6e565b90509250925092565b60006020828403121561451357600080fd5b813580151581146105e657600080fd5b60008060008060008060008060008060006101208c8e03121561454557600080fd5b61454e8c613aae565b9a5061455c60208d01613e5f565b995061456a60408d01613e6e565b985061457860608d016140b3565b975061458660808d0161409c565b965061413b60a08d0161409c565b634e487b7160e01b600052601160045260246000fd5b600381810b9083900b01637fffffff8113637fffffff19821217156145d1576145d1614594565b92915050565b602081016145d18284613b20565b808201808211156145d1576145d1614594565b818103818111156145d1576145d1614594565b634e487b7160e01b600052604160045260246000fd5b634e487b7160e01b600052603260045260246000fd5b6001600160801b03818116838216029081169081811461465957614659614594565b5092915050565b600181811c9082168061467457607f821691505b60208210810361469457634e487b7160e01b600052602260045260246000fd5b50919050565b6001600160401b0381811683821601908111156145d1576145d1614594565b60609290921b6001600160601b031916825260c01b6001600160c01b0319166014820152601c0190565b6000600182016146f5576146f5614594565b5060010190565b601f82111561062857806000526020600020601f840160051c810160208510156147235750805b601f840160051c820191505b818110156134c2576000815560010161472f565b600019600383901b1c191660019190911b1790565b81516001600160401b038111156147715761477161460b565b6147858161477f8454614660565b846146fc565b6020601f8211600181146147b357600083156147a15750848201515b6147ab8482614743565b8555506134c2565b600084815260208120601f198516915b828110156147e357878501518255602094850194600190920191016147c3565b50848210156148015786840151600019600387901b60f8161c191681555b50505050600190811b01905550565b80820281158282048414176145d1576145d1614594565b60008261484457634e487b7160e01b600052601260045260246000fd5b500490565b6001600160801b0382811682821603908111156145d1576145d1614594565b60006001600160401b0382166002600160401b0319810161488b5761488b614594565b60010192915050565b6001600160401b038311156148ab576148ab61460b565b6148bf836148b98354614660565b836146fc565b6000601f8411600181146148ed57600085156148db5750838201355b6148e58682614743565b8455506134c2565b600083815260209020601f19861690835b8281101561491e57868501358255602094850194600190920191016148fe565b508682101561493b5760001960f88860031b161c19848701351681555b505060018560011b0183555050505050565b6001600160a01b03841681526060810161496a6020830185613b34565b61ffff83166040830152949350505050565b634e487b7160e01b600052603160045260246000fd5b6000602082840312156149a457600080fd5b505191905056fe1be6d5b0b71452d3467425b57f71ccf98ba98a86cabe2779b8a52996704b647fa26469706673582212207a6219c19b8eb718b09af879bf1558658ae6648803b956fb8bc140c507da1b1864736f6c634300081c0033",
  "linkReferences": {},
  "deployedLinkReferences": {},
  "immutableReferences": {
    "1550": [
      {
        "length": 32,
        "start": 9937
      }
    ]
  },
  "inputSourceName": "project/contracts/Swap2p.sol",
  "buildInfoId": "solc-0_8_28-35669191338004170f7972a98e02bab74d03c253"
}