{
  "_format": "hh3-artifact-1",
  "contractName": "Swap2p",
  "sourceName": "contracts/Swap2p.sol",
  "abi": [
    {
      "inputs": [
        {
          "internalType": "address",
          "name": "author_",
          "type": "address"
        }
      ],
      "stateMutability": "nonpayable",
      "type": "constructor"
    },
    {
      "inputs": [],
      "name": "AmountOutOfBounds",
      "type": "error"
    },
    {
      "inputs": [],
      "name": "AuthorZero",
      "type": "error"
    },
    {
      "inputs": [],
      "name": "DealNotFound",
      "type": "error"
    },
    {
      "inputs": [],
      "name": "FeeOnTransferTokenNotSupported",
      "type": "error"
    },
    {
      "inputs": [],
      "name": "InsufficientDeposit",
      "type": "error"
    },
    {
      "inputs": [],
      "name": "MakerOffline",
      "type": "error"
    },
    {
      "inputs": [],
      "name": "NicknameTaken",
      "type": "error"
    },
    {
      "inputs": [],
      "name": "NotFiatPayer",
      "type": "error"
    },
    {
      "inputs": [],
      "name": "OfferNotFound",
      "type": "error"
    },
    {
      "inputs": [],
      "name": "ReentrancyGuardReentrantCall",
      "type": "error"
    },
    {
      "inputs": [
        {
          "internalType": "address",
          "name": "token",
          "type": "address"
        }
      ],
      "name": "SafeERC20FailedOperation",
      "type": "error"
    },
    {
      "inputs": [],
      "name": "WorsePrice",
      "type": "error"
    },
    {
      "inputs": [],
      "name": "WrongCaller",
      "type": "error"
    },
    {
      "inputs": [],
      "name": "WrongSide",
      "type": "error"
    },
    {
      "inputs": [],
      "name": "WrongState",
      "type": "error"
    },
    {
      "anonymous": false,
      "inputs": [
        {
          "indexed": true,
          "internalType": "bytes32",
          "name": "id",
          "type": "bytes32"
        },
        {
          "indexed": true,
          "internalType": "address",
          "name": "from",
          "type": "address"
        },
        {
          "indexed": true,
          "internalType": "address",
          "name": "to",
          "type": "address"
        },
        {
          "indexed": false,
          "internalType": "uint32",
          "name": "index",
          "type": "uint32"
        }
      ],
      "name": "Chat",
      "type": "event"
    },
    {
      "anonymous": false,
      "inputs": [
        {
          "indexed": true,
          "internalType": "bytes32",
          "name": "id",
          "type": "bytes32"
        },
        {
          "indexed": false,
          "internalType": "enum Swap2p.DealState",
          "name": "state",
          "type": "uint8"
        },
        {
          "indexed": true,
          "internalType": "address",
          "name": "maker",
          "type": "address"
        },
        {
          "indexed": true,
          "internalType": "address",
          "name": "taker",
          "type": "address"
        }
      ],
      "name": "DealUpdated",
      "type": "event"
    },
    {
      "anonymous": false,
      "inputs": [
        {
          "indexed": true,
          "internalType": "address",
          "name": "maker",
          "type": "address"
        },
        {
          "indexed": false,
          "internalType": "bool",
          "name": "online",
          "type": "bool"
        }
      ],
      "name": "MakerOnline",
      "type": "event"
    },
    {
      "anonymous": false,
      "inputs": [
        {
          "indexed": true,
          "internalType": "bytes32",
          "name": "id",
          "type": "bytes32"
        },
        {
          "indexed": true,
          "internalType": "address",
          "name": "maker",
          "type": "address"
        }
      ],
      "name": "OfferDeleted",
      "type": "event"
    },
    {
      "anonymous": false,
      "inputs": [
        {
          "indexed": true,
          "internalType": "bytes32",
          "name": "id",
          "type": "bytes32"
        },
        {
          "indexed": true,
          "internalType": "address",
          "name": "maker",
          "type": "address"
        }
      ],
      "name": "OfferUpsert",
      "type": "event"
    },
    {
      "inputs": [
        {
          "internalType": "address",
          "name": "",
          "type": "address"
        }
      ],
      "name": "affiliates",
      "outputs": [
        {
          "internalType": "address",
          "name": "",
          "type": "address"
        }
      ],
      "stateMutability": "view",
      "type": "function"
    },
    {
      "inputs": [
        {
          "internalType": "bytes32",
          "name": "id",
          "type": "bytes32"
        },
        {
          "internalType": "bytes",
          "name": "reason",
          "type": "bytes"
        }
      ],
      "name": "cancelDeal",
      "outputs": [],
      "stateMutability": "nonpayable",
      "type": "function"
    },
    {
      "inputs": [
        {
          "internalType": "bytes32",
          "name": "id",
          "type": "bytes32"
        },
        {
          "internalType": "bytes",
          "name": "reason",
          "type": "bytes"
        }
      ],
      "name": "cancelRequest",
      "outputs": [],
      "stateMutability": "nonpayable",
      "type": "function"
    },
    {
      "inputs": [
        {
          "internalType": "bytes32",
          "name": "",
          "type": "bytes32"
        }
      ],
      "name": "deals",
      "outputs": [
        {
          "internalType": "uint128",
          "name": "amount",
          "type": "uint128"
        },
        {
          "internalType": "uint96",
          "name": "price",
          "type": "uint96"
        },
        {
          "internalType": "Swap2p.FiatCode",
          "name": "fiat",
          "type": "uint16"
        },
        {
          "internalType": "enum Swap2p.DealState",
          "name": "state",
          "type": "uint8"
        },
        {
          "internalType": "enum Swap2p.Side",
          "name": "side",
          "type": "uint8"
        },
        {
          "internalType": "uint40",
          "name": "tsRequest",
          "type": "uint40"
        },
        {
          "internalType": "uint40",
          "name": "tsLast",
          "type": "uint40"
        },
        {
          "internalType": "address",
          "name": "maker",
          "type": "address"
        },
        {
          "internalType": "address",
          "name": "taker",
          "type": "address"
        },
        {
          "internalType": "address",
          "name": "token",
          "type": "address"
        },
        {
          "internalType": "string",
          "name": "paymentMethod",
          "type": "string"
        }
      ],
      "stateMutability": "view",
      "type": "function"
    },
    {
      "inputs": [
        {
          "internalType": "bytes32",
          "name": "id",
          "type": "bytes32"
        }
      ],
      "name": "getDeal",
      "outputs": [
        {
          "components": [
            {
              "internalType": "bytes32",
              "name": "id",
              "type": "bytes32"
            },
            {
              "components": [
                {
                  "internalType": "uint128",
                  "name": "amount",
                  "type": "uint128"
                },
                {
                  "internalType": "uint96",
                  "name": "price",
                  "type": "uint96"
                },
                {
                  "internalType": "Swap2p.FiatCode",
                  "name": "fiat",
                  "type": "uint16"
                },
                {
                  "internalType": "enum Swap2p.DealState",
                  "name": "state",
                  "type": "uint8"
                },
                {
                  "internalType": "enum Swap2p.Side",
                  "name": "side",
                  "type": "uint8"
                },
                {
                  "internalType": "uint40",
                  "name": "tsRequest",
                  "type": "uint40"
                },
                {
                  "internalType": "uint40",
                  "name": "tsLast",
                  "type": "uint40"
                },
                {
                  "internalType": "address",
                  "name": "maker",
                  "type": "address"
                },
                {
                  "internalType": "address",
                  "name": "taker",
                  "type": "address"
                },
                {
                  "internalType": "address",
                  "name": "token",
                  "type": "address"
                },
                {
                  "internalType": "string",
                  "name": "paymentMethod",
                  "type": "string"
                },
                {
                  "components": [
                    {
                      "internalType": "uint40",
                      "name": "ts",
                      "type": "uint40"
                    },
                    {
                      "internalType": "enum Swap2p.DealState",
                      "name": "state",
                      "type": "uint8"
                    },
                    {
                      "internalType": "bool",
                      "name": "toMaker",
                      "type": "bool"
                    },
                    {
                      "internalType": "bytes",
                      "name": "text",
                      "type": "bytes"
                    }
                  ],
                  "internalType": "struct Swap2p.ChatMessage[]",
                  "name": "chat",
                  "type": "tuple[]"
                }
              ],
              "internalType": "struct Swap2p.Deal",
              "name": "deal",
              "type": "tuple"
            }
          ],
          "internalType": "struct Swap2p.DealInfo",
          "name": "info",
          "type": "tuple"
        }
      ],
      "stateMutability": "view",
      "type": "function"
    },
    {
      "inputs": [
        {
          "internalType": "bytes32",
          "name": "id",
          "type": "bytes32"
        }
      ],
      "name": "getDealChat",
      "outputs": [
        {
          "components": [
            {
              "internalType": "uint40",
              "name": "ts",
              "type": "uint40"
            },
            {
              "internalType": "enum Swap2p.DealState",
              "name": "state",
              "type": "uint8"
            },
            {
              "internalType": "bool",
              "name": "toMaker",
              "type": "bool"
            },
            {
              "internalType": "bytes",
              "name": "text",
              "type": "bytes"
            }
          ],
          "internalType": "struct Swap2p.ChatMessage[]",
          "name": "out",
          "type": "tuple[]"
        }
      ],
      "stateMutability": "view",
      "type": "function"
    },
    {
      "inputs": [
        {
          "internalType": "bytes32",
          "name": "id",
          "type": "bytes32"
        }
      ],
      "name": "getDealChatLength",
      "outputs": [
        {
          "internalType": "uint256",
          "name": "",
          "type": "uint256"
        }
      ],
      "stateMutability": "view",
      "type": "function"
    },
    {
      "inputs": [
        {
          "internalType": "bytes32",
          "name": "id",
          "type": "bytes32"
        },
        {
          "internalType": "uint256",
          "name": "off",
          "type": "uint256"
        },
        {
          "internalType": "uint256",
          "name": "lim",
          "type": "uint256"
        }
      ],
      "name": "getDealChatSlice",
      "outputs": [
        {
          "components": [
            {
              "internalType": "uint40",
              "name": "ts",
              "type": "uint40"
            },
            {
              "internalType": "enum Swap2p.DealState",
              "name": "state",
              "type": "uint8"
            },
            {
              "internalType": "bool",
              "name": "toMaker",
              "type": "bool"
            },
            {
              "internalType": "bytes",
              "name": "text",
              "type": "bytes"
            }
          ],
          "internalType": "struct Swap2p.ChatMessage[]",
          "name": "out",
          "type": "tuple[]"
        }
      ],
      "stateMutability": "view",
      "type": "function"
    },
    {
      "inputs": [
        {
          "internalType": "address",
          "name": "maker",
          "type": "address"
        }
      ],
      "name": "getMakerOfferCount",
      "outputs": [
        {
          "internalType": "uint256",
          "name": "",
          "type": "uint256"
        }
      ],
      "stateMutability": "view",
      "type": "function"
    },
    {
      "inputs": [
        {
          "internalType": "address",
          "name": "maker",
          "type": "address"
        },
        {
          "internalType": "uint256",
          "name": "off",
          "type": "uint256"
        },
        {
          "internalType": "uint256",
          "name": "lim",
          "type": "uint256"
        }
      ],
      "name": "getMakerOfferIds",
      "outputs": [
        {
          "internalType": "bytes32[]",
          "name": "out",
          "type": "bytes32[]"
        }
      ],
      "stateMutability": "view",
      "type": "function"
    },
    {
      "inputs": [
        {
          "internalType": "address",
          "name": "maker",
          "type": "address"
        },
        {
          "internalType": "uint256",
          "name": "off",
          "type": "uint256"
        },
        {
          "internalType": "uint256",
          "name": "lim",
          "type": "uint256"
        }
      ],
      "name": "getMakerOffers",
      "outputs": [
        {
          "components": [
            {
              "internalType": "bytes32",
              "name": "id",
              "type": "bytes32"
            },
            {
              "internalType": "address",
              "name": "maker",
              "type": "address"
            },
            {
              "components": [
                {
                  "internalType": "uint128",
                  "name": "minAmt",
                  "type": "uint128"
                },
                {
                  "internalType": "uint128",
                  "name": "maxAmt",
                  "type": "uint128"
                },
                {
                  "internalType": "uint96",
                  "name": "priceFiatPerToken",
                  "type": "uint96"
                },
                {
                  "internalType": "uint40",
                  "name": "ts",
                  "type": "uint40"
                },
                {
                  "internalType": "Swap2p.FiatCode",
                  "name": "fiat",
                  "type": "uint16"
                },
                {
                  "internalType": "enum Swap2p.Side",
                  "name": "side",
                  "type": "uint8"
                },
                {
                  "internalType": "address",
                  "name": "token",
                  "type": "address"
                },
                {
                  "internalType": "address",
                  "name": "maker",
                  "type": "address"
                },
                {
                  "internalType": "string",
                  "name": "paymentMethods",
                  "type": "string"
                },
                {
                  "internalType": "string",
                  "name": "requirements",
                  "type": "string"
                }
              ],
              "internalType": "struct Swap2p.Offer",
              "name": "offer",
              "type": "tuple"
            }
          ],
          "internalType": "struct Swap2p.OfferInfo[]",
          "name": "out",
          "type": "tuple[]"
        }
      ],
      "stateMutability": "view",
      "type": "function"
    },
    {
      "inputs": [
        {
          "internalType": "address[]",
          "name": "accounts",
          "type": "address[]"
        }
      ],
      "name": "getMakerProfiles",
      "outputs": [
        {
          "components": [
            {
              "internalType": "uint40",
              "name": "lastActivity",
              "type": "uint40"
            },
            {
              "internalType": "int32",
              "name": "dealsCancelled",
              "type": "int32"
            },
            {
              "internalType": "int32",
              "name": "dealsCompleted",
              "type": "int32"
            },
            {
              "internalType": "bool",
              "name": "online",
              "type": "bool"
            },
            {
              "internalType": "bytes32",
              "name": "nickname",
              "type": "bytes32"
            },
            {
              "internalType": "bytes32",
              "name": "chatPublicKey",
              "type": "bytes32"
            }
          ],
          "internalType": "struct Swap2p.MakerProfile[]",
          "name": "profiles",
          "type": "tuple[]"
        }
      ],
      "stateMutability": "view",
      "type": "function"
    },
    {
      "inputs": [
        {
          "internalType": "address",
          "name": "token",
          "type": "address"
        },
        {
          "internalType": "enum Swap2p.Side",
          "name": "s",
          "type": "uint8"
        },
        {
          "internalType": "Swap2p.FiatCode",
          "name": "f",
          "type": "uint16"
        },
        {
          "internalType": "uint256",
          "name": "off",
          "type": "uint256"
        },
        {
          "internalType": "uint256",
          "name": "lim",
          "type": "uint256"
        }
      ],
      "name": "getMarketOfferIds",
      "outputs": [
        {
          "internalType": "bytes32[]",
          "name": "out",
          "type": "bytes32[]"
        }
      ],
      "stateMutability": "view",
      "type": "function"
    },
    {
      "inputs": [
        {
          "internalType": "address",
          "name": "token",
          "type": "address"
        },
        {
          "internalType": "enum Swap2p.Side",
          "name": "s",
          "type": "uint8"
        },
        {
          "internalType": "Swap2p.FiatCode",
          "name": "f",
          "type": "uint16"
        },
        {
          "internalType": "uint256",
          "name": "off",
          "type": "uint256"
        },
        {
          "internalType": "uint256",
          "name": "lim",
          "type": "uint256"
        }
      ],
      "name": "getMarketOffers",
      "outputs": [
        {
          "components": [
            {
              "internalType": "bytes32",
              "name": "id",
              "type": "bytes32"
            },
            {
              "internalType": "address",
              "name": "maker",
              "type": "address"
            },
            {
              "components": [
                {
                  "internalType": "uint128",
                  "name": "minAmt",
                  "type": "uint128"
                },
                {
                  "internalType": "uint128",
                  "name": "maxAmt",
                  "type": "uint128"
                },
                {
                  "internalType": "uint96",
                  "name": "priceFiatPerToken",
                  "type": "uint96"
                },
                {
                  "internalType": "uint40",
                  "name": "ts",
                  "type": "uint40"
                },
                {
                  "internalType": "Swap2p.FiatCode",
                  "name": "fiat",
                  "type": "uint16"
                },
                {
                  "internalType": "enum Swap2p.Side",
                  "name": "side",
                  "type": "uint8"
                },
                {
                  "internalType": "address",
                  "name": "token",
                  "type": "address"
                },
                {
                  "internalType": "address",
                  "name": "maker",
                  "type": "address"
                },
                {
                  "internalType": "string",
                  "name": "paymentMethods",
                  "type": "string"
                },
                {
                  "internalType": "string",
                  "name": "requirements",
                  "type": "string"
                }
              ],
              "internalType": "struct Swap2p.Offer",
              "name": "offer",
              "type": "tuple"
            }
          ],
          "internalType": "struct Swap2p.OfferInfo[]",
          "name": "out",
          "type": "tuple[]"
        }
      ],
      "stateMutability": "view",
      "type": "function"
    },
    {
      "inputs": [
        {
          "internalType": "bytes32",
          "name": "id",
          "type": "bytes32"
        }
      ],
      "name": "getOfferById",
      "outputs": [
        {
          "components": [
            {
              "internalType": "bytes32",
              "name": "id",
              "type": "bytes32"
            },
            {
              "internalType": "address",
              "name": "maker",
              "type": "address"
            },
            {
              "components": [
                {
                  "internalType": "uint128",
                  "name": "minAmt",
                  "type": "uint128"
                },
                {
                  "internalType": "uint128",
                  "name": "maxAmt",
                  "type": "uint128"
                },
                {
                  "internalType": "uint96",
                  "name": "priceFiatPerToken",
                  "type": "uint96"
                },
                {
                  "internalType": "uint40",
                  "name": "ts",
                  "type": "uint40"
                },
                {
                  "internalType": "Swap2p.FiatCode",
                  "name": "fiat",
                  "type": "uint16"
                },
                {
                  "internalType": "enum Swap2p.Side",
                  "name": "side",
                  "type": "uint8"
                },
                {
                  "internalType": "address",
                  "name": "token",
                  "type": "address"
                },
                {
                  "internalType": "address",
                  "name": "maker",
                  "type": "address"
                },
                {
                  "internalType": "string",
                  "name": "paymentMethods",
                  "type": "string"
                },
                {
                  "internalType": "string",
                  "name": "requirements",
                  "type": "string"
                }
              ],
              "internalType": "struct Swap2p.Offer",
              "name": "offer",
              "type": "tuple"
            }
          ],
          "internalType": "struct Swap2p.OfferInfo",
          "name": "info",
          "type": "tuple"
        }
      ],
      "stateMutability": "view",
      "type": "function"
    },
    {
      "inputs": [
        {
          "internalType": "address",
          "name": "token",
          "type": "address"
        },
        {
          "internalType": "enum Swap2p.Side",
          "name": "s",
          "type": "uint8"
        },
        {
          "internalType": "Swap2p.FiatCode",
          "name": "f",
          "type": "uint16"
        }
      ],
      "name": "getOfferCount",
      "outputs": [
        {
          "internalType": "uint256",
          "name": "",
          "type": "uint256"
        }
      ],
      "stateMutability": "view",
      "type": "function"
    },
    {
      "inputs": [
        {
          "internalType": "address",
          "name": "token",
          "type": "address"
        },
        {
          "internalType": "address",
          "name": "maker",
          "type": "address"
        },
        {
          "internalType": "enum Swap2p.Side",
          "name": "s",
          "type": "uint8"
        },
        {
          "internalType": "Swap2p.FiatCode",
          "name": "f",
          "type": "uint16"
        }
      ],
      "name": "getOfferId",
      "outputs": [
        {
          "internalType": "bytes32",
          "name": "",
          "type": "bytes32"
        }
      ],
      "stateMutability": "view",
      "type": "function"
    },
    {
      "inputs": [
        {
          "internalType": "address",
          "name": "token",
          "type": "address"
        },
        {
          "internalType": "enum Swap2p.Side",
          "name": "s",
          "type": "uint8"
        },
        {
          "internalType": "Swap2p.FiatCode",
          "name": "f",
          "type": "uint16"
        },
        {
          "internalType": "uint256",
          "name": "off",
          "type": "uint256"
        },
        {
          "internalType": "uint256",
          "name": "lim",
          "type": "uint256"
        }
      ],
      "name": "getOfferKeys",
      "outputs": [
        {
          "internalType": "address[]",
          "name": "out",
          "type": "address[]"
        }
      ],
      "stateMutability": "view",
      "type": "function"
    },
    {
      "inputs": [
        {
          "internalType": "address",
          "name": "u",
          "type": "address"
        }
      ],
      "name": "getOpenDealCount",
      "outputs": [
        {
          "internalType": "uint256",
          "name": "",
          "type": "uint256"
        }
      ],
      "stateMutability": "view",
      "type": "function"
    },
    {
      "inputs": [
        {
          "internalType": "address",
          "name": "u",
          "type": "address"
        },
        {
          "internalType": "uint256",
          "name": "off",
          "type": "uint256"
        },
        {
          "internalType": "uint256",
          "name": "lim",
          "type": "uint256"
        }
      ],
      "name": "getOpenDeals",
      "outputs": [
        {
          "internalType": "bytes32[]",
          "name": "out",
          "type": "bytes32[]"
        }
      ],
      "stateMutability": "view",
      "type": "function"
    },
    {
      "inputs": [
        {
          "internalType": "address",
          "name": "u",
          "type": "address"
        },
        {
          "internalType": "uint256",
          "name": "off",
          "type": "uint256"
        },
        {
          "internalType": "uint256",
          "name": "lim",
          "type": "uint256"
        }
      ],
      "name": "getOpenDealsDetailed",
      "outputs": [
        {
          "components": [
            {
              "internalType": "bytes32",
              "name": "id",
              "type": "bytes32"
            },
            {
              "components": [
                {
                  "internalType": "uint128",
                  "name": "amount",
                  "type": "uint128"
                },
                {
                  "internalType": "uint96",
                  "name": "price",
                  "type": "uint96"
                },
                {
                  "internalType": "Swap2p.FiatCode",
                  "name": "fiat",
                  "type": "uint16"
                },
                {
                  "internalType": "enum Swap2p.DealState",
                  "name": "state",
                  "type": "uint8"
                },
                {
                  "internalType": "enum Swap2p.Side",
                  "name": "side",
                  "type": "uint8"
                },
                {
                  "internalType": "uint40",
                  "name": "tsRequest",
                  "type": "uint40"
                },
                {
                  "internalType": "uint40",
                  "name": "tsLast",
                  "type": "uint40"
                },
                {
                  "internalType": "address",
                  "name": "maker",
                  "type": "address"
                },
                {
                  "internalType": "address",
                  "name": "taker",
                  "type": "address"
                },
                {
                  "internalType": "address",
                  "name": "token",
                  "type": "address"
                },
                {
                  "internalType": "string",
                  "name": "paymentMethod",
                  "type": "string"
                },
                {
                  "components": [
                    {
                      "internalType": "uint40",
                      "name": "ts",
                      "type": "uint40"
                    },
                    {
                      "internalType": "enum Swap2p.DealState",
                      "name": "state",
                      "type": "uint8"
                    },
                    {
                      "internalType": "bool",
                      "name": "toMaker",
                      "type": "bool"
                    },
                    {
                      "internalType": "bytes",
                      "name": "text",
                      "type": "bytes"
                    }
                  ],
                  "internalType": "struct Swap2p.ChatMessage[]",
                  "name": "chat",
                  "type": "tuple[]"
                }
              ],
              "internalType": "struct Swap2p.Deal",
              "name": "deal",
              "type": "tuple"
            }
          ],
          "internalType": "struct Swap2p.DealInfo[]",
          "name": "out",
          "type": "tuple[]"
        }
      ],
      "stateMutability": "view",
      "type": "function"
    },
    {
      "inputs": [
        {
          "internalType": "address",
          "name": "u",
          "type": "address"
        }
      ],
      "name": "getRecentDealCount",
      "outputs": [
        {
          "internalType": "uint256",
          "name": "",
          "type": "uint256"
        }
      ],
      "stateMutability": "view",
      "type": "function"
    },
    {
      "inputs": [
        {
          "internalType": "address",
          "name": "u",
          "type": "address"
        },
        {
          "internalType": "uint256",
          "name": "off",
          "type": "uint256"
        },
        {
          "internalType": "uint256",
          "name": "lim",
          "type": "uint256"
        }
      ],
      "name": "getRecentDeals",
      "outputs": [
        {
          "internalType": "bytes32[]",
          "name": "out",
          "type": "bytes32[]"
        }
      ],
      "stateMutability": "view",
      "type": "function"
    },
    {
      "inputs": [
        {
          "internalType": "address",
          "name": "u",
          "type": "address"
        },
        {
          "internalType": "uint256",
          "name": "off",
          "type": "uint256"
        },
        {
          "internalType": "uint256",
          "name": "lim",
          "type": "uint256"
        }
      ],
      "name": "getRecentDealsDetailed",
      "outputs": [
        {
          "components": [
            {
              "internalType": "bytes32",
              "name": "id",
              "type": "bytes32"
            },
            {
              "components": [
                {
                  "internalType": "uint128",
                  "name": "amount",
                  "type": "uint128"
                },
                {
                  "internalType": "uint96",
                  "name": "price",
                  "type": "uint96"
                },
                {
                  "internalType": "Swap2p.FiatCode",
                  "name": "fiat",
                  "type": "uint16"
                },
                {
                  "internalType": "enum Swap2p.DealState",
                  "name": "state",
                  "type": "uint8"
                },
                {
                  "internalType": "enum Swap2p.Side",
                  "name": "side",
                  "type": "uint8"
                },
                {
                  "internalType": "uint40",
                  "name": "tsRequest",
                  "type": "uint40"
                },
                {
                  "internalType": "uint40",
                  "name": "tsLast",
                  "type": "uint40"
                },
                {
                  "internalType": "address",
                  "name": "maker",
                  "type": "address"
                },
                {
                  "internalType": "address",
                  "name": "taker",
                  "type": "address"
                },
                {
                  "internalType": "address",
                  "name": "token",
                  "type": "address"
                },
                {
                  "internalType": "string",
                  "name": "paymentMethod",
                  "type": "string"
                },
                {
                  "components": [
                    {
                      "internalType": "uint40",
                      "name": "ts",
                      "type": "uint40"
                    },
                    {
                      "internalType": "enum Swap2p.DealState",
                      "name": "state",
                      "type": "uint8"
                    },
                    {
                      "internalType": "bool",
                      "name": "toMaker",
                      "type": "bool"
                    },
                    {
                      "internalType": "bytes",
                      "name": "text",
                      "type": "bytes"
                    }
                  ],
                  "internalType": "struct Swap2p.ChatMessage[]",
                  "name": "chat",
                  "type": "tuple[]"
                }
              ],
              "internalType": "struct Swap2p.Deal",
              "name": "deal",
              "type": "tuple"
            }
          ],
          "internalType": "struct Swap2p.DealInfo[]",
          "name": "out",
          "type": "tuple[]"
        }
      ],
      "stateMutability": "view",
      "type": "function"
    },
    {
      "inputs": [
        {
          "internalType": "address",
          "name": "token",
          "type": "address"
        },
        {
          "internalType": "enum Swap2p.Side",
          "name": "s",
          "type": "uint8"
        },
        {
          "internalType": "Swap2p.FiatCode",
          "name": "f",
          "type": "uint16"
        }
      ],
      "name": "listOffers",
      "outputs": [
        {
          "components": [
            {
              "internalType": "bytes32",
              "name": "id",
              "type": "bytes32"
            },
            {
              "internalType": "address",
              "name": "maker",
              "type": "address"
            },
            {
              "components": [
                {
                  "internalType": "uint128",
                  "name": "minAmt",
                  "type": "uint128"
                },
                {
                  "internalType": "uint128",
                  "name": "maxAmt",
                  "type": "uint128"
                },
                {
                  "internalType": "uint96",
                  "name": "priceFiatPerToken",
                  "type": "uint96"
                },
                {
                  "internalType": "uint40",
                  "name": "ts",
                  "type": "uint40"
                },
                {
                  "internalType": "Swap2p.FiatCode",
                  "name": "fiat",
                  "type": "uint16"
                },
                {
                  "internalType": "enum Swap2p.Side",
                  "name": "side",
                  "type": "uint8"
                },
                {
                  "internalType": "address",
                  "name": "token",
                  "type": "address"
                },
                {
                  "internalType": "address",
                  "name": "maker",
                  "type": "address"
                },
                {
                  "internalType": "string",
                  "name": "paymentMethods",
                  "type": "string"
                },
                {
                  "internalType": "string",
                  "name": "requirements",
                  "type": "string"
                }
              ],
              "internalType": "struct Swap2p.Offer",
              "name": "offer",
              "type": "tuple"
            }
          ],
          "internalType": "struct Swap2p.OfferInfo[]",
          "name": "out",
          "type": "tuple[]"
        }
      ],
      "stateMutability": "view",
      "type": "function"
    },
    {
      "inputs": [
        {
          "internalType": "address",
          "name": "",
          "type": "address"
        }
      ],
      "name": "makerInfo",
      "outputs": [
        {
          "internalType": "uint40",
          "name": "lastActivity",
          "type": "uint40"
        },
        {
          "internalType": "int32",
          "name": "dealsCancelled",
          "type": "int32"
        },
        {
          "internalType": "int32",
          "name": "dealsCompleted",
          "type": "int32"
        },
        {
          "internalType": "bool",
          "name": "online",
          "type": "bool"
        },
        {
          "internalType": "bytes32",
          "name": "nickname",
          "type": "bytes32"
        },
        {
          "internalType": "bytes32",
          "name": "chatPublicKey",
          "type": "bytes32"
        }
      ],
      "stateMutability": "view",
      "type": "function"
    },
    {
      "inputs": [
        {
          "internalType": "bytes32",
          "name": "id",
          "type": "bytes32"
        },
        {
          "internalType": "bytes",
          "name": "msg_",
          "type": "bytes"
        }
      ],
      "name": "maker_acceptRequest",
      "outputs": [],
      "stateMutability": "nonpayable",
      "type": "function"
    },
    {
      "inputs": [
        {
          "internalType": "address",
          "name": "token",
          "type": "address"
        },
        {
          "internalType": "enum Swap2p.Side",
          "name": "s",
          "type": "uint8"
        },
        {
          "internalType": "Swap2p.FiatCode",
          "name": "f",
          "type": "uint16"
        }
      ],
      "name": "maker_deleteOffer",
      "outputs": [],
      "stateMutability": "nonpayable",
      "type": "function"
    },
    {
      "inputs": [
        {
          "internalType": "address",
          "name": "token",
          "type": "address"
        },
        {
          "internalType": "enum Swap2p.Side",
          "name": "s",
          "type": "uint8"
        },
        {
          "internalType": "Swap2p.FiatCode",
          "name": "f",
          "type": "uint16"
        },
        {
          "internalType": "uint96",
          "name": "price",
          "type": "uint96"
        },
        {
          "internalType": "uint128",
          "name": "minAmt",
          "type": "uint128"
        },
        {
          "internalType": "uint128",
          "name": "maxAmt",
          "type": "uint128"
        },
        {
          "internalType": "string",
          "name": "paymentMethods",
          "type": "string"
        },
        {
          "internalType": "string",
          "name": "requirements",
          "type": "string"
        },
        {
          "internalType": "address",
          "name": "partner",
          "type": "address"
        }
      ],
      "name": "maker_makeOffer",
      "outputs": [],
      "stateMutability": "nonpayable",
      "type": "function"
    },
    {
      "inputs": [
        {
          "internalType": "bytes32",
          "name": "id",
          "type": "bytes32"
        },
        {
          "internalType": "bytes",
          "name": "msg_",
          "type": "bytes"
        }
      ],
      "name": "markFiatPaid",
      "outputs": [],
      "stateMutability": "nonpayable",
      "type": "function"
    },
    {
      "inputs": [
        {
          "internalType": "address",
          "name": "taker",
          "type": "address"
        }
      ],
      "name": "previewNextDealId",
      "outputs": [
        {
          "internalType": "bytes32",
          "name": "id",
          "type": "bytes32"
        },
        {
          "internalType": "uint64",
          "name": "nonce",
          "type": "uint64"
        }
      ],
      "stateMutability": "view",
      "type": "function"
    },
    {
      "inputs": [
        {
          "internalType": "address",
          "name": "maker",
          "type": "address"
        }
      ],
      "name": "previewNextOfferId",
      "outputs": [
        {
          "internalType": "bytes32",
          "name": "id",
          "type": "bytes32"
        },
        {
          "internalType": "uint64",
          "name": "nonce",
          "type": "uint64"
        }
      ],
      "stateMutability": "view",
      "type": "function"
    },
    {
      "inputs": [
        {
          "internalType": "bytes32",
          "name": "id",
          "type": "bytes32"
        },
        {
          "internalType": "bytes",
          "name": "msg_",
          "type": "bytes"
        }
      ],
      "name": "release",
      "outputs": [],
      "stateMutability": "nonpayable",
      "type": "function"
    },
    {
      "inputs": [
        {
          "internalType": "bytes32",
          "name": "id",
          "type": "bytes32"
        },
        {
          "internalType": "bytes",
          "name": "t",
          "type": "bytes"
        }
      ],
      "name": "sendMessage",
      "outputs": [],
      "stateMutability": "nonpayable",
      "type": "function"
    },
    {
      "inputs": [
        {
          "internalType": "bytes32",
          "name": "key",
          "type": "bytes32"
        }
      ],
      "name": "setChatPublicKey",
      "outputs": [],
      "stateMutability": "nonpayable",
      "type": "function"
    },
    {
      "inputs": [
        {
          "internalType": "bytes32",
          "name": "nick",
          "type": "bytes32"
        }
      ],
      "name": "setNickname",
      "outputs": [],
      "stateMutability": "nonpayable",
      "type": "function"
    },
    {
      "inputs": [
        {
          "internalType": "bool",
          "name": "on",
          "type": "bool"
        }
      ],
      "name": "setOnline",
      "outputs": [],
      "stateMutability": "nonpayable",
      "type": "function"
    },
    {
      "inputs": [
        {
          "internalType": "address",
          "name": "token",
          "type": "address"
        },
        {
          "internalType": "enum Swap2p.Side",
          "name": "s",
          "type": "uint8"
        },
        {
          "internalType": "address",
          "name": "maker",
          "type": "address"
        },
        {
          "internalType": "uint128",
          "name": "amount",
          "type": "uint128"
        },
        {
          "internalType": "Swap2p.FiatCode",
          "name": "f",
          "type": "uint16"
        },
        {
          "internalType": "uint96",
          "name": "expectedPrice",
          "type": "uint96"
        },
        {
          "internalType": "string",
          "name": "paymentMethod",
          "type": "string"
        },
        {
          "internalType": "bytes",
          "name": "paymentDetails",
          "type": "bytes"
        },
        {
          "internalType": "address",
          "name": "partner",
          "type": "address"
        }
      ],
      "name": "taker_requestOffer",
      "outputs": [],
      "stateMutability": "nonpayable",
      "type": "function"
    }
  ],
  "bytecode": "0x60a0604052348015600f57600080fd5b506040516158e13803806158e1833981016040819052602c916067565b60016000556001600160a01b03811660575760405163f79316e160e01b815260040160405180910390fd5b6001600160a01b03166080526095565b600060208284031215607857600080fd5b81516001600160a01b0381168114608e57600080fd5b9392505050565b6080516158316100b060003960006134ac01526158316000f3fe608060405234801561001057600080fd5b50600436106101c25760003560e01c806301d563f9146101c75780631ae8ab81146101f05780631bc8a4661461020557806320ded8531461021857806323c640e71461023857806323d317a91461024b57806326fd99d71461026b5780632b9c45cb1461028b5780633b959fb1146102c25780633d4d81de146102d55780633d8dfcce146102e85780633f9951aa1461037f5780634314a8e21461039f57806344cb5556146103b257806347437d1c146103d257806347cdcec4146103e55780634be974b5146103f85780634bfac20c146104185780634f51e2941461042b57806351a6fad5146104615780636197c0081461048157806364c1cfa1146104a45780636cd366ec146104b75780636ced9975146104ca5780636d2a0fd0146104dd57806371a735c71461050d578063722fe6061461052057806381cd872a146105495780638b0cd57d1461057357806390bd9002146105865780639af8868c14610599578063b0fa3903146105c2578063b708e308146105d5578063bd407c1e1461060d578063c31821c714610620578063ce4b8daf14610633578063ef0745a414610646578063f05b89fe14610659575b600080fd5b6101da6101d5366004614903565b61066c565b6040516101e79190614b73565b60405180910390f35b6102036101fe366004614bd8565b6106a1565b005b610203610213366004614c39565b610774565b61022b610226366004614bd8565b610b35565b6040516101e79190614c84565b610203610246366004614c39565b610c98565b61025e610259366004614903565b610ccb565b6040516101e79190614d1a565b61027e610279366004614d7e565b610dc9565b6040516101e79190614dd3565b6102b4610299366004614e14565b6001600160a01b03166000908152600b602052604090205490565b6040519081526020016101e7565b6102b46102d0366004614e2f565b610f1f565b61025e6102e3366004614903565b610f9d565b6103426102f6366004614e14565b60076020526000908152604090208054600182015460029092015464ffffffffff821692600160281b8304600390810b93600160481b810490910b92600160681b90910460ff16919086565b6040805164ffffffffff9097168752600395860b60208801529390940b9285019290925215156060840152608083015260a082015260c0016101e7565b61039261038d366004614e83565b6110ab565b6040516101e79190614ef8565b61025e6103ad366004614903565b6112b7565b6103c56103c0366004614f79565b6113aa565b6040516101e791906150af565b6102036103e0366004614c39565b6113fb565b6102036103f3366004615136565b61173c565b61040b610406366004614bd8565b611842565b6040516101e7919061521f565b610203610426366004614c39565b611a96565b610454610439366004614e14565b6006602052600090815260409020546001600160a01b031681565b6040516101e79190615232565b61047461046f366004614bd8565b611cfa565b6040516101e79190615246565b6102b461048f366004614bd8565b60009081526002602052604090206005015490565b6102036104b2366004614c39565b612037565b6103c56104c5366004614d7e565b6121d0565b61025e6104d8366004614d7e565b612217565b6104f06104eb366004614e14565b612323565b604080519283526001600160401b039091166020830152016101e7565b6104f061051b366004614e14565b612384565b6102b461052e366004614e14565b6001600160a01b03166000908152600d602052604090205490565b61055c610557366004614bd8565b6123b3565b6040516101e79b9a99989796959493929190615259565b61022b610581366004615305565b6124d5565b6102b4610594366004614f79565b6126e7565b6102b46105a7366004614e14565b6001600160a01b03166000908152600f602052604090205490565b6102036105d0366004615331565b612711565b6102036105e3366004614bd8565b336000908152600760205260409020805464ffffffffff19164264ffffffffff1617815560020155565b6101da61061b366004614903565b612786565b61020361062e366004614f79565b6127b1565b6103c5610641366004614903565b612967565b610203610654366004615353565b61299a565b610203610667366004614c39565b6129b6565b6060811561069a576001600160a01b0384166000908152600f60205260409020610697908484612b5d565b90505b9392505050565b336000908152600760205260409020805464ffffffffff19164264ffffffffff161781556001810154826106f65780156106f1576000818152600860205260408120805460ff1916905560018301555b505050565b82810361070257505050565b60008381526008602052604090205460ff161561073257604051637ec9752560e01b815260040160405180910390fd5b6000838152600860205260409020805460ff19166001908117909155820183905580156106f1576000908152600860205260409020805460ff19169055505b50565b61077c613018565b336000908152600760209081526040808320805464ffffffffff19164264ffffffffff161790558583526002909152902060038154600160f01b900460ff1660058111156107cc576107cc614943565b146107ea57604051636f20b45d60e11b815260040160405180910390fd5b60008154600160f81b900460ff16600181111561080957610809614943565b148015610823575060028101546001600160a01b03163314155b80610869575060018154600160f81b900460ff16600181111561084857610848614943565b14801561086957506001810154600160501b90046001600160a01b03163314155b156108875760405163068690bf60e11b815260040160405180910390fd5b6108948484846004613042565b805460ff60f01b1916600160f21b17815560018101805464ffffffffff60281b1916600160281b4264ffffffffff160217908190556108e390600160501b90046001600160a01b0316856132db565b60028101546108fb906001600160a01b0316856132db565b60018101546002820154610923916001600160a01b03600160501b9091048116911686613370565b600181810154600160501b90046001600160a01b031660009081526007602052604090208054600990610961908490600160481b900460030b6153da565b825463ffffffff9182166101009390930a92830291909202199091161790555060028101546001600160a01b031660009081526007602052604090208054600191906009906109bb908490600160481b900460030b6153da565b92506101000a81548163ffffffff021916908360030b63ffffffff16021790555060008060018111156109f0576109f0614943565b8254600160f81b900460ff166001811115610a0d57610a0d614943565b14610a255760028201546001600160a01b0316610a3b565b6001820154600160501b90046001600160a01b03165b6003830154600284015460018501548554939450610a7f936001600160a01b039384169392831692600160501b9092049091169085906001600160801b0316613384565b600382015460028301548354610aab926001600160a01b039081169216906001600160801b03166134dd565b600382015460018301548354610ade926001600160a01b0390811692600160501b900416906001600160801b03166134dd565b600282015460018301546040516001600160a01b0392831692600160501b9092049091169087906000805160206157dc83398151915290610b2190600490615407565b60405180910390a450506106f16001600055565b606060026000838152602001908152602001600020600501805480602002602001604051908101604052809291908181526020016000905b82821015610c8d576000848152602090819020604080516080810190915260028502909101805464ffffffffff811683529192909190830190600160281b900460ff166005811115610bc157610bc1614943565b6005811115610bd257610bd2614943565b81528154600160301b900460ff1615156020820152600182018054604090920191610bfc90615415565b80601f0160208091040260200160405190810160405280929190818152602001828054610c2890615415565b8015610c755780601f10610c4a57610100808354040283529160200191610c75565b820191906000526020600020905b815481529060010190602001808311610c5857829003601f168201915b50505050508152505081526020019060010190610b6d565b505050509050919050565b336000908152600760205260408120805464ffffffffff19164264ffffffffff161790556106f190849084908490613042565b6001600160a01b0383166000908152600f60205260409020805460609190808510610cf757505061069a565b6000610d03858761544f565b905085811080610d1257508181115b15610d1a5750805b610d248682615462565b6001600160401b03811115610d3b57610d3b615475565b604051908082528060200260200182016040528015610d64578160200160208202803683370190505b509350855b81811015610dbe57838181548110610d8357610d8361548b565b9060005260206000200154858883610d9b9190615462565b81518110610dab57610dab61548b565b6020908102919091010152600101610d69565b505050509392505050565b6060600060096000610ddc898989613510565b8152602081019190915260400160002080549091508085101580610dfe575083155b15610e0a575050610f16565b6000610e16858761544f565b905085811080610e2557508181115b15610e2d5750805b6000610e398783615462565b9050806001600160401b03811115610e5357610e53615475565b604051908082528060200260200182016040528015610e7c578160200160208202803683370190505b50945060005b81811015610f1057600060018187610e9a858d61544f565b81548110610eaa57610eaa61548b565b9060005260206000200154815260200190815260200160002090508060030160009054906101000a90046001600160a01b0316878381518110610eef57610eef61548b565b6001600160a01b039092166020928302919091019091015250600101610e82565b50505050505b95945050505050565b6001600160a01b038085166000908152600460209081526040808320938716835292905290812081846001811115610f5957610f59614943565b6001811115610f6a57610f6a614943565b815260200190815260200160002060008361ffff1661ffff1681526020019081526020016000205490505b949350505050565b6001600160a01b0383166000908152600b602052604090208054606091908085101580610fc8575083155b15610fd457505061069a565b6000610fe0858761544f565b905085811080610fef57508181115b15610ff75750805b60006110038783615462565b9050806001600160401b0381111561101d5761101d615475565b604051908082528060200260200182016040528015611046578160200160208202803683370190505b50945060005b8181101561109f578461105f828a61544f565b8154811061106f5761106f61548b565b906000526020600020015486828151811061108c5761108c61548b565b602090810291909101015260010161104c565b50505050509392505050565b606081806001600160401b038111156110c6576110c6615475565b60405190808252806020026020018201604052801561112657816020015b6040805160c08101825260008082526020808301829052928201819052606082018190526080820181905260a082015282526000199092019101816110e45790505b50915060005b818110156112af5760006007600087878581811061114c5761114c61548b565b90506020020160208101906111619190614e14565b6001600160a01b03168152602081019190915260400160002080548551919250600160681b900460ff169085908490811061119e5761119e61548b565b60209081029190910101519015156060909101528054845164ffffffffff909116908590849081106111d2576111d261548b565b602090810291909101015164ffffffffff9091169052600181015484518590849081106112015761120161548b565b60209081029190910101516080015280548451600160281b90910460030b908590849081106112325761123261548b565b602090810291909101810151600392830b91015281548551600160481b90910490910b908590849081106112685761126861548b565b60200260200101516040019060030b908160030b8152505080600201548483815181106112975761129761548b565b602090810291909101015160a001525060010161112c565b505092915050565b6001600160a01b0383166000908152600d602052604090208054606091908085106112e357505061069a565b60006112ef858761544f565b9050858110806112fe57508181115b156113065750805b6113108682615462565b6001600160401b0381111561132757611327615475565b604051908082528060200260200182016040528015611350578160200160208202803683370190505b509350855b81811015610dbe5783818154811061136f5761136f61548b565b90600052602060002001548588836113879190615462565b815181106113975761139761548b565b6020908102919091010152600101611355565b60606000600960006113bd878787613510565b81526020019081526020016000209050600081805490509050806000036113e557505061069a565b6113f182600083613546565b9695505050505050565b611403613018565b336000908152600760209081526040808320805464ffffffffff19164264ffffffffff16179055858352600291829052909120908154600160f01b900460ff16600581111561145457611454614943565b1461147257604051636f20b45d60e11b815260040160405180910390fd5b6001810154600160501b90046001600160a01b031633036114d05760005b8154600160f81b900460ff1660018111156114ad576114ad614943565b146114cb5760405163153c8df760e31b815260040160405180910390fd5b611504565b60028101546001600160a01b031633036114eb576001611490565b60405163068690bf60e11b815260040160405180910390fd5b6115118484846005613042565b805460ff60f01b1916600560f01b17815560018101805464ffffffffff60281b1916600160281b4264ffffffffff1602179081905561156090600160501b90046001600160a01b0316856132db565b6002810154611578906001600160a01b0316856132db565b60008154600160f81b900460ff16600181111561159757611597614943565b0361160c57600381015460028083015483546115d4936001600160a01b03908116939216916115cf916001600160801b0316906154a1565b6134dd565b600381015460018201548254611607926001600160a01b0390811692600160501b900416906001600160801b03166134dd565b611671565b600381015460028201548254611638926001600160a01b039081169216906001600160801b03166134dd565b600381015460018201548254611671926001600160a01b0390811692600160501b900416906115cf906001600160801b031660026154a1565b60018101546002820154611699916001600160a01b03600160501b9091048116911686613370565b3360009081526007602052604090208054600191906005906116c6908490600160281b900460030b6153da565b825463ffffffff9182166101009390930a928302919092021990911617905550600281015460018201546040516001600160a01b0392831692600160501b9092049091169086906000805160206157dc8339815191529061172990600590615407565b60405180910390a4506106f16001600055565b611744613018565b336000818152600760205260409020805464ffffffffff19164264ffffffffff161790556001600160a01b038a1681036117915760405163068690bf60e11b815260040160405180910390fd5b60006117a48d8d8d858e8e8e8e8e6138fb565b90506117b08b82613d11565b6117ba8282613d11565b6117c48284613d7a565b60008181526002602052604090206117df8287876001613042565b60028101546001808301546040516001600160a01b0393841693600160501b9092049091169185916000805160206157dc8339815191529161182091615407565b60405180910390a45050506118356001600055565b5050505050505050505050565b61184a6147b0565b60008281526001602081905260408220908101549091600160601b90910464ffffffffff16900361188e57604051636df5846d60e01b815260040160405180910390fd5b82825260038101546001600160a01b0316602080840191909152604080516101408101825283546001600160801b038082168352600160801b90910416928101929092526001808401546001600160601b03811692840192909252600160601b820464ffffffffff166060840152600160881b820461ffff166080840152839160a0840191600160981b90910460ff169081111561192e5761192e614943565b600181111561193f5761193f614943565b815260028201546001600160a01b039081166020830152600383015416604082015260048201805460609092019161197690615415565b80601f01602080910402602001604051908101604052809291908181526020018280546119a290615415565b80156119ef5780601f106119c4576101008083540402835291602001916119ef565b820191906000526020600020905b8154815290600101906020018083116119d257829003601f168201915b50505050508152602001600582018054611a0890615415565b80601f0160208091040260200160405190810160405280929190818152602001828054611a3490615415565b8015611a815780601f10611a5657610100808354040283529160200191611a81565b820191906000526020600020905b815481529060010190602001808311611a6457829003601f168201915b50505091909252505050604083015250919050565b611a9e613018565b336000818152600760209081526040808320805464ffffffffff421664ffffffffff199091161790558683526002909152902060018101549091600160501b9091046001600160a01b031614801590611b04575060028101546001600160a01b03163314155b15611b225760405163068690bf60e11b815260040160405180910390fd5b60018154600160f01b900460ff166005811115611b4157611b41614943565b14611b5f57604051636f20b45d60e11b815260040160405180910390fd5b611b6c8484846005613042565b805460ff60f01b1916600560f01b17815560018101805464ffffffffff60281b1916600160281b4264ffffffffff16021790819055611bbb90600160501b90046001600160a01b0316856132db565b6002810154611bd3906001600160a01b0316856132db565b6000808254600160f81b900460ff166001811115611bf357611bf3614943565b14611c085781546001600160801b0316611c1e565b8154611c1e906001600160801b031660026154a1565b60038301546002840154919250611c42916001600160a01b039182169116836134dd565b60018201546002830154611c6a916001600160a01b03600160501b9091048116911687613370565b336000908152600760205260409020805460019190600590611c97908490600160281b900460030b6153da565b825463ffffffff9182166101009390930a928302919092021990911617905550600282015460018301546040516001600160a01b0392831692600160501b9092049091169087906000805160206157dc83398151915290610b2190600590615407565b611d02614821565b6000828152600260205260408120908154600160f01b900460ff166005811115611d2e57611d2e614943565b03611d4c5760405163223da47360e21b815260040160405180910390fd5b828252604080516101808101825282546001600160801b0381168252600160801b81046001600160601b03166020830152600160e01b810461ffff16928201929092529082906060830190600160f01b900460ff166005811115611db257611db2614943565b6005811115611dc357611dc3614943565b81528154602090910190600160f81b900460ff166001811115611de857611de8614943565b6001811115611df957611df9614943565b8152600182015464ffffffffff8082166020840152600160281b82041660408301526001600160a01b03600160501b9091048116606083015260028301548116608083015260038301541660a082015260048201805460c090920191611e5e90615415565b80601f0160208091040260200160405190810160405280929190818152602001828054611e8a90615415565b8015611ed75780601f10611eac57610100808354040283529160200191611ed7565b820191906000526020600020905b815481529060010190602001808311611eba57829003601f168201915b5050505050815260200160058201805480602002602001604051908101604052809291908181526020016000905b82821015612025576000848152602090819020604080516080810190915260028502909101805464ffffffffff811683529192909190830190600160281b900460ff166005811115611f5957611f59614943565b6005811115611f6a57611f6a614943565b81528154600160301b900460ff1615156020820152600182018054604090920191611f9490615415565b80601f0160208091040260200160405190810160405280929190818152602001828054611fc090615415565b801561200d5780601f10611fe25761010080835404028352916020019161200d565b820191906000526020600020905b815481529060010190602001808311611ff057829003601f168201915b50505050508152505081526020019060010190611f05565b50505091525050602083015250919050565b336000908152600760209081526040808320805464ffffffffff19164264ffffffffff16179055858352600291829052909120908154600160f01b900460ff16600581111561208857612088614943565b146120a657604051636f20b45d60e11b815260040160405180910390fd5b60008154600160f81b900460ff1660018111156120c5576120c5614943565b1480156120e657506001810154600160501b90046001600160a01b03163314155b80612125575060018154600160f81b900460ff16600181111561210b5761210b614943565b148015612125575060028101546001600160a01b03163314155b15612143576040516330698c3d60e01b815260040160405180910390fd5b805460ff60f01b1916600360f01b17815560018101805464ffffffffff60281b1916600160281b4264ffffffffff1602179081905560028201546040516001600160a01b0391821692600160501b90049091169086906000805160206157dc833981519152906121b590600390615407565b60405180910390a46121ca8484846003613042565b50505050565b60606000600960006121e3898989613510565b81526020019081526020016000209050826000036122015750610f16565b61220c818585613546565b979650505050505050565b606060006009600061222a898989613510565b815260208101919091526040016000208054909150808510158061224c575083155b15612258575050610f16565b6000612264858761544f565b90508581108061227357508181115b1561227b5750805b60006122878783615462565b9050806001600160401b038111156122a1576122a1615475565b6040519080825280602002602001820160405280156122ca578160200160208202803683370190505b50945060005b81811015610f1057846122e3828a61544f565b815481106122f3576122f361548b565b90600052602060002001548682815181106123105761231061548b565b60209081029190910101526001016122d0565b6001600160a01b0381166000908152600560205260408120548190612352906001600160401b031660016154ca565b905082816040516020016123679291906154e9565b604051602081830303815290604052805190602001209150915091565b6001600160a01b0381166000908152600360205260408120548190612352906001600160401b031660016154ca565b6002602081905260009182526040909120805460018201549282015460038301546004840180546001600160801b038516966001600160601b03600160801b8704169661ffff600160e01b8804169660ff600160f01b8204811697600160f81b909204169564ffffffffff80851696600160281b8604909116956001600160a01b03600160501b90960486169593841694929093169261245290615415565b80601f016020809104026020016040519081016040528092919081815260200182805461247e90615415565b80156124cb5780601f106124a0576101008083540402835291602001916124cb565b820191906000526020600020905b8154815290600101906020018083116124ae57829003601f168201915b505050505090508b565b600083815260026020526040902060050180546060919080851015806124f9575083155b1561250557505061069a565b6000612511858761544f565b90508581108061252057508181115b156125285750805b60006125348783615462565b9050806001600160401b0381111561254e5761254e615475565b60405190808252806020026020018201604052801561259f57816020015b604080516080810182526000808252602080830182905292820152606080820152825260001990920191018161256c5790505b50945060005b8181101561109f576000856125ba838b61544f565b815481106125ca576125ca61548b565b60009182526020918290206040805160808101909152600290920201805464ffffffffff81168352909350909182019060ff600160281b90910416600581111561261657612616614943565b81528254600160301b900460ff161515602082015260018301805460409092019161264090615415565b80601f016020809104026020016040519081016040528092919081815260200182805461266c90615415565b80156126b95780601f1061268e576101008083540402835291602001916126b9565b820191906000526020600020905b81548152906001019060200180831161269c57829003601f168201915b50505050508152508783815181106126d3576126d361548b565b6020908102919091010152506001016125a5565b6000600960006126f8868686613510565b8152602081019190915260400160002054949350505050565b33600081815260076020526040908190208054841515600160681b0264ffffffffff60ff60681b011990911664ffffffffff421617179055517fbf7433268f9e84553144e23f130bdb514d559f991d19288c0e6d0ad00440636e9061277b90841515815260200190565b60405180910390a250565b6060811561069a576001600160a01b0384166000908152600d60205260409020610697908484612b5d565b6001600160a01b03831660009081526004602090815260408083203384529091528120818460018111156127e7576127e7614943565b60018111156127f8576127f8614943565b81526020808201929092526040908101600090812061ffff861682529092529020549050801561293457600081815260016020819052604090912090810154600160601b900464ffffffffff16156128c9576000612857868686613510565b90506128638184613dfb565b61286d3384613ef4565b6000838152600160208190526040822082815590810180546001600160a01b0319908116909155600282018054821690556003820180549091169055906128b76004830182614899565b6128c5600583016000614899565b5050505b6001600160a01b03851660009081526004602090815260408083203384529091528120908560018111156128ff576128ff614943565b600181111561291057612910614943565b81526020808201929092526040908101600090812061ffff87168252909252812055505b604051339082907fd034e926f773a0c87edbfa278bc873a1c38db139e706540f2decb2e16863e21a90600090a350505050565b6001600160a01b0383166000908152600b6020526040812060609183900361298f575061069a565b610f16818585613546565b6129ac8b8b8b8b8b8b8b8b8b8b614021565b6118353382613d7a565b6129be613018565b336000818152600760209081526040808320805464ffffffffff421664ffffffffff199091161790558683526002909152902060018101549091600160501b9091046001600160a01b031614612a275760405163068690bf60e11b815260040160405180910390fd5b60018154600160f01b900460ff166005811115612a4657612a46614943565b14612a6457604051636f20b45d60e11b815260040160405180910390fd5b6000808254600160f81b900460ff166001811115612a8457612a84614943565b14612aa4578154612a9f906001600160801b031660026154a1565b612ab0565b81546001600160801b03165b6003830154909150612acc906001600160a01b031633836141bf565b815460ff60f01b1916600160f11b17825560018201805464ffffffffff60281b1916600160281b4264ffffffffff160217908190556002808401546040516001600160a01b0391821693600160501b90049091169188916000805160206157dc83398151915291612b3c91615407565b60405180910390a4612b518585856002613042565b50506106f16001600055565b82546060908084101580612b6f575082155b15612b7a575061069a565b6000612b86848661544f565b905084811080612b9557508181115b15612b9d5750805b6000855b82811015612c2e576000600260008a8481548110612bc157612bc161548b565b90600052602060002001548152602001908152602001600020905060006005811115612bef57612bef614943565b8154600160f01b900460ff166005811115612c0c57612c0c614943565b03612c175750612c26565b82612c2181615513565b935050505b600101612ba1565b50806001600160401b03811115612c4757612c47615475565b604051908082528060200260200182016040528015612c8057816020015b612c6d614821565b815260200190600190039081612c655790505b5093506000865b8381101561109f576000898281548110612ca357612ca361548b565b6000918252602080832090910154808352600290915260408220909250908154600160f01b900460ff166005811115612cde57612cde614943565b03612cea575050613010565b604080516101808101825282546001600160801b0381168252600160801b81046001600160601b03166020830152600160e01b810461ffff169282019290925260009183906060830190600160f01b900460ff166005811115612d4f57612d4f614943565b6005811115612d6057612d60614943565b81528154602090910190600160f81b900460ff166001811115612d8557612d85614943565b6001811115612d9657612d96614943565b8152600182015464ffffffffff8082166020840152600160281b82041660408301526001600160a01b03600160501b9091048116606083015260028301548116608083015260038301541660a082015260048201805460c090920191612dfb90615415565b80601f0160208091040260200160405190810160405280929190818152602001828054612e2790615415565b8015612e745780601f10612e4957610100808354040283529160200191612e74565b820191906000526020600020905b815481529060010190602001808311612e5757829003601f168201915b5050505050815260200160058201805480602002602001604051908101604052809291908181526020016000905b82821015612fc2576000848152602090819020604080516080810190915260028502909101805464ffffffffff811683529192909190830190600160281b900460ff166005811115612ef657612ef6614943565b6005811115612f0757612f07614943565b81528154600160301b900460ff1615156020820152600182018054604090920191612f3190615415565b80601f0160208091040260200160405190810160405280929190818152602001828054612f5d90615415565b8015612faa5780601f10612f7f57610100808354040283529160200191612faa565b820191906000526020600020905b815481529060010190602001808311612f8d57829003601f168201915b50505050508152505081526020019060010190612ea2565b50505050815250509050604051806040016040528084815260200182815250898681518110612ff357612ff361548b565b6020026020010181905250848061300990615513565b9550505050505b600101612c87565b60026000540361303b57604051633ee5aeb560e01b815260040160405180910390fd5b6002600055565b60008481526002602052604090206001810154600160501b90046001600160a01b03163314801590613081575060028101546001600160a01b03163314155b1561309f5760405163068690bf60e11b815260040160405180910390fd5b8054600160f01b900460ff1660018160058111156130bf576130bf614943565b141580156130df575060028160058111156130dc576130dc614943565b14155b80156130fd575060038160058111156130fa576130fa614943565b14155b1561311b57604051636f20b45d60e11b815260040160405180910390fd5b600282015460408051608081019091524264ffffffffff1681526001600160a01b039091163314908490600580860191906020820190849081111561316257613162614943565b8152602001841515815260200189898080601f016020809104026020016040519081016040528093929190818152602001838380828437600092018290525093909452505083546001810185559381526020908190208351600290950201805464ffffffffff19811664ffffffffff909616958617825591840151939490939250839165ffffffffffff191617600160281b83600581111561320657613206614943565b021790555060408201518154901515600160301b0260ff60301b199091161781556060820151600182019061323b9082615588565b505050600584015460009061325290600190615462565b905060008361326e5760028601546001600160a01b0316613284565b6001860154600160501b90046001600160a01b03165b60405163ffffffff841681529091506001600160a01b0382169033908c907f8881ad3af510f47be7b5b01ded7d660ce9fc4e822abbc3cb101005230a171cfb9060200160405180910390a450505050505050505050565b6001600160a01b0382166000908152601060209081526040808320848452909152812054900361336c576001600160a01b0382166000908152600f602052604090205461332990600161544f565b6001600160a01b0383166000818152601060209081526040808320868452825280832094909455918152600f825291822080546001810182559083529120018190555b5050565b61337a8382614310565b6106f18282614310565b600061271061339d60326001600160801b038516615640565b6133a79190615657565b90506133b886846115cf8486615679565b6001600160a01b03808616600090815260066020526040812054839216908115613427576127106133f46107d06001600160801b038716615640565b6133fe9190615657565b90506001600160801b038116156134275761341a8983836134dd565b6134248184615679565b92505b6001600160a01b03808816600090815260066020526040902054168015613497576000612710613462610bb86001600160801b038916615640565b61346c9190615657565b90506001600160801b03811615613495576134888b83836134dd565b6134928186615679565b94505b505b6001600160801b038416156134d1576134d18a7f0000000000000000000000000000000000000000000000000000000000000000866134dd565b50505050505050505050565b806001600160801b03166000036134f357505050565b6106f16001600160a01b038416836001600160801b03841661443c565b600083838360405160200161352793929190615698565b6040516020818303038152906040528051906020012090509392505050565b82546060908084101580613558575082155b15613563575061069a565b600061356f848661544f565b90508481108061357e57508181115b156135865750805b6000855b828110156135ff5760008882815481106135a6576135a661548b565b60009182526020808320919091015480835260019182905260408320918201549093509091600160601b90910464ffffffffff1690036135e75750506135f7565b836135f181615513565b94505050505b60010161358a565b50806001600160401b0381111561361857613618615475565b60405190808252806020026020018201604052801561365157816020015b61363e6147b0565b8152602001906001900390816136365790505b5093506000865b8381101561109f5760008982815481106136745761367461548b565b60009182526020808320919091015480835260019182905260408320918201549093509091600160601b90910464ffffffffff1690036136b55750506138f3565b604080516101408101825282546001600160801b038082168352600160801b9091041660208201526001808401546001600160601b03811693830193909352600160601b830464ffffffffff166060830152600160881b830461ffff166080830152600092849160a0840191600160981b900460ff169081111561373b5761373b614943565b600181111561374c5761374c614943565b815260028201546001600160a01b039081166020830152600383015416604082015260048201805460609092019161378390615415565b80601f01602080910402602001604051908101604052809291908181526020018280546137af90615415565b80156137fc5780601f106137d1576101008083540402835291602001916137fc565b820191906000526020600020905b8154815290600101906020018083116137df57829003601f168201915b5050505050815260200160058201805461381590615415565b80601f016020809104026020016040519081016040528092919081815260200182805461384190615415565b801561388e5780601f106138635761010080835404028352916020019161388e565b820191906000526020600020905b81548152906001019060200180831161387157829003601f168201915b5050509190925250506040805160608101825286815260038601546001600160a01b031660208201529081018390528b51929350918b9150879081106138d6576138d661548b565b602002602001018190525084806138ec90615513565b9550505050505b600101613658565b6001600160a01b03808a166000908152600460209081526040808320938b1683529290529081208190818b600181111561393757613937614943565b600181111561394857613948614943565b81526020808201929092526040908101600090812061ffff8a1682528352818120548082526001909352206003810154919250906001600160a01b038b81169116146139a757604051636df5846d60e01b815260040160405180910390fd5b6001600160a01b038a16600090815260076020526040902054600160681b900460ff166139e75760405163a1231e1f60e01b815260040160405180910390fd5b60008b60018111156139fb576139fb614943565b03613a365760018101546001600160601b0380881691161015613a3157604051630bb46cf960e11b815260040160405180910390fd5b613a67565b60018101546001600160601b0380881691161115613a6757604051630bb46cf960e11b815260040160405180910390fd5b80546001600160801b039081169089161080613a97575080546001600160801b03600160801b9091048116908916115b15613ab5576040516327466a8f60e11b815260040160405180910390fd5b6000808c6001811115613aca57613aca614943565b14613ad55788613ae0565b613ae08960026154a1565b9050613aed8d8b836141bf565b6001600160a01b038a16600090815260056020526040812080548290613b1b906001600160401b03166156c7565b91906101000a8154816001600160401b0302191690836001600160401b03160217905590508a81604051602001613b539291906154e9565b60408051601f19818403018152918152815160209283012060008181526002909352912080546001600160801b038d166001600160801b0319821681178355600187810154600160801b6001600160601b03909116026001600160e01b0319909316909117919091178083559297509091429190839060ff60f01b1916600160f01b83021790555081548f9083906001600160f81b0316600160f81b836001811115613c0157613c01614943565b02179055508d82600101600a6101000a8154816001600160a01b0302191690836001600160a01b031602179055508c8260020160006101000a8154816001600160a01b0302191690836001600160a01b031602179055508a82600001601c6101000a81548161ffff021916908361ffff160217905550808260010160006101000a81548164ffffffffff021916908364ffffffffff160217905550808260010160056101000a81548164ffffffffff021916908364ffffffffff1602179055508f8260030160006101000a8154816001600160a01b0302191690836001600160a01b031602179055508888836004019182613cfd9291906156f3565b505050505050509998505050505050505050565b6001600160a01b0382166000908152600d6020526040902054613d3590600161544f565b6001600160a01b039092166000818152600e60209081526040808320858452825280832095909555918152600d82529283208054600181018255908452922090910155565b6001600160a01b03811615801590613da45750816001600160a01b0316816001600160a01b031614155b8015613dc857506001600160a01b0382811660009081526006602052604090205416155b1561336c576001600160a01b03918216600090815260066020526040902080546001600160a01b03191691909216179055565b6000828152600a60209081526040808320848452918290528220549091819003613e255750505050565b600084815260096020526040812090613e3f600184615462565b8254909150600090613e5390600190615462565b9050808214613eaf576000838281548110613e7057613e7061548b565b9060005260206000200154905080848481548110613e9057613e9061548b565b6000918252602080832090910192909255918252869052604090208490555b82805480613ebf57613ebf6157ac565b600190038181906000526020600020016000905590558460008781526020019081526020016000206000905550505050505050565b6001600160a01b0382166000908152600c6020908152604080832084845290915281205490819003613f2557505050565b6001600160a01b0383166000908152600b6020526040812090613f49600184615462565b8254909150600090613f5d90600190615462565b9050808214613fcc576000838281548110613f7a57613f7a61548b565b9060005260206000200154905080848481548110613f9a57613f9a61548b565b60009182526020808320909101929092556001600160a01b0389168152600c8252604080822093825292909152208490555b82805480613fdc57613fdc6157ac565b6000828152602080822083016000199081018390559092019092556001600160a01b039097168152600c87526040808220968252959096525050509082209190915550565b600061402f8b338c8c61449b565b60008181526001602081905260409091209081015491925090600160601b900464ffffffffff161580156140e1576001808301805461ffff8e16600160881b0261ffff60881b198216811783558f9360ff60981b1990911662ffffff60881b199092169190911790600160981b9084908111156140ae576140ae614943565b02179055506002820180546001600160a01b038f166001600160a01b031991821617909155600383018054909116331790555b6001600160801b03888116600160801b02908a161782556001820180546001600160601b038c166001600160601b0319909116179055600482016141268789836156f3565b50600582016141368587836156f3565b5060018201805464ffffffffff60601b1916600160601b4264ffffffffff160217905560006141668e8e8e613510565b90508115614182576141788185614601565b6141823385614670565b604051339085907f4a0f066f959faaaee735f67f0fb4dc5e1507bb5920edaec3bb18fd182a4dbca390600090a35050505050505050505050505050565b806001600160801b03166000036141d557505050565b6040516370a0823160e01b81526000906001600160a01b038516906370a0823190614204903090600401615232565b602060405180830381865afa158015614221573d6000803e3d6000fd5b505050506040513d601f19601f8201168201806040525081019061424591906157c2565b90506142656001600160a01b03851684306001600160801b038616614706565b6040516370a0823160e01b81526000906001600160a01b038616906370a0823190614294903090600401615232565b602060405180830381865afa1580156142b1573d6000803e3d6000fd5b505050506040513d601f19601f820116820180604052508101906142d591906157c2565b90506001600160801b0383166142eb8383615462565b1461430957604051631033736160e11b815260040160405180910390fd5b5050505050565b6001600160a01b0382166000908152600e602090815260408083208484529091528120549081900361434157505050565b600061434e600183615462565b6001600160a01b0385166000908152600d6020526040812080549293509161437890600190615462565b90508083146143e75760008282815481106143955761439561548b565b90600052602060002001549050808385815481106143b5576143b561548b565b60009182526020808320909101929092556001600160a01b0389168152600e8252604080822093825292909152208490555b818054806143f7576143f76157ac565b6000828152602080822083016000199081018390559092019092556001600160a01b039097168152600e87526040808220968252959096525050509082209190915550565b6040516001600160a01b038381166024830152604482018390526106f191859182169063a9059cbb906064015b604051602081830303815290604052915060e01b6020820180516001600160e01b03838183161783525050505061473f565b6001600160a01b0380851660009081526004602090815260408083209387168352929052908120818460018111156144d5576144d5614943565b60018111156144e6576144e6614943565b81526020808201929092526040908101600090812061ffff86168252909252902054905080610f95576001600160a01b03841660009081526003602052604081208054829061453d906001600160401b03166156c7565b91906101000a8154816001600160401b0302191690836001600160401b031602179055905084816040516020016145759291906154e9565b60408051601f1981840301815291815281516020928301206001600160a01b03808a16600090815260048552838120918a168152935290822090935083918660018111156145c5576145c5614943565b60018111156145d6576145d6614943565b81526020808201929092526040908101600090812061ffff8816825290925290205550949350505050565b6000828152600a6020908152604080832084845291829052909120541561462757505050565b60008381526009602052604090205461464190600161544f565b600083815260209283526040808220929092559384526009825283208054600181018255908452922090910155565b6001600160a01b0382166000908152600c602090815260408083208484529091529020541561469d575050565b6001600160a01b0382166000908152600b60205260409020546146c190600161544f565b6001600160a01b039092166000818152600c60209081526040808320858452825280832095909555918152600b82529283208054600181018255908452922090910155565b6040516001600160a01b0384811660248301528381166044830152606482018390526121ca9186918216906323b872dd90608401614469565b600080602060008451602086016000885af180614762576040513d6000823e3d81fd5b50506000513d9150811561477a578060011415614787565b6001600160a01b0384163b155b156121ca5783604051635274afe760e01b81526004016147a79190615232565b60405180910390fd5b604080516060810182526000808252602082015290810161481c604080516101408101825260008082526020820181905291810182905260608101829052608081018290529060a082019081526000602082018190526040820152606080820181905260809091015290565b905290565b60408051808201909152600081526020810161481c60408051610180810182526000808252602082018190529181018290529060608201908152602001600081526000602082018190526040820181905260608083018290526080830182905260a083019190915260c0820181905260e09091015290565b5080546148a590615415565b6000825580601f106148b5575050565b601f01602090049060005260206000209081019061077191905b808211156148e357600081556001016148cf565b5090565b80356001600160a01b03811681146148fe57600080fd5b919050565b60008060006060848603121561491857600080fd5b614921846148e7565b95602085013595506040909401359392505050565b6001600160801b03169052565b634e487b7160e01b600052602160045260246000fd5b6006811061496957614969614943565b9052565b6002811061496957614969614943565b6001600160a01b03169052565b6000815180845260005b818110156149b057602081850181015186830182015201614994565b506000602082860101526020601f19601f83011685010191505092915050565b600082825180855260208501945060208160051b8301016020850160005b83811015614a5d57601f19858403018852815164ffffffffff81511684526020810151614a1e6020860182614959565b506040810151151560408501526060810151905060806060850152614a46608085018261498a565b6020998a01999094509290920191506001016149ee565b50909695505050505050565b805182526000602082015160406020850152614a89604085018251614936565b60208101516001600160601b0316606085810191909152604082015161ffff166080860152810151614abe60a0860182614959565b506080810151614ad160c086018261496d565b5060a081015164ffffffffff811660e08601525060c081015164ffffffffff81166101008601525060e0810151614b0c61012086018261497d565b50610100810151614b2161014086018261497d565b50610120810151614b3661016086018261497d565b5061014081015161018080860152614b526101c086018261498a565b90506101608201519150603f19858203016101a0860152610f1681836149d0565b6000602082016020835280845180835260408501915060408160051b86010192506020860160005b82811015614bcc57603f19878603018452614bb7858351614a69565b94506020938401939190910190600101614b9b565b50929695505050505050565b600060208284031215614bea57600080fd5b5035919050565b60008083601f840112614c0357600080fd5b5081356001600160401b03811115614c1a57600080fd5b602083019150836020828501011115614c3257600080fd5b9250929050565b600080600060408486031215614c4e57600080fd5b8335925060208401356001600160401b03811115614c6b57600080fd5b614c7786828701614bf1565b9497909650939450505050565b6000602082016020835280845180835260408501915060408160051b86010192506020860160005b82811015614bcc57603f19878603018452815164ffffffffff81511686526020810151614cdc6020880182614959565b506040810151151560408701526060810151905060806060870152614d04608087018261498a565b9550506020938401939190910190600101614cac565b602080825282518282018190526000918401906040840190835b81811015614d52578351835260209384019390920191600101614d34565b509095945050505050565b8035600281106148fe57600080fd5b803561ffff811681146148fe57600080fd5b600080600080600060a08688031215614d9657600080fd5b614d9f866148e7565b9450614dad60208701614d5d565b9350614dbb60408701614d6c565b94979396509394606081013594506080013592915050565b602080825282518282018190526000918401906040840190835b81811015614d525783516001600160a01b0316835260209384019390920191600101614ded565b600060208284031215614e2657600080fd5b61069a826148e7565b60008060008060808587031215614e4557600080fd5b614e4e856148e7565b9350614e5c602086016148e7565b9250614e6a60408601614d5d565b9150614e7860608601614d6c565b905092959194509250565b60008060208385031215614e9657600080fd5b82356001600160401b03811115614eac57600080fd5b8301601f81018513614ebd57600080fd5b80356001600160401b03811115614ed357600080fd5b8560208260051b8401011115614ee857600080fd5b6020919091019590945092505050565b602080825282518282018190526000918401906040840190835b81811015614d5257835164ffffffffff8151168452602081015160030b6020850152604081015160030b60408501526060810151151560608501526080810151608085015260a081015160a08501525060c083019250602084019350600181019050614f12565b600080600060608486031215614f8e57600080fd5b614f97846148e7565b9250614fa560208501614d5d565b9150614fb360408501614d6c565b90509250925092565b8051825260018060a01b0360208201511660208301526000604082015160606040850152614fee606085018251614936565b60208101516150006080860182614936565b5060408101516001600160601b031660a085810191909152606082015164ffffffffff1660c0860152608082015161ffff1660e086015281015161504861010086018261496d565b5060c081015161505c61012086018261497d565b5060e081015161507061014086018261497d565b5061010081015161014061016086015261508e6101a086018261498a565b90506101208201519150605f1985820301610180860152610f16818361498a565b6000602082016020835280845180835260408501915060408160051b86010192506020860160005b82811015614bcc57603f198786030184526150f3858351614fbc565b945060209384019391909101906001016150d7565b80356001600160801b03811681146148fe57600080fd5b80356001600160601b03811681146148fe57600080fd5b60008060008060008060008060008060006101208c8e03121561515857600080fd5b6151618c6148e7565b9a5061516f60208d01614d5d565b995061517d60408d016148e7565b985061518b60608d01615108565b975061519960808d01614d6c565b96506151a760a08d0161511f565b955060c08c01356001600160401b038111156151c257600080fd5b6151ce8e828f01614bf1565b90965094505060e08c01356001600160401b038111156151ed57600080fd5b6151f98e828f01614bf1565b909450925061520d90506101008d016148e7565b90509295989b509295989b9093969950565b60208152600061069a6020830184614fbc565b6001600160a01b0391909116815260200190565b60208152600061069a6020830184614a69565b6001600160801b038c1681526001600160601b038b16602082015261ffff8a16604082015261528b606082018a614959565b615298608082018961496d565b64ffffffffff871660a082015264ffffffffff861660c08201526152bf60e082018661497d565b6152cd61010082018561497d565b6152db61012082018461497d565b61016061014082015260006152f461016083018461498a565b9d9c50505050505050505050505050565b60008060006060848603121561531a57600080fd5b505081359360208301359350604090920135919050565b60006020828403121561534357600080fd5b8135801515811461069a57600080fd5b60008060008060008060008060008060006101208c8e03121561537557600080fd5b61537e8c6148e7565b9a5061538c60208d01614d5d565b995061539a60408d01614d6c565b98506153a860608d0161511f565b97506153b660808d01615108565b96506151a760a08d01615108565b634e487b7160e01b600052601160045260246000fd5b600381810b9083900b01637fffffff8113637fffffff1982121715615401576154016153c4565b92915050565b602081016154018284614959565b600181811c9082168061542957607f821691505b60208210810361544957634e487b7160e01b600052602260045260246000fd5b50919050565b80820180821115615401576154016153c4565b81810381811115615401576154016153c4565b634e487b7160e01b600052604160045260246000fd5b634e487b7160e01b600052603260045260246000fd5b6001600160801b0381811683821602908116908181146154c3576154c36153c4565b5092915050565b6001600160401b038181168382160190811115615401576154016153c4565b60609290921b6001600160601b031916825260c01b6001600160c01b0319166014820152601c0190565b600060018201615525576155256153c4565b5060010190565b601f8211156106f157806000526020600020601f840160051c810160208510156155535750805b601f840160051c820191505b81811015614309576000815560010161555f565b600019600383901b1c191660019190911b1790565b81516001600160401b038111156155a1576155a1615475565b6155b5816155af8454615415565b8461552c565b6020601f8211600181146155e357600083156155d15750848201515b6155db8482615573565b855550614309565b600084815260208120601f198516915b8281101561561357878501518255602094850194600190920191016155f3565b50848210156156315786840151600019600387901b60f8161c191681555b50505050600190811b01905550565b8082028115828204841417615401576154016153c4565b60008261567457634e487b7160e01b600052601260045260246000fd5b500490565b6001600160801b038281168282160390811115615401576154016153c4565b6001600160a01b0384168152606081016156b5602083018561496d565b61ffff83166040830152949350505050565b60006001600160401b0382166002600160401b031981016156ea576156ea6153c4565b60010192915050565b6001600160401b0383111561570a5761570a615475565b61571e836157188354615415565b8361552c565b6000601f84116001811461574c576000851561573a5750838201355b6157448682615573565b845550614309565b600083815260209020601f19861690835b8281101561577d578685013582556020948501946001909201910161575d565b508682101561579a5760001960f88860031b161c19848701351681555b505060018560011b0183555050505050565b634e487b7160e01b600052603160045260246000fd5b6000602082840312156157d457600080fd5b505191905056fe1be6d5b0b71452d3467425b57f71ccf98ba98a86cabe2779b8a52996704b647fa2646970667358221220b250b4a98a03996e99d6242e56562469710440c7902661ed5c62960406e59df264736f6c634300081c0033",
  "linkReferences": {},
  "deployedLinkReferences": {},
  "immutableReferences": {
    "1552": [
      {
        "length": 32,
        "start": 13484
      }
    ]
  },
  "inputSourceName": "project/contracts/Swap2p.sol",
  "buildInfoId": "solc-0_8_28-b17f62340e2bf8b1a890ecf881c939df8cdbd1d3"
}